{
  "contractName": "DiplomaStorage",
  "abi": [
    {
      "inputs": [],
      "payable": false,
      "stateMutability": "nonpayable",
      "type": "constructor"
    },
    {
      "anonymous": false,
      "inputs": [
        {
          "indexed": false,
          "internalType": "uint256",
          "name": "idDegree",
          "type": "uint256"
        },
        {
          "indexed": false,
          "internalType": "uint256",
          "name": "idSchool",
          "type": "uint256"
        },
        {
          "indexed": false,
          "internalType": "uint256",
          "name": "year",
          "type": "uint256"
        },
        {
          "indexed": false,
          "internalType": "string",
          "name": "nameDegree",
          "type": "string"
        },
        {
          "indexed": false,
          "internalType": "string",
          "name": "schoolName",
          "type": "string"
        }
      ],
      "name": "DegreeCreated",
      "type": "event"
    },
    {
      "anonymous": false,
      "inputs": [
        {
          "indexed": false,
          "internalType": "uint256",
          "name": "idDegree",
          "type": "uint256"
        },
        {
          "indexed": false,
          "internalType": "uint256",
          "name": "idStudent",
          "type": "uint256"
        },
        {
          "indexed": false,
          "internalType": "bool",
          "name": "valid",
          "type": "bool"
        },
        {
          "indexed": false,
          "internalType": "address",
          "name": "creator",
          "type": "address"
        }
      ],
      "name": "DiplomaCreated",
      "type": "event"
    },
    {
      "anonymous": false,
      "inputs": [
        {
          "indexed": false,
          "internalType": "uint256",
          "name": "idSchool",
          "type": "uint256"
        },
        {
          "indexed": false,
          "internalType": "string",
          "name": "schoolName",
          "type": "string"
        },
        {
          "indexed": false,
          "internalType": "address",
          "name": "editor",
          "type": "address"
        }
      ],
      "name": "SchoolCreated",
      "type": "event"
    },
    {
      "anonymous": false,
      "inputs": [
        {
          "indexed": false,
          "internalType": "uint256",
          "name": "idStudent",
          "type": "uint256"
        },
        {
          "indexed": false,
          "internalType": "uint256",
          "name": "INE",
          "type": "uint256"
        },
        {
          "indexed": false,
          "internalType": "string",
          "name": "firstName",
          "type": "string"
        },
        {
          "indexed": false,
          "internalType": "string",
          "name": "lastName",
          "type": "string"
        },
        {
          "indexed": false,
          "internalType": "uint256",
          "name": "birth",
          "type": "uint256"
        }
      ],
      "name": "StudentCreated",
      "type": "event"
    },
    {
      "constant": true,
      "inputs": [],
      "name": "degreeCount",
      "outputs": [
        {
          "internalType": "uint256",
          "name": "",
          "type": "uint256"
        }
      ],
      "payable": false,
      "stateMutability": "view",
      "type": "function"
    },
    {
      "constant": true,
      "inputs": [
        {
          "internalType": "uint256",
          "name": "",
          "type": "uint256"
        }
      ],
      "name": "degrees",
      "outputs": [
        {
          "internalType": "string",
          "name": "name",
          "type": "string"
        },
        {
          "internalType": "string",
          "name": "schoolName",
          "type": "string"
        },
        {
          "internalType": "uint256",
          "name": "year",
          "type": "uint256"
        },
        {
          "internalType": "uint256",
          "name": "schoolId",
          "type": "uint256"
        },
        {
          "internalType": "address",
          "name": "editor",
          "type": "address"
        }
      ],
      "payable": false,
      "stateMutability": "view",
      "type": "function"
    },
    {
      "constant": true,
      "inputs": [],
      "name": "diplomaCount",
      "outputs": [
        {
          "internalType": "uint256",
          "name": "",
          "type": "uint256"
        }
      ],
      "payable": false,
      "stateMutability": "view",
      "type": "function"
    },
    {
      "constant": true,
      "inputs": [
        {
          "internalType": "uint256",
          "name": "",
          "type": "uint256"
        }
      ],
      "name": "diplomas",
      "outputs": [
        {
          "internalType": "uint256",
          "name": "idDegree",
          "type": "uint256"
        },
        {
          "internalType": "uint256",
          "name": "idStudent",
          "type": "uint256"
        },
        {
          "internalType": "bool",
          "name": "valid",
          "type": "bool"
        },
        {
          "internalType": "address",
          "name": "creator",
          "type": "address"
        }
      ],
      "payable": false,
      "stateMutability": "view",
      "type": "function"
    },
    {
      "constant": true,
      "inputs": [
        {
          "internalType": "uint256",
          "name": "",
          "type": "uint256"
        }
      ],
      "name": "mas",
      "outputs": [
        {
          "internalType": "address",
          "name": "",
          "type": "address"
        }
      ],
      "payable": false,
      "stateMutability": "view",
      "type": "function"
    },
    {
      "constant": true,
      "inputs": [],
      "name": "master",
      "outputs": [
        {
          "internalType": "address payable",
          "name": "",
          "type": "address"
        }
      ],
      "payable": false,
      "stateMutability": "view",
      "type": "function"
    },
    {
      "constant": true,
      "inputs": [],
      "name": "masterCount",
      "outputs": [
        {
          "internalType": "uint256",
          "name": "",
          "type": "uint256"
        }
      ],
      "payable": false,
      "stateMutability": "view",
      "type": "function"
    },
    {
      "constant": true,
      "inputs": [
        {
          "internalType": "uint256",
          "name": "",
          "type": "uint256"
        }
      ],
      "name": "masters",
      "outputs": [
        {
          "internalType": "address",
          "name": "",
          "type": "address"
        }
      ],
      "payable": false,
      "stateMutability": "view",
      "type": "function"
    },
    {
      "constant": true,
      "inputs": [],
      "name": "schoolCount",
      "outputs": [
        {
          "internalType": "uint256",
          "name": "",
          "type": "uint256"
        }
      ],
      "payable": false,
      "stateMutability": "view",
      "type": "function"
    },
    {
      "constant": true,
      "inputs": [
        {
          "internalType": "uint256",
          "name": "",
          "type": "uint256"
        }
      ],
      "name": "schools",
      "outputs": [
        {
          "internalType": "string",
          "name": "name",
          "type": "string"
        },
        {
          "internalType": "address",
          "name": "editor",
          "type": "address"
        }
      ],
      "payable": false,
      "stateMutability": "view",
      "type": "function"
    },
    {
      "constant": true,
      "inputs": [],
      "name": "studentCount",
      "outputs": [
        {
          "internalType": "uint256",
          "name": "",
          "type": "uint256"
        }
      ],
      "payable": false,
      "stateMutability": "view",
      "type": "function"
    },
    {
      "constant": true,
      "inputs": [
        {
          "internalType": "uint256",
          "name": "",
          "type": "uint256"
        }
      ],
      "name": "students",
      "outputs": [
        {
          "internalType": "uint256",
          "name": "id",
          "type": "uint256"
        },
        {
          "internalType": "uint256",
          "name": "INE",
          "type": "uint256"
        },
        {
          "internalType": "string",
          "name": "firstName",
          "type": "string"
        },
        {
          "internalType": "string",
          "name": "lastName",
          "type": "string"
        },
        {
          "internalType": "uint256",
          "name": "birth",
          "type": "uint256"
        },
        {
          "internalType": "address",
          "name": "editor",
          "type": "address"
        }
      ],
      "payable": false,
      "stateMutability": "view",
      "type": "function"
    },
    {
      "constant": false,
      "inputs": [
        {
          "internalType": "uint256",
          "name": "_INE",
          "type": "uint256"
        },
        {
          "internalType": "string",
          "name": "_firstName",
          "type": "string"
        },
        {
          "internalType": "string",
          "name": "_lastName",
          "type": "string"
        },
        {
          "internalType": "uint256",
          "name": "_birth",
          "type": "uint256"
        },
        {
          "internalType": "uint256",
          "name": "_dYear",
          "type": "uint256"
        },
        {
          "internalType": "string",
          "name": "_nameDegree",
          "type": "string"
        },
        {
          "internalType": "string",
          "name": "_schoolName",
          "type": "string"
        }
      ],
      "name": "createDiploma",
      "outputs": [],
      "payable": false,
      "stateMutability": "nonpayable",
      "type": "function"
    },
    {
      "constant": false,
      "inputs": [
        {
          "internalType": "uint256",
          "name": "_INE",
          "type": "uint256"
        },
        {
          "internalType": "string",
          "name": "_firstName",
          "type": "string"
        },
        {
          "internalType": "string",
          "name": "_lastName",
          "type": "string"
        },
        {
          "internalType": "uint256",
          "name": "_birth",
          "type": "uint256"
        }
      ],
      "name": "createStudent",
      "outputs": [],
      "payable": false,
      "stateMutability": "nonpayable",
      "type": "function"
    },
    {
      "constant": false,
      "inputs": [
        {
          "internalType": "address",
          "name": "_schoolAdress",
          "type": "address"
        },
        {
          "internalType": "string",
          "name": "_schoolName",
          "type": "string"
        }
      ],
      "name": "createSchool",
      "outputs": [
        {
          "internalType": "string",
          "name": "",
          "type": "string"
        }
      ],
      "payable": false,
      "stateMutability": "nonpayable",
      "type": "function"
    },
    {
      "constant": false,
      "inputs": [
        {
          "internalType": "uint256",
          "name": "_year",
          "type": "uint256"
        },
        {
          "internalType": "string",
          "name": "_nameDegree",
          "type": "string"
        },
        {
          "internalType": "string",
          "name": "_schoolName",
          "type": "string"
        }
      ],
      "name": "createDegree",
      "outputs": [],
      "payable": false,
      "stateMutability": "nonpayable",
      "type": "function"
    },
    {
      "constant": true,
      "inputs": [
        {
          "internalType": "uint256",
          "name": "_idSch",
          "type": "uint256"
        },
        {
          "internalType": "address",
          "name": "_address",
          "type": "address"
        }
      ],
      "name": "isAutorized",
      "outputs": [
        {
          "internalType": "uint256",
          "name": "",
          "type": "uint256"
        }
      ],
      "payable": false,
      "stateMutability": "view",
      "type": "function"
    },
    {
      "constant": true,
      "inputs": [
        {
          "internalType": "address",
          "name": "_schoolAddress",
          "type": "address"
        },
        {
          "internalType": "string",
          "name": "_schoolName",
          "type": "string"
        }
      ],
      "name": "checkSchool",
      "outputs": [
        {
          "internalType": "uint256",
          "name": "",
          "type": "uint256"
        }
      ],
      "payable": false,
      "stateMutability": "view",
      "type": "function"
    },
    {
      "constant": true,
      "inputs": [
        {
          "internalType": "uint256",
          "name": "_INE",
          "type": "uint256"
        },
        {
          "internalType": "string",
          "name": "_firstName",
          "type": "string"
        },
        {
          "internalType": "string",
          "name": "_lastName",
          "type": "string"
        },
        {
          "internalType": "uint256",
          "name": "_birth",
          "type": "uint256"
        }
      ],
      "name": "checkStudent",
      "outputs": [
        {
          "internalType": "uint256",
          "name": "",
          "type": "uint256"
        }
      ],
      "payable": false,
      "stateMutability": "view",
      "type": "function"
    },
    {
      "constant": true,
      "inputs": [
        {
          "internalType": "uint256",
          "name": "_year",
          "type": "uint256"
        },
        {
          "internalType": "string",
          "name": "_nameDegree",
          "type": "string"
        },
        {
          "internalType": "string",
          "name": "_schoolName",
          "type": "string"
        }
      ],
      "name": "checkDegree",
      "outputs": [
        {
          "internalType": "uint256",
          "name": "",
          "type": "uint256"
        }
      ],
      "payable": false,
      "stateMutability": "view",
      "type": "function"
    },
    {
      "constant": true,
      "inputs": [
        {
          "internalType": "uint256",
          "name": "_INE",
          "type": "uint256"
        },
        {
          "internalType": "string",
          "name": "_firstName",
          "type": "string"
        },
        {
          "internalType": "string",
          "name": "_lastName",
          "type": "string"
        },
        {
          "internalType": "uint256",
          "name": "_birth",
          "type": "uint256"
        },
        {
          "internalType": "uint256",
          "name": "_dYear",
          "type": "uint256"
        },
        {
          "internalType": "string",
          "name": "_nameDegree",
          "type": "string"
        },
        {
          "internalType": "string",
          "name": "_schoolName",
          "type": "string"
        }
      ],
      "name": "getIdDiploma",
      "outputs": [
        {
          "internalType": "uint256",
          "name": "",
          "type": "uint256"
        }
      ],
      "payable": false,
      "stateMutability": "view",
      "type": "function"
    },
    {
      "constant": true,
      "inputs": [
        {
          "internalType": "uint256",
          "name": "_INE",
          "type": "uint256"
        },
        {
          "internalType": "string",
          "name": "_firstName",
          "type": "string"
        },
        {
          "internalType": "string",
          "name": "_lastName",
          "type": "string"
        },
        {
          "internalType": "uint256",
          "name": "_birth",
          "type": "uint256"
        },
        {
          "internalType": "uint256",
          "name": "_dYear",
          "type": "uint256"
        },
        {
          "internalType": "string",
          "name": "_nameDegree",
          "type": "string"
        },
        {
          "internalType": "string",
          "name": "_schoolName",
          "type": "string"
        }
      ],
      "name": "checkDiploma",
      "outputs": [
        {
          "internalType": "string",
          "name": "",
          "type": "string"
        }
      ],
      "payable": false,
      "stateMutability": "view",
      "type": "function"
    }
  ],
  "bytecode": "0x608060405260008055600060015560006002556000600355600060045533600560006101000a81548173ffffffffffffffffffffffffffffffffffffffff021916908373ffffffffffffffffffffffffffffffffffffffff16021790555060006006556003600755600754604051908082528060200260200182016040528015620000995781602001602082028038833980820191505090505b5060089080519060200190620000b19291906200213f565b506000604051908082528060200260200182016040528015620000e35781602001602082028038833980820191505090505b5060099080519060200190620000fb92919062002191565b506009735ae24da69915218e800bd28df558c92aa266bfef90806001815401808255809150509060018203906000526020600020016000909192909190916101000a81548173ffffffffffffffffffffffffffffffffffffffff021916908373ffffffffffffffffffffffffffffffffffffffff160217905550600a553480156200018557600080fd5b50600560009054906101000a900473ffffffffffffffffffffffffffffffffffffffff16600f60006001815260200190815260200160002060006101000a81548173ffffffffffffffffffffffffffffffffffffffff021916908373ffffffffffffffffffffffffffffffffffffffff1602179055506009735ae24da69915218e800bd28df558c92aa266bfef90806001815401808255809150509060018203906000526020600020016000909192909190916101000a81548173ffffffffffffffffffffffffffffffffffffffff021916908373ffffffffffffffffffffffffffffffffffffffff16021790555050620002fc640461d897756040518060400160405280600381526020017f426f6200000000000000000000000000000000000000000000000000000000008152506040518060400160405280600681526020017f4d617274696e0000000000000000000000000000000000000000000000000000815250630132464f6200087f60201b60201c565b62000383640f0df224036040518060400160405280600581526020017f416c6963650000000000000000000000000000000000000000000000000000008152506040518060400160405280600681526020017f447572616e6400000000000000000000000000000000000000000000000000008152506301232b186200087f60201b60201c565b62000409640cb9ea33fe6040518060400160405280600781526020017f4d616c6c6f7279000000000000000000000000000000000000000000000000008152506040518060400160405280600681526020017f4475706f6e6400000000000000000000000000000000000000000000000000008152506210f7c86200087f60201b60201c565b62000450336040518060400160405280601181526020017f54656c65636f6d2053756420506172697300000000000000000000000000000081525062000ade60201b60201c565b5062000498336040518060400160405280600c81526020017f4b727970746f737068657265000000000000000000000000000000000000000081525062000ade60201b60201c565b50620005186107e66040518060400160405280601381526020017f426c6f636b636861696e20456e67696e656572000000000000000000000000008152506040518060400160405280601181526020017f54656c65636f6d2053756420506172697300000000000000000000000000000081525062000d8860201b60201c565b620005976107e76040518060400160405280601481526020017f426c6f636b636861696e20446576656c6f7065720000000000000000000000008152506040518060400160405280600c81526020017f4b727970746f737068657265000000000000000000000000000000000000000081525062000d8860201b60201c565b6200068d640461d897756040518060400160405280600381526020017f426f6200000000000000000000000000000000000000000000000000000000008152506040518060400160405280600681526020017f4d617274696e0000000000000000000000000000000000000000000000000000815250630132464f6107e66040518060400160405280601381526020017f426c6f636b636861696e20456e67696e656572000000000000000000000000008152506040518060400160405280601181526020017f54656c65636f6d205375642050617269730000000000000000000000000000008152506200122260201b60201c565b62000783640f0df224036040518060400160405280600581526020017f416c6963650000000000000000000000000000000000000000000000000000008152506040518060400160405280600681526020017f447572616e6400000000000000000000000000000000000000000000000000008152506301232b186107e76040518060400160405280601481526020017f426c6f636b636861696e20446576656c6f7065720000000000000000000000008152506040518060400160405280600c81526020017f4b727970746f73706865726500000000000000000000000000000000000000008152506200122260201b60201c565b62000879640461d897756040518060400160405280600381526020017f426f6200000000000000000000000000000000000000000000000000000000008152506040518060400160405280600681526020017f4d617274696e0000000000000000000000000000000000000000000000000000815250630132464f6107e76040518060400160405280601481526020017f426c6f636b636861696e20446576656c6f7065720000000000000000000000008152506040518060400160405280600c81526020017f4b727970746f73706865726500000000000000000000000000000000000000008152506200122260201b60201c565b620023d6565b600062000895858585856200130260201b60201c565b141562000ad8576001600081548092919060010191905055506040518060c0016040528060015481526020018581526020018481526020018381526020018281526020013373ffffffffffffffffffffffffffffffffffffffff16815250600c60006001548152602001908152602001600020600082015181600001556020820151816001015560408201518160020190805190602001906200093a92919062002220565b5060608201518160030190805190602001906200095992919062002220565b506080820151816004015560a08201518160050160006101000a81548173ffffffffffffffffffffffffffffffffffffffff021916908373ffffffffffffffffffffffffffffffffffffffff1602179055509050507ff123ab1a2d904e5492dbdcffe5c290d2d705f3a56e0f9502c055a46b3fe5fa1f60015485858585604051808681526020018581526020018060200180602001848152602001838103835286818151815260200191508051906020019080838360005b8381101562000a2e57808201518184015260208101905062000a11565b50505050905090810190601f16801562000a5c5780820380516001836020036101000a031916815260200191505b50838103825285818151815260200191508051906020019080838360005b8381101562000a9757808201518184015260208101905062000a7a565b50505050905090810190601f16801562000ac55780820380516001836020036101000a031916815260200191505b5097505050505050505060405180910390a15b50505050565b6060600560009054906101000a900473ffffffffffffffffffffffffffffffffffffffff1673ffffffffffffffffffffffffffffffffffffffff163373ffffffffffffffffffffffffffffffffffffffff161462000b58576040518060600160405280602c8152602001620065a8602c9139905062000d82565b600062000b6c84846200172e60201b60201c565b141562000d495760026000815480929190600101919050555060405180604001604052808381526020013373ffffffffffffffffffffffffffffffffffffffff16815250600d60006002548152602001908152602001600020600082015181600001908051906020019062000be392919062002220565b5060208201518160030160006101000a81548173ffffffffffffffffffffffffffffffffffffffff021916908373ffffffffffffffffffffffffffffffffffffffff1602179055509050507f83cda14def4bda5816386e3646981b0e9a7c492751248c7872b1e1ce5e4dfba8600254833360405180848152602001806020018373ffffffffffffffffffffffffffffffffffffffff1673ffffffffffffffffffffffffffffffffffffffff168152602001828103825284818151815260200191508051906020019080838360005b8381101562000cce57808201518184015260208101905062000cb1565b50505050905090810190601f16801562000cfc5780820380516001836020036101000a031916815260200191505b5094505050505060405180910390a16040518060400160405280600d81526020017f5363686f6f6c4372656174656400000000000000000000000000000000000000815250905062000d82565b6040518060400160405280601581526020017f5363686f6f6c20616c726561647920657869737473000000000000000000000081525090505b92915050565b62000d92620022a7565b600080905060008090505b600254811162000fe757600d6000828152602001908152602001600020604051806040016040529081600082018054600181600116156101000203166002900480601f01602080910402602001604051908101604052809291908181526020018280546001816001161561010002031660029004801562000e625780601f1062000e365761010080835404028352916020019162000e62565b820191906000526020600020905b81548152906001019060200180831162000e4457829003601f168201915b505050505081526020016003820160009054906101000a900473ffffffffffffffffffffffffffffffffffffffff1673ffffffffffffffffffffffffffffffffffffffff1673ffffffffffffffffffffffffffffffffffffffff16815250509250600062000ed782336200199f60201b60201c565b1415801562000fcf5750836040516020018082805190602001908083835b6020831062000f1a578051825260208201915060208101905060208303925062000ef5565b6001836020036101000a0380198251168184511680821785525050505050509050019150506040516020818303038152906040528051906020012083600001516040516020018082805190602001908083835b6020831062000f92578051825260208201915060208101905060208303925062000f6d565b6001836020036101000a03801982511681845116808217855250505050505090500191505060405160208183030381529060405280519060200120145b1562000fd9578091505b808060010191505062000d9d565b50600081146200121b576003600081548092919060010191905055506040518060a001604052808581526020018481526020018681526020018281526020013373ffffffffffffffffffffffffffffffffffffffff16815250600e6000600354815260200190815260200160002060008201518160000190805190602001906200107392919062002220565b5060208201518160010190805190602001906200109292919062002220565b50604082015181600201556060820151816003015560808201518160040160006101000a81548173ffffffffffffffffffffffffffffffffffffffff021916908373ffffffffffffffffffffffffffffffffffffffff1602179055509050507fb8191de706947d348e4af82269a7e4b91362250c16b6775a4f8e71acf3fc6a4d60035482878787604051808681526020018581526020018481526020018060200180602001838103835285818151815260200191508051906020019080838360005b838110156200117157808201518184015260208101905062001154565b50505050905090810190601f1680156200119f5780820380516001836020036101000a031916815260200191505b50838103825284818151815260200191508051906020019080838360005b83811015620011da578082015181840152602081019050620011bd565b50505050905090810190601f168015620012085780820380516001836020036101000a031916815260200191505b5097505050505050505060405180910390a15b5050505050565b600062001238888888886200130260201b60201c565b905060006200124f858585620019ab60201b60201c565b9050600082141562001270576200126f898989896200087f60201b60201c565b5b60008114156200128057620012f7565b6000809050600560009054906101000a900473ffffffffffffffffffffffffffffffffffffffff1673ffffffffffffffffffffffffffffffffffffffff163373ffffffffffffffffffffffffffffffffffffffff161415620012e157600190505b620012f58284833362001dbc60201b60201c565b505b505050505050505050565b60006200130e620022d7565b6000600190505b60015481116200171f57600c60008281526020019081526020016000206040518060c00160405290816000820154815260200160018201548152602001600282018054600181600116156101000203166002900480601f016020809104026020016040519081016040528092919081815260200182805460018160011615610100020316600290048015620013ee5780601f10620013c257610100808354040283529160200191620013ee565b820191906000526020600020905b815481529060010190602001808311620013d057829003601f168201915b50505050508152602001600382018054600181600116156101000203166002900480601f016020809104026020016040519081016040528092919081815260200182805460018160011615610100020316600290048015620014945780601f10620014685761010080835404028352916020019162001494565b820191906000526020600020905b8154815290600101906020018083116200147657829003601f168201915b50505050508152602001600482015481526020016005820160009054906101000a900473ffffffffffffffffffffffffffffffffffffffff1673ffffffffffffffffffffffffffffffffffffffff1673ffffffffffffffffffffffffffffffffffffffff16815250509150868260200151148015620015165750838260800151145b156200171157856040516020018082805190602001908083835b6020831062001555578051825260208201915060208101905060208303925062001530565b6001836020036101000a0380198251168184511680821785525050505050509050019150506040516020818303038152906040528051906020012082604001516040516020018082805190602001908083835b60208310620015cd5780518252602082019150602081019050602083039250620015a8565b6001836020036101000a03801982511681845116808217855250505050505090500191505060405160208183030381529060405280519060200120148015620016ff5750846040516020018082805190602001908083835b602083106200164a578051825260208201915060208101905060208303925062001625565b6001836020036101000a0380198251168184511680821785525050505050509050019150506040516020818303038152906040528051906020012082606001516040516020018082805190602001908083835b60208310620016c257805182526020820191506020810190506020830392506200169d565b6001836020036101000a03801982511681845116808217855250505050505090500191505060405160208183030381529060405280519060200120145b156200171057809250505062001726565b5b808060010191505062001315565b5060009150505b949350505050565b60006200173a620022a7565b6000600190505b60025481116200199257600d6000828152602001908152602001600020604051806040016040529081600082018054600181600116156101000203166002900480601f016020809104026020016040519081016040528092919081815260200182805460018160011615610100020316600290048015620018065780601f10620017da5761010080835404028352916020019162001806565b820191906000526020600020905b815481529060010190602001808311620017e857829003601f168201915b505050505081526020016003820160009054906101000a900473ffffffffffffffffffffffffffffffffffffffff1673ffffffffffffffffffffffffffffffffffffffff1673ffffffffffffffffffffffffffffffffffffffff1681525050915060006200187b82876200199f60201b60201c565b14158015620019735750836040516020018082805190602001908083835b60208310620018be578051825260208201915060208101905060208303925062001899565b6001836020036101000a0380198251168184511680821785525050505050509050019150506040516020818303038152906040528051906020012082600001516040516020018082805190602001908083835b6020831062001936578051825260208201915060208101905060208303925062001911565b6001836020036101000a03801982511681845116808217855250505050505090500191505060405160208183030381529060405280519060200120145b156200198457809250505062001999565b808060010191505062001741565b5060009150505b92915050565b60006003905092915050565b6000620019b762002323565b6000600190505b600354811162001dae57600e60008281526020019081526020016000206040518060a0016040529081600082018054600181600116156101000203166002900480601f01602080910402602001604051908101604052809291908181526020018280546001816001161561010002031660029004801562001a835780601f1062001a575761010080835404028352916020019162001a83565b820191906000526020600020905b81548152906001019060200180831162001a6557829003601f168201915b50505050508152602001600182018054600181600116156101000203166002900480601f01602080910402602001604051908101604052809291908181526020018280546001816001161561010002031660029004801562001b295780601f1062001afd5761010080835404028352916020019162001b29565b820191906000526020600020905b81548152906001019060200180831162001b0b57829003601f168201915b5050505050815260200160028201548152602001600382015481526020016004820160009054906101000a900473ffffffffffffffffffffffffffffffffffffffff1673ffffffffffffffffffffffffffffffffffffffff1673ffffffffffffffffffffffffffffffffffffffff16815250509150846040516020018082805190602001908083835b6020831062001bd7578051825260208201915060208101905060208303925062001bb2565b6001836020036101000a0380198251168184511680821785525050505050509050019150506040516020818303038152906040528051906020012082600001516040516020018082805190602001908083835b6020831062001c4f578051825260208201915060208101905060208303925062001c2a565b6001836020036101000a0380198251168184511680821785525050505050509050019150506040516020818303038152906040528051906020012014801562001d815750836040516020018082805190602001908083835b6020831062001ccc578051825260208201915060208101905060208303925062001ca7565b6001836020036101000a0380198251168184511680821785525050505050509050019150506040516020818303038152906040528051906020012082602001516040516020018082805190602001908083835b6020831062001d44578051825260208201915060208101905060208303925062001d1f565b6001836020036101000a03801982511681845116808217855250505050505090500191505060405160208183030381529060405280519060200120145b1562001da057858260400151141562001d9f57809250505062001db5565b5b8080600101915050620019be565b5060009150505b9392505050565b600154831115801562001dd157506003548411155b15620021395762001de162002323565b600e60008681526020019081526020016000206040518060a0016040529081600082018054600181600116156101000203166002900480601f01602080910402602001604051908101604052809291908181526020018280546001816001161561010002031660029004801562001e9c5780601f1062001e705761010080835404028352916020019162001e9c565b820191906000526020600020905b81548152906001019060200180831162001e7e57829003601f168201915b50505050508152602001600182018054600181600116156101000203166002900480601f01602080910402602001604051908101604052809291908181526020018280546001816001161561010002031660029004801562001f425780601f1062001f165761010080835404028352916020019162001f42565b820191906000526020600020905b81548152906001019060200180831162001f2457829003601f168201915b5050505050815260200160028201548152602001600382015481526020016004820160009054906101000a900473ffffffffffffffffffffffffffffffffffffffff1673ffffffffffffffffffffffffffffffffffffffff1673ffffffffffffffffffffffffffffffffffffffff16815250509050600081606001519050600062001fd482336200199f60201b60201c565b1462002136576000808154809291906001019190505550604051806080016040528087815260200186815260200185151581526020018473ffffffffffffffffffffffffffffffffffffffff16815250600b600080548152602001908152602001600020600082015181600001556020820151816001015560408201518160020160006101000a81548160ff02191690831515021790555060608201518160020160016101000a81548173ffffffffffffffffffffffffffffffffffffffff021916908373ffffffffffffffffffffffffffffffffffffffff1602179055509050507f39a6bebf4a890b07ed287c5e07c21772ebbbd0e5e352486a8df23352c52168f48686868660405180858152602001848152602001831515151581526020018273ffffffffffffffffffffffffffffffffffffffff1673ffffffffffffffffffffffffffffffffffffffff16815260200194505050505060405180910390a15b50505b50505050565b8280548282559060005260206000209081019282156200217e579160200282015b828111156200217d57825182559160200191906001019062002160565b5b5090506200218d919062002368565b5090565b8280548282559060005260206000209081019282156200220d579160200282015b828111156200220c5782518260006101000a81548173ffffffffffffffffffffffffffffffffffffffff021916908373ffffffffffffffffffffffffffffffffffffffff16021790555091602001919060010190620021b2565b5b5090506200221c919062002390565b5090565b828054600181600116156101000203166002900490600052602060002090601f016020900481019282601f106200226357805160ff191683800117855562002294565b8280016001018555821562002294579182015b828111156200229357825182559160200191906001019062002276565b5b509050620022a3919062002368565b5090565b604051806040016040528060608152602001600073ffffffffffffffffffffffffffffffffffffffff1681525090565b6040518060c001604052806000815260200160008152602001606081526020016060815260200160008152602001600073ffffffffffffffffffffffffffffffffffffffff1681525090565b6040518060a0016040528060608152602001606081526020016000815260200160008152602001600073ffffffffffffffffffffffffffffffffffffffff1681525090565b6200238d91905b80821115620023895760008160009055506001016200236f565b5090565b90565b620023d391905b80821115620023cf57600081816101000a81549073ffffffffffffffffffffffffffffffffffffffff02191690555060010162002397565b5090565b90565b6141c280620023e66000396000f3fe608060405234801561001057600080fd5b50600436106101425760003560e01c8063713c54e9116100b85780639e7646031161007c5780639e76460314610fc1578063a1cebf5214610fdf578063bf23e63b14611145578063e581f9ee146113e3578063ee97f7f314611401578063fcf8642e1461144b57610142565b8063713c54e9146109c2578063719c0d0414610a305780637f9ed45014610b0a57806381f1c3bc14610d195780639cddb7c014610e6d57610142565b8063371c6fd71161010a578063371c6fd71461050f578063406358cf14610571578063454ddc17146106605780635a471b6b146107bc57806360961874146109365780636920613f146109a457610142565b806306192f0f1461014757806306ead22e146102f157806328d888901461044c57806335dfc1c31461046a5780633660096b146104f1575b600080fd5b6102db600480360360e081101561015d57600080fd5b81019080803590602001909291908035906020019064010000000081111561018457600080fd5b82018360208201111561019657600080fd5b803590602001918460018302840111640100000000831117156101b857600080fd5b9091929391929390803590602001906401000000008111156101d957600080fd5b8201836020820111156101eb57600080fd5b8035906020019184600183028401116401000000008311171561020d57600080fd5b909192939192939080359060200190929190803590602001909291908035906020019064010000000081111561024257600080fd5b82018360208201111561025457600080fd5b8035906020019184600183028401116401000000008311171561027657600080fd5b90919293919293908035906020019064010000000081111561029757600080fd5b8201836020820111156102a957600080fd5b803590602001918460018302840111640100000000831117156102cb57600080fd5b90919293919293905050506115bb565b6040518082815260200191505060405180910390f35b61031d6004803603602081101561030757600080fd5b810190808035906020019092919050505061180c565b6040518087815260200186815260200180602001806020018581526020018473ffffffffffffffffffffffffffffffffffffffff1673ffffffffffffffffffffffffffffffffffffffff168152602001838103835287818151815260200191508051906020019080838360005b838110156103a557808201518184015260208101905061038a565b50505050905090810190601f1680156103d25780820380516001836020036101000a031916815260200191505b50838103825286818151815260200191508051906020019080838360005b8381101561040b5780820151818401526020810190506103f0565b50505050905090810190601f1680156104385780820380516001836020036101000a031916815260200191505b509850505050505050505060405180910390f35b610454611998565b6040518082815260200191505060405180910390f35b6104966004803603602081101561048057600080fd5b810190808035906020019092919050505061199e565b60405180858152602001848152602001831515151581526020018273ffffffffffffffffffffffffffffffffffffffff1673ffffffffffffffffffffffffffffffffffffffff16815260200194505050505060405180910390f35b6104f96119fb565b6040518082815260200191505060405180910390f35b61055b6004803603604081101561052557600080fd5b8101908080359060200190929190803573ffffffffffffffffffffffffffffffffffffffff169060200190929190505050611a01565b6040518082815260200191505060405180910390f35b61064a6004803603604081101561058757600080fd5b81019080803573ffffffffffffffffffffffffffffffffffffffff169060200190929190803590602001906401000000008111156105c457600080fd5b8201836020820111156105d657600080fd5b803590602001918460018302840111640100000000831117156105f857600080fd5b91908080601f016020809104026020016040519081016040528093929190818152602001838380828437600081840152601f19601f820116905080830192505050505050509192919290505050611a0d565b6040518082815260200191505060405180910390f35b6107ba6004803603606081101561067657600080fd5b81019080803590602001909291908035906020019064010000000081111561069d57600080fd5b8201836020820111156106af57600080fd5b803590602001918460018302840111640100000000831117156106d157600080fd5b91908080601f016020809104026020016040519081016040528093929190818152602001838380828437600081840152601f19601f8201169050808301925050505050505091929192908035906020019064010000000081111561073457600080fd5b82018360208201111561074657600080fd5b8035906020019184600183028401116401000000008311171561076857600080fd5b91908080601f016020809104026020016040519081016040528093929190818152602001838380828437600081840152601f19601f820116905080830192505050505050509192919290505050611c67565b005b610920600480360360808110156107d257600080fd5b8101908080359060200190929190803590602001906401000000008111156107f957600080fd5b82018360208201111561080b57600080fd5b8035906020019184600183028401116401000000008311171561082d57600080fd5b91908080601f016020809104026020016040519081016040528093929190818152602001838380828437600081840152601f19601f8201169050808301925050505050505091929192908035906020019064010000000081111561089057600080fd5b8201836020820111156108a257600080fd5b803590602001918460018302840111640100000000831117156108c457600080fd5b91908080601f016020809104026020016040519081016040528093929190818152602001838380828437600081840152601f19601f820116905080830192505050505050509192919290803590602001909291905050506120e0565b6040518082815260200191505060405180910390f35b6109626004803603602081101561094c57600080fd5b81019080803590602001909291905050506124f3565b604051808273ffffffffffffffffffffffffffffffffffffffff1673ffffffffffffffffffffffffffffffffffffffff16815260200191505060405180910390f35b6109ac612526565b6040518082815260200191505060405180910390f35b6109ee600480360360208110156109d857600080fd5b810190808035906020019092919050505061252c565b604051808273ffffffffffffffffffffffffffffffffffffffff1673ffffffffffffffffffffffffffffffffffffffff16815260200191505060405180910390f35b610a5c60048036036020811015610a4657600080fd5b8101908080359060200190929190505050612568565b60405180806020018373ffffffffffffffffffffffffffffffffffffffff1673ffffffffffffffffffffffffffffffffffffffff168152602001828103825284818151815260200191508051906020019080838360005b83811015610ace578082015181840152602081019050610ab3565b50505050905090810190601f168015610afb5780820380516001836020036101000a031916815260200191505b50935050505060405180910390f35b610c9e600480360360e0811015610b2057600080fd5b810190808035906020019092919080359060200190640100000000811115610b4757600080fd5b820183602082011115610b5957600080fd5b80359060200191846001830284011164010000000083111715610b7b57600080fd5b909192939192939080359060200190640100000000811115610b9c57600080fd5b820183602082011115610bae57600080fd5b80359060200191846001830284011164010000000083111715610bd057600080fd5b9091929391929390803590602001909291908035906020019092919080359060200190640100000000811115610c0557600080fd5b820183602082011115610c1757600080fd5b80359060200191846001830284011164010000000083111715610c3957600080fd5b909192939192939080359060200190640100000000811115610c5a57600080fd5b820183602082011115610c6c57600080fd5b80359060200191846001830284011164010000000083111715610c8e57600080fd5b9091929391929390505050612644565b6040518080602001828103825283818151815260200191508051906020019080838360005b83811015610cde578082015181840152602081019050610cc3565b50505050905090810190601f168015610d0b5780820380516001836020036101000a031916815260200191505b509250505060405180910390f35b610d4560048036036020811015610d2f57600080fd5b8101908080359060200190929190505050612abf565b6040518080602001806020018681526020018581526020018473ffffffffffffffffffffffffffffffffffffffff1673ffffffffffffffffffffffffffffffffffffffff168152602001838103835288818151815260200191508051906020019080838360005b83811015610dc7578082015181840152602081019050610dac565b50505050905090810190601f168015610df45780820380516001836020036101000a031916815260200191505b50838103825287818151815260200191508051906020019080838360005b83811015610e2d578082015181840152602081019050610e12565b50505050905090810190601f168015610e5a5780820380516001836020036101000a031916815260200191505b5097505050505050505060405180910390f35b610f4660048036036040811015610e8357600080fd5b81019080803573ffffffffffffffffffffffffffffffffffffffff16906020019092919080359060200190640100000000811115610ec057600080fd5b820183602082011115610ed257600080fd5b80359060200191846001830284011164010000000083111715610ef457600080fd5b91908080601f016020809104026020016040519081016040528093929190818152602001838380828437600081840152601f19601f820116905080830192505050505050509192919290505050612c45565b6040518080602001828103825283818151815260200191508051906020019080838360005b83811015610f86578082015181840152602081019050610f6b565b50505050905090810190601f168015610fb35780820380516001836020036101000a031916815260200191505b509250505060405180910390f35b610fc9612edd565b6040518082815260200191505060405180910390f35b61114360048036036080811015610ff557600080fd5b81019080803590602001909291908035906020019064010000000081111561101c57600080fd5b82018360208201111561102e57600080fd5b8035906020019184600183028401116401000000008311171561105057600080fd5b91908080601f016020809104026020016040519081016040528093929190818152602001838380828437600081840152601f19601f820116905080830192505050505050509192919290803590602001906401000000008111156110b357600080fd5b8201836020820111156110c557600080fd5b803590602001918460018302840111640100000000831117156110e757600080fd5b91908080601f016020809104026020016040519081016040528093929190818152602001838380828437600081840152601f19601f82011690508083019250505050505050919291929080359060200190929190505050612ee3565b005b6113e1600480360360e081101561115b57600080fd5b81019080803590602001909291908035906020019064010000000081111561118257600080fd5b82018360208201111561119457600080fd5b803590602001918460018302840111640100000000831117156111b657600080fd5b91908080601f016020809104026020016040519081016040528093929190818152602001838380828437600081840152601f19601f8201169050808301925050505050505091929192908035906020019064010000000081111561121957600080fd5b82018360208201111561122b57600080fd5b8035906020019184600183028401116401000000008311171561124d57600080fd5b91908080601f016020809104026020016040519081016040528093929190818152602001838380828437600081840152601f19601f8201169050808301925050505050505091929192908035906020019092919080359060200190929190803590602001906401000000008111156112c457600080fd5b8201836020820111156112d657600080fd5b803590602001918460018302840111640100000000831117156112f857600080fd5b91908080601f016020809104026020016040519081016040528093929190818152602001838380828437600081840152601f19601f8201169050808301925050505050505091929192908035906020019064010000000081111561135b57600080fd5b82018360208201111561136d57600080fd5b8035906020019184600183028401116401000000008311171561138f57600080fd5b91908080601f016020809104026020016040519081016040528093929190818152602001838380828437600081840152601f19601f82011690508083019250505050505050919291929050505061312f565b005b6113eb6131eb565b6040518082815260200191505060405180910390f35b6114096131f1565b604051808273ffffffffffffffffffffffffffffffffffffffff1673ffffffffffffffffffffffffffffffffffffffff16815260200191505060405180910390f35b6115a56004803603606081101561146157600080fd5b81019080803590602001909291908035906020019064010000000081111561148857600080fd5b82018360208201111561149a57600080fd5b803590602001918460018302840111640100000000831117156114bc57600080fd5b91908080601f016020809104026020016040519081016040528093929190818152602001838380828437600081840152601f19601f8201169050808301925050505050505091929192908035906020019064010000000081111561151f57600080fd5b82018360208201111561153157600080fd5b8035906020019184600183028401116401000000008311171561155357600080fd5b91908080601f016020809104026020016040519081016040528093929190818152602001838380828437600081840152601f19601f820116905080830192505050505050509192919290505050613217565b6040518082815260200191505060405180910390f35b6000806116518787878080601f016020809104026020016040519081016040528093929190818152602001838380828437600081840152601f19601f8201169050808301925050505050505086868080601f016020809104026020016040519081016040528093929190818152602001838380828437600081840152601f19601f82011690508083019250505050505050613217565b905060006116e98e8e8e8080601f016020809104026020016040519081016040528093929190818152602001838380828437600081840152601f19601f820116905080830192505050505050508d8d8080601f016020809104026020016040519081016040528093929190818152602001838380828437600081840152601f19601f820116905080830192505050505050508c6120e0565b90506116f3613fbb565b60008214158015611705575060008314155b156117f5576000600190505b60005481116117f357600b600082815260200190815260200160002060405180608001604052908160008201548152602001600182015481526020016002820160009054906101000a900460ff161515151581526020016002820160019054906101000a900473ffffffffffffffffffffffffffffffffffffffff1673ffffffffffffffffffffffffffffffffffffffff1673ffffffffffffffffffffffffffffffffffffffff168152505091508282602001511480156117d55750838260000151145b156117e657809450505050506117fd565b8080600101915050611711565b505b600093505050505b9b9a5050505050505050505050565b600c602052806000526040600020600091509050806000015490806001015490806002018054600181600116156101000203166002900480601f0160208091040260200160405190810160405280929190818152602001828054600181600116156101000203166002900480156118c45780601f10611899576101008083540402835291602001916118c4565b820191906000526020600020905b8154815290600101906020018083116118a757829003601f168201915b505050505090806003018054600181600116156101000203166002900480601f0160208091040260200160405190810160405280929190818152602001828054600181600116156101000203166002900480156119625780601f1061193757610100808354040283529160200191611962565b820191906000526020600020905b81548152906001019060200180831161194557829003601f168201915b5050505050908060040154908060050160009054906101000a900473ffffffffffffffffffffffffffffffffffffffff16905086565b60025481565b600b6020528060005260406000206000915090508060000154908060010154908060020160009054906101000a900460ff16908060020160019054906101000a900473ffffffffffffffffffffffffffffffffffffffff16905084565b60035481565b60006003905092915050565b6000611a17613ffb565b6000600190505b6002548111611c5a57600d6000828152602001908152602001600020604051806040016040529081600082018054600181600116156101000203166002900480601f016020809104026020016040519081016040528092919081815260200182805460018160011615610100020316600290048015611ade5780601f10611ab357610100808354040283529160200191611ade565b820191906000526020600020905b815481529060010190602001808311611ac157829003601f168201915b505050505081526020016003820160009054906101000a900473ffffffffffffffffffffffffffffffffffffffff1673ffffffffffffffffffffffffffffffffffffffff1673ffffffffffffffffffffffffffffffffffffffff168152505091506000611b4b8287611a01565b14158015611c3e5750836040516020018082805190602001908083835b60208310611b8b5780518252602082019150602081019050602083039250611b68565b6001836020036101000a0380198251168184511680821785525050505050509050019150506040516020818303038152906040528051906020012082600001516040516020018082805190602001908083835b60208310611c015780518252602082019150602081019050602083039250611bde565b6001836020036101000a03801982511681845116808217855250505050505090500191505060405160208183030381529060405280519060200120145b15611c4d578092505050611c61565b8080600101915050611a1e565b5060009150505b92915050565b611c6f613ffb565b600080905060008090505b6002548111611eb057600d6000828152602001908152602001600020604051806040016040529081600082018054600181600116156101000203166002900480601f016020809104026020016040519081016040528092919081815260200182805460018160011615610100020316600290048015611d3a5780601f10611d0f57610100808354040283529160200191611d3a565b820191906000526020600020905b815481529060010190602001808311611d1d57829003601f168201915b505050505081526020016003820160009054906101000a900473ffffffffffffffffffffffffffffffffffffffff1673ffffffffffffffffffffffffffffffffffffffff1673ffffffffffffffffffffffffffffffffffffffff168152505092506000611da78233611a01565b14158015611e9a5750836040516020018082805190602001908083835b60208310611de75780518252602082019150602081019050602083039250611dc4565b6001836020036101000a0380198251168184511680821785525050505050509050019150506040516020818303038152906040528051906020012083600001516040516020018082805190602001908083835b60208310611e5d5780518252602082019150602081019050602083039250611e3a565b6001836020036101000a03801982511681845116808217855250505050505090500191505060405160208183030381529060405280519060200120145b15611ea3578091505b8080600101915050611c7a565b50600081146120d9576003600081548092919060010191905055506040518060a001604052808581526020018481526020018681526020018281526020013373ffffffffffffffffffffffffffffffffffffffff16815250600e600060035481526020019081526020016000206000820151816000019080519060200190611f3992919061402b565b506020820151816001019080519060200190611f5692919061402b565b50604082015181600201556060820151816003015560808201518160040160006101000a81548173ffffffffffffffffffffffffffffffffffffffff021916908373ffffffffffffffffffffffffffffffffffffffff1602179055509050507fb8191de706947d348e4af82269a7e4b91362250c16b6775a4f8e71acf3fc6a4d60035482878787604051808681526020018581526020018481526020018060200180602001838103835285818151815260200191508051906020019080838360005b83811015612033578082015181840152602081019050612018565b50505050905090810190601f1680156120605780820380516001836020036101000a031916815260200191505b50838103825284818151815260200191508051906020019080838360005b8381101561209957808201518184015260208101905061207e565b50505050905090810190601f1680156120c65780820380516001836020036101000a031916815260200191505b5097505050505050505060405180910390a15b5050505050565b60006120ea6140ab565b6000600190505b60015481116124e457600c60008281526020019081526020016000206040518060c00160405290816000820154815260200160018201548152602001600282018054600181600116156101000203166002900480601f0160208091040260200160405190810160405280929190818152602001828054600181600116156101000203166002900480156121c55780601f1061219a576101008083540402835291602001916121c5565b820191906000526020600020905b8154815290600101906020018083116121a857829003601f168201915b50505050508152602001600382018054600181600116156101000203166002900480601f0160208091040260200160405190810160405280929190818152602001828054600181600116156101000203166002900480156122675780601f1061223c57610100808354040283529160200191612267565b820191906000526020600020905b81548152906001019060200180831161224a57829003601f168201915b50505050508152602001600482015481526020016005820160009054906101000a900473ffffffffffffffffffffffffffffffffffffffff1673ffffffffffffffffffffffffffffffffffffffff1673ffffffffffffffffffffffffffffffffffffffff168152505091508682602001511480156122e85750838260800151145b156124d757856040516020018082805190602001908083835b602083106123245780518252602082019150602081019050602083039250612301565b6001836020036101000a0380198251168184511680821785525050505050509050019150506040516020818303038152906040528051906020012082604001516040516020018082805190602001908083835b6020831061239a5780518252602082019150602081019050602083039250612377565b6001836020036101000a038019825116818451168082178552505050505050905001915050604051602081830303815290604052805190602001201480156124c75750846040516020018082805190602001908083835b6020831061241457805182526020820191506020810190506020830392506123f1565b6001836020036101000a0380198251168184511680821785525050505050509050019150506040516020818303038152906040528051906020012082606001516040516020018082805190602001908083835b6020831061248a5780518252602082019150602081019050602083039250612467565b6001836020036101000a03801982511681845116808217855250505050505090500191505060405160208183030381529060405280519060200120145b156124d65780925050506124eb565b5b80806001019150506120f1565b5060009150505b949350505050565b600f6020528060005260406000206000915054906101000a900473ffffffffffffffffffffffffffffffffffffffff1681565b60005481565b6009818154811061253957fe5b906000526020600020016000915054906101000a900473ffffffffffffffffffffffffffffffffffffffff1681565b600d602052806000526040600020600091509050806000018054600181600116156101000203166002900480601f0160208091040260200160405190810160405280929190818152602001828054600181600116156101000203166002900480156126145780601f106125e957610100808354040283529160200191612614565b820191906000526020600020905b8154815290600101906020018083116125f757829003601f168201915b5050505050908060030160009054906101000a900473ffffffffffffffffffffffffffffffffffffffff16905082565b606060006126db8787878080601f016020809104026020016040519081016040528093929190818152602001838380828437600081840152601f19601f8201169050808301925050505050505086868080601f016020809104026020016040519081016040528093929190818152602001838380828437600081840152601f19601f82011690508083019250505050505050613217565b905060006127738e8e8e8080601f016020809104026020016040519081016040528093929190818152602001838380828437600081840152601f19601f820116905080830192505050505050508d8d8080601f016020809104026020016040519081016040528093929190818152602001838380828437600081840152601f19601f820116905080830192505050505050508c6120e0565b905060008114156127bd576040518060400160405280601a81526020017f546869732073747564656e7420646f65736e277420657869737400000000000081525092505050612ab0565b6000821415612805576040518060400160405280601981526020017f546869732064656772656520646f65736e27742065786973740000000000000081525092505050612ab0565b60008e14156129355761292c8d8d8080601f016020809104026020016040519081016040528093929190818152602001838380828437600081840152601f19601f820116905080830192505050505050508c8c8080601f016020809104026020016040519081016040528093929190818152602001838380828437600081840152601f19601f820116905080830192505050505050508b8b8b8b8080601f016020809104026020016040519081016040528093929190818152602001838380828437600081840152601f19601f820116905080830192505050505050508a8a8080601f016020809104026020016040519081016040528093929190818152602001838380828437600081840152601f19601f82011690508083019250505050505050613610565b92505050612ab0565b61293d613fbb565b6000821415801561294f575060008314155b15612a74576000600190505b6000548111612a7257600b600082815260200190815260200160002060405180608001604052908160008201548152602001600182015481526020016002820160009054906101000a900460ff161515151581526020016002820160019054906101000a900473ffffffffffffffffffffffffffffffffffffffff1673ffffffffffffffffffffffffffffffffffffffff1673ffffffffffffffffffffffffffffffffffffffff16815250509150828260200151148015612a1f5750838260000151145b15612a65576040518060400160405280600281526020017f4f4b000000000000000000000000000000000000000000000000000000000000815250945050505050612ab0565b808060010191505061295b565b505b6040518060400160405280600281526020017f4e6f00000000000000000000000000000000000000000000000000000000000081525093505050505b9b9a5050505050505050505050565b600e602052806000526040600020600091509050806000018054600181600116156101000203166002900480601f016020809104026020016040519081016040528092919081815260200182805460018160011615610100020316600290048015612b6b5780601f10612b4057610100808354040283529160200191612b6b565b820191906000526020600020905b815481529060010190602001808311612b4e57829003601f168201915b505050505090806001018054600181600116156101000203166002900480601f016020809104026020016040519081016040528092919081815260200182805460018160011615610100020316600290048015612c095780601f10612bde57610100808354040283529160200191612c09565b820191906000526020600020905b815481529060010190602001808311612bec57829003601f168201915b5050505050908060020154908060030154908060040160009054906101000a900473ffffffffffffffffffffffffffffffffffffffff16905085565b6060600560009054906101000a900473ffffffffffffffffffffffffffffffffffffffff1673ffffffffffffffffffffffffffffffffffffffff163373ffffffffffffffffffffffffffffffffffffffff1614612cbc576040518060600160405280602c8152602001614162602c91399050612ed7565b6000612cc88484611a0d565b1415612e9e5760026000815480929190600101919050555060405180604001604052808381526020013373ffffffffffffffffffffffffffffffffffffffff16815250600d600060025481526020019081526020016000206000820151816000019080519060200190612d3c92919061402b565b5060208201518160030160006101000a81548173ffffffffffffffffffffffffffffffffffffffff021916908373ffffffffffffffffffffffffffffffffffffffff1602179055509050507f83cda14def4bda5816386e3646981b0e9a7c492751248c7872b1e1ce5e4dfba8600254833360405180848152602001806020018373ffffffffffffffffffffffffffffffffffffffff1673ffffffffffffffffffffffffffffffffffffffff168152602001828103825284818151815260200191508051906020019080838360005b83811015612e25578082015181840152602081019050612e0a565b50505050905090810190601f168015612e525780820380516001836020036101000a031916815260200191505b5094505050505060405180910390a16040518060400160405280600d81526020017f5363686f6f6c43726561746564000000000000000000000000000000000000008152509050612ed7565b6040518060400160405280601581526020017f5363686f6f6c20616c726561647920657869737473000000000000000000000081525090505b92915050565b60045481565b6000612ef1858585856120e0565b1415613129576001600081548092919060010191905055506040518060c0016040528060015481526020018581526020018481526020018381526020018281526020013373ffffffffffffffffffffffffffffffffffffffff16815250600c6000600154815260200190815260200160002060008201518160000155602082015181600101556040820151816002019080519060200190612f9392919061402b565b506060820151816003019080519060200190612fb092919061402b565b506080820151816004015560a08201518160050160006101000a81548173ffffffffffffffffffffffffffffffffffffffff021916908373ffffffffffffffffffffffffffffffffffffffff1602179055509050507ff123ab1a2d904e5492dbdcffe5c290d2d705f3a56e0f9502c055a46b3fe5fa1f60015485858585604051808681526020018581526020018060200180602001848152602001838103835286818151815260200191508051906020019080838360005b83811015613083578082015181840152602081019050613068565b50505050905090810190601f1680156130b05780820380516001836020036101000a031916815260200191505b50838103825285818151815260200191508051906020019080838360005b838110156130e95780820151818401526020810190506130ce565b50505050905090810190601f1680156131165780820380516001836020036101000a031916815260200191505b5097505050505050505060405180910390a15b50505050565b600061313d888888886120e0565b9050600061314c858585613217565b905060008214156131645761316389898989612ee3565b5b6000811415613172576131e0565b6000809050600560009054906101000a900473ffffffffffffffffffffffffffffffffffffffff1673ffffffffffffffffffffffffffffffffffffffff163373ffffffffffffffffffffffffffffffffffffffff1614156131d257600190505b6131de82848333613c4d565b505b505050505050505050565b60015481565b600560009054906101000a900473ffffffffffffffffffffffffffffffffffffffff1681565b60006132216140f7565b6000600190505b600354811161360257600e60008281526020019081526020016000206040518060a0016040529081600082018054600181600116156101000203166002900480601f0160208091040260200160405190810160405280929190818152602001828054600181600116156101000203166002900480156132e85780601f106132bd576101008083540402835291602001916132e8565b820191906000526020600020905b8154815290600101906020018083116132cb57829003601f168201915b50505050508152602001600182018054600181600116156101000203166002900480601f01602080910402602001604051908101604052809291908181526020018280546001816001161561010002031660029004801561338a5780601f1061335f5761010080835404028352916020019161338a565b820191906000526020600020905b81548152906001019060200180831161336d57829003601f168201915b5050505050815260200160028201548152602001600382015481526020016004820160009054906101000a900473ffffffffffffffffffffffffffffffffffffffff1673ffffffffffffffffffffffffffffffffffffffff1673ffffffffffffffffffffffffffffffffffffffff16815250509150846040516020018082805190602001908083835b602083106134365780518252602082019150602081019050602083039250613413565b6001836020036101000a0380198251168184511680821785525050505050509050019150506040516020818303038152906040528051906020012082600001516040516020018082805190602001908083835b602083106134ac5780518252602082019150602081019050602083039250613489565b6001836020036101000a038019825116818451168082178552505050505050905001915050604051602081830303815290604052805190602001201480156135d95750836040516020018082805190602001908083835b602083106135265780518252602082019150602081019050602083039250613503565b6001836020036101000a0380198251168184511680821785525050505050509050019150506040516020818303038152906040528051906020012082602001516040516020018082805190602001908083835b6020831061359c5780518252602082019150602081019050602083039250613579565b6001836020036101000a03801982511681845116808217855250505050505090500191505060405160208183030381529060405280519060200120145b156135f55785826040015114156135f4578092505050613609565b5b8080600101915050613228565b5060009150505b9392505050565b6060600080905061361f6140ab565b60008090506000600190505b6001548111613a1157600c60008281526020019081526020016000206040518060c00160405290816000820154815260200160018201548152602001600282018054600181600116156101000203166002900480601f0160208091040260200160405190810160405280929190818152602001828054600181600116156101000203166002900480156136ff5780601f106136d4576101008083540402835291602001916136ff565b820191906000526020600020905b8154815290600101906020018083116136e257829003601f168201915b50505050508152602001600382018054600181600116156101000203166002900480601f0160208091040260200160405190810160405280929190818152602001828054600181600116156101000203166002900480156137a15780601f10613776576101008083540402835291602001916137a1565b820191906000526020600020905b81548152906001019060200180831161378457829003601f168201915b50505050508152602001600482015481526020016005820160009054906101000a900473ffffffffffffffffffffffffffffffffffffffff1673ffffffffffffffffffffffffffffffffffffffff1673ffffffffffffffffffffffffffffffffffffffff168152505092508883608001511415613a04578a6040516020018082805190602001908083835b6020831061384f578051825260208201915060208101905060208303925061382c565b6001836020036101000a0380198251168184511680821785525050505050509050019150506040516020818303038152906040528051906020012083604001516040516020018082805190602001908083835b602083106138c557805182526020820191506020810190506020830392506138a2565b6001836020036101000a038019825116818451168082178552505050505050905001915050604051602081830303815290604052805190602001201480156139f25750896040516020018082805190602001908083835b6020831061393f578051825260208201915060208101905060208303925061391c565b6001836020036101000a0380198251168184511680821785525050505050509050019150506040516020818303038152906040528051906020012083606001516040516020018082805190602001908083835b602083106139b55780518252602082019150602081019050602083039250613992565b6001836020036101000a03801982511681845116808217855250505050505090500191505060405160208183030381529060405280519060200120145b15613a035781806001019250508093505b5b808060010191505061362b565b506000811415613a5b576040518060400160405280601a81526020017f546869732073747564656e7420646f65736e27742065786973740000000000008152509350505050613c43565b6001811115613aa4576040518060400160405280601781526020017f4475706c69636174652c20747279207769746820494e450000000000000000008152509350505050613c43565b6001811415613c3f576000613aba888888613217565b9050613ac4613fbb565b60008514158015613ad6575060008214155b15613bfd576000600190505b6000548111613bfb57600b600082815260200190815260200160002060405180608001604052908160008201548152602001600182015481526020016002820160009054906101000a900460ff161515151581526020016002820160019054906101000a900473ffffffffffffffffffffffffffffffffffffffff1673ffffffffffffffffffffffffffffffffffffffff1673ffffffffffffffffffffffffffffffffffffffff16815250509150858260200151148015613ba65750828260000151145b15613bee576040518060400160405280600281526020017f4f4b0000000000000000000000000000000000000000000000000000000000008152509650505050505050613c43565b8080600101915050613ae2565b505b6040518060400160405280600281526020017f4e4f00000000000000000000000000000000000000000000000000000000000081525095505050505050613c43565b5050505b9695505050505050565b6001548311158015613c6157506003548411155b15613fb557613c6e6140f7565b600e60008681526020019081526020016000206040518060a0016040529081600082018054600181600116156101000203166002900480601f016020809104026020016040519081016040528092919081815260200182805460018160011615610100020316600290048015613d255780601f10613cfa57610100808354040283529160200191613d25565b820191906000526020600020905b815481529060010190602001808311613d0857829003601f168201915b50505050508152602001600182018054600181600116156101000203166002900480601f016020809104026020016040519081016040528092919081815260200182805460018160011615610100020316600290048015613dc75780601f10613d9c57610100808354040283529160200191613dc7565b820191906000526020600020905b815481529060010190602001808311613daa57829003601f168201915b5050505050815260200160028201548152602001600382015481526020016004820160009054906101000a900473ffffffffffffffffffffffffffffffffffffffff1673ffffffffffffffffffffffffffffffffffffffff1673ffffffffffffffffffffffffffffffffffffffff168152505090506000816060015190506000613e518233611a01565b14613fb2576000808154809291906001019190505550604051806080016040528087815260200186815260200185151581526020018473ffffffffffffffffffffffffffffffffffffffff16815250600b600080548152602001908152602001600020600082015181600001556020820151816001015560408201518160020160006101000a81548160ff02191690831515021790555060608201518160020160016101000a81548173ffffffffffffffffffffffffffffffffffffffff021916908373ffffffffffffffffffffffffffffffffffffffff1602179055509050507f39a6bebf4a890b07ed287c5e07c21772ebbbd0e5e352486a8df23352c52168f48686868660405180858152602001848152602001831515151581526020018273ffffffffffffffffffffffffffffffffffffffff1673ffffffffffffffffffffffffffffffffffffffff16815260200194505050505060405180910390a15b50505b50505050565b60405180608001604052806000815260200160008152602001600015158152602001600073ffffffffffffffffffffffffffffffffffffffff1681525090565b604051806040016040528060608152602001600073ffffffffffffffffffffffffffffffffffffffff1681525090565b828054600181600116156101000203166002900490600052602060002090601f016020900481019282601f1061406c57805160ff191683800117855561409a565b8280016001018555821561409a579182015b8281111561409957825182559160200191906001019061407e565b5b5090506140a7919061413c565b5090565b6040518060c001604052806000815260200160008152602001606081526020016060815260200160008152602001600073ffffffffffffffffffffffffffffffffffffffff1681525090565b6040518060a0016040528060608152602001606081526020016000815260200160008152602001600073ffffffffffffffffffffffffffffffffffffffff1681525090565b61415e91905b8082111561415a576000816000905550600101614142565b5090565b9056fe4e6f2073657276616e742063616e2073657276652074776f206d61737465727320284c75632031363a313329a265627a7a723158209d40b9fa24baa31562d5a639f60bcc16724a3997859f99b7a55c77ff3be2332164736f6c634300051000324e6f2073657276616e742063616e2073657276652074776f206d61737465727320284c75632031363a313329",
  "source": "pragma solidity ^0.5.16;\n\n\ncontract DiplomaStorage {\n    uint public diplomaCount = 0;\n    uint public studentCount = 0;\n    uint public schoolCount = 0;\n    uint public degreeCount = 0;\n    uint public masterCount = 0;\n    \n    //Address to be modified if you want to do tests\n    address payable public master = msg.sender;\n    \n    uint a = 0;\n    \n    uint size = 3;\n    uint[] balance = new uint[](size);\n    \n    address[] public mas = new address[](0);\n    \n    \n    uint id = mas.push(0x5Ae24DA69915218E800Bd28dF558C92Aa266BFEF);\n\n\n\n\n    //Association between a student and a diploma (this is how the diploma is awarded).\n    struct Diploma {\n        uint idDegree;\n        uint idStudent;\n        bool valid;\n        address creator;\n    }\n\n    event DiplomaCreated(\n        uint idDegree,\n        uint idStudent,\n        bool valid,\n        address creator);\n\n    \n    //School with the address having the right to award diplomas\n    struct School {\n        string name;\n        mapping (uint => address) lv1;\n        mapping (uint => address) lv2;\n        address editor;\n    }\n    \n    event SchoolCreated(\n        uint idSchool,\n        string schoolName,\n        address editor);\n\n    //Diploma (one different diploma per year)\n    struct Degree {\n        string name;\n        string schoolName;\n        uint year;\n        uint schoolId;\n        address editor;\n     \n    }\n\n    event DegreeCreated (\n        uint idDegree,\n        uint idSchool,\n        uint year,\n        string nameDegree,\n        string schoolName);\n\n    //Student defined by INE,Name,First name and date of birth\n    struct Student {\n        uint id;\n        uint INE;\n        string firstName;\n        string lastName;\n        uint birth;\n        address editor;\n    }\n\n    event StudentCreated(\n        uint idStudent,\n        uint INE,\n        string firstName,\n        string lastName,\n        uint birth);\n\n\n\n\n    mapping(uint => Diploma) public diplomas;\n\n    mapping(uint => Student) public students;\n\n    mapping(uint => School) public schools;\n\n    mapping(uint => Degree) public degrees;\n    \n    mapping(uint => address) public masters;\n    \n    \n\n\n\n    constructor() public {\n        \n       masters[1] = master;\n       \n       mas.push(0x5Ae24DA69915218E800Bd28dF558C92Aa266BFEF);\n       \n     \n        \n        \n        \n        \n        \n        //Creation of students\n        createStudent(18821453685,\"Bob\", \"Martin\", 20072015);\n        createStudent(64658482179,\"Alice\", \"Durand\", 19082008);\n        createStudent(54658741246,\"Mallory\",\"Dupond\",1112008);\n       \n       \n        //Creation of schools with the master address (line 13)\n        createSchool(msg.sender,\"Telecom Sud Paris\");\n        createSchool(msg.sender,\"Kryptosphere\");\n        \n        \n        //Creation of diplomas to be awarded\n        createDegree(2022,\"Blockchain Engineer\",\"Telecom Sud Paris\");\n        createDegree(2023,\"Blockchain Developer\",\"Kryptosphere\");\n\n        //Awarding of diplomas\n        createDiploma(18821453685,\"Bob\",\"Martin\",20072015,2022,\"Blockchain Engineer\", \"Telecom Sud Paris\");\n        createDiploma(64658482179,\"Alice\", \"Durand\", 19082008,2023,\"Blockchain Developer\",\"Kryptosphere\");\n        createDiploma(18821453685,\"Bob\", \"Martin\", 20072015,2023,\"Blockchain Developer\",\"Kryptosphere\");\n        \n        \n    }\n    \n   \n\n\n    /**\n     * CREATION FUNCTIONS ----------------------------------------------------------------------------------------------------------------------------------\n     * \n     */\n\n    //Relatively low level function to award diplomas (it is necessary to know the id of the pupil and the id of the diploma that one wants to award)\n    \n    function createDiplomaLL(uint _idDegree, uint  _idStudent,bool _valid, address _creator) internal{\n        if(_idStudent <= studentCount && _idDegree <= degreeCount){\n            Degree memory deg = degrees[_idDegree];\n            uint idSch = deg.schoolId;\n            //School memory sch = schools[idSch];\n            \n            //  We check that the address that is trying to assign a diploma is the one that created the diploma.\n            \n            if(isAutorized(idSch,msg.sender)!=0){\n                diplomaCount ++;\n                diplomas[diplomaCount] = Diploma(_idDegree,_idStudent,_valid,_creator);\n                emit DiplomaCreated(_idDegree,_idStudent,_valid,_creator);\n                \n            }\n        }\n    }\n    \n    //Relatively high level function\n    \n    function createDiploma(uint _INE,string memory _firstName, string memory _lastName,uint _birth,uint _dYear,string memory _nameDegree, string memory _schoolName) public{\n        uint idS = checkStudent(_INE,_firstName,_lastName,_birth);\n        uint idD = checkDegree(_dYear,_nameDegree,_schoolName);\n        \n        //If the student doesn't exist, we'll create one.\n        if(idS == 0){\n            createStudent(_INE,_firstName,_lastName,_birth);\n        }\n        \n        //If the diploma doesn't exist, we don't create it, otherwise we risk creating new diplomas every time we make a typing mistake.\n        if(idD == 0){\n        }\n        else{\n            \n            bool valid = false;\n        \n            //We create the association\n            if(msg.sender == master){\n                valid = true;\n            }\n        \n            createDiplomaLL(idD,idS,valid,msg.sender);\n        }\n    }\n\n    function createStudent(uint _INE,string memory _firstName, string memory _lastName,uint _birth) public{\n        \n        if (checkStudent(_INE,_firstName,_lastName,_birth) == 0){\n            studentCount ++;\n            students[studentCount] = Student(studentCount,_INE, _firstName,_lastName, _birth,msg.sender);\n            emit StudentCreated(studentCount,_INE,_firstName,_lastName,_birth);\n        }\n        \n    }\n\n    function createSchool( address _schoolAdress, string memory _schoolName) public returns(string memory){\n        if(msg.sender != master){\n            \n            //We get in here if we try to create a school without being the manager of the smart contract. \n            //This is necessary because if someone was able to create schools he could create and award diplomas and this would lead to disaster\n            \n            return(\"No servant can serve two masters (Luc 16:13)\");\n            \n        }\n        if (checkSchool(_schoolAdress,_schoolName) == 0){\n            schoolCount ++;\n            schools[schoolCount] = School(_schoolName,msg.sender);\n            emit SchoolCreated(schoolCount,_schoolName,msg.sender);\n            return(\"SchoolCreated\");\n        }\n        else{\n            return(\"School already exists\");\n        }\n    }\n    \n    \n\n    function createDegree(uint _year,string memory _nameDegree, string memory _schoolName) public {\n        School memory sch;\n        uint idSch = 0;\n        for(uint i = 0; i <= schoolCount; i++){\n            sch=schools[i];\n            if((isAutorized(i,msg.sender) != 0) && keccak256(abi.encodePacked(sch.name)) == keccak256(abi.encodePacked(_schoolName))){\n                idSch = i;\n            }\n        }\n        if (idSch != 0){\n            degreeCount ++;\n            degrees[degreeCount] = Degree(_nameDegree, _schoolName, _year,idSch, msg.sender);\n            emit DegreeCreated(degreeCount,idSch, _year,_nameDegree,_schoolName);\n        }\n        \n    }\n    \n\n\n    /**\n    EXISTENCE CHECK FUNCTIONS----------------------------------------------------------------------------------------------------------------------------------------------------------------------\n\n    That is to say one enters the characteristics of the searched object and the function returns a uint which is the id\n    0 if the object does not exist\n    \n    WARNING ids start at 1 !\n    \n     */\n     \n     //TODO\n    function isAutorized(uint _idSch,address _address) public view returns (uint){\n        //renvoie 0 1 2 ou 3 selon le niveau d'autorisation de l'addresse pour l'ecole\n        return(3);\n    }\n     \n     \n    function checkSchool(address _schoolAddress,string memory _schoolName) public view returns (uint){\n        School memory sch;\n        for (uint i = 1; i <= schoolCount;i++){\n            sch = schools[i];\n            if((isAutorized(i,_schoolAddress)!=0) && keccak256(abi.encodePacked(sch.name)) == keccak256(abi.encodePacked(_schoolName))){\n                return(i);\n            }\n        }\n        return(0);\n    }\n    \n    \n    \n\n\n    function checkStudent(uint _INE,string memory _firstName, string memory _lastName, uint _birth ) public view returns(uint){\n        Student memory stu;\n        for (uint i = 1; i <= studentCount; i++){\n            stu=students[i];\n            if(stu.INE ==_INE && stu.birth == _birth){  \n                if(keccak256(abi.encodePacked(stu.firstName)) == keccak256(abi.encodePacked(_firstName)) && keccak256(abi.encodePacked(stu.lastName)) == keccak256(abi.encodePacked(_lastName))){\n                    return(i);\n                }\n            }\n        }\n        return(0);\n    }\n    \n    \n    \n    function checkDegree(uint _year, string memory _nameDegree, string memory _schoolName) public view returns (uint){\n        Degree memory deg;\n        for (uint i = 1; i<= degreeCount; i++){\n            deg = degrees[i];\n            if(keccak256(abi.encodePacked(deg.name)) == keccak256(abi.encodePacked(_nameDegree)) && keccak256(abi.encodePacked(deg.schoolName)) == keccak256(abi.encodePacked(_schoolName))){\n                if(deg.year == _year){\n                    return(i);\n                }\n            }\n        }\n        return(0);\n    }\n    \n    function getIdDiploma(uint _INE,string calldata _firstName, string calldata _lastName,uint _birth,uint _dYear,string calldata _nameDegree, string calldata _schoolName) external view returns(uint) {\n        uint degreeId = checkDegree(_dYear, _nameDegree,_schoolName);\n        uint studentId = checkStudent(_INE,_firstName,_lastName,_birth);\n        \n        Diploma memory dip;\n\n        // If the student and the diploma exist, we will check if such an association exists\n        \n        if(studentId != 0 && degreeId != 0){\n            for(uint k = 1; k <= diplomaCount;k++){\n                dip = diplomas[k];\n                if (dip.idStudent == studentId && dip.idDegree == degreeId){\n                    return k;\n                }\n            }\n        }\n        return 0;\n    }\n\n\n\n\n\n   \n\n    function checkDiploma(uint _INE,string calldata _firstName, string calldata _lastName,uint _birth,uint _dYear,string calldata _nameDegree, string calldata _schoolName) external view returns(string memory) {\n        uint degreeId = checkDegree(_dYear, _nameDegree,_schoolName);\n        uint studentId = checkStudent(_INE,_firstName,_lastName,_birth);\n        if (studentId == 0){\n            return(\"This student doesn't exist\");\n        }\n        if (degreeId == 0){\n            return(\"This degree doesn't exist\");\n        }\n        \n        if(_INE == 0){\n            return(checkDiplomaNoINE(_firstName,_lastName,_birth,_dYear,_nameDegree,_schoolName));\n        }\n        \n        Diploma memory dip;\n\n        // If the student and the diploma exist, we will check if such an association exists\n        \n        if(studentId != 0 && degreeId != 0){\n            for(uint k = 1; k <= diplomaCount;k++){\n                dip = diplomas[k];\n                if (dip.idStudent == studentId && dip.idDegree == degreeId){\n                    return \"OK\";\n                }\n            }\n        }\n        return \"No\";\n    }\n    \n    \n    //Function to check a diploma without knowing the INE \n    /**\n     * If the student exists in duplicate, the INE is requested\n     **/\n    \n    function checkDiplomaNoINE(string memory _firstName, string memory _lastName,uint _birth,uint _dYear,string memory _nameDegree, string memory _schoolName) internal view returns(string memory){\n        \n       uint studentId = 0;\n       Student memory stu;\n       uint c = 0;\n        for (uint i = 1; i <= studentCount; i++){\n            stu=students[i];\n            if(stu.birth == _birth){  \n                if(keccak256(abi.encodePacked(stu.firstName)) == keccak256(abi.encodePacked(_firstName)) && keccak256(abi.encodePacked(stu.lastName)) == keccak256(abi.encodePacked(_lastName))){\n                    c++;\n                    studentId = i;\n                }\n            }\n        }\n        if(c == 0){\n            return(\"This student doesn't exist\");\n        }\n        if(c > 1){\n           return(\"Duplicate, try with INE\");\n        }\n        if(c == 1){\n            uint degreeId = checkDegree(_dYear, _nameDegree,_schoolName);\n        \n        Diploma memory dip;\n\n        // If the student and the diploma exist, we will check if such an association exists.\n        \n        if(studentId != 0 && degreeId != 0){\n            for(uint k = 1; k <= diplomaCount;k++){\n                dip = diplomas[k];\n                if (dip.idStudent == studentId && dip.idDegree == degreeId){\n                    return (\"OK\");\n                }\n            }\n        }\n        return(\"NO\");\n        }\n    } \n}",
  "sourcePath": "/home/ubuntu/Documents/BC_Projects/Truffle/contracts/DiplomaStorage.sol",
  "compiler": {
    "name": "solc",
    "version": "0.5.16+commit.9c3226ce.Emscripten.clang"
  },
  "schemaVersion": "3.0.23",
  "updatedAt": "2020-04-26T12:50:23.304Z",
  "networkType": "ethereum",
  "devdoc": {
    "methods": {}
  },
  "userdoc": {
    "methods": {
      "isAutorized(uint256,address)": {
        "notice": "EXISTENCE CHECK FUNCTIONS---------------------------------------------------------------------------------------------------------------------------------------------------------------------- That is to say one enters the characteristics of the searched object and the function returns a uint which is the id 0 if the object does not exist WARNING ids start at 1 !"
      }
    }
  }
}