{
  "contractName": "DiplomaStorage",
  "abi": [
    {
      "inputs": [],
      "payable": false,
      "stateMutability": "nonpayable",
      "type": "constructor"
    },
    {
      "anonymous": false,
      "inputs": [
        {
          "indexed": false,
          "internalType": "uint256",
          "name": "idDegree",
          "type": "uint256"
        },
        {
          "indexed": false,
          "internalType": "uint256",
          "name": "idSchool",
          "type": "uint256"
        },
        {
          "indexed": false,
          "internalType": "uint256",
          "name": "year",
          "type": "uint256"
        },
        {
          "indexed": false,
          "internalType": "string",
          "name": "nameDegree",
          "type": "string"
        },
        {
          "indexed": false,
          "internalType": "string",
          "name": "schoolName",
          "type": "string"
        }
      ],
      "name": "DegreeCreated",
      "type": "event"
    },
    {
      "anonymous": false,
      "inputs": [
        {
          "indexed": false,
          "internalType": "uint256",
          "name": "idDegree",
          "type": "uint256"
        },
        {
          "indexed": false,
          "internalType": "uint256",
          "name": "idStudent",
          "type": "uint256"
        },
        {
          "indexed": false,
          "internalType": "bool",
          "name": "valid",
          "type": "bool"
        },
        {
          "indexed": false,
          "internalType": "address",
          "name": "creator",
          "type": "address"
        }
      ],
      "name": "DiplomaCreated",
      "type": "event"
    },
    {
      "anonymous": false,
      "inputs": [
        {
          "indexed": false,
          "internalType": "uint256",
          "name": "idSchool",
          "type": "uint256"
        },
        {
          "indexed": false,
          "internalType": "string",
          "name": "schoolName",
          "type": "string"
        },
        {
          "indexed": false,
          "internalType": "address",
          "name": "editor",
          "type": "address"
        }
      ],
      "name": "SchoolCreated",
      "type": "event"
    },
    {
      "anonymous": false,
      "inputs": [
        {
          "indexed": false,
          "internalType": "uint256",
          "name": "idStudent",
          "type": "uint256"
        },
        {
          "indexed": false,
          "internalType": "uint256",
          "name": "INE",
          "type": "uint256"
        },
        {
          "indexed": false,
          "internalType": "string",
          "name": "firstName",
          "type": "string"
        },
        {
          "indexed": false,
          "internalType": "string",
          "name": "lastName",
          "type": "string"
        },
        {
          "indexed": false,
          "internalType": "uint256",
          "name": "birth",
          "type": "uint256"
        }
      ],
      "name": "StudentCreated",
      "type": "event"
    },
    {
      "constant": true,
      "inputs": [],
      "name": "degreeCount",
      "outputs": [
        {
          "internalType": "uint256",
          "name": "",
          "type": "uint256"
        }
      ],
      "payable": false,
      "stateMutability": "view",
      "type": "function"
    },
    {
      "constant": true,
      "inputs": [
        {
          "internalType": "uint256",
          "name": "",
          "type": "uint256"
        }
      ],
      "name": "degrees",
      "outputs": [
        {
          "internalType": "uint256",
          "name": "id",
          "type": "uint256"
        },
        {
          "internalType": "string",
          "name": "name",
          "type": "string"
        },
        {
          "internalType": "string",
          "name": "schoolName",
          "type": "string"
        },
        {
          "internalType": "uint256",
          "name": "year",
          "type": "uint256"
        },
        {
          "internalType": "uint256",
          "name": "schoolId",
          "type": "uint256"
        },
        {
          "internalType": "address",
          "name": "editor",
          "type": "address"
        }
      ],
      "payable": false,
      "stateMutability": "view",
      "type": "function"
    },
    {
      "constant": true,
      "inputs": [],
      "name": "diplomaCount",
      "outputs": [
        {
          "internalType": "uint256",
          "name": "",
          "type": "uint256"
        }
      ],
      "payable": false,
      "stateMutability": "view",
      "type": "function"
    },
    {
      "constant": true,
      "inputs": [
        {
          "internalType": "uint256",
          "name": "",
          "type": "uint256"
        }
      ],
      "name": "diplomas",
      "outputs": [
        {
          "internalType": "uint256",
          "name": "id",
          "type": "uint256"
        },
        {
          "internalType": "uint256",
          "name": "idDegree",
          "type": "uint256"
        },
        {
          "internalType": "uint256",
          "name": "idStudent",
          "type": "uint256"
        },
        {
          "internalType": "bool",
          "name": "valid",
          "type": "bool"
        },
        {
          "internalType": "address",
          "name": "creator",
          "type": "address"
        }
      ],
      "payable": false,
      "stateMutability": "view",
      "type": "function"
    },
    {
      "constant": true,
      "inputs": [],
      "name": "master",
      "outputs": [
        {
          "internalType": "address",
          "name": "",
          "type": "address"
        }
      ],
      "payable": false,
      "stateMutability": "view",
      "type": "function"
    },
    {
      "constant": true,
      "inputs": [],
      "name": "masterCount",
      "outputs": [
        {
          "internalType": "uint256",
          "name": "",
          "type": "uint256"
        }
      ],
      "payable": false,
      "stateMutability": "view",
      "type": "function"
    },
    {
      "constant": true,
      "inputs": [
        {
          "internalType": "uint256",
          "name": "",
          "type": "uint256"
        }
      ],
      "name": "masters",
      "outputs": [
        {
          "internalType": "address",
          "name": "",
          "type": "address"
        }
      ],
      "payable": false,
      "stateMutability": "view",
      "type": "function"
    },
    {
      "constant": true,
      "inputs": [],
      "name": "schoolCount",
      "outputs": [
        {
          "internalType": "uint256",
          "name": "",
          "type": "uint256"
        }
      ],
      "payable": false,
      "stateMutability": "view",
      "type": "function"
    },
    {
      "constant": true,
      "inputs": [
        {
          "internalType": "uint256",
          "name": "",
          "type": "uint256"
        }
      ],
      "name": "schools",
      "outputs": [
        {
          "internalType": "uint256",
          "name": "id",
          "type": "uint256"
        },
        {
          "internalType": "string",
          "name": "name",
          "type": "string"
        },
        {
          "internalType": "uint256",
          "name": "count1",
          "type": "uint256"
        },
        {
          "internalType": "uint256",
          "name": "count2",
          "type": "uint256"
        },
        {
          "internalType": "address",
          "name": "editor",
          "type": "address"
        }
      ],
      "payable": false,
      "stateMutability": "view",
      "type": "function"
    },
    {
      "constant": true,
      "inputs": [],
      "name": "studentCount",
      "outputs": [
        {
          "internalType": "uint256",
          "name": "",
          "type": "uint256"
        }
      ],
      "payable": false,
      "stateMutability": "view",
      "type": "function"
    },
    {
      "constant": true,
      "inputs": [
        {
          "internalType": "uint256",
          "name": "",
          "type": "uint256"
        }
      ],
      "name": "students",
      "outputs": [
        {
          "internalType": "uint256",
          "name": "id",
          "type": "uint256"
        },
        {
          "internalType": "uint256",
          "name": "INE",
          "type": "uint256"
        },
        {
          "internalType": "string",
          "name": "firstName",
          "type": "string"
        },
        {
          "internalType": "string",
          "name": "lastName",
          "type": "string"
        },
        {
          "internalType": "uint256",
          "name": "birth",
          "type": "uint256"
        },
        {
          "internalType": "address",
          "name": "editor",
          "type": "address"
        }
      ],
      "payable": false,
      "stateMutability": "view",
      "type": "function"
    },
    {
      "constant": false,
      "inputs": [
        {
          "internalType": "string",
          "name": "_schoolName",
          "type": "string"
        },
        {
          "internalType": "address",
          "name": "_address",
          "type": "address"
        },
        {
          "internalType": "uint256",
          "name": "_lv",
          "type": "uint256"
        }
      ],
      "name": "addAddress",
      "outputs": [],
      "payable": false,
      "stateMutability": "nonpayable",
      "type": "function"
    },
    {
      "constant": false,
      "inputs": [
        {
          "internalType": "uint256",
          "name": "_INE",
          "type": "uint256"
        },
        {
          "internalType": "string",
          "name": "_firstName",
          "type": "string"
        },
        {
          "internalType": "string",
          "name": "_lastName",
          "type": "string"
        },
        {
          "internalType": "uint256",
          "name": "_birth",
          "type": "uint256"
        },
        {
          "internalType": "uint256",
          "name": "_dYear",
          "type": "uint256"
        },
        {
          "internalType": "string",
          "name": "_nameDegree",
          "type": "string"
        },
        {
          "internalType": "string",
          "name": "_schoolName",
          "type": "string"
        }
      ],
      "name": "createDiploma",
      "outputs": [
        {
          "internalType": "string",
          "name": "",
          "type": "string"
        }
      ],
      "payable": false,
      "stateMutability": "nonpayable",
      "type": "function"
    },
    {
      "constant": false,
      "inputs": [
        {
          "internalType": "uint256",
          "name": "_INE",
          "type": "uint256"
        },
        {
          "internalType": "string",
          "name": "_firstName",
          "type": "string"
        },
        {
          "internalType": "string",
          "name": "_lastName",
          "type": "string"
        },
        {
          "internalType": "uint256",
          "name": "_birth",
          "type": "uint256"
        }
      ],
      "name": "createStudent",
      "outputs": [],
      "payable": false,
      "stateMutability": "nonpayable",
      "type": "function"
    },
    {
      "constant": false,
      "inputs": [
        {
          "internalType": "string",
          "name": "_schoolName",
          "type": "string"
        },
        {
          "internalType": "address",
          "name": "_address2",
          "type": "address"
        }
      ],
      "name": "createSchool",
      "outputs": [
        {
          "internalType": "string",
          "name": "",
          "type": "string"
        }
      ],
      "payable": false,
      "stateMutability": "nonpayable",
      "type": "function"
    },
    {
      "constant": false,
      "inputs": [
        {
          "internalType": "uint256",
          "name": "_year",
          "type": "uint256"
        },
        {
          "internalType": "string",
          "name": "_nameDegree",
          "type": "string"
        },
        {
          "internalType": "string",
          "name": "_schoolName",
          "type": "string"
        }
      ],
      "name": "createDegree",
      "outputs": [],
      "payable": false,
      "stateMutability": "nonpayable",
      "type": "function"
    },
    {
      "constant": true,
      "inputs": [
        {
          "internalType": "uint256",
          "name": "_idSch",
          "type": "uint256"
        },
        {
          "internalType": "address",
          "name": "_address",
          "type": "address"
        }
      ],
      "name": "isAutorized",
      "outputs": [
        {
          "internalType": "uint256",
          "name": "",
          "type": "uint256"
        }
      ],
      "payable": false,
      "stateMutability": "view",
      "type": "function"
    },
    {
      "constant": true,
      "inputs": [
        {
          "internalType": "address",
          "name": "_address",
          "type": "address"
        }
      ],
      "name": "isMaster",
      "outputs": [
        {
          "internalType": "uint256",
          "name": "",
          "type": "uint256"
        }
      ],
      "payable": false,
      "stateMutability": "view",
      "type": "function"
    },
    {
      "constant": true,
      "inputs": [
        {
          "internalType": "string",
          "name": "_schoolName",
          "type": "string"
        }
      ],
      "name": "checkSchool",
      "outputs": [
        {
          "internalType": "uint256",
          "name": "",
          "type": "uint256"
        }
      ],
      "payable": false,
      "stateMutability": "view",
      "type": "function"
    },
    {
      "constant": true,
      "inputs": [
        {
          "internalType": "uint256",
          "name": "_INE",
          "type": "uint256"
        },
        {
          "internalType": "string",
          "name": "_firstName",
          "type": "string"
        },
        {
          "internalType": "string",
          "name": "_lastName",
          "type": "string"
        },
        {
          "internalType": "uint256",
          "name": "_birth",
          "type": "uint256"
        }
      ],
      "name": "checkStudent",
      "outputs": [
        {
          "internalType": "uint256",
          "name": "",
          "type": "uint256"
        }
      ],
      "payable": false,
      "stateMutability": "view",
      "type": "function"
    },
    {
      "constant": true,
      "inputs": [
        {
          "internalType": "uint256",
          "name": "_year",
          "type": "uint256"
        },
        {
          "internalType": "string",
          "name": "_nameDegree",
          "type": "string"
        },
        {
          "internalType": "string",
          "name": "_schoolName",
          "type": "string"
        }
      ],
      "name": "checkDegree",
      "outputs": [
        {
          "internalType": "uint256",
          "name": "",
          "type": "uint256"
        }
      ],
      "payable": false,
      "stateMutability": "view",
      "type": "function"
    },
    {
      "constant": true,
      "inputs": [
        {
          "internalType": "uint256",
          "name": "_INE",
          "type": "uint256"
        },
        {
          "internalType": "string",
          "name": "_firstName",
          "type": "string"
        },
        {
          "internalType": "string",
          "name": "_lastName",
          "type": "string"
        },
        {
          "internalType": "uint256",
          "name": "_birth",
          "type": "uint256"
        },
        {
          "internalType": "uint256",
          "name": "_dYear",
          "type": "uint256"
        },
        {
          "internalType": "string",
          "name": "_nameDegree",
          "type": "string"
        },
        {
          "internalType": "string",
          "name": "_schoolName",
          "type": "string"
        }
      ],
      "name": "getIdDiploma",
      "outputs": [
        {
          "internalType": "uint256",
          "name": "",
          "type": "uint256"
        }
      ],
      "payable": false,
      "stateMutability": "view",
      "type": "function"
    },
    {
      "constant": true,
      "inputs": [
        {
          "internalType": "uint256",
          "name": "_INE",
          "type": "uint256"
        },
        {
          "internalType": "string",
          "name": "_firstName",
          "type": "string"
        },
        {
          "internalType": "string",
          "name": "_lastName",
          "type": "string"
        },
        {
          "internalType": "uint256",
          "name": "_birth",
          "type": "uint256"
        },
        {
          "internalType": "uint256",
          "name": "_dYear",
          "type": "uint256"
        },
        {
          "internalType": "string",
          "name": "_nameDegree",
          "type": "string"
        },
        {
          "internalType": "string",
          "name": "_schoolName",
          "type": "string"
        }
      ],
      "name": "checkDiploma",
      "outputs": [
        {
          "internalType": "string",
          "name": "",
          "type": "string"
        }
      ],
      "payable": false,
      "stateMutability": "view",
      "type": "function"
    }
  ],
  "bytecode": "0x60806040526000808055600181905560028190556003819055600455600580546001600160a01b031916331790553480156200003a57600080fd5b506200004f336001600160e01b03620004c616565b620000a5640461d89775604051806040016040528060038152602001622137b160e91b8152506040518060400160405280600681526020016526b0b93a34b760d11b815250630132464f620004ff60201b60201c565b620000fd640f0df2240360405180604001604052806005815260200164416c69636560d81b81525060405180604001604052806006815260200165111d5c985b9960d21b8152506301232b18620004ff60201b60201c565b62000156640cb9ea33fe604051806040016040528060078152602001664d616c6c6f727960c81b81525060405180604001604052806006815260200165111d5c1bdb9960d21b8152506210f7c8620004ff60201b60201c565b60408051808201909152601181527054656c65636f6d2053756420506172697360781b60208201526200019390336001600160e01b036200070716565b5060408051808201909152600c81526b4b727970746f73706865726560a01b6020820152620001cc90336001600160e01b036200070716565b50620002366107e660405180604001604052806013815260200172213637b1b5b1b430b4b71022b733b4b732b2b960691b8152506040518060400160405280601181526020017054656c65636f6d2053756420506172697360781b8152506200094160201b60201c565b620002a46107e76040518060400160405280601481526020017f426c6f636b636861696e20446576656c6f7065720000000000000000000000008152506040518060400160405280600c81526020016b4b727970746f73706865726560a01b8152506200094160201b60201c565b62000353640461d89775604051806040016040528060038152602001622137b160e91b8152506040518060400160405280600681526020016526b0b93a34b760d11b815250630132464f6107e660405180604001604052806013815260200172213637b1b5b1b430b4b71022b733b4b732b2b960691b8152506040518060400160405280601181526020017054656c65636f6d2053756420506172697360781b81525062000d6360201b60201c565b506200040a640f0df2240360405180604001604052806005815260200164416c69636560d81b81525060405180604001604052806006815260200165111d5c985b9960d21b8152506301232b186107e76040518060400160405280601481526020017f426c6f636b636861696e20446576656c6f7065720000000000000000000000008152506040518060400160405280600c81526020016b4b727970746f73706865726560a01b81525062000d6360201b60201c565b50620004bf640461d89775604051806040016040528060038152602001622137b160e91b8152506040518060400160405280600681526020016526b0b93a34b760d11b815250630132464f6107e76040518060400160405280601481526020017f426c6f636b636861696e20446576656c6f7065720000000000000000000000008152506040518060400160405280600c81526020016b4b727970746f73706865726560a01b81525062000d6360201b60201c565b5062001c4d565b60048054600101908190556000908152600a6020526040902080546001600160a01b0319166001600160a01b0392909216919091179055565b62000516848484846001600160e01b0362000ea516565b62000701576001805481018082556040805160c081018252828152602080820189815282840189815260608401899052608084018890523360a08501526000958652600783529390942082518155935194840194909455905180519193620005879260028501929091019062001af2565b5060608201518051620005a591600384019160209091019062001af2565b506080820151816004015560a08201518160050160006101000a8154816001600160a01b0302191690836001600160a01b031602179055509050507ff123ab1a2d904e5492dbdcffe5c290d2d705f3a56e0f9502c055a46b3fe5fa1f60015485858585604051808681526020018581526020018060200180602001848152602001838103835286818151815260200191508051906020019080838360005b838110156200065d57818101518382015260200162000643565b50505050905090810190601f1680156200068b5780820380516001836020036101000a031916815260200191505b50838103825285518152855160209182019187019080838360005b83811015620006c0578181015183820152602001620006a6565b50505050905090810190601f168015620006ee5780820380516001836020036101000a031916815260200191505b5097505050505050505060405180910390a15b50505050565b60606200071d336001600160e01b036200126916565b156200091e5762000737836001600160e01b03620012b716565b620008e357600280546001908101918290556040805160a081018252838152602080820188815260008385018190526060840181905233608085015295865260088252929094208151815591518051919492936200079c939085019291019062001af2565b5060408281015160048301556060808401516005840155608093840151600690930180546001600160a01b03199081166001600160a01b0395861617909155600280546000908152600860209081528582206001835260030181528582208054909416968a1696909617909255548351818152339481018590528086018481528a519482019490945289517f83cda14def4bda5816386e3646981b0e9a7c492751248c7872b1e1ce5e4dfba89792968b96959294929385019290870191908190849084905b838110156200087b57818101518382015260200162000861565b50505050905090810190601f168015620008a95780820380516001836020036101000a031916815260200191505b5094505050505060405180910390a15060408051808201909152600d81526c14d8da1bdbdb10dc99585d1959609a1b60208201526200093b565b5060408051808201909152601581527f5363686f6f6c20616c726561647920657869737473000000000000000000000060208201526200093b565b6040518060600160405280602681526020016200544a6026913990505b92915050565b6200094b62001b77565b6000805b600254811162000b6957600860008281526020019081526020016000206040518060a001604052908160008201548152602001600182018054600181600116156101000203166002900480601f01602080910402602001604051908101604052809291908181526020018280546001816001161561010002031660029004801562000a1e5780601f10620009f25761010080835404028352916020019162000a1e565b820191906000526020600020905b81548152906001019060200180831162000a0057829003601f168201915b505050918352505060048201546020820152600582015460408201526006909101546001600160a01b0316606090910152925062000a6681336001600160e01b03620014eb16565b1580159062000b565750836040516020018082805190602001908083835b6020831062000aa55780518252601f19909201916020918201910162000a84565b6001836020036101000a0380198251168184511680821785525050505050509050019150506040516020818303038152906040528051906020012083602001516040516020018082805190602001908083835b6020831062000b195780518252601f19909201916020918201910162000af8565b6001836020036101000a03801982511681845116808217855250505050505090500191505060405160208183030381529060405280519060200120145b1562000b60578091505b6001016200094f565b50801562000d5c57600380546001908101918290556040805160c0810182528381526020808201898152828401899052606083018b9052608083018790523360a08401526000958652600982529290942081518155915180519194929362000bd8939085019291019062001af2565b506040820151805162000bf691600284019160209091019062001af2565b50606082015181600301556080820151816004015560a08201518160050160006101000a8154816001600160a01b0302191690836001600160a01b031602179055509050507fb8191de706947d348e4af82269a7e4b91362250c16b6775a4f8e71acf3fc6a4d60035482878787604051808681526020018581526020018481526020018060200180602001838103835285818151815260200191508051906020019080838360005b8381101562000cb857818101518382015260200162000c9e565b50505050905090810190601f16801562000ce65780820380516001836020036101000a031916815260200191505b50838103825284518152845160209182019186019080838360005b8381101562000d1b57818101518382015260200162000d01565b50505050905090810190601f16801562000d495780820380516001836020036101000a031916815260200191505b5097505050505050505060405180910390a15b5050505050565b6060600062000d7e898989896001600160e01b0362000ea516565b9050600062000d988686866001600160e01b03620015bc16565b90508162000dbd5762000db78a8a8a8a6001600160e01b03620004ff16565b60015491505b8062000e03576040518060400160405280601581526020017f44656772656520646f65736e27742065786973747300000000000000000000008152509250505062000e9a565b60008181526009602052604090206004015462000e2a81336001600160e01b03620014eb16565b62000e71576000600262000e4883336001600160e01b03620014eb16565b1062000e52575060015b62000e69838583336001600160e01b036200198516565b505062000e96565b6040518060600160405280603481526020016200547060349139935050505062000e9a565b5050505b979650505050505050565b600062000eb162001baf565b60015b60015481116200125a57600760008281526020019081526020016000206040518060c00160405290816000820154815260200160018201548152602001600282018054600181600116156101000203166002900480601f01602080910402602001604051908101604052809291908181526020018280546001816001161561010002031660029004801562000f8d5780601f1062000f615761010080835404028352916020019162000f8d565b820191906000526020600020905b81548152906001019060200180831162000f6f57829003601f168201915b505050918352505060038201805460408051602060026001851615610100026000190190941693909304601f8101849004840282018401909252818152938201939291830182828015620010255780601f1062000ff95761010080835404028352916020019162001025565b820191906000526020600020905b8154815290600101906020018083116200100757829003601f168201915b505050918352505060048201546020808301919091526005909201546001600160a01b031660409091015281015190925087148015620010685750838260800151145b156200125157856040516020018082805190602001908083835b60208310620010a35780518252601f19909201916020918201910162001082565b6001836020036101000a0380198251168184511680821785525050505050509050019150506040516020818303038152906040528051906020012082604001516040516020018082805190602001908083835b60208310620011175780518252601f199092019160209182019101620010f6565b6001836020036101000a03801982511681845116808217855250505050505090500191505060405160208183030381529060405280519060200120148015620012415750846040516020018082805190602001908083835b60208310620011905780518252601f1990920191602091820191016200116f565b6001836020036101000a0380198251168184511680821785525050505050509050019150506040516020818303038152906040528051906020012082606001516040516020018082805190602001908083835b60208310620012045780518252601f199092019160209182019101620011e3565b6001836020036101000a03801982511681845116808217855250505050505090500191505060405160208183030381529060405280519060200120145b1562001251579150620012619050565b60010162000eb4565b5060009150505b949350505050565b600060015b6004548111620012ac576000818152600a60205260409020546001600160a01b0384811691161415620012a3579050620012b2565b6001016200126e565b50600090505b919050565b6000620012c362001b77565b60015b6002548111620014e157600860008281526020019081526020016000206040518060a001604052908160008201548152602001600182018054600181600116156101000203166002900480601f016020809104026020016040519081016040528092919081815260200182805460018160011615610100020316600290048015620013955780601f10620013695761010080835404028352916020019162001395565b820191906000526020600020905b8154815290600101906020018083116200137757829003601f168201915b5050505050815260200160048201548152602001600582015481526020016006820160009054906101000a90046001600160a01b03166001600160a01b03166001600160a01b0316815250509150836040516020018082805190602001908083835b60208310620014185780518252601f199092019160209182019101620013f7565b6001836020036101000a0380198251168184511680821785525050505050509050019150506040516020818303038152906040528051906020012082602001516040516020018082805190602001908083835b602083106200148c5780518252601f1990920191602091820191016200146b565b6001836020036101000a038019825116818451168082178552505050505050905001915050604051602081830303815290604052805190602001201415620014d8579150620012b29050565b600101620012c6565b5060009392505050565b600062001501826001600160e01b036200126916565b1562001510575060036200093b565b600083815260086020526040902060015b81600501548111620015675760008181526003830160205260409020546001600160a01b03858116911614156200155e576002925050506200093b565b60010162001521565b5060015b81600401548111620015b15760008181526002830160205260409020546001600160a01b0385811691161415620015a8576001925050506200093b565b6001016200156b565b506000949350505050565b6000620015c862001bee565b60015b60035481116200197757600960008281526020019081526020016000206040518060c001604052908160008201548152602001600182018054600181600116156101000203166002900480601f0160208091040260200160405190810160405280929190818152602001828054600181600116156101000203166002900480156200169a5780601f106200166e576101008083540402835291602001916200169a565b820191906000526020600020905b8154815290600101906020018083116200167c57829003601f168201915b5050509183525050600282810180546040805160206001841615610100026000190190931694909404601f81018390048302850183019091528084529381019390830182828015620017305780601f10620017045761010080835404028352916020019162001730565b820191906000526020600020905b8154815290600101906020018083116200171257829003601f168201915b5050505050815260200160038201548152602001600482015481526020016005820160009054906101000a90046001600160a01b03166001600160a01b03166001600160a01b0316815250509150846040516020018082805190602001908083835b60208310620017b35780518252601f19909201916020918201910162001792565b6001836020036101000a0380198251168184511680821785525050505050509050019150506040516020818303038152906040528051906020012082602001516040516020018082805190602001908083835b60208310620018275780518252601f19909201916020918201910162001806565b6001836020036101000a03801982511681845116808217855250505050505090500191505060405160208183030381529060405280519060200120148015620019515750836040516020018082805190602001908083835b60208310620018a05780518252601f1990920191602091820191016200187f565b6001836020036101000a0380198251168184511680821785525050505050509050019150506040516020818303038152906040528051906020012082604001516040516020018082805190602001908083835b60208310620019145780518252601f199092019160209182019101620018f3565b6001836020036101000a03801982511681845116808217855250505050505090500191505060405160208183030381529060405280519060200120145b156200196e5785826060015114156200196e5791506200197e9050565b600101620015cb565b5060009150505b9392505050565b606060015484111580156200199c57506003548511155b156200126157600085815260096020526040902060040154620019c981336001600160e01b03620014eb16565b1562001ae9576000805460019081018083556040805160a08101825282815260208082018c81528284018c81528b151560608086018281526001600160a01b03808f166080808a018281529b8e52600689529c8a90209851895595519a88019a909a5592516002870155915160039095018054975190981661010002610100600160a81b031995151560ff1990981697909717949094169590951790955582518c81529081018b9052808301919091529182019290925290517f39a6bebf4a890b07ed287c5e07c21772ebbbd0e5e352486a8df23352c52168f4929181900390910190a1505060408051808201909152601c81527f4469706c6f6d61205375636365737366756c6c79204372656174656400000000602082015262001261565b50949350505050565b828054600181600116156101000203166002900490600052602060002090601f016020900481019282601f1062001b3557805160ff191683800117855562001b65565b8280016001018555821562001b65579182015b8281111562001b6557825182559160200191906001019062001b48565b5062001b7392915062001c2d565b5090565b6040518060a001604052806000815260200160608152602001600081526020016000815260200160006001600160a01b031681525090565b6040518060c00160405280600081526020016000815260200160608152602001606081526020016000815260200160006001600160a01b031681525090565b6040518060c00160405280600081526020016060815260200160608152602001600081526020016000815260200160006001600160a01b031681525090565b62001c4a91905b8082111562001b73576000815560010162001c34565b90565b6137ed8062001c5d6000396000f3fe608060405234801561001057600080fd5b506004361061014d5760003560e01c8063719c0d04116100c3578063bf23e63b1161007c578063bf23e63b14610d50578063ce91b47f14610f96578063e581f9ee14611045578063ee97f7f31461104d578063f720f80b14611055578063fcf8642e1461107b5761014d565b8063719c0d04146107e45780637b351cba146108a75780637f9ed4501461094b57806381f1c3bc14610b315780639e76460314610c16578063a1cebf5214610c1e5761014d565b8063371c6fd711610115578063371c6fd714610461578063454ddc171461048d5780635a471b6b146105bf5780635b1ad536146106f157806360961874146107a35780636920613f146107dc5761014d565b806306192f0f1461015257806306ead22e146102d557806328d88890146103fe57806335dfc1c3146104065780633660096b14610459575b600080fd5b6102c3600480360360e081101561016857600080fd5b81359190810190604081016020820135600160201b81111561018957600080fd5b82018360208201111561019b57600080fd5b803590602001918460018302840111600160201b831117156101bc57600080fd5b919390929091602081019035600160201b8111156101d957600080fd5b8201836020820111156101eb57600080fd5b803590602001918460018302840111600160201b8311171561020c57600080fd5b919390928235926020810135929190606081019060400135600160201b81111561023557600080fd5b82018360208201111561024757600080fd5b803590602001918460018302840111600160201b8311171561026857600080fd5b919390929091602081019035600160201b81111561028557600080fd5b82018360208201111561029757600080fd5b803590602001918460018302840111600160201b831117156102b857600080fd5b5090925090506111ab565b60408051918252519081900360200190f35b6102f2600480360360208110156102eb57600080fd5b5035611371565b604051808781526020018681526020018060200180602001858152602001846001600160a01b03166001600160a01b03168152602001838103835287818151815260200191508051906020019080838360005b8381101561035d578181015183820152602001610345565b50505050905090810190601f16801561038a5780820380516001836020036101000a031916815260200191505b50838103825286518152865160209182019188019080838360005b838110156103bd5781810151838201526020016103a5565b50505050905090810190601f1680156103ea5780820380516001836020036101000a031916815260200191505b509850505050505050505060405180910390f35b6102c36114c0565b6104236004803603602081101561041c57600080fd5b50356114c6565b60408051958652602086019490945284840192909252151560608401526001600160a01b03166080830152519081900360a00190f35b6102c3611500565b6102c36004803603604081101561047757600080fd5b50803590602001356001600160a01b0316611506565b6105bd600480360360608110156104a357600080fd5b81359190810190604081016020820135600160201b8111156104c457600080fd5b8201836020820111156104d657600080fd5b803590602001918460018302840111600160201b831117156104f757600080fd5b91908080601f0160208091040260200160405190810160405280939291908181526020018383808284376000920191909152509295949360208101935035915050600160201b81111561054957600080fd5b82018360208201111561055b57600080fd5b803590602001918460018302840111600160201b8311171561057c57600080fd5b91908080601f0160208091040260200160405190810160405280939291908181526020018383808284376000920191909152509295506115c4945050505050565b005b6102c3600480360360808110156105d557600080fd5b81359190810190604081016020820135600160201b8111156105f657600080fd5b82018360208201111561060857600080fd5b803590602001918460018302840111600160201b8311171561062957600080fd5b91908080601f0160208091040260200160405190810160405280939291908181526020018383808284376000920191909152509295949360208101935035915050600160201b81111561067b57600080fd5b82018360208201111561068d57600080fd5b803590602001918460018302840111600160201b831117156106ae57600080fd5b91908080601f01602080910402602001604051908101604052809392919081815260200183838082843760009201919091525092955050913592506119c2915050565b6105bd6004803603606081101561070757600080fd5b810190602081018135600160201b81111561072157600080fd5b82018360208201111561073357600080fd5b803590602001918460018302840111600160201b8311171561075457600080fd5b91908080601f016020809104026020016040519081016040528093929190818152602001838380828437600092019190915250929550506001600160a01b038335169350505060200135611d6d565b6107c0600480360360208110156107b957600080fd5b5035611e38565b604080516001600160a01b039092168252519081900360200190f35b6102c3611e53565b610801600480360360208110156107fa57600080fd5b5035611e59565b6040518086815260200180602001858152602001848152602001836001600160a01b03166001600160a01b03168152602001828103825286818151815260200191508051906020019080838360005b83811015610868578181015183820152602001610850565b50505050905090810190601f1680156108955780820380516001836020036101000a031916815260200191505b50965050505050505060405180910390f35b6102c3600480360360208110156108bd57600080fd5b810190602081018135600160201b8111156108d757600080fd5b8201836020820111156108e957600080fd5b803590602001918460018302840111600160201b8311171561090a57600080fd5b91908080601f016020809104026020016040519081016040528093929190818152602001838380828437600092019190915250929550611f1d945050505050565b610abc600480360360e081101561096157600080fd5b81359190810190604081016020820135600160201b81111561098257600080fd5b82018360208201111561099457600080fd5b803590602001918460018302840111600160201b831117156109b557600080fd5b919390929091602081019035600160201b8111156109d257600080fd5b8201836020820111156109e457600080fd5b803590602001918460018302840111600160201b83111715610a0557600080fd5b919390928235926020810135929190606081019060400135600160201b811115610a2e57600080fd5b820183602082011115610a4057600080fd5b803590602001918460018302840111600160201b83111715610a6157600080fd5b919390929091602081019035600160201b811115610a7e57600080fd5b820183602082011115610a9057600080fd5b803590602001918460018302840111600160201b83111715610ab157600080fd5b509092509050612145565b6040805160208082528351818301528351919283929083019185019080838360005b83811015610af6578181015183820152602001610ade565b50505050905090810190601f168015610b235780820380516001836020036101000a031916815260200191505b509250505060405180910390f35b610b4e60048036036020811015610b4757600080fd5b50356124af565b604051808781526020018060200180602001868152602001858152602001846001600160a01b03166001600160a01b03168152602001838103835288818151815260200191508051906020019080838360005b83811015610bb9578181015183820152602001610ba1565b50505050905090810190601f168015610be65780820380516001836020036101000a031916815260200191505b508381038252875181528751602091820191890190808383600083156103bd5781810151838201526020016103a5565b6102c3612605565b6105bd60048036036080811015610c3457600080fd5b81359190810190604081016020820135600160201b811115610c5557600080fd5b820183602082011115610c6757600080fd5b803590602001918460018302840111600160201b83111715610c8857600080fd5b91908080601f0160208091040260200160405190810160405280939291908181526020018383808284376000920191909152509295949360208101935035915050600160201b811115610cda57600080fd5b820183602082011115610cec57600080fd5b803590602001918460018302840111600160201b83111715610d0d57600080fd5b91908080601f016020809104026020016040519081016040528093929190818152602001838380828437600092019190915250929550509135925061260b915050565b610abc600480360360e0811015610d6657600080fd5b81359190810190604081016020820135600160201b811115610d8757600080fd5b820183602082011115610d9957600080fd5b803590602001918460018302840111600160201b83111715610dba57600080fd5b91908080601f0160208091040260200160405190810160405280939291908181526020018383808284376000920191909152509295949360208101935035915050600160201b811115610e0c57600080fd5b820183602082011115610e1e57600080fd5b803590602001918460018302840111600160201b83111715610e3f57600080fd5b91908080601f0160208091040260200160405190810160405280939291908181526020018383808284376000920191909152509295843595602086013595919450925060608101915060400135600160201b811115610e9d57600080fd5b820183602082011115610eaf57600080fd5b803590602001918460018302840111600160201b83111715610ed057600080fd5b91908080601f0160208091040260200160405190810160405280939291908181526020018383808284376000920191909152509295949360208101935035915050600160201b811115610f2257600080fd5b820183602082011115610f3457600080fd5b803590602001918460018302840111600160201b83111715610f5557600080fd5b91908080601f0160208091040260200160405190810160405280939291908181526020018383808284376000920191909152509295506127fd945050505050565b610abc60048036036040811015610fac57600080fd5b810190602081018135600160201b811115610fc657600080fd5b820183602082011115610fd857600080fd5b803590602001918460018302840111600160201b83111715610ff957600080fd5b91908080601f016020809104026020016040519081016040528093929190818152602001838380828437600092019190915250929550505090356001600160a01b031691506128ed9050565b6102c3612afd565b6107c0612b03565b6102c36004803603602081101561106b57600080fd5b50356001600160a01b0316612b12565b6102c36004803603606081101561109157600080fd5b81359190810190604081016020820135600160201b8111156110b257600080fd5b8201836020820111156110c457600080fd5b803590602001918460018302840111600160201b831117156110e557600080fd5b91908080601f0160208091040260200160405190810160405280939291908181526020018383808284376000920191909152509295949360208101935035915050600160201b81111561113757600080fd5b82018360208201111561114957600080fd5b803590602001918460018302840111600160201b8311171561116a57600080fd5b91908080601f016020809104026020016040519081016040528093929190818152602001838380828437600092019190915250929550612b5a945050505050565b6000806112228787878080601f01602080910402602001604051908101604052809392919081815260200183838082843760009201919091525050604080516020601f8b018190048102820181019092528981529250899150889081908401838280828437600092019190915250612b5a92505050565b905060006112ad8e8e8e8080601f016020809104026020016040519081016040528093929190818152602001838380828437600081840152601f19601f820116905080830192505050505050508d8d8080601f0160208091040260200160405190810160405280939291908181526020018383808284376000920191909152508f92506119c2915050565b90506112b76135d3565b81158015906112c557508215155b1561135a5760015b600054811161135857600081815260066020908152604091829020825160a0810184528154815260018201549281019290925260028101549282018390526003015460ff81161515606083015261010090046001600160a01b031660808201529250831480156113405750838260200151145b1561135057935061136292505050565b6001016112cd565b505b600093505050505b9b9a5050505050505050505050565b60076020908152600091825260409182902080546001808301546002808501805488519481161561010002600019011691909104601f8101879004870284018701909752868352929590949192918301828280156114105780601f106113e557610100808354040283529160200191611410565b820191906000526020600020905b8154815290600101906020018083116113f357829003601f168201915b5050505060038301805460408051602060026001851615610100026000190190941693909304601f81018490048402820184019092528181529495949350908301828280156114a05780601f10611475576101008083540402835291602001916114a0565b820191906000526020600020905b81548152906001019060200180831161148357829003601f168201915b5050505060048301546005909301549192916001600160a01b0316905086565b60025481565b60066020526000908152604090208054600182015460028301546003909301549192909160ff81169061010090046001600160a01b031685565b60035481565b600061151182612b12565b1561151e575060036115be565b600083815260086020526040902060015b816005015481116115715760008181526003830160205260409020546001600160a01b0385811691161415611569576002925050506115be565b60010161152f565b5060015b816004015481116115b75760008181526002830160205260409020546001600160a01b03858116911614156115af576001925050506115be565b600101611575565b5060009150505b92915050565b6115cc61360d565b6000805b60025481116117d357600860008281526020019081526020016000206040518060a001604052908160008201548152602001600182018054600181600116156101000203166002900480601f01602080910402602001604051908101604052809291908181526020018280546001816001161561010002031660029004801561169a5780601f1061166f5761010080835404028352916020019161169a565b820191906000526020600020905b81548152906001019060200180831161167d57829003601f168201915b505050918352505060048201546020820152600582015460408201526006909101546001600160a01b031660609091015292506116d78133611506565b158015906117c25750836040516020018082805190602001908083835b602083106117135780518252601f1990920191602091820191016116f4565b6001836020036101000a0380198251168184511680821785525050505050509050019150506040516020818303038152906040528051906020012083602001516040516020018082805190602001908083835b602083106117855780518252601f199092019160209182019101611766565b6001836020036101000a03801982511681845116808217855250505050505090500191505060405160208183030381529060405280519060200120145b156117cb578091505b6001016115d0565b5080156119bb57600380546001908101918290556040805160c0810182528381526020808201898152828401899052606083018b9052608083018790523360a08401526000958652600982529290942081518155915180519194929361183f9390850192910190613645565b506040820151805161185b916002840191602090910190613645565b50606082015181600301556080820151816004015560a08201518160050160006101000a8154816001600160a01b0302191690836001600160a01b031602179055509050507fb8191de706947d348e4af82269a7e4b91362250c16b6775a4f8e71acf3fc6a4d60035482878787604051808681526020018581526020018481526020018060200180602001838103835285818151815260200191508051906020019080838360005b8381101561191b578181015183820152602001611903565b50505050905090810190601f1680156119485780820380516001836020036101000a031916815260200191505b50838103825284518152845160209182019186019080838360005b8381101561197b578181015183820152602001611963565b50505050905090810190601f1680156119a85780820380516001836020036101000a031916815260200191505b5097505050505050505060405180910390a15b5050505050565b60006119cc6136c3565b60015b6001548111611d5e57600760008281526020019081526020016000206040518060c00160405290816000820154815260200160018201548152602001600282018054600181600116156101000203166002900480601f016020809104026020016040519081016040528092919081815260200182805460018160011615610100020316600290048015611aa35780601f10611a7857610100808354040283529160200191611aa3565b820191906000526020600020905b815481529060010190602001808311611a8657829003601f168201915b505050918352505060038201805460408051602060026001851615610100026000190190941693909304601f8101849004840282018401909252818152938201939291830182828015611b375780601f10611b0c57610100808354040283529160200191611b37565b820191906000526020600020905b815481529060010190602001808311611b1a57829003601f168201915b505050918352505060048201546020808301919091526005909201546001600160a01b031660409091015281015190925087148015611b795750838260800151145b15611d5657856040516020018082805190602001908083835b60208310611bb15780518252601f199092019160209182019101611b92565b6001836020036101000a0380198251168184511680821785525050505050509050019150506040516020818303038152906040528051906020012082604001516040516020018082805190602001908083835b60208310611c235780518252601f199092019160209182019101611c04565b6001836020036101000a03801982511681845116808217855250505050505090500191505060405160208183030381529060405280519060200120148015611d485750846040516020018082805190602001908083835b60208310611c995780518252601f199092019160209182019101611c7a565b6001836020036101000a0380198251168184511680821785525050505050509050019150506040516020818303038152906040528051906020012082606001516040516020018082805190602001908083835b60208310611d0b5780518252601f199092019160209182019101611cec565b6001836020036101000a03801982511681845116808217855250505050505090500191505060405160208183030381529060405280519060200120145b15611d56579150611d659050565b6001016119cf565b5060009150505b949350505050565b611d78600033611506565b60031415611e33578060031415611d9257611d9282612f0b565b6000611d9d84611f1d565b60008181526008602052604090209091506001831415611dee57600481018054600101908190556000908152600282016020526040902080546001600160a01b0319166001600160a01b0386161790555b82600214156119bb5760048101805460010190556005810154600090815260029091016020526040902080546001600160a01b0319166001600160a01b038516179055505b505050565b600a602052600090815260409020546001600160a01b031681565b60005481565b6008602090815260009182526040918290208054600180830180548651600293821615610100026000190190911692909204601f810186900486028301860190965285825291949293909290830182828015611ef65780601f10611ecb57610100808354040283529160200191611ef6565b820191906000526020600020905b815481529060010190602001808311611ed957829003601f168201915b5050505060048301546005840154600690940154929390929091506001600160a01b031685565b6000611f2761360d565b60015b600254811161213957600860008281526020019081526020016000206040518060a001604052908160008201548152602001600182018054600181600116156101000203166002900480601f016020809104026020016040519081016040528092919081815260200182805460018160011615610100020316600290048015611ff45780601f10611fc957610100808354040283529160200191611ff4565b820191906000526020600020905b815481529060010190602001808311611fd757829003601f168201915b5050505050815260200160048201548152602001600582015481526020016006820160009054906101000a90046001600160a01b03166001600160a01b03166001600160a01b0316815250509150836040516020018082805190602001908083835b602083106120755780518252601f199092019160209182019101612056565b6001836020036101000a0380198251168184511680821785525050505050509050019150506040516020818303038152906040528051906020012082602001516040516020018082805190602001908083835b602083106120e75780518252601f1990920191602091820191016120c8565b6001836020036101000a0380198251168184511680821785525050505050509050019150506040516020818303038152906040528051906020012014156121315791506121409050565b600101611f2a565b5060009150505b919050565b60608b6122325761222b8b8b8080601f01602080910402602001604051908101604052809392919081815260200183838082843760009201919091525050604080516020601f8f018190048102820181019092528d815292508d91508c908190840183828082843760009201919091525050604080516020601f8c018190048102820181019092528a81528d93508c9250908b908b908190840183828082843760009201919091525050604080516020601f8d018190048102820181019092528b815292508b91508a9081908401838280828437600092019190915250612f4492505050565b9050611362565b60006122a88787878080601f01602080910402602001604051908101604052809392919081815260200183838082843760009201919091525050604080516020601f8b018190048102820181019092528981529250899150889081908401838280828437600092019190915250612b5a92505050565b905060006123338e8e8e8080601f016020809104026020016040519081016040528093929190818152602001838380828437600081840152601f19601f820116905080830192505050505050508d8d8080601f0160208091040260200160405190810160405280939291908181526020018383808284376000920191909152508f92506119c2915050565b905080612379576040518060400160405280601a81526020017f546869732073747564656e7420646f65736e277420657869737400000000000081525092505050611362565b816123bd576040518060400160405280601981526020017f546869732064656772656520646f65736e27742065786973740000000000000081525092505050611362565b6123c56135d3565b81158015906123d357508215155b156124835760015b600054811161248157600081815260066020908152604091829020825160a0810184528154815260018201549281019290925260028101549282018390526003015460ff81161515606083015261010090046001600160a01b0316608082015292508314801561244e5750838260200151145b1561247957604051806040016040528060028152602001614f4b60f01b815250945050505050611362565b6001016123db565b505b50506040805180820190915260028152614e6f60f01b60208201529d9c50505050505050505050505050565b6009602090815260009182526040918290208054600180830180548651600293821615610100026000190190911692909204601f81018690048602830186019096528582529194929390929083018282801561254c5780601f106125215761010080835404028352916020019161254c565b820191906000526020600020905b81548152906001019060200180831161252f57829003601f168201915b50505060028085018054604080516020601f60001961010060018716150201909416959095049283018590048502810185019091528181529596959450909250908301828280156125de5780601f106125b3576101008083540402835291602001916125de565b820191906000526020600020905b8154815290600101906020018083116125c157829003601f168201915b5050505060038301546004840154600590940154929390929091506001600160a01b031686565b60045481565b612617848484846119c2565b6127f7576001805481018082556040805160c081018252828152602080820189815282840189815260608401899052608084018890523360a0850152600095865260078352939094208251815593519484019490945590518051919361268592600285019290910190613645565b50606082015180516126a1916003840191602090910190613645565b506080820151816004015560a08201518160050160006101000a8154816001600160a01b0302191690836001600160a01b031602179055509050507ff123ab1a2d904e5492dbdcffe5c290d2d705f3a56e0f9502c055a46b3fe5fa1f60015485858585604051808681526020018581526020018060200180602001848152602001838103835286818151815260200191508051906020019080838360005b8381101561275757818101518382015260200161273f565b50505050905090810190601f1680156127845780820380516001836020036101000a031916815260200191505b50838103825285518152855160209182019187019080838360005b838110156127b757818101518382015260200161279f565b50505050905090810190601f1680156127e45780820380516001836020036101000a031916815260200191505b5097505050505050505060405180910390a15b50505050565b6060600061280d898989896119c2565b9050600061281c868686612b5a565b9050816128355761282f8a8a8a8a61260b565b60015491505b80612871576040518060400160405280601581526020017444656772656520646f65736e27742065786973747360581b815250925050506128e2565b60008181526009602052604090206004015461288d8133611506565b6128bb576000600261289f8333611506565b106128a8575060015b6128b483858333613475565b50506128de565b6040518060600160405280603481526020016137856034913993505050506128e2565b5050505b979650505050505050565b60606128f833612b12565b15612add5761290683611f1d565b612aab57600280546001908101918290556040805160a081018252838152602080820188815260008385018190526060840181905233608085015295865260088252929094208151815591518051919492936129689390850192910190613645565b5060408281015160048301556060808401516005840155608093840151600690930180546001600160a01b03199081166001600160a01b0395861617909155600280546000908152600860209081528582206001835260030181528582208054909416968a1696909617909255548351818152339481018590528086018481528a519482019490945289517f83cda14def4bda5816386e3646981b0e9a7c492751248c7872b1e1ce5e4dfba89792968b96959294929385019290870191908190849084905b83811015612a45578181015183820152602001612a2d565b50505050905090810190601f168015612a725780820380516001836020036101000a031916815260200191505b5094505050505060405180910390a15060408051808201909152600d81526c14d8da1bdbdb10dc99585d1959609a1b60208201526115be565b506040805180820190915260158152745363686f6f6c20616c72656164792065786973747360581b60208201526115be565b60405180606001604052806026815260200161375f602691399392505050565b60015481565b6005546001600160a01b031681565b600060015b6004548111612b51576000818152600a60205260409020546001600160a01b0384811691161415612b49579050612140565b600101612b17565b50600092915050565b6000612b64613702565b60015b6003548111612efd57600960008281526020019081526020016000206040518060c001604052908160008201548152602001600182018054600181600116156101000203166002900480601f016020809104026020016040519081016040528092919081815260200182805460018160011615610100020316600290048015612c315780601f10612c0657610100808354040283529160200191612c31565b820191906000526020600020905b815481529060010190602001808311612c1457829003601f168201915b5050509183525050600282810180546040805160206001841615610100026000190190931694909404601f81018390048302850183019091528084529381019390830182828015612cc35780601f10612c9857610100808354040283529160200191612cc3565b820191906000526020600020905b815481529060010190602001808311612ca657829003601f168201915b5050505050815260200160038201548152602001600482015481526020016005820160009054906101000a90046001600160a01b03166001600160a01b03166001600160a01b0316815250509150846040516020018082805190602001908083835b60208310612d445780518252601f199092019160209182019101612d25565b6001836020036101000a0380198251168184511680821785525050505050509050019150506040516020818303038152906040528051906020012082602001516040516020018082805190602001908083835b60208310612db65780518252601f199092019160209182019101612d97565b6001836020036101000a03801982511681845116808217855250505050505090500191505060405160208183030381529060405280519060200120148015612edb5750836040516020018082805190602001908083835b60208310612e2c5780518252601f199092019160209182019101612e0d565b6001836020036101000a0380198251168184511680821785525050505050509050019150506040516020818303038152906040528051906020012082604001516040516020018082805190602001908083835b60208310612e9e5780518252601f199092019160209182019101612e7f565b6001836020036101000a03801982511681845116808217855250505050505090500191505060405160208183030381529060405280519060200120145b15612ef5578582606001511415612ef5579150612f049050565b600101612b67565b5060009150505b9392505050565b60048054600101908190556000908152600a6020526040902080546001600160a01b0319166001600160a01b0392909216919091179055565b60606000612f506136c3565b600060015b60015481116132d157600760008281526020019081526020016000206040518060c00160405290816000820154815260200160018201548152602001600282018054600181600116156101000203166002900480601f0160208091040260200160405190810160405280929190818152602001828054600181600116156101000203166002900480156130295780601f10612ffe57610100808354040283529160200191613029565b820191906000526020600020905b81548152906001019060200180831161300c57829003601f168201915b505050918352505060038201805460408051602060026001851615610100026000190190941693909304601f81018490048402820184019092528181529382019392918301828280156130bd5780601f10613092576101008083540402835291602001916130bd565b820191906000526020600020905b8154815290600101906020018083116130a057829003601f168201915b5050509183525050600482015460208201526005909101546001600160a01b031660409091015260808101519093508914156132c9578a6040516020018082805190602001908083835b602083106131265780518252601f199092019160209182019101613107565b6001836020036101000a0380198251168184511680821785525050505050509050019150506040516020818303038152906040528051906020012083604001516040516020018082805190602001908083835b602083106131985780518252601f199092019160209182019101613179565b6001836020036101000a038019825116818451168082178552505050505050905001915050604051602081830303815290604052805190602001201480156132bd5750896040516020018082805190602001908083835b6020831061320e5780518252601f1990920191602091820191016131ef565b6001836020036101000a0380198251168184511680821785525050505050509050019150506040516020818303038152906040528051906020012083606001516040516020018082805190602001908083835b602083106132805780518252601f199092019160209182019101613261565b6001836020036101000a03801982511681845116808217855250505050505090500191505060405160208183030381529060405280519060200120145b156132c9579250600101825b600101612f55565b5080613317576040518060400160405280601a81526020017f546869732073747564656e7420646f65736e2774206578697374000000000000815250935050505061346b565b6001811115613360576040518060400160405280601781526020017f4475706c69636174652c20747279207769746820494e45000000000000000000815250935050505061346b565b8060011415613467576000613376888888612b5a565b90506133806135d3565b841580159061338e57508115155b156134405760015b600054811161343e57600081815260066020908152604091829020825160a0810184528154815260018201549281019290925260028101549282018390526003015460ff81161515606083015261010090046001600160a01b031660808201529250861480156134095750828260200151145b1561343657604051806040016040528060028152602001614f4b60f01b815250965050505050505061346b565b600101613396565b505b604051806040016040528060028152602001614e4f60f01b8152509550505050505061346b565b5050505b9695505050505050565b6060600154841115801561348b57506003548511155b15611d65576000858152600960205260409020600401546134ac8133611506565b156135ca576000805460019081018083556040805160a08101825282815260208082018c81528284018c81528b151560608086018281526001600160a01b03808f166080808a018281529b8e52600689529c8a90209851895595519a88019a909a5592516002870155915160039095018054975190981661010002610100600160a81b031995151560ff1990981697909717949094169590951790955582518c81529081018b9052808301919091529182019290925290517f39a6bebf4a890b07ed287c5e07c21772ebbbd0e5e352486a8df23352c52168f4929181900390910190a1505060408051808201909152601c81527f4469706c6f6d61205375636365737366756c6c792043726561746564000000006020820152611d65565b50949350505050565b6040518060a0016040528060008152602001600081526020016000815260200160001515815260200160006001600160a01b031681525090565b6040518060a001604052806000815260200160608152602001600081526020016000815260200160006001600160a01b031681525090565b828054600181600116156101000203166002900490600052602060002090601f016020900481019282601f1061368657805160ff19168380011785556136b3565b828001600101855582156136b3579182015b828111156136b3578251825591602001919060010190613698565b506136bf929150613741565b5090565b6040518060c00160405280600081526020016000815260200160608152602001606081526020016000815260200160006001600160a01b031681525090565b6040518060c00160405280600081526020016060815260200160608152602001600081526020016000815260200160006001600160a01b031681525090565b61375b91905b808211156136bf5760008155600101613747565b9056fe4e6f206d616e2063616e2073657276652074776f206d617374657273284d617420363a3234295065726d697373696f6e2044656e69656420636865636b20696620796f75722061646472657373206973206175746f72697a6564a265627a7a72315820443bbf5a08dd9126dcd547c1e04c61a7f596e44b55ab267ab5d2ea6beb397e7064736f6c634300051000324e6f206d616e2063616e2073657276652074776f206d617374657273284d617420363a3234295065726d697373696f6e2044656e69656420636865636b20696620796f75722061646472657373206973206175746f72697a6564",
  "source": "pragma solidity >=0.5.16;\n\n\ncontract DiplomaStorage {\n    uint public diplomaCount = 0;\n    uint public studentCount = 0;\n    uint public schoolCount = 0;\n    uint public degreeCount = 0;\n    uint public masterCount = 0;\n    \n    //Address to be modified if you want to do tests\n    address public master = msg.sender;\n    \n    \n    \n  \n\n\n\n\n    //Association between a student and a diploma (this is how the diploma is awarded).\n    struct Diploma {\n        uint id;\n        uint idDegree;\n        uint idStudent;\n        bool valid;\n        address creator;\n    }\n\n    event DiplomaCreated(\n        uint idDegree,\n        uint idStudent,\n        bool valid,\n        address creator);\n\n    \n    //School with the address having the right to award diplomas\n    struct School {\n        uint id;\n        string name;\n        mapping (uint => address) lv1;\n        mapping (uint => address) lv2;\n        uint count1;\n        uint count2;\n        address editor;\n    }\n    \n    event SchoolCreated(\n        uint idSchool,\n        string schoolName,\n        address editor);\n\n    //Diploma (one different diploma per year)\n    struct Degree {\n        uint id;\n        string name;\n        string schoolName;\n        uint year;\n        uint schoolId;\n        address editor;\n     \n    }\n\n    event DegreeCreated (\n        uint idDegree,\n        uint idSchool,\n        uint year,\n        string nameDegree,\n        string schoolName);\n\n    //Student defined by INE,Name,First name and date of birth\n    struct Student {\n        uint id;\n        uint INE;\n        string firstName;\n        string lastName;\n        uint birth;\n        address editor;\n    }\n\n    event StudentCreated(\n        uint idStudent,\n        uint INE,\n        string firstName,\n        string lastName,\n        uint birth);\n\n\n\n\n    mapping(uint => Diploma) public diplomas;\n\n    mapping(uint => Student) public students;\n\n    mapping(uint => School) public schools;\n\n    mapping(uint => Degree) public degrees;\n    \n    mapping(uint => address) public masters;\n    \n                \n    \n    \n\n\n\n    constructor() public {\n        \n        addMaster(msg.sender);  \n       \n       \n        //Creation of students\n        createStudent(18821453685,\"Bob\", \"Martin\", 20072015);\n        createStudent(64658482179,\"Alice\", \"Durand\", 19082008);\n        createStudent(54658741246,\"Mallory\",\"Dupond\",1112008);\n       \n       \n        //Creation of schools with the master address (line 13)\n        createSchool(\"Telecom Sud Paris\",msg.sender);\n        createSchool(\"Kryptosphere\",msg.sender);\n        \n        \n        //Creation of diplomas to be awarded\n        createDegree(2022,\"Blockchain Engineer\",\"Telecom Sud Paris\");\n        createDegree(2023,\"Blockchain Developer\",\"Kryptosphere\");\n\n        //Awarding of diplomas\n        createDiploma(18821453685,\"Bob\",\"Martin\",20072015,2022,\"Blockchain Engineer\", \"Telecom Sud Paris\");\n        createDiploma(64658482179,\"Alice\", \"Durand\", 19082008,2023,\"Blockchain Developer\",\"Kryptosphere\");\n        createDiploma(18821453685,\"Bob\", \"Martin\", 20072015,2023,\"Blockchain Developer\",\"Kryptosphere\");\n        \n        \n    }\n    \n   \n\n\n    /**\n     * CREATION FUNCTIONS ----------------------------------------------------------------------------------------------------------------------------------\n     * \n     */\n     \n     function addMaster(address _newMaster) internal {\n         masterCount ++;\n         masters[masterCount] = _newMaster;\n     }\n     \n     function addAddress(string memory _schoolName,address _address, uint _lv) public {\n         if(isAutorized(0,msg.sender) == 3){\n             if(_lv == 3){\n                 addMaster(_address);\n             }\n             uint idSch = checkSchool(_schoolName);\n             School  storage Sch = schools[idSch];\n             if (_lv == 1){\n                 Sch.count1 ++;\n                 Sch.lv1[Sch.count1] = _address;\n             }\n             if (_lv == 2){\n                 Sch.count1 ++;\n                 Sch.lv1[Sch.count2] = _address;\n             }\n         }\n     }\n\n    //Relatively low level function to award diplomas (it is necessary to know the id of the pupil and the id of the diploma that one wants to award)\n    \n    function createDiplomaLL(uint _idDegree, uint  _idStudent,bool _valid, address _creator) internal returns(string memory){\n        if(_idStudent <= studentCount && _idDegree <= degreeCount){\n            uint idSch = degrees[_idDegree].schoolId;\n            if(isAutorized(idSch,msg.sender)!=0){\n                diplomaCount ++;\n                diplomas[diplomaCount] = Diploma(diplomaCount,_idDegree,_idStudent,_valid,_creator);\n                emit DiplomaCreated(_idDegree,_idStudent,_valid,_creator);\n                return(\"Diploma Successfully Created\");\n            }\n        }\n    }\n    \n    //Relatively high level function\n    \n    function createDiploma(uint _INE,string memory _firstName, string memory _lastName,uint _birth,uint _dYear,string memory _nameDegree, string memory _schoolName) public returns ( string memory){\n        uint idSt = checkStudent(_INE,_firstName,_lastName,_birth);\n        uint idD = checkDegree(_dYear,_nameDegree,_schoolName);\n        \n        //If the student doesn't exist, we'll create one.\n        if(idSt == 0){\n            createStudent(_INE,_firstName,_lastName,_birth);\n            idSt = studentCount;\n        }\n        \n        //If the diploma doesn't exist, we don't create it, otherwise we risk creating new diplomas every time we make a typing mistake.\n        if(idD == 0){\n            return(\"Degree doesn't exists\");\n        }\n        uint idSch = degrees[idD].schoolId;\n        if(isAutorized(idSch,msg.sender) == 0){\n            bool valid = false;\n            //We create the association\n            if(isAutorized(idSch,msg.sender) >= 2){\n                valid = true;\n            }\n        \n            createDiplomaLL(idD,idSt,valid,msg.sender);\n        }else{\n        return(\"Permission Denied check if your address is autorized\");\n        }\n    }\n\n    function createStudent(uint _INE,string memory _firstName, string memory _lastName,uint _birth) public{\n        \n        if (checkStudent(_INE,_firstName,_lastName,_birth) == 0){\n            studentCount ++;\n            students[studentCount] = Student(studentCount,_INE, _firstName,_lastName, _birth,msg.sender);\n            emit StudentCreated(studentCount,_INE,_firstName,_lastName,_birth);\n        }\n        \n    }\n\n    function createSchool( string memory _schoolName,address _address2) public returns(string memory){\n        if (isMaster(msg.sender) !=0){\n            if (checkSchool(_schoolName) == 0){\n                schoolCount ++;\n                schools[schoolCount] = School(schoolCount,_schoolName,0,0,msg.sender);\n                schools[schoolCount].lv2[1] = _address2;\n                \n                emit SchoolCreated(schoolCount,_schoolName,msg.sender);\n                return(\"SchoolCreated\");\n            }\n            else{\n                return(\"School already exists\");\n            }\n        }\n        return(\"No man can serve two masters(Mat 6:24)\");\n    }\n    \n    \n\n    function createDegree(uint _year,string memory _nameDegree, string memory _schoolName) public {\n        School memory sch;\n        uint idSch = 0;\n        for(uint i = 0; i <= schoolCount; i++){\n            sch=schools[i];\n            if((isAutorized(i,msg.sender) != 0) && keccak256(abi.encodePacked(sch.name)) == keccak256(abi.encodePacked(_schoolName))){\n                idSch = i;\n            }\n        }\n        if (idSch != 0){\n            degreeCount ++;\n            degrees[degreeCount] = Degree(degreeCount,_nameDegree, _schoolName, _year,idSch, msg.sender);\n            emit DegreeCreated(degreeCount,idSch, _year,_nameDegree,_schoolName);\n        }\n        \n    }\n    \n\n\n    /**\n    EXISTENCE CHECK FUNCTIONS----------------------------------------------------------------------------------------------------------------------------------------------------------------------\n\n    That is to say one enters the characteristics of the searched object and the function returns a uint which is the id\n    0 if the object does not exist\n    \n    WARNING ids start at 1 !\n    \n     */\n     \n     //TODO\n     \n     //NON TESTEE\n    function isAutorized(uint _idSch,address _address) public view returns (uint){\n        if (isMaster(_address) != 0){\n            return 3;\n        }\n        School storage Sch = schools[_idSch];\n        for (uint i = 1;i<= Sch.count2;i++){\n            if(Sch.lv2[i] == _address){\n                return 2;\n            }\n        }\n        for (uint i = 1;i<= Sch.count1;i++){\n            if(Sch.lv1[i] == _address){\n                return 1;\n            }\n        }\n        //renvoie 0 1 2 ou 3 selon le niveau d'autorisation de l'addresse pour l'ecole\n        return(0);\n    }\n    \n    function isMaster(address _address) public view returns (uint){\n        for ( uint i = 1; i <= masterCount;i++){\n            if(masters[i] == _address){\n                return(i);\n            }\n        }\n        return(0);\n    }\n     \n     \n    function checkSchool(string memory _schoolName) public view returns (uint){\n        School memory sch;\n        for (uint i = 1; i <= schoolCount;i++){\n            sch = schools[i];\n            if( keccak256(abi.encodePacked(sch.name)) == keccak256(abi.encodePacked(_schoolName))){\n                return(i);\n            }\n        }\n        return(0);\n    }\n    \n    \n    \n\n\n    function checkStudent(uint _INE,string memory _firstName, string memory _lastName, uint _birth ) public view returns(uint){\n        Student memory stu;\n        for (uint i = 1; i <= studentCount; i++){\n            stu=students[i];\n            if(stu.INE ==_INE && stu.birth == _birth){  \n                if(keccak256(abi.encodePacked(stu.firstName)) == keccak256(abi.encodePacked(_firstName)) && keccak256(abi.encodePacked(stu.lastName)) == keccak256(abi.encodePacked(_lastName))){\n                    return(i);\n                }\n            }\n        }\n        return(0);\n    }\n    \n    \n    \n    function checkDegree(uint _year, string memory _nameDegree, string memory _schoolName) public view returns (uint){\n        Degree memory deg;\n        for (uint i = 1; i<= degreeCount; i++){\n            deg = degrees[i];\n            if(keccak256(abi.encodePacked(deg.name)) == keccak256(abi.encodePacked(_nameDegree)) && keccak256(abi.encodePacked(deg.schoolName)) == keccak256(abi.encodePacked(_schoolName))){\n                if(deg.year == _year){\n                    return(i);\n                }\n            }\n        }\n        return(0);\n    }\n    \n    function getIdDiploma(uint _INE,string calldata _firstName, string calldata _lastName,uint _birth,uint _dYear,string calldata _nameDegree, string calldata _schoolName) external view returns(uint) {\n        uint degreeId = checkDegree(_dYear, _nameDegree,_schoolName);\n        uint studentId = checkStudent(_INE,_firstName,_lastName,_birth);\n        \n        Diploma memory dip;\n\n        // If the student and the diploma exist, we will check if such an association exists\n        \n        if(studentId != 0 && degreeId != 0){\n            for(uint k = 1; k <= diplomaCount;k++){\n                dip = diplomas[k];\n                if (dip.idStudent == studentId && dip.idDegree == degreeId){\n                    return k;\n                }\n            }\n        }\n        return 0;\n    }\n\n\n\n\n\n   \n\n    function checkDiploma(uint _INE,string calldata _firstName, string calldata _lastName,uint _birth,uint _dYear,string calldata _nameDegree, string calldata _schoolName) external view returns(string memory) {\n        if(_INE == 0){\n            return(checkDiplomaNoINE(_firstName,_lastName,_birth,_dYear,_nameDegree,_schoolName));\n        }\n        uint degreeId = checkDegree(_dYear, _nameDegree,_schoolName);\n        uint studentId = checkStudent(_INE,_firstName,_lastName,_birth);\n        if (studentId == 0){\n            return(\"This student doesn't exist\");\n        }\n        if (degreeId == 0){\n            return(\"This degree doesn't exist\");\n        }\n        \n        \n        \n        Diploma memory dip;\n\n        // If the student and the diploma exist, we will check if such an association exists\n        \n        if(studentId != 0 && degreeId != 0){\n            for(uint k = 1; k <= diplomaCount;k++){\n                dip = diplomas[k];\n                if (dip.idStudent == studentId && dip.idDegree == degreeId){\n                    return \"OK\";\n                }\n            }\n        }\n        return \"No\";\n    }\n    \n    \n    //Function to check a diploma without knowing the INE \n    /**\n     * If the student exists in duplicate, the INE is requested\n     **/\n    \n    function checkDiplomaNoINE(string memory _firstName, string memory _lastName,uint _birth,uint _dYear,string memory _nameDegree, string memory _schoolName) internal view returns(string memory){\n        \n       uint studentId = 0;\n       Student memory stu;\n       uint c = 0;\n        for (uint i = 1; i <= studentCount; i++){\n            stu=students[i];\n            if(stu.birth == _birth){  \n                if(keccak256(abi.encodePacked(stu.firstName)) == keccak256(abi.encodePacked(_firstName)) && keccak256(abi.encodePacked(stu.lastName)) == keccak256(abi.encodePacked(_lastName))){\n                    c++;\n                    studentId = i;\n                }\n            }\n        }\n        if(c == 0){\n            return(\"This student doesn't exist\");\n        }\n        if(c > 1){\n           return(\"Duplicate, try with INE\");\n        }\n        if(c == 1){\n            uint degreeId = checkDegree(_dYear, _nameDegree,_schoolName);\n        \n        Diploma memory dip;\n\n        // If the student and the diploma exist, we will check if such an association exists.\n        \n        if(studentId != 0 && degreeId != 0){\n            for(uint k = 1; k <= diplomaCount;k++){\n                dip = diplomas[k];\n                if (dip.idStudent == studentId && dip.idDegree == degreeId){\n                    return (\"OK\");\n                }\n            }\n        }\n        return(\"NO\");\n        }\n    } \n}\n",
  "sourcePath": "/home/ubuntu/Documents/BC_Projects/OPPO-DS/Truffle/contracts/DiplomaStorage.sol",
  "compiler": {
    "name": "solc",
    "version": "0.5.16+commit.9c3226ce.Emscripten.clang"
  },
  "schemaVersion": "3.0.23",
  "updatedAt": "2020-05-01T13:21:20.982Z",
  "networkType": "ethereum",
  "devdoc": {
    "methods": {}
  },
  "userdoc": {
    "methods": {
      "isAutorized(uint256,address)": {
        "notice": "EXISTENCE CHECK FUNCTIONS---------------------------------------------------------------------------------------------------------------------------------------------------------------------- That is to say one enters the characteristics of the searched object and the function returns a uint which is the id 0 if the object does not exist WARNING ids start at 1 !"
      }
    }
  }
}