{
  "contractName": "DiplomaStorage",
  "abi": [
    {
      "inputs": [],
      "payable": false,
      "stateMutability": "nonpayable",
      "type": "constructor"
    },
    {
      "anonymous": false,
      "inputs": [
        {
          "indexed": false,
          "internalType": "uint256",
          "name": "idDegree",
          "type": "uint256"
        },
        {
          "indexed": false,
          "internalType": "uint256",
          "name": "idSchool",
          "type": "uint256"
        },
        {
          "indexed": false,
          "internalType": "uint256",
          "name": "year",
          "type": "uint256"
        },
        {
          "indexed": false,
          "internalType": "string",
          "name": "nameDegree",
          "type": "string"
        },
        {
          "indexed": false,
          "internalType": "string",
          "name": "schoolName",
          "type": "string"
        }
      ],
      "name": "DegreeCreated",
      "type": "event"
    },
    {
      "anonymous": false,
      "inputs": [
        {
          "indexed": false,
          "internalType": "uint256",
          "name": "idDegree",
          "type": "uint256"
        },
        {
          "indexed": false,
          "internalType": "uint256",
          "name": "idStudent",
          "type": "uint256"
        },
        {
          "indexed": false,
          "internalType": "bool",
          "name": "valid",
          "type": "bool"
        },
        {
          "indexed": false,
          "internalType": "address",
          "name": "creator",
          "type": "address"
        }
      ],
      "name": "DiplomaCreated",
      "type": "event"
    },
    {
      "anonymous": false,
      "inputs": [
        {
          "indexed": false,
          "internalType": "uint256",
          "name": "idSchool",
          "type": "uint256"
        },
        {
          "indexed": false,
          "internalType": "string",
          "name": "schoolName",
          "type": "string"
        },
        {
          "indexed": false,
          "internalType": "address",
          "name": "editor",
          "type": "address"
        }
      ],
      "name": "SchoolCreated",
      "type": "event"
    },
    {
      "anonymous": false,
      "inputs": [
        {
          "indexed": false,
          "internalType": "uint256",
          "name": "idStudent",
          "type": "uint256"
        },
        {
          "indexed": false,
          "internalType": "uint256",
          "name": "INE",
          "type": "uint256"
        },
        {
          "indexed": false,
          "internalType": "string",
          "name": "firstName",
          "type": "string"
        },
        {
          "indexed": false,
          "internalType": "string",
          "name": "lastName",
          "type": "string"
        },
        {
          "indexed": false,
          "internalType": "uint256",
          "name": "birth",
          "type": "uint256"
        }
      ],
      "name": "StudentCreated",
      "type": "event"
    },
    {
      "constant": true,
      "inputs": [],
      "name": "degreeCount",
      "outputs": [
        {
          "internalType": "uint256",
          "name": "",
          "type": "uint256"
        }
      ],
      "payable": false,
      "stateMutability": "view",
      "type": "function"
    },
    {
      "constant": true,
      "inputs": [
        {
          "internalType": "uint256",
          "name": "",
          "type": "uint256"
        }
      ],
      "name": "degrees",
      "outputs": [
        {
          "internalType": "string",
          "name": "name",
          "type": "string"
        },
        {
          "internalType": "string",
          "name": "schoolName",
          "type": "string"
        },
        {
          "internalType": "uint256",
          "name": "year",
          "type": "uint256"
        },
        {
          "internalType": "uint256",
          "name": "schoolId",
          "type": "uint256"
        },
        {
          "internalType": "address",
          "name": "editor",
          "type": "address"
        }
      ],
      "payable": false,
      "stateMutability": "view",
      "type": "function"
    },
    {
      "constant": true,
      "inputs": [],
      "name": "diplomaCount",
      "outputs": [
        {
          "internalType": "uint256",
          "name": "",
          "type": "uint256"
        }
      ],
      "payable": false,
      "stateMutability": "view",
      "type": "function"
    },
    {
      "constant": true,
      "inputs": [
        {
          "internalType": "uint256",
          "name": "",
          "type": "uint256"
        }
      ],
      "name": "diplomas",
      "outputs": [
        {
          "internalType": "uint256",
          "name": "idDegree",
          "type": "uint256"
        },
        {
          "internalType": "uint256",
          "name": "idStudent",
          "type": "uint256"
        },
        {
          "internalType": "bool",
          "name": "valid",
          "type": "bool"
        },
        {
          "internalType": "address",
          "name": "creator",
          "type": "address"
        }
      ],
      "payable": false,
      "stateMutability": "view",
      "type": "function"
    },
    {
      "constant": true,
      "inputs": [
        {
          "internalType": "uint256",
          "name": "",
          "type": "uint256"
        }
      ],
      "name": "mas",
      "outputs": [
        {
          "internalType": "address",
          "name": "",
          "type": "address"
        }
      ],
      "payable": false,
      "stateMutability": "view",
      "type": "function"
    },
    {
      "constant": true,
      "inputs": [],
      "name": "master",
      "outputs": [
        {
          "internalType": "address payable",
          "name": "",
          "type": "address"
        }
      ],
      "payable": false,
      "stateMutability": "view",
      "type": "function"
    },
    {
      "constant": true,
      "inputs": [],
      "name": "masterCount",
      "outputs": [
        {
          "internalType": "uint256",
          "name": "",
          "type": "uint256"
        }
      ],
      "payable": false,
      "stateMutability": "view",
      "type": "function"
    },
    {
      "constant": true,
      "inputs": [
        {
          "internalType": "uint256",
          "name": "",
          "type": "uint256"
        }
      ],
      "name": "masters",
      "outputs": [
        {
          "internalType": "address",
          "name": "",
          "type": "address"
        }
      ],
      "payable": false,
      "stateMutability": "view",
      "type": "function"
    },
    {
      "constant": true,
      "inputs": [],
      "name": "schoolCount",
      "outputs": [
        {
          "internalType": "uint256",
          "name": "",
          "type": "uint256"
        }
      ],
      "payable": false,
      "stateMutability": "view",
      "type": "function"
    },
    {
      "constant": true,
      "inputs": [
        {
          "internalType": "uint256",
          "name": "",
          "type": "uint256"
        }
      ],
      "name": "schools",
      "outputs": [
        {
          "internalType": "string",
          "name": "name",
          "type": "string"
        },
        {
          "internalType": "address",
          "name": "editor",
          "type": "address"
        }
      ],
      "payable": false,
      "stateMutability": "view",
      "type": "function"
    },
    {
      "constant": true,
      "inputs": [],
      "name": "studentCount",
      "outputs": [
        {
          "internalType": "uint256",
          "name": "",
          "type": "uint256"
        }
      ],
      "payable": false,
      "stateMutability": "view",
      "type": "function"
    },
    {
      "constant": true,
      "inputs": [
        {
          "internalType": "uint256",
          "name": "",
          "type": "uint256"
        }
      ],
      "name": "students",
      "outputs": [
        {
          "internalType": "uint256",
          "name": "id",
          "type": "uint256"
        },
        {
          "internalType": "uint256",
          "name": "INE",
          "type": "uint256"
        },
        {
          "internalType": "string",
          "name": "firstName",
          "type": "string"
        },
        {
          "internalType": "string",
          "name": "lastName",
          "type": "string"
        },
        {
          "internalType": "uint256",
          "name": "birth",
          "type": "uint256"
        },
        {
          "internalType": "address",
          "name": "editor",
          "type": "address"
        }
      ],
      "payable": false,
      "stateMutability": "view",
      "type": "function"
    },
    {
      "constant": false,
      "inputs": [
        {
          "internalType": "uint256",
          "name": "_INE",
          "type": "uint256"
        },
        {
          "internalType": "string",
          "name": "_firstName",
          "type": "string"
        },
        {
          "internalType": "string",
          "name": "_lastName",
          "type": "string"
        },
        {
          "internalType": "uint256",
          "name": "_birth",
          "type": "uint256"
        },
        {
          "internalType": "uint256",
          "name": "_dYear",
          "type": "uint256"
        },
        {
          "internalType": "string",
          "name": "_nameDegree",
          "type": "string"
        },
        {
          "internalType": "string",
          "name": "_schoolName",
          "type": "string"
        }
      ],
      "name": "createDiploma",
      "outputs": [],
      "payable": false,
      "stateMutability": "nonpayable",
      "type": "function"
    },
    {
      "constant": false,
      "inputs": [
        {
          "internalType": "uint256",
          "name": "_INE",
          "type": "uint256"
        },
        {
          "internalType": "string",
          "name": "_firstName",
          "type": "string"
        },
        {
          "internalType": "string",
          "name": "_lastName",
          "type": "string"
        },
        {
          "internalType": "uint256",
          "name": "_birth",
          "type": "uint256"
        }
      ],
      "name": "createStudent",
      "outputs": [],
      "payable": false,
      "stateMutability": "nonpayable",
      "type": "function"
    },
    {
      "constant": false,
      "inputs": [
        {
          "internalType": "address",
          "name": "_schoolAdress",
          "type": "address"
        },
        {
          "internalType": "string",
          "name": "_schoolName",
          "type": "string"
        }
      ],
      "name": "createSchool",
      "outputs": [
        {
          "internalType": "string",
          "name": "",
          "type": "string"
        }
      ],
      "payable": false,
      "stateMutability": "nonpayable",
      "type": "function"
    },
    {
      "constant": false,
      "inputs": [
        {
          "internalType": "uint256",
          "name": "_year",
          "type": "uint256"
        },
        {
          "internalType": "string",
          "name": "_nameDegree",
          "type": "string"
        },
        {
          "internalType": "string",
          "name": "_schoolName",
          "type": "string"
        }
      ],
      "name": "createDegree",
      "outputs": [],
      "payable": false,
      "stateMutability": "nonpayable",
      "type": "function"
    },
    {
      "constant": true,
      "inputs": [
        {
          "internalType": "uint256",
          "name": "_idSch",
          "type": "uint256"
        },
        {
          "internalType": "address",
          "name": "_address",
          "type": "address"
        }
      ],
      "name": "isAutorized",
      "outputs": [
        {
          "internalType": "uint256",
          "name": "",
          "type": "uint256"
        }
      ],
      "payable": false,
      "stateMutability": "view",
      "type": "function"
    },
    {
      "constant": true,
      "inputs": [
        {
          "internalType": "address",
          "name": "_schoolAddress",
          "type": "address"
        },
        {
          "internalType": "string",
          "name": "_schoolName",
          "type": "string"
        }
      ],
      "name": "checkSchool",
      "outputs": [
        {
          "internalType": "uint256",
          "name": "",
          "type": "uint256"
        }
      ],
      "payable": false,
      "stateMutability": "view",
      "type": "function"
    },
    {
      "constant": true,
      "inputs": [
        {
          "internalType": "uint256",
          "name": "_INE",
          "type": "uint256"
        },
        {
          "internalType": "string",
          "name": "_firstName",
          "type": "string"
        },
        {
          "internalType": "string",
          "name": "_lastName",
          "type": "string"
        },
        {
          "internalType": "uint256",
          "name": "_birth",
          "type": "uint256"
        }
      ],
      "name": "checkStudent",
      "outputs": [
        {
          "internalType": "uint256",
          "name": "",
          "type": "uint256"
        }
      ],
      "payable": false,
      "stateMutability": "view",
      "type": "function"
    },
    {
      "constant": true,
      "inputs": [
        {
          "internalType": "uint256",
          "name": "_year",
          "type": "uint256"
        },
        {
          "internalType": "string",
          "name": "_nameDegree",
          "type": "string"
        },
        {
          "internalType": "string",
          "name": "_schoolName",
          "type": "string"
        }
      ],
      "name": "checkDegree",
      "outputs": [
        {
          "internalType": "uint256",
          "name": "",
          "type": "uint256"
        }
      ],
      "payable": false,
      "stateMutability": "view",
      "type": "function"
    },
    {
      "constant": true,
      "inputs": [
        {
          "internalType": "uint256",
          "name": "_INE",
          "type": "uint256"
        },
        {
          "internalType": "string",
          "name": "_firstName",
          "type": "string"
        },
        {
          "internalType": "string",
          "name": "_lastName",
          "type": "string"
        },
        {
          "internalType": "uint256",
          "name": "_birth",
          "type": "uint256"
        },
        {
          "internalType": "uint256",
          "name": "_dYear",
          "type": "uint256"
        },
        {
          "internalType": "string",
          "name": "_nameDegree",
          "type": "string"
        },
        {
          "internalType": "string",
          "name": "_schoolName",
          "type": "string"
        }
      ],
      "name": "getIdDiploma",
      "outputs": [
        {
          "internalType": "uint256",
          "name": "",
          "type": "uint256"
        }
      ],
      "payable": false,
      "stateMutability": "view",
      "type": "function"
    },
    {
      "constant": true,
      "inputs": [
        {
          "internalType": "uint256",
          "name": "_INE",
          "type": "uint256"
        },
        {
          "internalType": "string",
          "name": "_firstName",
          "type": "string"
        },
        {
          "internalType": "string",
          "name": "_lastName",
          "type": "string"
        },
        {
          "internalType": "uint256",
          "name": "_birth",
          "type": "uint256"
        },
        {
          "internalType": "uint256",
          "name": "_dYear",
          "type": "uint256"
        },
        {
          "internalType": "string",
          "name": "_nameDegree",
          "type": "string"
        },
        {
          "internalType": "string",
          "name": "_schoolName",
          "type": "string"
        }
      ],
      "name": "checkDiploma",
      "outputs": [
        {
          "internalType": "string",
          "name": "",
          "type": "string"
        }
      ],
      "payable": false,
      "stateMutability": "view",
      "type": "function"
    }
  ],
  "bytecode": "0x60008080556001819055600281905560038181556004829055600580546001600160a01b03191633179055600691909155600781905560808181526101006040529060a0606080388339505081516200006092600892506020019062001a34565b506040805160008152602081019182905251620000809160099162001a84565b506009805460018101808355600092909252600080516020620051178339815191520180546001600160a01b031916735ae24da69915218e800bd28df558c92aa266bfef179055600a55348015620000d757600080fd5b50600554600f60209081527f169f97de0d9a84d840042b17d3c6b9638b3d6fd9024c9eb0c7a306a17b49f88f80546001600160a01b039093166001600160a01b03199384161790556009805460018101825560009190915260008051602062005117833981519152018054735ae24da69915218e800bd28df558c92aa266bfef93169290921790915560408051808201825260038152622137b160e91b818401528151808301909252600682526526b0b93a34b760d11b92820192909252620001ac91640461d8977591630132464f620005c6565b62000204640f0df2240360405180604001604052806005815260200164416c69636560d81b81525060405180604001604052806006815260200165111d5c985b9960d21b8152506301232b18620005c660201b60201c565b6200025d640cb9ea33fe604051806040016040528060078152602001664d616c6c6f727960c81b81525060405180604001604052806006815260200165111d5c1bdb9960d21b8152506210f7c8620005c660201b60201c565b62000298336040518060400160405280601181526020017054656c65636f6d2053756420506172697360781b815250620007ce60201b60201c565b50620002cf336040518060400160405280600c81526020016b4b727970746f73706865726560a01b815250620007ce60201b60201c565b50620003396107e660405180604001604052806013815260200172213637b1b5b1b430b4b71022b733b4b732b2b960691b8152506040518060400160405280601181526020017054656c65636f6d2053756420506172697360781b815250620009a660201b60201c565b620003a76107e76040518060400160405280601481526020017f426c6f636b636861696e20446576656c6f7065720000000000000000000000008152506040518060400160405280600c81526020016b4b727970746f73706865726560a01b815250620009a660201b60201c565b62000456640461d89775604051806040016040528060038152602001622137b160e91b8152506040518060400160405280600681526020016526b0b93a34b760d11b815250630132464f6107e660405180604001604052806013815260200172213637b1b5b1b430b4b71022b733b4b732b2b960691b8152506040518060400160405280601181526020017054656c65636f6d2053756420506172697360781b81525062000d7d60201b60201c565b6200050c640f0df2240360405180604001604052806005815260200164416c69636560d81b81525060405180604001604052806006815260200165111d5c985b9960d21b8152506301232b186107e76040518060400160405280601481526020017f426c6f636b636861696e20446576656c6f7065720000000000000000000000008152506040518060400160405280600c81526020016b4b727970746f73706865726560a01b81525062000d7d60201b60201c565b620005c0640461d89775604051806040016040528060038152602001622137b160e91b8152506040518060400160405280600681526020016526b0b93a34b760d11b815250630132464f6107e76040518060400160405280601481526020017f426c6f636b636861696e20446576656c6f7065720000000000000000000000008152506040518060400160405280600c81526020016b4b727970746f73706865726560a01b81525062000d7d60201b60201c565b62001c32565b620005dd848484846001600160e01b0362000e1a16565b620007c8576001805481018082556040805160c081018252828152602080820189815282840189815260608401899052608084018890523360a08501526000958652600c835293909420825181559351948401949094559051805191936200064e9260028501929091019062001aea565b50606082015180516200066c91600384019160209091019062001aea565b506080820151816004015560a08201518160050160006101000a8154816001600160a01b0302191690836001600160a01b031602179055509050507ff123ab1a2d904e5492dbdcffe5c290d2d705f3a56e0f9502c055a46b3fe5fa1f60015485858585604051808681526020018581526020018060200180602001848152602001838103835286818151815260200191508051906020019080838360005b83811015620007245781810151838201526020016200070a565b50505050905090810190601f168015620007525780820380516001836020036101000a031916815260200191505b50838103825285518152855160209182019187019080838360005b83811015620007875781810151838201526020016200076d565b50505050905090810190601f168015620007b55780820380516001836020036101000a031916815260200191505b5097505050505050505060405180910390a15b50505050565b6005546060906001600160a01b0316331462000806576040518060600160405280602c8152602001620050eb602c91399050620009a0565b6200081b83836001600160e01b03620011de16565b6200096a576002805460010190819055604080518082018252848152336020808301919091526000938452600d815291909220825180519192620008659284929091019062001aea565b5060209182015160039190910180546001600160a01b0319166001600160a01b039092169190911790556002546040805182815233918101829052606081850181815287519183019190915286517f83cda14def4bda5816386e3646981b0e9a7c492751248c7872b1e1ce5e4dfba8958894939291608084019186019080838360005b8381101562000902578181015183820152602001620008e8565b50505050905090810190601f168015620009305780820380516001836020036101000a031916815260200191505b5094505050505060405180910390a15060408051808201909152600d81526c14d8da1bdbdb10dc99585d1959609a1b6020820152620009a0565b5060408051808201909152601581527f5363686f6f6c20616c726561647920657869737473000000000000000000000060208201525b92915050565b620009b062001b5c565b6000805b600254811162000b96576000818152600d60209081526040918290208251815460026001821615610100026000190190911604601f810184900490930281016060908101855293810183815290939192849284919084018282801562000a5e5780601f1062000a325761010080835404028352916020019162000a5e565b820191906000526020600020905b81548152906001019060200180831162000a4057829003601f168201915b5050509183525050600391909101546001600160a01b0316602090910152925062000a9381336001600160e01b03620013e016565b1580159062000b835750836040516020018082805190602001908083835b6020831062000ad25780518252601f19909201916020918201910162000ab1565b6001836020036101000a0380198251168184511680821785525050505050509050019150506040516020818303038152906040528051906020012083600001516040516020018082805190602001908083835b6020831062000b465780518252601f19909201916020918201910162000b25565b6001836020036101000a03801982511681845116808217855250505050505090500191505060405160208183030381529060405280519060200120145b1562000b8d578091505b600101620009b4565b50801562000d765760038054600101908190556040805160a0810182528681526020808201879052818301899052606082018590523360808301526000938452600e81529190922082518051919262000bf59284929091019062001aea565b50602082810151805162000c10926001850192019062001aea565b50604082015181600201556060820151816003015560808201518160040160006101000a8154816001600160a01b0302191690836001600160a01b031602179055509050507fb8191de706947d348e4af82269a7e4b91362250c16b6775a4f8e71acf3fc6a4d60035482878787604051808681526020018581526020018481526020018060200180602001838103835285818151815260200191508051906020019080838360005b8381101562000cd257818101518382015260200162000cb8565b50505050905090810190601f16801562000d005780820380516001836020036101000a031916815260200191505b50838103825284518152845160209182019186019080838360005b8381101562000d3557818101518382015260200162000d1b565b50505050905090810190601f16801562000d635780820380516001836020036101000a031916815260200191505b5097505050505050505060405180910390a15b5050505050565b600062000d96888888886001600160e01b0362000e1a16565b9050600062000db08585856001600160e01b03620013e816565b90508162000dcf5762000dcf898989896001600160e01b03620005c616565b8062000ddb5762000e0f565b6005546000906001600160a01b031633141562000df6575060015b62000e0d828483336001600160e01b036200179e16565b505b505050505050505050565b600062000e2662001b74565b60015b6001548111620011cf57600c60008281526020019081526020016000206040518060c00160405290816000820154815260200160018201548152602001600282018054600181600116156101000203166002900480601f01602080910402602001604051908101604052809291908181526020018280546001816001161561010002031660029004801562000f025780601f1062000ed65761010080835404028352916020019162000f02565b820191906000526020600020905b81548152906001019060200180831162000ee457829003601f168201915b505050918352505060038201805460408051602060026001851615610100026000190190941693909304601f810184900484028201840190925281815293820193929183018282801562000f9a5780601f1062000f6e5761010080835404028352916020019162000f9a565b820191906000526020600020905b81548152906001019060200180831162000f7c57829003601f168201915b505050918352505060048201546020808301919091526005909201546001600160a01b03166040909101528101519092508714801562000fdd5750838260800151145b15620011c657856040516020018082805190602001908083835b60208310620010185780518252601f19909201916020918201910162000ff7565b6001836020036101000a0380198251168184511680821785525050505050509050019150506040516020818303038152906040528051906020012082604001516040516020018082805190602001908083835b602083106200108c5780518252601f1990920191602091820191016200106b565b6001836020036101000a03801982511681845116808217855250505050505090500191505060405160208183030381529060405280519060200120148015620011b65750846040516020018082805190602001908083835b60208310620011055780518252601f199092019160209182019101620010e4565b6001836020036101000a0380198251168184511680821785525050505050509050019150506040516020818303038152906040528051906020012082606001516040516020018082805190602001908083835b60208310620011795780518252601f19909201916020918201910162001158565b6001836020036101000a03801982511681845116808217855250505050505090500191505060405160208183030381529060405280519060200120145b15620011c6579150620011d69050565b60010162000e29565b5060009150505b949350505050565b6000620011ea62001b5c565b60015b6002548111620013d5576000818152600d60209081526040918290208251815460026001821615610100026000190190911604601f8101849004909302810160609081018552938101838152909391928492849190840182828015620012975780601f106200126b5761010080835404028352916020019162001297565b820191906000526020600020905b8154815290600101906020018083116200127957829003601f168201915b5050509183525050600391909101546001600160a01b03166020909101529150620012cc81866001600160e01b03620013e016565b15801590620013bc5750836040516020018082805190602001908083835b602083106200130b5780518252601f199092019160209182019101620012ea565b6001836020036101000a0380198251168184511680821785525050505050509050019150506040516020818303038152906040528051906020012082600001516040516020018082805190602001908083835b602083106200137f5780518252601f1990920191602091820191016200135e565b6001836020036101000a03801982511681845116808217855250505050505090500191505060405160208183030381529060405280519060200120145b15620013cc579150620009a09050565b600101620011ed565b506000949350505050565b600392915050565b6000620013f462001bb3565b60015b600354811162001790576000818152600e60209081526040918290208251815460026001821615610100026000190190911604601f8101849004909302810160c090810190945260a08101838152909391928492849190840182828015620014a35780601f106200147757610100808354040283529160200191620014a3565b820191906000526020600020905b8154815290600101906020018083116200148557829003601f168201915b50505050508152602001600182018054600181600116156101000203166002900480601f016020809104026020016040519081016040528092919081815260200182805460018160011615610100020316600290048015620015495780601f106200151d5761010080835404028352916020019162001549565b820191906000526020600020905b8154815290600101906020018083116200152b57829003601f168201915b5050505050815260200160028201548152602001600382015481526020016004820160009054906101000a90046001600160a01b03166001600160a01b03166001600160a01b0316815250509150846040516020018082805190602001908083835b60208310620015cc5780518252601f199092019160209182019101620015ab565b6001836020036101000a0380198251168184511680821785525050505050509050019150506040516020818303038152906040528051906020012082600001516040516020018082805190602001908083835b60208310620016405780518252601f1990920191602091820191016200161f565b6001836020036101000a038019825116818451168082178552505050505050905001915050604051602081830303815290604052805190602001201480156200176a5750836040516020018082805190602001908083835b60208310620016b95780518252601f19909201916020918201910162001698565b6001836020036101000a0380198251168184511680821785525050505050509050019150506040516020818303038152906040528051906020012082602001516040516020018082805190602001908083835b602083106200172d5780518252601f1990920191602091820191016200170c565b6001836020036101000a03801982511681845116808217855250505050505090500191505060405160208183030381529060405280519060200120145b156200178757858260400151141562001787579150620017979050565b600101620013f7565b5060009150505b9392505050565b6001548311158015620017b357506003548411155b15620007c857620017c362001bb3565b6000858152600e60209081526040918290208251815460026001821615610100026000190190911604601f8101849004909302810160c090810190945260a08101838152909391928492849190840182828015620018655780601f10620018395761010080835404028352916020019162001865565b820191906000526020600020905b8154815290600101906020018083116200184757829003601f168201915b50505050508152602001600182018054600181600116156101000203166002900480601f0160208091040260200160405190810160405280929190818152602001828054600181600116156101000203166002900480156200190b5780601f10620018df576101008083540402835291602001916200190b565b820191906000526020600020905b815481529060010190602001808311620018ed57829003601f168201915b505050918352505060028201546020820152600382015460408201526004909101546001600160a01b03166060918201528101519091506200195781336001600160e01b03620013e016565b1562001a2c5760008054600190810180835560408051608080820183528b825260208083018c81528b15158486018181526001600160a01b03808e1660608089018281529a8d52600b87529b899020975188559351998701999099555160029095018054975190981661010002610100600160a81b031995151560ff1990981697909717949094169590951790955582518c81529485018b90528483019190915293830191909152517f39a6bebf4a890b07ed287c5e07c21772ebbbd0e5e352486a8df23352c52168f4929181900390910190a15b505050505050565b82805482825590600052602060002090810192821562001a72579160200282015b8281111562001a7257825182559160200191906001019062001a55565b5062001a8092915062001beb565b5090565b82805482825590600052602060002090810192821562001adc579160200282015b8281111562001adc57825182546001600160a01b0319166001600160a01b0390911617825560209092019160019091019062001aa5565b5062001a8092915062001c0b565b828054600181600116156101000203166002900490600052602060002090601f016020900481019282601f1062001b2d57805160ff191683800117855562001a72565b8280016001018555821562001a72579182018281111562001a7257825182559160200191906001019062001a55565b60408051808201909152606081526000602082015290565b6040518060c00160405280600081526020016000815260200160608152602001606081526020016000815260200160006001600160a01b031681525090565b6040518060a001604052806060815260200160608152602001600081526020016000815260200160006001600160a01b031681525090565b62001c0891905b8082111562001a80576000815560010162001bf2565b90565b62001c0891905b8082111562001a805780546001600160a01b031916815560010162001c12565b6134a98062001c426000396000f3fe608060405234801561001057600080fd5b50600436106101425760003560e01c8063713c54e9116100b85780639e7646031161007c5780639e76460314610c51578063a1cebf5214610c59578063bf23e63b14610d8b578063e581f9ee14610fd1578063ee97f7f314610fd9578063fcf8642e14610fe157610142565b8063713c54e9146107d4578063719c0d04146107f15780637f9ed4501461089f57806381f1c3bc14610a855780639cddb7c014610b9d57610142565b8063371c6fd71161010a578063371c6fd71461044f578063406358cf1461047b578063454ddc171461052f5780635a471b6b1461066157806360961874146107935780636920613f146107cc57610142565b806306192f0f1461014757806306ead22e146102ca57806328d88890146103f357806335dfc1c3146103fb5780633660096b14610447575b600080fd5b6102b8600480360360e081101561015d57600080fd5b81359190810190604081016020820135600160201b81111561017e57600080fd5b82018360208201111561019057600080fd5b803590602001918460018302840111600160201b831117156101b157600080fd5b919390929091602081019035600160201b8111156101ce57600080fd5b8201836020820111156101e057600080fd5b803590602001918460018302840111600160201b8311171561020157600080fd5b919390928235926020810135929190606081019060400135600160201b81111561022a57600080fd5b82018360208201111561023c57600080fd5b803590602001918460018302840111600160201b8311171561025d57600080fd5b919390929091602081019035600160201b81111561027a57600080fd5b82018360208201111561028c57600080fd5b803590602001918460018302840111600160201b831117156102ad57600080fd5b509092509050611111565b60408051918252519081900360200190f35b6102e7600480360360208110156102e057600080fd5b50356112ce565b604051808781526020018681526020018060200180602001858152602001846001600160a01b03166001600160a01b03168152602001838103835287818151815260200191508051906020019080838360005b8381101561035257818101518382015260200161033a565b50505050905090810190601f16801561037f5780820380516001836020036101000a031916815260200191505b50838103825286518152865160209182019188019080838360005b838110156103b257818101518382015260200161039a565b50505050905090810190601f1680156103df5780820380516001836020036101000a031916815260200191505b509850505050505050505060405180910390f35b6102b861141d565b6104186004803603602081101561041157600080fd5b5035611423565b604080519485526020850193909352901515838301526001600160a01b03166060830152519081900360800190f35b6102b8611457565b6102b86004803603604081101561046557600080fd5b50803590602001356001600160a01b031661145d565b6102b86004803603604081101561049157600080fd5b6001600160a01b038235169190810190604081016020820135600160201b8111156104bb57600080fd5b8201836020820111156104cd57600080fd5b803590602001918460018302840111600160201b831117156104ee57600080fd5b91908080601f016020809104026020016040519081016040528093929190818152602001838380828437600092019190915250929550611466945050505050565b61065f6004803603606081101561054557600080fd5b81359190810190604081016020820135600160201b81111561056657600080fd5b82018360208201111561057857600080fd5b803590602001918460018302840111600160201b8311171561059957600080fd5b91908080601f0160208091040260200160405190810160405280939291908181526020018383808284376000920191909152509295949360208101935035915050600160201b8111156105eb57600080fd5b8201836020820111156105fd57600080fd5b803590602001918460018302840111600160201b8311171561061e57600080fd5b91908080601f01602080910402602001604051908101604052809392919081815260200183838082843760009201919091525092955061164e945050505050565b005b6102b86004803603608081101561067757600080fd5b81359190810190604081016020820135600160201b81111561069857600080fd5b8201836020820111156106aa57600080fd5b803590602001918460018302840111600160201b831117156106cb57600080fd5b91908080601f0160208091040260200160405190810160405280939291908181526020018383808284376000920191909152509295949360208101935035915050600160201b81111561071d57600080fd5b82018360208201111561072f57600080fd5b803590602001918460018302840111600160201b8311171561075057600080fd5b91908080601f0160208091040260200160405190810160405280939291908181526020018383808284376000920191909152509295505091359250611a01915050565b6107b0600480360360208110156107a957600080fd5b5035611dac565b604080516001600160a01b039092168252519081900360200190f35b6102b8611dc7565b6107b0600480360360208110156107ea57600080fd5b5035611dcd565b61080e6004803603602081101561080757600080fd5b5035611df4565b6040518080602001836001600160a01b03166001600160a01b03168152602001828103825284818151815260200191508051906020019080838360005b8381101561086357818101518382015260200161084b565b50505050905090810190601f1680156108905780820380516001836020036101000a031916815260200191505b50935050505060405180910390f35b610a10600480360360e08110156108b557600080fd5b81359190810190604081016020820135600160201b8111156108d657600080fd5b8201836020820111156108e857600080fd5b803590602001918460018302840111600160201b8311171561090957600080fd5b919390929091602081019035600160201b81111561092657600080fd5b82018360208201111561093857600080fd5b803590602001918460018302840111600160201b8311171561095957600080fd5b919390928235926020810135929190606081019060400135600160201b81111561098257600080fd5b82018360208201111561099457600080fd5b803590602001918460018302840111600160201b831117156109b557600080fd5b919390929091602081019035600160201b8111156109d257600080fd5b8201836020820111156109e457600080fd5b803590602001918460018302840111600160201b83111715610a0557600080fd5b509092509050611ea4565b6040805160208082528351818301528351919283929083019185019080838360005b83811015610a4a578181015183820152602001610a32565b50505050905090810190601f168015610a775780820380516001836020036101000a031916815260200191505b509250505060405180910390f35b610aa260048036036020811015610a9b57600080fd5b5035612218565b60408051908101849052606081018390526001600160a01b038216608082015260a08082528651908201528551819060208083019160c08401918a019080838360005b83811015610afd578181015183820152602001610ae5565b50505050905090810190601f168015610b2a5780820380516001836020036101000a031916815260200191505b50838103825287518152875160209182019189019080838360005b83811015610b5d578181015183820152602001610b45565b50505050905090810190601f168015610b8a5780820380516001836020036101000a031916815260200191505b5097505050505050505060405180910390f35b610a1060048036036040811015610bb357600080fd5b6001600160a01b038235169190810190604081016020820135600160201b811115610bdd57600080fd5b820183602082011115610bef57600080fd5b803590602001918460018302840111600160201b83111715610c1057600080fd5b91908080601f016020809104026020016040519081016040528093929190818152602001838380828437600092019190915250929550612374945050505050565b6102b861252d565b61065f60048036036080811015610c6f57600080fd5b81359190810190604081016020820135600160201b811115610c9057600080fd5b820183602082011115610ca257600080fd5b803590602001918460018302840111600160201b83111715610cc357600080fd5b91908080601f0160208091040260200160405190810160405280939291908181526020018383808284376000920191909152509295949360208101935035915050600160201b811115610d1557600080fd5b820183602082011115610d2757600080fd5b803590602001918460018302840111600160201b83111715610d4857600080fd5b91908080601f0160208091040260200160405190810160405280939291908181526020018383808284376000920191909152509295505091359250612533915050565b61065f600480360360e0811015610da157600080fd5b81359190810190604081016020820135600160201b811115610dc257600080fd5b820183602082011115610dd457600080fd5b803590602001918460018302840111600160201b83111715610df557600080fd5b91908080601f0160208091040260200160405190810160405280939291908181526020018383808284376000920191909152509295949360208101935035915050600160201b811115610e4757600080fd5b820183602082011115610e5957600080fd5b803590602001918460018302840111600160201b83111715610e7a57600080fd5b91908080601f0160208091040260200160405190810160405280939291908181526020018383808284376000920191909152509295843595602086013595919450925060608101915060400135600160201b811115610ed857600080fd5b820183602082011115610eea57600080fd5b803590602001918460018302840111600160201b83111715610f0b57600080fd5b91908080601f0160208091040260200160405190810160405280939291908181526020018383808284376000920191909152509295949360208101935035915050600160201b811115610f5d57600080fd5b820183602082011115610f6f57600080fd5b803590602001918460018302840111600160201b83111715610f9057600080fd5b91908080601f016020809104026020016040519081016040528093929190818152602001838380828437600092019190915250929550612725945050505050565b6102b8612792565b6107b0612798565b6102b860048036036060811015610ff757600080fd5b81359190810190604081016020820135600160201b81111561101857600080fd5b82018360208201111561102a57600080fd5b803590602001918460018302840111600160201b8311171561104b57600080fd5b91908080601f0160208091040260200160405190810160405280939291908181526020018383808284376000920191909152509295949360208101935035915050600160201b81111561109d57600080fd5b8201836020820111156110af57600080fd5b803590602001918460018302840111600160201b831117156110d057600080fd5b91908080601f0160208091040260200160405190810160405280939291908181526020018383808284376000920191909152509295506127a7945050505050565b6000806111888787878080601f01602080910402602001604051908101604052809392919081815260200183838082843760009201919091525050604080516020601f8b0181900481028201810190925289815292508991508890819084018382808284376000920191909152506127a792505050565b905060006112138e8e8e8080601f016020809104026020016040519081016040528093929190818152602001838380828437600081840152601f19601f820116905080830192505050505050508d8d8080601f0160208091040260200160405190810160405280939291908181526020018383808284376000920191909152508f9250611a01915050565b905061121d6132eb565b811580159061122b57508215155b156112b75760015b60005481116112b5576000818152600b6020908152604091829020825160808101845281548152600182015492810183905260029091015460ff81161515938201939093526101009092046001600160a01b031660608301529092508314801561129d5750815184145b156112ad5793506112bf92505050565b600101611233565b505b600093505050505b9b9a5050505050505050505050565b600c6020908152600091825260409182902080546001808301546002808501805488519481161561010002600019011691909104601f81018790048702840187019097528683529295909491929183018282801561136d5780601f106113425761010080835404028352916020019161136d565b820191906000526020600020905b81548152906001019060200180831161135057829003601f168201915b5050505060038301805460408051602060026001851615610100026000190190941693909304601f81018490048402820184019092528181529495949350908301828280156113fd5780601f106113d2576101008083540402835291602001916113fd565b820191906000526020600020905b8154815290600101906020018083116113e057829003601f168201915b5050505060048301546005909301549192916001600160a01b0316905086565b60025481565b600b6020526000908152604090208054600182015460029092015490919060ff81169061010090046001600160a01b031684565b60035481565b60035b92915050565b600061147061331e565b60015b6002548111611643576000818152600d60209081526040918290208251815460026001821615610100026000190190911604601f81018490049093028101606090810185529381018381529093919284928491908401828280156115185780601f106114ed57610100808354040283529160200191611518565b820191906000526020600020905b8154815290600101906020018083116114fb57829003601f168201915b5050509183525050600391909101546001600160a01b03166020909101529150611542818661145d565b1580159061162d5750836040516020018082805190602001908083835b6020831061157e5780518252601f19909201916020918201910161155f565b6001836020036101000a0380198251168184511680821785525050505050509050019150506040516020818303038152906040528051906020012082600001516040516020018082805190602001908083835b602083106115f05780518252601f1990920191602091820191016115d1565b6001836020036101000a03801982511681845116808217855250505050505090500191505060405160208183030381529060405280519060200120145b1561163b5791506114609050565b600101611473565b506000949350505050565b61165661331e565b6000805b6002548111611825576000818152600d60209081526040918290208251815460026001821615610100026000190190911604601f81018490049093028101606090810185529381018381529093919284928491908401828280156116ff5780601f106116d4576101008083540402835291602001916116ff565b820191906000526020600020905b8154815290600101906020018083116116e257829003601f168201915b5050509183525050600391909101546001600160a01b03166020909101529250611729813361145d565b158015906118145750836040516020018082805190602001908083835b602083106117655780518252601f199092019160209182019101611746565b6001836020036101000a0380198251168184511680821785525050505050509050019150506040516020818303038152906040528051906020012083600001516040516020018082805190602001908083835b602083106117d75780518252601f1990920191602091820191016117b8565b6001836020036101000a03801982511681845116808217855250505050505090500191505060405160208183030381529060405280519060200120145b1561181d578091505b60010161165a565b5080156119fa5760038054600101908190556040805160a0810182528681526020808201879052818301899052606082018590523360808301526000938452600e81529190922082518051919261188192849290910190613336565b50602082810151805161189a9260018501920190613336565b50604082015181600201556060820151816003015560808201518160040160006101000a8154816001600160a01b0302191690836001600160a01b031602179055509050507fb8191de706947d348e4af82269a7e4b91362250c16b6775a4f8e71acf3fc6a4d60035482878787604051808681526020018581526020018481526020018060200180602001838103835285818151815260200191508051906020019080838360005b8381101561195a578181015183820152602001611942565b50505050905090810190601f1680156119875780820380516001836020036101000a031916815260200191505b50838103825284518152845160209182019186019080838360005b838110156119ba5781810151838201526020016119a2565b50505050905090810190601f1680156119e75780820380516001836020036101000a031916815260200191505b5097505050505050505060405180910390a15b5050505050565b6000611a0b6133b4565b60015b6001548111611d9d57600c60008281526020019081526020016000206040518060c00160405290816000820154815260200160018201548152602001600282018054600181600116156101000203166002900480601f016020809104026020016040519081016040528092919081815260200182805460018160011615610100020316600290048015611ae25780601f10611ab757610100808354040283529160200191611ae2565b820191906000526020600020905b815481529060010190602001808311611ac557829003601f168201915b505050918352505060038201805460408051602060026001851615610100026000190190941693909304601f8101849004840282018401909252818152938201939291830182828015611b765780601f10611b4b57610100808354040283529160200191611b76565b820191906000526020600020905b815481529060010190602001808311611b5957829003601f168201915b505050918352505060048201546020808301919091526005909201546001600160a01b031660409091015281015190925087148015611bb85750838260800151145b15611d9557856040516020018082805190602001908083835b60208310611bf05780518252601f199092019160209182019101611bd1565b6001836020036101000a0380198251168184511680821785525050505050509050019150506040516020818303038152906040528051906020012082604001516040516020018082805190602001908083835b60208310611c625780518252601f199092019160209182019101611c43565b6001836020036101000a03801982511681845116808217855250505050505090500191505060405160208183030381529060405280519060200120148015611d875750846040516020018082805190602001908083835b60208310611cd85780518252601f199092019160209182019101611cb9565b6001836020036101000a0380198251168184511680821785525050505050509050019150506040516020818303038152906040528051906020012082606001516040516020018082805190602001908083835b60208310611d4a5780518252601f199092019160209182019101611d2b565b6001836020036101000a03801982511681845116808217855250505050505090500191505060405160208183030381529060405280519060200120145b15611d95579150611da49050565b600101611a0e565b5060009150505b949350505050565b600f602052600090815260409020546001600160a01b031681565b60005481565b60098181548110611dda57fe5b6000918252602090912001546001600160a01b0316905081565b600d6020908152600091825260409182902080548351601f60026000196101006001861615020190931692909204918201849004840281018401909452808452909291839190830182828015611e8b5780601f10611e6057610100808354040283529160200191611e8b565b820191906000526020600020905b815481529060010190602001808311611e6e57829003601f168201915b505050600390930154919250506001600160a01b031682565b60606000611f1c8787878080601f01602080910402602001604051908101604052809392919081815260200183838082843760009201919091525050604080516020601f8b0181900481028201810190925289815292508991508890819084018382808284376000920191909152506127a792505050565b90506000611fa78e8e8e8080601f016020809104026020016040519081016040528093929190818152602001838380828437600081840152601f19601f820116905080830192505050505050508d8d8080601f0160208091040260200160405190810160405280939291908181526020018383808284376000920191909152508f9250611a01915050565b905080611fed576040518060400160405280601a81526020017f546869732073747564656e7420646f65736e2774206578697374000000000000815250925050506112bf565b81612031576040518060400160405280601981526020017f546869732064656772656520646f65736e277420657869737400000000000000815250925050506112bf565b8d61212f576121268d8d8080601f016020809104026020016040519081016040528093929190818152602001838380828437600081840152601f19601f820116905080830192505050505050508c8c8080601f01602080910402602001604051908101604052809392919081815260200183838082843760009201919091525050604080516020601f8e018190048102820181019092528c81528f93508e9250908d908d908190840183828082843760009201919091525050604080516020601f8f018190048102820181019092528d815292508d91508c9081908401838280828437600092019190915250612b4592505050565b925050506112bf565b6121376132eb565b811580159061214557508215155b156121ec5760015b60005481116121ea576000818152600b6020908152604091829020825160808101845281548152600182015492810183905260029091015460ff81161515938201939093526101009092046001600160a01b03166060830152909250831480156121b75750815184145b156121e257604051806040016040528060028152602001614f4b60f01b8152509450505050506112bf565b60010161214d565b505b50506040805180820190915260028152614e6f60f01b60208201529d9c50505050505050505050505050565b600e6020908152600091825260409182902080548351601f600260001961010060018616150201909316929092049182018490048402810184019094528084529092918391908301828280156122af5780601f10612284576101008083540402835291602001916122af565b820191906000526020600020905b81548152906001019060200180831161229257829003601f168201915b505050505090806001018054600181600116156101000203166002900480601f01602080910402602001604051908101604052809291908181526020018280546001816001161561010002031660029004801561234d5780601f106123225761010080835404028352916020019161234d565b820191906000526020600020905b81548152906001019060200180831161233057829003601f168201915b5050505060028301546003840154600490940154929390929091506001600160a01b031685565b6005546060906001600160a01b031633146123a9576040518060600160405280602c8152602001613449602c91399050611460565b6123b38383611466565b6124fb576002805460010190819055604080518082018252848152336020808301919091526000938452600d8152919092208251805191926123fa92849290910190613336565b5060209182015160039190910180546001600160a01b0319166001600160a01b039092169190911790556002546040805182815233918101829052606081850181815287519183019190915286517f83cda14def4bda5816386e3646981b0e9a7c492751248c7872b1e1ce5e4dfba8958894939291608084019186019080838360005b8381101561249557818101518382015260200161247d565b50505050905090810190601f1680156124c25780820380516001836020036101000a031916815260200191505b5094505050505060405180910390a15060408051808201909152600d81526c14d8da1bdbdb10dc99585d1959609a1b6020820152611460565b506040805180820190915260158152745363686f6f6c20616c72656164792065786973747360581b6020820152611460565b60045481565b61253f84848484611a01565b61271f576001805481018082556040805160c081018252828152602080820189815282840189815260608401899052608084018890523360a08501526000958652600c835293909420825181559351948401949094559051805191936125ad92600285019290910190613336565b50606082015180516125c9916003840191602090910190613336565b506080820151816004015560a08201518160050160006101000a8154816001600160a01b0302191690836001600160a01b031602179055509050507ff123ab1a2d904e5492dbdcffe5c290d2d705f3a56e0f9502c055a46b3fe5fa1f60015485858585604051808681526020018581526020018060200180602001848152602001838103835286818151815260200191508051906020019080838360005b8381101561267f578181015183820152602001612667565b50505050905090810190601f1680156126ac5780820380516001836020036101000a031916815260200191505b50838103825285518152855160209182019187019080838360005b838110156126df5781810151838201526020016126c7565b50505050905090810190601f16801561270c5780820380516001836020036101000a031916815260200191505b5097505050505050505060405180910390a15b50505050565b600061273388888888611a01565b905060006127428585856127a7565b9050816127555761275589898989612533565b8061275f57612787565b6005546000906001600160a01b0316331415612779575060015b6127858284833361306d565b505b505050505050505050565b60015481565b6005546001600160a01b031681565b60006127b16133f3565b60015b6003548111612b37576000818152600e60209081526040918290208251815460026001821615610100026000190190911604601f8101849004909302810160c090810190945260a0810183815290939192849284919084018282801561285b5780601f106128305761010080835404028352916020019161285b565b820191906000526020600020905b81548152906001019060200180831161283e57829003601f168201915b50505050508152602001600182018054600181600116156101000203166002900480601f0160208091040260200160405190810160405280929190818152602001828054600181600116156101000203166002900480156128fd5780601f106128d2576101008083540402835291602001916128fd565b820191906000526020600020905b8154815290600101906020018083116128e057829003601f168201915b5050505050815260200160028201548152602001600382015481526020016004820160009054906101000a90046001600160a01b03166001600160a01b03166001600160a01b0316815250509150846040516020018082805190602001908083835b6020831061297e5780518252601f19909201916020918201910161295f565b6001836020036101000a0380198251168184511680821785525050505050509050019150506040516020818303038152906040528051906020012082600001516040516020018082805190602001908083835b602083106129f05780518252601f1990920191602091820191016129d1565b6001836020036101000a03801982511681845116808217855250505050505090500191505060405160208183030381529060405280519060200120148015612b155750836040516020018082805190602001908083835b60208310612a665780518252601f199092019160209182019101612a47565b6001836020036101000a0380198251168184511680821785525050505050509050019150506040516020818303038152906040528051906020012082602001516040516020018082805190602001908083835b60208310612ad85780518252601f199092019160209182019101612ab9565b6001836020036101000a03801982511681845116808217855250505050505090500191505060405160208183030381529060405280519060200120145b15612b2f578582604001511415612b2f579150612b3e9050565b6001016127b4565b5060009150505b9392505050565b60606000612b516133b4565b600060015b6001548111612ed257600c60008281526020019081526020016000206040518060c00160405290816000820154815260200160018201548152602001600282018054600181600116156101000203166002900480601f016020809104026020016040519081016040528092919081815260200182805460018160011615610100020316600290048015612c2a5780601f10612bff57610100808354040283529160200191612c2a565b820191906000526020600020905b815481529060010190602001808311612c0d57829003601f168201915b505050918352505060038201805460408051602060026001851615610100026000190190941693909304601f8101849004840282018401909252818152938201939291830182828015612cbe5780601f10612c9357610100808354040283529160200191612cbe565b820191906000526020600020905b815481529060010190602001808311612ca157829003601f168201915b5050509183525050600482015460208201526005909101546001600160a01b03166040909101526080810151909350891415612eca578a6040516020018082805190602001908083835b60208310612d275780518252601f199092019160209182019101612d08565b6001836020036101000a0380198251168184511680821785525050505050509050019150506040516020818303038152906040528051906020012083604001516040516020018082805190602001908083835b60208310612d995780518252601f199092019160209182019101612d7a565b6001836020036101000a03801982511681845116808217855250505050505090500191505060405160208183030381529060405280519060200120148015612ebe5750896040516020018082805190602001908083835b60208310612e0f5780518252601f199092019160209182019101612df0565b6001836020036101000a0380198251168184511680821785525050505050509050019150506040516020818303038152906040528051906020012083606001516040516020018082805190602001908083835b60208310612e815780518252601f199092019160209182019101612e62565b6001836020036101000a03801982511681845116808217855250505050505090500191505060405160208183030381529060405280519060200120145b15612eca579250600101825b600101612b56565b5080612f18576040518060400160405280601a81526020017f546869732073747564656e7420646f65736e27742065786973740000000000008152509350505050613063565b6001811115612f61576040518060400160405280601781526020017f4475706c69636174652c20747279207769746820494e450000000000000000008152509350505050613063565b806001141561305f576000612f778888886127a7565b9050612f816132eb565b8415801590612f8f57508115155b156130385760015b6000548111613036576000818152600b6020908152604091829020825160808101845281548152600182015492810183905260029091015460ff81161515938201939093526101009092046001600160a01b03166060830152909250861480156130015750815183145b1561302e57604051806040016040528060028152602001614f4b60f01b8152509650505050505050613063565b600101612f97565b505b604051806040016040528060028152602001614e4f60f01b81525095505050505050613063565b5050505b9695505050505050565b600154831115801561308157506003548411155b1561271f5761308e6133f3565b6000858152600e60209081526040918290208251815460026001821615610100026000190190911604601f8101849004909302810160c090810190945260a0810183815290939192849284919084018282801561312c5780601f106131015761010080835404028352916020019161312c565b820191906000526020600020905b81548152906001019060200180831161310f57829003601f168201915b50505050508152602001600182018054600181600116156101000203166002900480601f0160208091040260200160405190810160405280929190818152602001828054600181600116156101000203166002900480156131ce5780601f106131a3576101008083540402835291602001916131ce565b820191906000526020600020905b8154815290600101906020018083116131b157829003601f168201915b505050918352505060028201546020820152600382015460408201526004909101546001600160a01b031660609182015281015190915061320f813361145d565b156132e35760008054600190810180835560408051608080820183528b825260208083018c81528b15158486018181526001600160a01b03808e1660608089018281529a8d52600b87529b899020975188559351998701999099555160029095018054975190981661010002610100600160a81b031995151560ff1990981697909717949094169590951790955582518c81529485018b90528483019190915293830191909152517f39a6bebf4a890b07ed287c5e07c21772ebbbd0e5e352486a8df23352c52168f4929181900390910190a15b505050505050565b6040518060800160405280600081526020016000815260200160001515815260200160006001600160a01b031681525090565b60408051808201909152606081526000602082015290565b828054600181600116156101000203166002900490600052602060002090601f016020900481019282601f1061337757805160ff19168380011785556133a4565b828001600101855582156133a4579182015b828111156133a4578251825591602001919060010190613389565b506133b092915061342b565b5090565b6040518060c00160405280600081526020016000815260200160608152602001606081526020016000815260200160006001600160a01b031681525090565b6040518060a001604052806060815260200160608152602001600081526020016000815260200160006001600160a01b031681525090565b61344591905b808211156133b05760008155600101613431565b9056fe4e6f2073657276616e742063616e2073657276652074776f206d61737465727320284c75632031363a313329a265627a7a72315820be9e5f28b6091406ec98b7b9bfd36d5a03a65ba7909d756b189c6996549cca9764736f6c634300051000324e6f2073657276616e742063616e2073657276652074776f206d61737465727320284c75632031363a3133296e1540171b6c0c960b71a7020d9f60077f6af931a8bbf590da0223dacf75c7af",
  "source": "pragma solidity ^0.5.16;\n\n\ncontract DiplomaStorage {\n    uint public diplomaCount = 0;\n    uint public studentCount = 0;\n    uint public schoolCount = 0;\n    uint public degreeCount = 0;\n    uint public masterCount = 0;\n    \n    //Address to be modified if you want to do tests\n    address payable public master = msg.sender;\n    \n    uint a = 0;\n    \n    uint size = 3;\n    uint[] balance = new uint[](size);\n    \n    address[] public mas = new address[](0);\n    \n    \n    uint id = mas.push(0x5Ae24DA69915218E800Bd28dF558C92Aa266BFEF);\n\n\n\n\n    //Association between a student and a diploma (this is how the diploma is awarded).\n    struct Diploma {\n        uint idDegree;\n        uint idStudent;\n        bool valid;\n        address creator;\n    }\n\n    event DiplomaCreated(\n        uint idDegree,\n        uint idStudent,\n        bool valid,\n        address creator);\n\n    \n    //School with the address having the right to award diplomas\n    struct School {\n        string name;\n        mapping (uint => address) lv1;\n        mapping (uint => address) lv2;\n        address editor;\n    }\n    \n    event SchoolCreated(\n        uint idSchool,\n        string schoolName,\n        address editor);\n\n    //Diploma (one different diploma per year)\n    struct Degree {\n        string name;\n        string schoolName;\n        uint year;\n        uint schoolId;\n        address editor;\n     \n    }\n\n    event DegreeCreated (\n        uint idDegree,\n        uint idSchool,\n        uint year,\n        string nameDegree,\n        string schoolName);\n\n    //Student defined by INE,Name,First name and date of birth\n    struct Student {\n        uint id;\n        uint INE;\n        string firstName;\n        string lastName;\n        uint birth;\n        address editor;\n    }\n\n    event StudentCreated(\n        uint idStudent,\n        uint INE,\n        string firstName,\n        string lastName,\n        uint birth);\n\n\n\n\n    mapping(uint => Diploma) public diplomas;\n\n    mapping(uint => Student) public students;\n\n    mapping(uint => School) public schools;\n\n    mapping(uint => Degree) public degrees;\n    \n    mapping(uint => address) public masters;\n    \n    \n\n\n\n    constructor() public {\n        \n       masters[1] = master;\n       \n       mas.push(0x5Ae24DA69915218E800Bd28dF558C92Aa266BFEF);\n       \n     \n        \n        \n        \n        \n        \n        //Creation of students\n        createStudent(18821453685,\"Bob\", \"Martin\", 20072015);\n        createStudent(64658482179,\"Alice\", \"Durand\", 19082008);\n        createStudent(54658741246,\"Mallory\",\"Dupond\",1112008);\n       \n       \n        //Creation of schools with the master address (line 13)\n        createSchool(msg.sender,\"Telecom Sud Paris\");\n        createSchool(msg.sender,\"Kryptosphere\");\n        \n        \n        //Creation of diplomas to be awarded\n        createDegree(2022,\"Blockchain Engineer\",\"Telecom Sud Paris\");\n        createDegree(2023,\"Blockchain Developer\",\"Kryptosphere\");\n\n        //Awarding of diplomas\n        createDiploma(18821453685,\"Bob\",\"Martin\",20072015,2022,\"Blockchain Engineer\", \"Telecom Sud Paris\");\n        createDiploma(64658482179,\"Alice\", \"Durand\", 19082008,2023,\"Blockchain Developer\",\"Kryptosphere\");\n        createDiploma(18821453685,\"Bob\", \"Martin\", 20072015,2023,\"Blockchain Developer\",\"Kryptosphere\");\n        \n        \n    }\n    \n   \n\n\n    /**\n     * CREATION FUNCTIONS ----------------------------------------------------------------------------------------------------------------------------------\n     * \n     */\n\n    //Relatively low level function to award diplomas (it is necessary to know the id of the pupil and the id of the diploma that one wants to award)\n    \n    function createDiplomaLL(uint _idDegree, uint  _idStudent,bool _valid, address _creator) internal{\n        if(_idStudent <= studentCount && _idDegree <= degreeCount){\n            Degree memory deg = degrees[_idDegree];\n            uint idSch = deg.schoolId;\n            //School memory sch = schools[idSch];\n            \n            //  We check that the address that is trying to assign a diploma is the one that created the diploma.\n            \n            if(isAutorized(idSch,msg.sender)!=0){\n                diplomaCount ++;\n                diplomas[diplomaCount] = Diploma(_idDegree,_idStudent,_valid,_creator);\n                emit DiplomaCreated(_idDegree,_idStudent,_valid,_creator);\n                \n            }\n        }\n    }\n    \n    //Relatively high level function\n    \n    function createDiploma(uint _INE,string memory _firstName, string memory _lastName,uint _birth,uint _dYear,string memory _nameDegree, string memory _schoolName) public{\n        uint idS = checkStudent(_INE,_firstName,_lastName,_birth);\n        uint idD = checkDegree(_dYear,_nameDegree,_schoolName);\n        \n        //If the student doesn't exist, we'll create one.\n        if(idS == 0){\n            createStudent(_INE,_firstName,_lastName,_birth);\n        }\n        \n        //If the diploma doesn't exist, we don't create it, otherwise we risk creating new diplomas every time we make a typing mistake.\n        if(idD == 0){\n        }\n        else{\n            \n            bool valid = false;\n        \n            //We create the association\n            if(msg.sender == master){\n                valid = true;\n            }\n        \n            createDiplomaLL(idD,idS,valid,msg.sender);\n        }\n    }\n\n    function createStudent(uint _INE,string memory _firstName, string memory _lastName,uint _birth) public{\n        \n        if (checkStudent(_INE,_firstName,_lastName,_birth) == 0){\n            studentCount ++;\n            students[studentCount] = Student(studentCount,_INE, _firstName,_lastName, _birth,msg.sender);\n            emit StudentCreated(studentCount,_INE,_firstName,_lastName,_birth);\n        }\n        \n    }\n\n    function createSchool( address _schoolAdress, string memory _schoolName) public returns(string memory){\n        if(msg.sender != master){\n            \n            //We get in here if we try to create a school without being the manager of the smart contract. \n            //This is necessary because if someone was able to create schools he could create and award diplomas and this would lead to disaster\n            \n            return(\"No servant can serve two masters (Luc 16:13)\");\n            \n        }\n        if (checkSchool(_schoolAdress,_schoolName) == 0){\n            schoolCount ++;\n            schools[schoolCount] = School(_schoolName,msg.sender);\n            emit SchoolCreated(schoolCount,_schoolName,msg.sender);\n            return(\"SchoolCreated\");\n        }\n        else{\n            return(\"School already exists\");\n        }\n    }\n    \n    \n\n    function createDegree(uint _year,string memory _nameDegree, string memory _schoolName) public {\n        School memory sch;\n        uint idSch = 0;\n        for(uint i = 0; i <= schoolCount; i++){\n            sch=schools[i];\n            if((isAutorized(i,msg.sender) != 0) && keccak256(abi.encodePacked(sch.name)) == keccak256(abi.encodePacked(_schoolName))){\n                idSch = i;\n            }\n        }\n        if (idSch != 0){\n            degreeCount ++;\n            degrees[degreeCount] = Degree(_nameDegree, _schoolName, _year,idSch, msg.sender);\n            emit DegreeCreated(degreeCount,idSch, _year,_nameDegree,_schoolName);\n        }\n        \n    }\n    \n\n\n    /**\n    EXISTENCE CHECK FUNCTIONS----------------------------------------------------------------------------------------------------------------------------------------------------------------------\n\n    That is to say one enters the characteristics of the searched object and the function returns a uint which is the id\n    0 if the object does not exist\n    \n    WARNING ids start at 1 !\n    \n     */\n     \n     //TODO\n    function isAutorized(uint _idSch,address _address) public view returns (uint){\n        //renvoie 0 1 2 ou 3 selon le niveau d'autorisation de l'addresse pour l'ecole\n        return(3);\n    }\n     \n     \n    function checkSchool(address _schoolAddress,string memory _schoolName) public view returns (uint){\n        School memory sch;\n        for (uint i = 1; i <= schoolCount;i++){\n            sch = schools[i];\n            if((isAutorized(i,_schoolAddress)!=0) && keccak256(abi.encodePacked(sch.name)) == keccak256(abi.encodePacked(_schoolName))){\n                return(i);\n            }\n        }\n        return(0);\n    }\n    \n    \n    \n\n\n    function checkStudent(uint _INE,string memory _firstName, string memory _lastName, uint _birth ) public view returns(uint){\n        Student memory stu;\n        for (uint i = 1; i <= studentCount; i++){\n            stu=students[i];\n            if(stu.INE ==_INE && stu.birth == _birth){  \n                if(keccak256(abi.encodePacked(stu.firstName)) == keccak256(abi.encodePacked(_firstName)) && keccak256(abi.encodePacked(stu.lastName)) == keccak256(abi.encodePacked(_lastName))){\n                    return(i);\n                }\n            }\n        }\n        return(0);\n    }\n    \n    \n    \n    function checkDegree(uint _year, string memory _nameDegree, string memory _schoolName) public view returns (uint){\n        Degree memory deg;\n        for (uint i = 1; i<= degreeCount; i++){\n            deg = degrees[i];\n            if(keccak256(abi.encodePacked(deg.name)) == keccak256(abi.encodePacked(_nameDegree)) && keccak256(abi.encodePacked(deg.schoolName)) == keccak256(abi.encodePacked(_schoolName))){\n                if(deg.year == _year){\n                    return(i);\n                }\n            }\n        }\n        return(0);\n    }\n    \n    function getIdDiploma(uint _INE,string calldata _firstName, string calldata _lastName,uint _birth,uint _dYear,string calldata _nameDegree, string calldata _schoolName) external view returns(uint) {\n        uint degreeId = checkDegree(_dYear, _nameDegree,_schoolName);\n        uint studentId = checkStudent(_INE,_firstName,_lastName,_birth);\n        \n        Diploma memory dip;\n\n        // If the student and the diploma exist, we will check if such an association exists\n        \n        if(studentId != 0 && degreeId != 0){\n            for(uint k = 1; k <= diplomaCount;k++){\n                dip = diplomas[k];\n                if (dip.idStudent == studentId && dip.idDegree == degreeId){\n                    return k;\n                }\n            }\n        }\n        return 0;\n    }\n\n\n\n\n\n   \n\n    function checkDiploma(uint _INE,string calldata _firstName, string calldata _lastName,uint _birth,uint _dYear,string calldata _nameDegree, string calldata _schoolName) external view returns(string memory) {\n        uint degreeId = checkDegree(_dYear, _nameDegree,_schoolName);\n        uint studentId = checkStudent(_INE,_firstName,_lastName,_birth);\n        if (studentId == 0){\n            return(\"This student doesn't exist\");\n        }\n        if (degreeId == 0){\n            return(\"This degree doesn't exist\");\n        }\n        \n        if(_INE == 0){\n            return(checkDiplomaNoINE(_firstName,_lastName,_birth,_dYear,_nameDegree,_schoolName));\n        }\n        \n        Diploma memory dip;\n\n        // If the student and the diploma exist, we will check if such an association exists\n        \n        if(studentId != 0 && degreeId != 0){\n            for(uint k = 1; k <= diplomaCount;k++){\n                dip = diplomas[k];\n                if (dip.idStudent == studentId && dip.idDegree == degreeId){\n                    return \"OK\";\n                }\n            }\n        }\n        return \"No\";\n    }\n    \n    \n    //Function to check a diploma without knowing the INE \n    /**\n     * If the student exists in duplicate, the INE is requested\n     **/\n    \n    function checkDiplomaNoINE(string memory _firstName, string memory _lastName,uint _birth,uint _dYear,string memory _nameDegree, string memory _schoolName) internal view returns(string memory){\n        \n       uint studentId = 0;\n       Student memory stu;\n       uint c = 0;\n        for (uint i = 1; i <= studentCount; i++){\n            stu=students[i];\n            if(stu.birth == _birth){  \n                if(keccak256(abi.encodePacked(stu.firstName)) == keccak256(abi.encodePacked(_firstName)) && keccak256(abi.encodePacked(stu.lastName)) == keccak256(abi.encodePacked(_lastName))){\n                    c++;\n                    studentId = i;\n                }\n            }\n        }\n        if(c == 0){\n            return(\"This student doesn't exist\");\n        }\n        if(c > 1){\n           return(\"Duplicate, try with INE\");\n        }\n        if(c == 1){\n            uint degreeId = checkDegree(_dYear, _nameDegree,_schoolName);\n        \n        Diploma memory dip;\n\n        // If the student and the diploma exist, we will check if such an association exists.\n        \n        if(studentId != 0 && degreeId != 0){\n            for(uint k = 1; k <= diplomaCount;k++){\n                dip = diplomas[k];\n                if (dip.idStudent == studentId && dip.idDegree == degreeId){\n                    return (\"OK\");\n                }\n            }\n        }\n        return(\"NO\");\n        }\n    } \n}",
  "sourcePath": "/home/ubuntu/Documents/BC_Projects/OPPO-DS/Truffle/contracts/DiplomaStorageAncien.sol",
  "compiler": {
    "name": "solc",
    "version": "0.5.16+commit.9c3226ce.Emscripten.clang"
  },
  "schemaVersion": "3.0.23",
  "updatedAt": "2020-05-02T14:34:05.249Z",
  "networkType": "ethereum",
  "devdoc": {
    "methods": {}
  },
  "userdoc": {
    "methods": {
      "isAutorized(uint256,address)": {
        "notice": "EXISTENCE CHECK FUNCTIONS---------------------------------------------------------------------------------------------------------------------------------------------------------------------- That is to say one enters the characteristics of the searched object and the function returns a uint which is the id 0 if the object does not exist WARNING ids start at 1 !"
      }
    }
  }
}