{
  "contractName": "DiplomaStorage",
  "abi": [
    {
      "inputs": [],
      "payable": false,
      "stateMutability": "nonpayable",
      "type": "constructor"
    },
    {
      "anonymous": false,
      "inputs": [
        {
          "indexed": false,
          "internalType": "uint256",
          "name": "idDegree",
          "type": "uint256"
        },
        {
          "indexed": false,
          "internalType": "uint256",
          "name": "idSchool",
          "type": "uint256"
        },
        {
          "indexed": false,
          "internalType": "uint256",
          "name": "year",
          "type": "uint256"
        },
        {
          "indexed": false,
          "internalType": "string",
          "name": "nameDegree",
          "type": "string"
        },
        {
          "indexed": false,
          "internalType": "string",
          "name": "schoolName",
          "type": "string"
        }
      ],
      "name": "DegreeCreated",
      "type": "event"
    },
    {
      "anonymous": false,
      "inputs": [
        {
          "indexed": false,
          "internalType": "uint256",
          "name": "idDegree",
          "type": "uint256"
        },
        {
          "indexed": false,
          "internalType": "uint256",
          "name": "idStudent",
          "type": "uint256"
        }
      ],
      "name": "DiplomaCreated",
      "type": "event"
    },
    {
      "anonymous": false,
      "inputs": [
        {
          "indexed": false,
          "internalType": "address",
          "name": "schoolAddress",
          "type": "address"
        },
        {
          "indexed": false,
          "internalType": "uint256",
          "name": "idSchool",
          "type": "uint256"
        },
        {
          "indexed": false,
          "internalType": "string",
          "name": "schoolName",
          "type": "string"
        }
      ],
      "name": "SchoolCreated",
      "type": "event"
    },
    {
      "anonymous": false,
      "inputs": [
        {
          "indexed": false,
          "internalType": "uint256",
          "name": "idStudent",
          "type": "uint256"
        },
        {
          "indexed": false,
          "internalType": "uint256",
          "name": "INE",
          "type": "uint256"
        },
        {
          "indexed": false,
          "internalType": "string",
          "name": "firstName",
          "type": "string"
        },
        {
          "indexed": false,
          "internalType": "string",
          "name": "lastName",
          "type": "string"
        },
        {
          "indexed": false,
          "internalType": "uint256",
          "name": "birth",
          "type": "uint256"
        }
      ],
      "name": "StudentCreated",
      "type": "event"
    },
    {
      "constant": true,
      "inputs": [],
      "name": "degreeCount",
      "outputs": [
        {
          "internalType": "uint256",
          "name": "",
          "type": "uint256"
        }
      ],
      "payable": false,
      "stateMutability": "view",
      "type": "function"
    },
    {
      "constant": true,
      "inputs": [
        {
          "internalType": "uint256",
          "name": "",
          "type": "uint256"
        }
      ],
      "name": "degrees",
      "outputs": [
        {
          "internalType": "uint256",
          "name": "idDegree",
          "type": "uint256"
        },
        {
          "internalType": "uint256",
          "name": "idSchool",
          "type": "uint256"
        },
        {
          "internalType": "uint256",
          "name": "year",
          "type": "uint256"
        },
        {
          "internalType": "string",
          "name": "nameDegree",
          "type": "string"
        },
        {
          "internalType": "string",
          "name": "schoolName",
          "type": "string"
        }
      ],
      "payable": false,
      "stateMutability": "view",
      "type": "function"
    },
    {
      "constant": true,
      "inputs": [],
      "name": "diplomaCount",
      "outputs": [
        {
          "internalType": "uint256",
          "name": "",
          "type": "uint256"
        }
      ],
      "payable": false,
      "stateMutability": "view",
      "type": "function"
    },
    {
      "constant": true,
      "inputs": [
        {
          "internalType": "uint256",
          "name": "",
          "type": "uint256"
        }
      ],
      "name": "diplomas",
      "outputs": [
        {
          "internalType": "uint256",
          "name": "idDegree",
          "type": "uint256"
        },
        {
          "internalType": "uint256",
          "name": "idStudent",
          "type": "uint256"
        }
      ],
      "payable": false,
      "stateMutability": "view",
      "type": "function"
    },
    {
      "constant": true,
      "inputs": [],
      "name": "schoolCount",
      "outputs": [
        {
          "internalType": "uint256",
          "name": "",
          "type": "uint256"
        }
      ],
      "payable": false,
      "stateMutability": "view",
      "type": "function"
    },
    {
      "constant": true,
      "inputs": [
        {
          "internalType": "uint256",
          "name": "",
          "type": "uint256"
        }
      ],
      "name": "schools",
      "outputs": [
        {
          "internalType": "address",
          "name": "schoolAddress",
          "type": "address"
        },
        {
          "internalType": "uint256",
          "name": "idSchool",
          "type": "uint256"
        },
        {
          "internalType": "string",
          "name": "schoolName",
          "type": "string"
        }
      ],
      "payable": false,
      "stateMutability": "view",
      "type": "function"
    },
    {
      "constant": true,
      "inputs": [],
      "name": "studentCount",
      "outputs": [
        {
          "internalType": "uint256",
          "name": "",
          "type": "uint256"
        }
      ],
      "payable": false,
      "stateMutability": "view",
      "type": "function"
    },
    {
      "constant": true,
      "inputs": [
        {
          "internalType": "uint256",
          "name": "",
          "type": "uint256"
        }
      ],
      "name": "students",
      "outputs": [
        {
          "internalType": "uint256",
          "name": "idStudent",
          "type": "uint256"
        },
        {
          "internalType": "uint256",
          "name": "INE",
          "type": "uint256"
        },
        {
          "internalType": "string",
          "name": "firstName",
          "type": "string"
        },
        {
          "internalType": "string",
          "name": "lastName",
          "type": "string"
        },
        {
          "internalType": "uint256",
          "name": "birth",
          "type": "uint256"
        }
      ],
      "payable": false,
      "stateMutability": "view",
      "type": "function"
    },
    {
      "constant": false,
      "inputs": [
        {
          "internalType": "uint256",
          "name": "_INE",
          "type": "uint256"
        },
        {
          "internalType": "string",
          "name": "_firstName",
          "type": "string"
        },
        {
          "internalType": "string",
          "name": "_lastName",
          "type": "string"
        },
        {
          "internalType": "uint256",
          "name": "_birth",
          "type": "uint256"
        },
        {
          "internalType": "uint256",
          "name": "_dYear",
          "type": "uint256"
        },
        {
          "internalType": "string",
          "name": "_nameDegree",
          "type": "string"
        },
        {
          "internalType": "string",
          "name": "_schoolName",
          "type": "string"
        }
      ],
      "name": "createDiploma",
      "outputs": [],
      "payable": false,
      "stateMutability": "nonpayable",
      "type": "function"
    },
    {
      "constant": false,
      "inputs": [
        {
          "internalType": "uint256",
          "name": "_INE",
          "type": "uint256"
        },
        {
          "internalType": "string",
          "name": "_firstName",
          "type": "string"
        },
        {
          "internalType": "string",
          "name": "_lastName",
          "type": "string"
        },
        {
          "internalType": "uint256",
          "name": "_birth",
          "type": "uint256"
        }
      ],
      "name": "createStudent",
      "outputs": [],
      "payable": false,
      "stateMutability": "nonpayable",
      "type": "function"
    },
    {
      "constant": false,
      "inputs": [
        {
          "internalType": "address",
          "name": "_schoolAdress",
          "type": "address"
        },
        {
          "internalType": "string",
          "name": "_schoolName",
          "type": "string"
        }
      ],
      "name": "createSchool",
      "outputs": [
        {
          "internalType": "string",
          "name": "",
          "type": "string"
        }
      ],
      "payable": false,
      "stateMutability": "nonpayable",
      "type": "function"
    },
    {
      "constant": false,
      "inputs": [
        {
          "internalType": "uint256",
          "name": "_year",
          "type": "uint256"
        },
        {
          "internalType": "string",
          "name": "_nameDegree",
          "type": "string"
        },
        {
          "internalType": "string",
          "name": "_schoolName",
          "type": "string"
        }
      ],
      "name": "createDegree",
      "outputs": [],
      "payable": false,
      "stateMutability": "nonpayable",
      "type": "function"
    },
    {
      "constant": true,
      "inputs": [
        {
          "internalType": "address",
          "name": "_schoolAddress",
          "type": "address"
        },
        {
          "internalType": "string",
          "name": "_schoolName",
          "type": "string"
        }
      ],
      "name": "checkSchool",
      "outputs": [
        {
          "internalType": "uint256",
          "name": "",
          "type": "uint256"
        }
      ],
      "payable": false,
      "stateMutability": "view",
      "type": "function"
    },
    {
      "constant": true,
      "inputs": [
        {
          "internalType": "uint256",
          "name": "_INE",
          "type": "uint256"
        },
        {
          "internalType": "string",
          "name": "_firstName",
          "type": "string"
        },
        {
          "internalType": "string",
          "name": "_lastName",
          "type": "string"
        },
        {
          "internalType": "uint256",
          "name": "_birth",
          "type": "uint256"
        }
      ],
      "name": "checkStudent",
      "outputs": [
        {
          "internalType": "uint256",
          "name": "",
          "type": "uint256"
        }
      ],
      "payable": false,
      "stateMutability": "view",
      "type": "function"
    },
    {
      "constant": true,
      "inputs": [
        {
          "internalType": "uint256",
          "name": "_year",
          "type": "uint256"
        },
        {
          "internalType": "string",
          "name": "_nameDegree",
          "type": "string"
        },
        {
          "internalType": "string",
          "name": "_schoolName",
          "type": "string"
        }
      ],
      "name": "checkDegree",
      "outputs": [
        {
          "internalType": "uint256",
          "name": "",
          "type": "uint256"
        }
      ],
      "payable": false,
      "stateMutability": "view",
      "type": "function"
    },
    {
      "constant": true,
      "inputs": [
        {
          "internalType": "uint256",
          "name": "_INE",
          "type": "uint256"
        },
        {
          "internalType": "string",
          "name": "_firstName",
          "type": "string"
        },
        {
          "internalType": "string",
          "name": "_lastName",
          "type": "string"
        },
        {
          "internalType": "uint256",
          "name": "_birth",
          "type": "uint256"
        },
        {
          "internalType": "uint256",
          "name": "_dYear",
          "type": "uint256"
        },
        {
          "internalType": "string",
          "name": "_nameDegree",
          "type": "string"
        },
        {
          "internalType": "string",
          "name": "_schoolName",
          "type": "string"
        }
      ],
      "name": "checkDiploma",
      "outputs": [
        {
          "internalType": "bool",
          "name": "",
          "type": "bool"
        }
      ],
      "payable": false,
      "stateMutability": "view",
      "type": "function"
    },
    {
      "constant": true,
      "inputs": [
        {
          "internalType": "string",
          "name": "_firstName",
          "type": "string"
        },
        {
          "internalType": "string",
          "name": "_lastName",
          "type": "string"
        },
        {
          "internalType": "uint256",
          "name": "_birth",
          "type": "uint256"
        },
        {
          "internalType": "uint256",
          "name": "_dYear",
          "type": "uint256"
        },
        {
          "internalType": "string",
          "name": "_nameDegree",
          "type": "string"
        },
        {
          "internalType": "string",
          "name": "_schoolName",
          "type": "string"
        }
      ],
      "name": "checkDiplomaNoINE",
      "outputs": [
        {
          "internalType": "string",
          "name": "",
          "type": "string"
        }
      ],
      "payable": false,
      "stateMutability": "view",
      "type": "function"
    }
  ],
  "bytecode": "0x6080604052600080805560018190556002819055600355600480546001600160a01b031916331790553480156200003557600080fd5b506200008c640461d89775604051806040016040528060038152602001622137b160e91b8152506040518060400160405280600681526020016526b0b93a34b760d11b815250630132464f620004a660201b60201c565b620000e4640f0df2240360405180604001604052806005815260200164416c69636560d81b81525060405180604001604052806006815260200165111d5c985b9960d21b8152506301232b18620004a660201b60201c565b6200013d640cb9ea33fe604051806040016040528060078152602001664d616c6c6f727960c81b81525060405180604001604052806006815260200165111d5c1bdb9960d21b8152506210f7c8620004a660201b60201c565b62000178336040518060400160405280601181526020017054656c65636f6d2053756420506172697360781b8152506200067b60201b60201c565b50620001af336040518060400160405280600c81526020016b4b727970746f73706865726560a01b8152506200067b60201b60201c565b50620002196107e660405180604001604052806013815260200172213637b1b5b1b430b4b71022b733b4b732b2b960691b8152506040518060400160405280601181526020017054656c65636f6d2053756420506172697360781b8152506200086d60201b60201c565b620002876107e76040518060400160405280601481526020017f426c6f636b636861696e20446576656c6f7065720000000000000000000000008152506040518060400160405280600c81526020016b4b727970746f73706865726560a01b8152506200086d60201b60201c565b62000336640461d89775604051806040016040528060038152602001622137b160e91b8152506040518060400160405280600681526020016526b0b93a34b760d11b815250630132464f6107e660405180604001604052806013815260200172213637b1b5b1b430b4b71022b733b4b732b2b960691b8152506040518060400160405280601181526020017054656c65636f6d2053756420506172697360781b81525062000c2160201b60201c565b620003ec640f0df2240360405180604001604052806005815260200164416c69636560d81b81525060405180604001604052806006815260200165111d5c985b9960d21b8152506301232b186107e76040518060400160405280601481526020017f426c6f636b636861696e20446576656c6f7065720000000000000000000000008152506040518060400160405280600c81526020016b4b727970746f73706865726560a01b81525062000c2160201b60201c565b620004a0640461d89775604051806040016040528060038152602001622137b160e91b8152506040518060400160405280600681526020016526b0b93a34b760d11b815250630132464f6107e76040518060400160405280601481526020017f426c6f636b636861696e20446576656c6f7065720000000000000000000000008152506040518060400160405280600c81526020016b4b727970746f73706865726560a01b81525062000c2160201b60201c565b620019fb565b620004bd848484846001600160e01b0362000c9f16565b62000675576001805481018082556040805160a0810182528281526020808201898152828401898152606084018990526080840188905260009586526006835293909420825181559351948401949094559051805191936200052892600285019290910190620018ce565b506060820151805162000546916003840191602090910190620018ce565b50608082015181600401559050507ff123ab1a2d904e5492dbdcffe5c290d2d705f3a56e0f9502c055a46b3fe5fa1f60015485858585604051808681526020018581526020018060200180602001848152602001838103835286818151815260200191508051906020019080838360005b83811015620005d1578181015183820152602001620005b7565b50505050905090810190601f168015620005ff5780820380516001836020036101000a031916815260200191505b50838103825285518152855160209182019187019080838360005b83811015620006345781810151838201526020016200061a565b50505050905090810190601f168015620006625780820380516001836020036101000a031916815260200191505b5097505050505050505060405180910390a15b50505050565b6004546060906001600160a01b03163314620006b3576040518060600160405280602c8152602001620049a7602c9139905062000867565b620006c883836001600160e01b036200104c16565b6200083157600280546001908101808355604080516060810182526001600160a01b03888116825260208083018581528385018a815260009687526007835294909520835181546001600160a01b0319169316929092178255935194810194909455905180519194620007429390850192910190620018ce565b509050507ffac1cccae9509eccf1a5a98fa0bd350356789eaaba2b19622580acf8ca9ded32836002548460405180846001600160a01b03166001600160a01b0316815260200183815260200180602001828103825283818151815260200191508051906020019080838360005b83811015620007c9578181015183820152602001620007af565b50505050905090810190601f168015620007f75780820380516001836020036101000a031916815260200191505b5094505050505060405180910390a15060408051808201909152600d81526c14d8da1bdbdb10dc99585d1959609a1b602082015262000867565b5060408051808201909152601581527f5363686f6f6c20616c726561647920657869737473000000000000000000000060208201525b92915050565b6200087762001953565b6000805b600254811162000a6157600081815260076020908152604091829020825160608101845281546001600160a01b03168152600180830154828501526002808401805487516101009482161594909402600019011691909104601f81018690048602830186018752808352929593949386019391929091830182828015620009465780601f106200091a5761010080835404028352916020019162000946565b820191906000526020600020905b8154815290600101906020018083116200092857829003601f168201915b5050509190925250508151919450506001600160a01b03163314801562000a4e5750836040516020018082805190602001908083835b602083106200099d5780518252601f1990920191602091820191016200097c565b6001836020036101000a0380198251168184511680821785525050505050509050019150506040516020818303038152906040528051906020012083604001516040516020018082805190602001908083835b6020831062000a115780518252601f199092019160209182019101620009f0565b6001836020036101000a03801982511681845116808217855250505050505090500191505060405160208183030381529060405280519060200120145b1562000a58578091505b6001016200087b565b50801562000c1a576003805460019081018083556040805160a08101825282815260208082018781528284018c8152606084018c8152608085018c905260009687526008845294909520835181559051958101959095559251600285015590518051919462000ad79390850192910190620018ce565b506080820151805162000af5916004840191602090910190620018ce565b509050507fb8191de706947d348e4af82269a7e4b91362250c16b6775a4f8e71acf3fc6a4d60035482878787604051808681526020018581526020018481526020018060200180602001838103835285818151815260200191508051906020019080838360005b8381101562000b7657818101518382015260200162000b5c565b50505050905090810190601f16801562000ba45780820380516001836020036101000a031916815260200191505b50838103825284518152845160209182019186019080838360005b8381101562000bd957818101518382015260200162000bbf565b50505050905090810190601f16801562000c075780820380516001836020036101000a031916815260200191505b5097505050505050505060405180910390a15b5050505050565b600062000c3a888888886001600160e01b0362000c9f16565b9050600062000c548585856001600160e01b036200125c16565b90508162000c735762000c73898989896001600160e01b03620004a616565b8062000c7f5762000c94565b62000c9481836001600160e01b03620015df16565b505050505050505050565b600062000cab6200197d565b60015b60015481116200103d57600660008281526020019081526020016000206040518060a00160405290816000820154815260200160018201548152602001600282018054600181600116156101000203166002900480601f01602080910402602001604051908101604052809291908181526020018280546001816001161561010002031660029004801562000d875780601f1062000d5b5761010080835404028352916020019162000d87565b820191906000526020600020905b81548152906001019060200180831162000d6957829003601f168201915b505050918352505060038201805460408051602060026001851615610100026000190190941693909304601f810184900484028201840190925281815293820193929183018282801562000e1f5780601f1062000df35761010080835404028352916020019162000e1f565b820191906000526020600020905b81548152906001019060200180831162000e0157829003601f168201915b50505050508152602001600482015481525050915086826020015114801562000e4b5750838260800151145b156200103457856040516020018082805190602001908083835b6020831062000e865780518252601f19909201916020918201910162000e65565b6001836020036101000a0380198251168184511680821785525050505050509050019150506040516020818303038152906040528051906020012082604001516040516020018082805190602001908083835b6020831062000efa5780518252601f19909201916020918201910162000ed9565b6001836020036101000a03801982511681845116808217855250505050505090500191505060405160208183030381529060405280519060200120148015620010245750846040516020018082805190602001908083835b6020831062000f735780518252601f19909201916020918201910162000f52565b6001836020036101000a0380198251168184511680821785525050505050509050019150506040516020818303038152906040528051906020012082606001516040516020018082805190602001908083835b6020831062000fe75780518252601f19909201916020918201910162000fc6565b6001836020036101000a03801982511681845116808217855250505050505090500191505060405160208183030381529060405280519060200120145b1562001034579150620010449050565b60010162000cae565b5060009150505b949350505050565b60006200105862001953565b60015b60025481116200125157600081815260076020908152604091829020825160608101845281546001600160a01b03168152600180830154828501526002808401805487516101009482161594909402600019011691909104601f81018690048602830186018752808352929593949386019391929091830182828015620011265780601f10620010fa5761010080835404028352916020019162001126565b820191906000526020600020905b8154815290600101906020018083116200110857829003601f168201915b5050505050815250509150846001600160a01b031682600001516001600160a01b0316148015620012385750836040516020018082805190602001908083835b60208310620011875780518252601f19909201916020918201910162001166565b6001836020036101000a0380198251168184511680821785525050505050509050019150506040516020818303038152906040528051906020012082604001516040516020018082805190602001908083835b60208310620011fb5780518252601f199092019160209182019101620011da565b6001836020036101000a03801982511681845116808217855250505050505090500191505060405160208183030381529060405280519060200120145b1562001248579150620008679050565b6001016200105b565b506000949350505050565b600062001268620019ac565b60015b6003548111620015d157600081815260086020908152604091829020825160a08101845281548152600180830154828501526002808401548387015260038401805487519381161561010002600019011691909104601f810186900486028301860190965285825291949293606086019391929190830182828015620013355780601f10620013095761010080835404028352916020019162001335565b820191906000526020600020905b8154815290600101906020018083116200131757829003601f168201915b505050918352505060048201805460408051602060026001851615610100026000190190941693909304601f8101849004840282018401909252818152938201939291830182828015620013cd5780601f10620013a157610100808354040283529160200191620013cd565b820191906000526020600020905b815481529060010190602001808311620013af57829003601f168201915b5050505050815250509150846040516020018082805190602001908083835b602083106200140d5780518252601f199092019160209182019101620013ec565b6001836020036101000a0380198251168184511680821785525050505050509050019150506040516020818303038152906040528051906020012082606001516040516020018082805190602001908083835b60208310620014815780518252601f19909201916020918201910162001460565b6001836020036101000a03801982511681845116808217855250505050505090500191505060405160208183030381529060405280519060200120148015620015ab5750836040516020018082805190602001908083835b60208310620014fa5780518252601f199092019160209182019101620014d9565b6001836020036101000a0380198251168184511680821785525050505050509050019150506040516020818303038152906040528051906020012082608001516040516020018082805190602001908083835b602083106200156e5780518252601f1990920191602091820191016200154d565b6001836020036101000a03801982511681845116808217855250505050505090500191505060405160208183030381529060405280519060200120145b15620015c8578582604001511415620015c8579150620015d89050565b6001016200126b565b5060009150505b9392505050565b6001548111158015620015f457506003548211155b15620018ca5762001604620019ac565b600083815260086020908152604091829020825160a08101845281548152600180830154828501526002808401548387015260038401805487519381161561010002600019011691909104601f810186900486028301860190965285825291949293606086019391929190830182828015620016c45780601f106200169857610100808354040283529160200191620016c4565b820191906000526020600020905b815481529060010190602001808311620016a657829003601f168201915b505050918352505060048201805460408051602060026001851615610100026000190190941693909304601f81018490048402820184019092528181529382019392918301828280156200175c5780601f1062001730576101008083540402835291602001916200175c565b820191906000526020600020905b8154815290600101906020018083116200173e57829003601f168201915b5050509190925250505060208101519091506200177862001953565b600082815260076020908152604091829020825160608101845281546001600160a01b03168152600180830154828501526002808401805487516101009482161594909402600019011691909104601f81018690048602830186018752808352929593949386019391929091830182828015620018395780601f106200180d5761010080835404028352916020019162001839565b820191906000526020600020905b8154815290600101906020018083116200181b57829003601f168201915b5050509190925250508151919250506001600160a01b031633141562000c1a5760008054600190810180835560408051808201825289815260208082018a815293865260058152948290209051815591519190920155805187815291820186905280517ff576ff9ab2b19f86beb41ceead7ab40f8227385341abe8e1735c8f7cddcbc0c99281900390910190a15050505b5050565b828054600181600116156101000203166002900490600052602060002090601f016020900481019282601f106200191157805160ff191683800117855562001941565b8280016001018555821562001941579182015b828111156200194157825182559160200191906001019062001924565b506200194f929150620019db565b5090565b604051806060016040528060006001600160a01b0316815260200160008152602001606081525090565b6040518060a0016040528060008152602001600081526020016060815260200160608152602001600081525090565b6040518060a0016040528060008152602001600081526020016000815260200160608152602001606081525090565b620019f891905b808211156200194f5760008155600101620019e2565b90565b612f9c8062001a0b6000396000f3fe608060405234801561001057600080fd5b506004361061010b5760003560e01c8063719c0d04116100a25780639cddb7c0116100715780639cddb7c014610c28578063a1cebf5214610cdc578063bf23e63b14610e0e578063e581f9ee14611054578063fcf8642e1461105c5761010b565b8063719c0d04146105985780637e0243ab1461064d5780637f9ed4501461090157806381f1c3bc14610b5b5761010b565b8063406358cf116100de578063406358cf14610278578063454ddc171461032c5780635a471b6b1461045e5780636920613f146105905761010b565b806306ead22e1461011057806328d888901461022057806335dfc1c31461023a5780633660096b14610270575b600080fd5b61012d6004803603602081101561012657600080fd5b503561118c565b604051808681526020018581526020018060200180602001848152602001838103835286818151815260200191508051906020019080838360005b83811015610180578181015183820152602001610168565b50505050905090810190601f1680156101ad5780820380516001836020036101000a031916815260200191505b50838103825285518152855160209182019187019080838360005b838110156101e05781810151838201526020016101c8565b50505050905090810190601f16801561020d5780820380516001836020036101000a031916815260200191505b5097505050505050505060405180910390f35b6102286112cb565b60408051918252519081900360200190f35b6102576004803603602081101561025057600080fd5b50356112d1565b6040805192835260208301919091528051918290030190f35b6102286112ea565b6102286004803603604081101561028e57600080fd5b6001600160a01b038235169190810190604081016020820135600160201b8111156102b857600080fd5b8201836020820111156102ca57600080fd5b803590602001918460018302840111600160201b831117156102eb57600080fd5b91908080601f0160208091040260200160405190810160405280939291908181526020018383808284376000920191909152509295506112f0945050505050565b61045c6004803603606081101561034257600080fd5b81359190810190604081016020820135600160201b81111561036357600080fd5b82018360208201111561037557600080fd5b803590602001918460018302840111600160201b8311171561039657600080fd5b91908080601f0160208091040260200160405190810160405280939291908181526020018383808284376000920191909152509295949360208101935035915050600160201b8111156103e857600080fd5b8201836020820111156103fa57600080fd5b803590602001918460018302840111600160201b8311171561041b57600080fd5b91908080601f0160208091040260200160405190810160405280939291908181526020018383808284376000920191909152509295506114f3945050505050565b005b6102286004803603608081101561047457600080fd5b81359190810190604081016020820135600160201b81111561049557600080fd5b8201836020820111156104a757600080fd5b803590602001918460018302840111600160201b831117156104c857600080fd5b91908080601f0160208091040260200160405190810160405280939291908181526020018383808284376000920191909152509295949360208101935035915050600160201b81111561051a57600080fd5b82018360208201111561052c57600080fd5b803590602001918460018302840111600160201b8311171561054d57600080fd5b91908080601f016020809104026020016040519081016040528093929190818152602001838380828437600092019190915250929550509135925061188e915050565b610228611c22565b6105b5600480360360208110156105ae57600080fd5b5035611c28565b60405180846001600160a01b03166001600160a01b0316815260200183815260200180602001828103825283818151815260200191508051906020019080838360005b838110156106105781810151838201526020016105f8565b50505050905090810190601f16801561063d5780820380516001836020036101000a031916815260200191505b5094505050505060405180910390f35b61088c600480360360c081101561066357600080fd5b810190602081018135600160201b81111561067d57600080fd5b82018360208201111561068f57600080fd5b803590602001918460018302840111600160201b831117156106b057600080fd5b91908080601f0160208091040260200160405190810160405280939291908181526020018383808284376000920191909152509295949360208101935035915050600160201b81111561070257600080fd5b82018360208201111561071457600080fd5b803590602001918460018302840111600160201b8311171561073557600080fd5b91908080601f0160208091040260200160405190810160405280939291908181526020018383808284376000920191909152509295843595602086013595919450925060608101915060400135600160201b81111561079357600080fd5b8201836020820111156107a557600080fd5b803590602001918460018302840111600160201b831117156107c657600080fd5b91908080601f0160208091040260200160405190810160405280939291908181526020018383808284376000920191909152509295949360208101935035915050600160201b81111561081857600080fd5b82018360208201111561082a57600080fd5b803590602001918460018302840111600160201b8311171561084b57600080fd5b91908080601f016020809104026020016040519081016040528093929190818152602001838380828437600092019190915250929550611cde945050505050565b6040805160208082528351818301528351919283929083019185019080838360005b838110156108c65781810151838201526020016108ae565b50505050905090810190601f1680156108f35780820380516001836020036101000a031916815260200191505b509250505060405180910390f35b610b47600480360360e081101561091757600080fd5b81359190810190604081016020820135600160201b81111561093857600080fd5b82018360208201111561094a57600080fd5b803590602001918460018302840111600160201b8311171561096b57600080fd5b91908080601f0160208091040260200160405190810160405280939291908181526020018383808284376000920191909152509295949360208101935035915050600160201b8111156109bd57600080fd5b8201836020820111156109cf57600080fd5b803590602001918460018302840111600160201b831117156109f057600080fd5b91908080601f0160208091040260200160405190810160405280939291908181526020018383808284376000920191909152509295843595602086013595919450925060608101915060400135600160201b811115610a4e57600080fd5b820183602082011115610a6057600080fd5b803590602001918460018302840111600160201b83111715610a8157600080fd5b91908080601f0160208091040260200160405190810160405280939291908181526020018383808284376000920191909152509295949360208101935035915050600160201b811115610ad357600080fd5b820183602082011115610ae557600080fd5b803590602001918460018302840111600160201b83111715610b0657600080fd5b91908080601f0160208091040260200160405190810160405280939291908181526020018383808284376000920191909152509295506121c9945050505050565b604080519115158252519081900360200190f35b610b7860048036036020811015610b7157600080fd5b5035612278565b604051808681526020018581526020018481526020018060200180602001838103835285818151815260200191508051906020019080838360005b83811015610bcb578181015183820152602001610bb3565b50505050905090810190601f168015610bf85780820380516001836020036101000a031916815260200191505b508381038252845181528451602091820191860190808383600083156101e05781810151838201526020016101c8565b61088c60048036036040811015610c3e57600080fd5b6001600160a01b038235169190810190604081016020820135600160201b811115610c6857600080fd5b820183602082011115610c7a57600080fd5b803590602001918460018302840111600160201b83111715610c9b57600080fd5b91908080601f0160208091040260200160405190810160405280939291908181526020018383808284376000920191909152509295506123d0945050505050565b61045c60048036036080811015610cf257600080fd5b81359190810190604081016020820135600160201b811115610d1357600080fd5b820183602082011115610d2557600080fd5b803590602001918460018302840111600160201b83111715610d4657600080fd5b91908080601f0160208091040260200160405190810160405280939291908181526020018383808284376000920191909152509295949360208101935035915050600160201b811115610d9857600080fd5b820183602082011115610daa57600080fd5b803590602001918460018302840111600160201b83111715610dcb57600080fd5b91908080601f01602080910402602001604051908101604052809392919081815260200183838082843760009201919091525092955050913592506125a3915050565b61045c600480360360e0811015610e2457600080fd5b81359190810190604081016020820135600160201b811115610e4557600080fd5b820183602082011115610e5757600080fd5b803590602001918460018302840111600160201b83111715610e7857600080fd5b91908080601f0160208091040260200160405190810160405280939291908181526020018383808284376000920191909152509295949360208101935035915050600160201b811115610eca57600080fd5b820183602082011115610edc57600080fd5b803590602001918460018302840111600160201b83111715610efd57600080fd5b91908080601f0160208091040260200160405190810160405280939291908181526020018383808284376000920191909152509295843595602086013595919450925060608101915060400135600160201b811115610f5b57600080fd5b820183602082011115610f6d57600080fd5b803590602001918460018302840111600160201b83111715610f8e57600080fd5b91908080601f0160208091040260200160405190810160405280939291908181526020018383808284376000920191909152509295949360208101935035915050600160201b811115610fe057600080fd5b820183602082011115610ff257600080fd5b803590602001918460018302840111600160201b8311171561101357600080fd5b91908080601f016020809104026020016040519081016040528093929190818152602001838380828437600092019190915250929550612762945050505050565b6102286127b1565b6102286004803603606081101561107257600080fd5b81359190810190604081016020820135600160201b81111561109357600080fd5b8201836020820111156110a557600080fd5b803590602001918460018302840111600160201b831117156110c657600080fd5b91908080601f0160208091040260200160405190810160405280939291908181526020018383808284376000920191909152509295949360208101935035915050600160201b81111561111857600080fd5b82018360208201111561112a57600080fd5b803590602001918460018302840111600160201b8311171561114b57600080fd5b91908080601f0160208091040260200160405190810160405280939291908181526020018383808284376000920191909152509295506127b7945050505050565b60066020908152600091825260409182902080546001808301546002808501805488519481161561010002600019011691909104601f81018790048702840187019097528683529295909491929183018282801561122b5780601f106112005761010080835404028352916020019161122b565b820191906000526020600020905b81548152906001019060200180831161120e57829003601f168201915b5050505060038301805460408051602060026001851615610100026000190190941693909304601f81018490048402820184019092528181529495949350908301828280156112bb5780601f10611290576101008083540402835291602001916112bb565b820191906000526020600020905b81548152906001019060200180831161129e57829003601f168201915b5050505050908060040154905085565b60025481565b6005602052600090815260409020805460019091015482565b60035481565b60006112fa612dfe565b60015b60025481116114e657600081815260076020908152604091829020825160608101845281546001600160a01b03168152600180830154828501526002808401805487516101009482161594909402600019011691909104601f810186900486028301860187528083529295939493860193919290918301828280156113c35780601f10611398576101008083540402835291602001916113c3565b820191906000526020600020905b8154815290600101906020018083116113a657829003601f168201915b5050505050815250509150846001600160a01b031682600001516001600160a01b03161480156114d05750836040516020018082805190602001908083835b602083106114215780518252601f199092019160209182019101611402565b6001836020036101000a0380198251168184511680821785525050505050509050019150506040516020818303038152906040528051906020012082604001516040516020018082805190602001908083835b602083106114935780518252601f199092019160209182019101611474565b6001836020036101000a03801982511681845116808217855250505050505090500191505060405160208183030381529060405280519060200120145b156114de5791506114ed9050565b6001016112fd565b5060009150505b92915050565b6114fb612dfe565b6000805b60025481116116d957600081815260076020908152604091829020825160608101845281546001600160a01b03168152600180830154828501526002808401805487516101009482161594909402600019011691909104601f810186900486028301860187528083529295939493860193919290918301828280156115c55780601f1061159a576101008083540402835291602001916115c5565b820191906000526020600020905b8154815290600101906020018083116115a857829003601f168201915b5050509190925250508151919450506001600160a01b0316331480156116c85750836040516020018082805190602001908083835b602083106116195780518252601f1990920191602091820191016115fa565b6001836020036101000a0380198251168184511680821785525050505050509050019150506040516020818303038152906040528051906020012083604001516040516020018082805190602001908083835b6020831061168b5780518252601f19909201916020918201910161166c565b6001836020036101000a03801982511681845116808217855250505050505090500191505060405160208183030381529060405280519060200120145b156116d1578091505b6001016114ff565b508015611887576003805460019081018083556040805160a08101825282815260208082018781528284018c8152606084018c8152608085018c905260009687526008845294909520835181559051958101959095559251600285015590518051919461174c9390850192910190612e28565b5060808201518051611768916004840191602090910190612e28565b509050507fb8191de706947d348e4af82269a7e4b91362250c16b6775a4f8e71acf3fc6a4d60035482878787604051808681526020018581526020018481526020018060200180602001838103835285818151815260200191508051906020019080838360005b838110156117e75781810151838201526020016117cf565b50505050905090810190601f1680156118145780820380516001836020036101000a031916815260200191505b50838103825284518152845160209182019186019080838360005b8381101561184757818101518382015260200161182f565b50505050905090810190601f1680156118745780820380516001836020036101000a031916815260200191505b5097505050505050505060405180910390a15b5050505050565b6000611898612ea6565b60015b6001548111611c1357600660008281526020019081526020016000206040518060a00160405290816000820154815260200160018201548152602001600282018054600181600116156101000203166002900480601f01602080910402602001604051908101604052809291908181526020018280546001816001161561010002031660029004801561196f5780601f106119445761010080835404028352916020019161196f565b820191906000526020600020905b81548152906001019060200180831161195257829003601f168201915b505050918352505060038201805460408051602060026001851615610100026000190190941693909304601f8101849004840282018401909252818152938201939291830182828015611a035780601f106119d857610100808354040283529160200191611a03565b820191906000526020600020905b8154815290600101906020018083116119e657829003601f168201915b505050505081526020016004820154815250509150868260200151148015611a2e5750838260800151145b15611c0b57856040516020018082805190602001908083835b60208310611a665780518252601f199092019160209182019101611a47565b6001836020036101000a0380198251168184511680821785525050505050509050019150506040516020818303038152906040528051906020012082604001516040516020018082805190602001908083835b60208310611ad85780518252601f199092019160209182019101611ab9565b6001836020036101000a03801982511681845116808217855250505050505090500191505060405160208183030381529060405280519060200120148015611bfd5750846040516020018082805190602001908083835b60208310611b4e5780518252601f199092019160209182019101611b2f565b6001836020036101000a0380198251168184511680821785525050505050509050019150506040516020818303038152906040528051906020012082606001516040516020018082805190602001908083835b60208310611bc05780518252601f199092019160209182019101611ba1565b6001836020036101000a03801982511681845116808217855250505050505090500191505060405160208183030381529060405280519060200120145b15611c0b579150611c1a9050565b60010161189b565b5060009150505b949350505050565b60005481565b60076020908152600091825260409182902080546001808301546002808501805488516101009582161595909502600019011691909104601f81018790048702840187019097528683526001600160a01b03909316959094919291830182828015611cd45780601f10611ca957610100808354040283529160200191611cd4565b820191906000526020600020905b815481529060010190602001808311611cb757829003601f168201915b5050505050905083565b60606000611cea612ea6565b600060015b600154811161205657600660008281526020019081526020016000206040518060a00160405290816000820154815260200160018201548152602001600282018054600181600116156101000203166002900480601f016020809104026020016040519081016040528092919081815260200182805460018160011615610100020316600290048015611dc35780601f10611d9857610100808354040283529160200191611dc3565b820191906000526020600020905b815481529060010190602001808311611da657829003601f168201915b505050918352505060038201805460408051602060026001851615610100026000190190941693909304601f8101849004840282018401909252818152938201939291830182828015611e575780601f10611e2c57610100808354040283529160200191611e57565b820191906000526020600020905b815481529060010190602001808311611e3a57829003601f168201915b505050505081526020016004820154815250509250888360800151141561204e578a6040516020018082805190602001908083835b60208310611eab5780518252601f199092019160209182019101611e8c565b6001836020036101000a0380198251168184511680821785525050505050509050019150506040516020818303038152906040528051906020012083604001516040516020018082805190602001908083835b60208310611f1d5780518252601f199092019160209182019101611efe565b6001836020036101000a038019825116818451168082178552505050505050905001915050604051602081830303815290604052805190602001201480156120425750896040516020018082805190602001908083835b60208310611f935780518252601f199092019160209182019101611f74565b6001836020036101000a0380198251168184511680821785525050505050509050019150506040516020818303038152906040528051906020012083606001516040516020018082805190602001908083835b602083106120055780518252601f199092019160209182019101611fe6565b6001836020036101000a03801982511681845116808217855250505050505090500191505060405160208183030381529060405280519060200120145b1561204e579250600101825b600101611cef565b508061209c576040518060400160405280601a81526020017f546869732073747564656e7420646f65736e277420657869737400000000000081525093505050506121bf565b60018111156120e5576040518060400160405280601781526020017f4475706c69636174652c20747279207769746820494e4500000000000000000081525093505050506121bf565b80600114156121bb5760006120fb8888886127b7565b9050612105612ed5565b841580159061211357508115155b156121945760015b600054811161219257600081815260056020908152604091829020825180840190935280548352600101549082018190529092508614801561215d5750815183145b1561218a57604051806040016040528060028152602001614f4b60f01b81525096505050505050506121bf565b60010161211b565b505b604051806040016040528060028152602001614e4f60f01b815250955050505050506121bf565b5050505b9695505050505050565b6000806121d78585856127b7565b905060006121e78a8a8a8a61188e565b90506121f1612ed5565b81158015906121ff57508215155b156122655760015b60005481116122635760008181526005602090815260409182902082518084019093528054835260010154908201819052909250831480156122495750815184145b1561225b57600194505050505061226d565b600101612207565b505b600093505050505b979650505050505050565b6008602052806000526040600020600091509050806000015490806001015490806002015490806003018054600181600116156101000203166002900480601f0160208091040260200160405190810160405280929190818152602001828054600181600116156101000203166002900480156123365780601f1061230b57610100808354040283529160200191612336565b820191906000526020600020905b81548152906001019060200180831161231957829003601f168201915b5050505060048301805460408051602060026001851615610100026000190190941693909304601f81018490048402820184019092528181529495949350908301828280156123c65780601f1061239b576101008083540402835291602001916123c6565b820191906000526020600020905b8154815290600101906020018083116123a957829003601f168201915b5050505050905085565b6004546060906001600160a01b03163314612405576040518060600160405280602c8152602001612f3c602c913990506114ed565b61240f83836112f0565b61257157600280546001908101808355604080516060810182526001600160a01b03888116825260208083018581528385018a815260009687526007835294909520835181546001600160a01b03191693169290921782559351948101949094559051805191946124869390850192910190612e28565b509050507ffac1cccae9509eccf1a5a98fa0bd350356789eaaba2b19622580acf8ca9ded32836002548460405180846001600160a01b03166001600160a01b0316815260200183815260200180602001828103825283818151815260200191508051906020019080838360005b8381101561250b5781810151838201526020016124f3565b50505050905090810190601f1680156125385780820380516001836020036101000a031916815260200191505b5094505050505060405180910390a15060408051808201909152600d81526c14d8da1bdbdb10dc99585d1959609a1b60208201526114ed565b506040805180820190915260158152745363686f6f6c20616c72656164792065786973747360581b60208201526114ed565b6125af8484848461188e565b61275c576001805481018082556040805160a08101825282815260208082018981528284018981526060840189905260808401889052600095865260068352939094208251815593519484019490945590518051919361261792600285019290910190612e28565b5060608201518051612633916003840191602090910190612e28565b50608082015181600401559050507ff123ab1a2d904e5492dbdcffe5c290d2d705f3a56e0f9502c055a46b3fe5fa1f60015485858585604051808681526020018581526020018060200180602001848152602001838103835286818151815260200191508051906020019080838360005b838110156126bc5781810151838201526020016126a4565b50505050905090810190601f1680156126e95780820380516001836020036101000a031916815260200191505b50838103825285518152855160209182019187019080838360005b8381101561271c578181015183820152602001612704565b50505050905090810190601f1680156127495780820380516001836020036101000a031916815260200191505b5097505050505050505060405180910390a15b50505050565b60006127708888888861188e565b9050600061277f8585856127b7565b90508161279257612792898989896125a3565b8061279c576127a6565b6127a68183612b22565b505050505050505050565b60015481565b60006127c1612eef565b60015b6003548111612b1457600081815260086020908152604091829020825160a08101845281548152600180830154828501526002808401548387015260038401805487519381161561010002600019011691909104601f8101869004860283018601909652858252919492936060860193919291908301828280156128895780601f1061285e57610100808354040283529160200191612889565b820191906000526020600020905b81548152906001019060200180831161286c57829003601f168201915b505050918352505060048201805460408051602060026001851615610100026000190190941693909304601f810184900484028201840190925281815293820193929183018282801561291d5780601f106128f25761010080835404028352916020019161291d565b820191906000526020600020905b81548152906001019060200180831161290057829003601f168201915b5050505050815250509150846040516020018082805190602001908083835b6020831061295b5780518252601f19909201916020918201910161293c565b6001836020036101000a0380198251168184511680821785525050505050509050019150506040516020818303038152906040528051906020012082606001516040516020018082805190602001908083835b602083106129cd5780518252601f1990920191602091820191016129ae565b6001836020036101000a03801982511681845116808217855250505050505090500191505060405160208183030381529060405280519060200120148015612af25750836040516020018082805190602001908083835b60208310612a435780518252601f199092019160209182019101612a24565b6001836020036101000a0380198251168184511680821785525050505050509050019150506040516020818303038152906040528051906020012082608001516040516020018082805190602001908083835b60208310612ab55780518252601f199092019160209182019101612a96565b6001836020036101000a03801982511681845116808217855250505050505090500191505060405160208183030381529060405280519060200120145b15612b0c578582604001511415612b0c579150612b1b9050565b6001016127c4565b5060009150505b9392505050565b6001548111158015612b3657506003548211155b15612dfa57612b43612eef565b600083815260086020908152604091829020825160a08101845281548152600180830154828501526002808401548387015260038401805487519381161561010002600019011691909104601f810186900486028301860190965285825291949293606086019391929190830182828015612bff5780601f10612bd457610100808354040283529160200191612bff565b820191906000526020600020905b815481529060010190602001808311612be257829003601f168201915b505050918352505060048201805460408051602060026001851615610100026000190190941693909304601f8101849004840282018401909252818152938201939291830182828015612c935780601f10612c6857610100808354040283529160200191612c93565b820191906000526020600020905b815481529060010190602001808311612c7657829003601f168201915b505050919092525050506020810151909150612cad612dfe565b600082815260076020908152604091829020825160608101845281546001600160a01b03168152600180830154828501526002808401805487516101009482161594909402600019011691909104601f81018690048602830186018752808352929593949386019391929091830182828015612d6a5780601f10612d3f57610100808354040283529160200191612d6a565b820191906000526020600020905b815481529060010190602001808311612d4d57829003601f168201915b5050509190925250508151919250506001600160a01b03163314156118875760008054600190810180835560408051808201825289815260208082018a815293865260058152948290209051815591519190920155805187815291820186905280517ff576ff9ab2b19f86beb41ceead7ab40f8227385341abe8e1735c8f7cddcbc0c99281900390910190a15050505b5050565b604051806060016040528060006001600160a01b0316815260200160008152602001606081525090565b828054600181600116156101000203166002900490600052602060002090601f016020900481019282601f10612e6957805160ff1916838001178555612e96565b82800160010185558215612e96579182015b82811115612e96578251825591602001919060010190612e7b565b50612ea2929150612f1e565b5090565b6040518060a0016040528060008152602001600081526020016060815260200160608152602001600081525090565b604051806040016040528060008152602001600081525090565b6040518060a0016040528060008152602001600081526020016000815260200160608152602001606081525090565b612f3891905b80821115612ea25760008155600101612f24565b9056fe4e6f2073657276616e742063616e2073657276652074776f206d61737465727320284c75632031363a313329a265627a7a723158200d4ce4dca65c6616b4cc1538ef381a72f196eb8e077aabf7dd132f3ad462527e64736f6c634300051000324e6f2073657276616e742063616e2073657276652074776f206d61737465727320284c75632031363a313329",
  "source": "pragma solidity ^0.5.16;\r\n\r\n\r\ncontract DiplomaStorage {\r\n    uint public  diplomaCount = 0;\r\n    uint public studentCount = 0;\r\n    uint public schoolCount = 0;\r\n    uint public degreeCount = 0;\r\n\r\n    //Address to be modified if you want to do tests\r\n    //Eventually we could have a mapping with the master addresses\r\n\r\n    address master = msg.sender;\r\n\r\n\r\n    //Association between a student and a diploma (this is how the diploma is awarded).\r\n    struct Diploma {\r\n        uint idDegree;\r\n        uint idStudent;\r\n    }\r\n\r\n    event DiplomaCreated(\r\n        uint idDegree,\r\n        uint idStudent);\r\n\r\n\r\n    //School with the address having the right to award diplomas\r\n    struct School {\r\n        address schoolAddress;\r\n        uint idSchool;\r\n        string schoolName;\r\n    }\r\n\r\n    event SchoolCreated(\r\n        address schoolAddress,\r\n        uint idSchool,\r\n        string schoolName);\r\n\r\n    //Diploma (one different diploma per year)\r\n    struct Degree {\r\n        uint idDegree;\r\n        uint idSchool;\r\n        uint year;\r\n        string nameDegree;\r\n        string schoolName;\r\n    }\r\n\r\n    event DegreeCreated (\r\n        uint idDegree,\r\n        uint idSchool,\r\n        uint year,\r\n        string nameDegree,\r\n        string schoolName);\r\n\r\n    //Student defined by Face,INE,Name, Surname, First name and date of birth\r\n    struct Student {\r\n        uint idStudent;\r\n        //uint faceHash;\r\n        uint INE;\r\n        string firstName;\r\n        string lastName;\r\n        uint birth;\r\n    }\r\n\r\n    event StudentCreated(\r\n        uint idStudent,\r\n        uint INE,\r\n        string firstName,\r\n        string lastName,\r\n        uint birth);\r\n\r\n\r\n\r\n    mapping(uint => Diploma) public diplomas;\r\n\r\n    mapping(uint => Student) public students;\r\n\r\n    mapping(uint => School) public schools;\r\n\r\n    mapping(uint => Degree) public degrees;\r\n\r\n\r\n\r\n    constructor() public {\r\n\r\n        //Creation of students\r\n        createStudent(18821453685,\"Bob\", \"Martin\", 20072015);\r\n        createStudent(64658482179,\"Alice\", \"Durand\", 19082008);\r\n        createStudent(54658741246,\"Mallory\",\"Dupond\",1112008);\r\n\r\n\r\n        //Creation of schools with the master address (line 13)\r\n        createSchool(msg.sender,\"Telecom Sud Paris\");\r\n        createSchool(msg.sender,\"Kryptosphere\");\r\n\r\n\r\n        //Creation of diplomas to be awarded\r\n        createDegree(2022,\"Blockchain Engineer\",\"Telecom Sud Paris\");\r\n        createDegree(2023,\"Blockchain Developer\",\"Kryptosphere\");\r\n\r\n        //Awarding of diplomas\r\n        createDiploma(18821453685,\"Bob\",\"Martin\",20072015,2022,\"Blockchain Engineer\", \"Telecom Sud Paris\");\r\n        createDiploma(64658482179,\"Alice\", \"Durand\", 19082008,2023,\"Blockchain Developer\",\"Kryptosphere\");\r\n        createDiploma(18821453685,\"Bob\", \"Martin\", 20072015,2023,\"Blockchain Developer\",\"Kryptosphere\");\r\n    }\r\n\r\n\r\n    /**\r\n     * CREATION FUNCTIONS ----------------------------------------------------------------------------------------------------------------------------------\r\n     *\r\n     */\r\n\r\n    //Relatively low level function to award diplomas (it is necessary to know the id of the pupil and the id of the diploma that one wants to award)\r\n\r\n    function createDiplomaLL(uint _idDegree, uint  _idStudent) internal{\r\n        if(_idStudent <= studentCount && _idDegree <= degreeCount){\r\n            Degree memory deg = degrees[_idDegree];\r\n            uint idSch = deg.idSchool;\r\n            School memory sch = schools[idSch];\r\n\r\n            //  We check that the address that is trying to assign a diploma is the one that created the diploma.\r\n\r\n            if(sch.schoolAddress == msg.sender){\r\n                diplomaCount ++;\r\n                diplomas[diplomaCount] = Diploma(_idDegree,_idStudent);\r\n                emit DiplomaCreated(_idDegree,_idStudent);\r\n\r\n            }\r\n        }\r\n    }\r\n\r\n    //Relatively high level function\r\n\r\n    function createDiploma(uint _INE,string memory _firstName, string memory _lastName,uint _birth,uint _dYear,string memory _nameDegree, string memory _schoolName) public{\r\n        uint idS = checkStudent(_INE,_firstName,_lastName,_birth);\r\n        uint idD = checkDegree(_dYear,_nameDegree,_schoolName);\r\n\r\n        //If the student doesn't exist, we'll create one.\r\n        if(idS == 0){\r\n            createStudent(_INE,_firstName,_lastName,_birth);\r\n        }\r\n\r\n        //If the diploma doesn't exist, we don't create it, otherwise we risk creating new diplomas every time we make a typing mistake.\r\n        if(idD == 0){\r\n        }\r\n        else{\r\n\r\n        //We create the association\r\n\r\n        createDiplomaLL(idD,idS);\r\n        }\r\n    }\r\n\r\n    function createStudent(uint _INE,string memory _firstName, string memory _lastName,uint _birth) public{\r\n        if (checkStudent(_INE,_firstName,_lastName,_birth) == 0){\r\n            studentCount ++;\r\n            students[studentCount] = Student(studentCount,_INE, _firstName,_lastName, _birth);\r\n            emit StudentCreated(studentCount,_INE,_firstName,_lastName,_birth);\r\n        }\r\n\r\n    }\r\n\r\n    function createSchool( address _schoolAdress, string memory _schoolName) public returns(string memory){\r\n        if(msg.sender != master){\r\n\r\n            //We get in here if we try to create a school without being the manager of the smart contract.\r\n            //This is necessary because if someone was able to create schools he could create and award diplomas and this would lead to disaster\r\n\r\n            return(\"No servant can serve two masters (Luc 16:13)\");\r\n\r\n        }\r\n        if (checkSchool(_schoolAdress,_schoolName) == 0){\r\n            schoolCount ++;\r\n            schools[schoolCount] = School(_schoolAdress, schoolCount,_schoolName);\r\n            emit SchoolCreated(_schoolAdress, schoolCount,_schoolName);\r\n            return(\"SchoolCreated\");\r\n        }\r\n        else{\r\n            return(\"School already exists\");\r\n        }\r\n    }\r\n\r\n\r\n\r\n    function createDegree(uint _year,string memory _nameDegree, string memory _schoolName) public {\r\n        School memory sch;\r\n        uint idSch = 0;\r\n        for(uint i = 0; i <= schoolCount; i++){\r\n            sch=schools[i];\r\n            if(sch.schoolAddress == msg.sender && keccak256(abi.encodePacked(sch.schoolName)) == keccak256(abi.encodePacked(_schoolName))){\r\n                idSch = i;\r\n            }\r\n        }\r\n        if (idSch != 0){\r\n            degreeCount ++;\r\n            degrees[degreeCount] = Degree(degreeCount,idSch, _year,_nameDegree, _schoolName);\r\n            emit DegreeCreated(degreeCount,idSch, _year,_nameDegree,_schoolName);\r\n        }\r\n    }\r\n\r\n\r\n    /**\r\n    EXISTENCE CHECK FUNCTIONS----------------------------------------------------------------------------------------------------------------------------------------------------------------------\r\n\r\n    That is to say one enters the characteristics of the searched object and the function returns a uint which is the id\r\n    0 if the object does not exist\r\n\r\n    WARNING ids start at 1 !\r\n\r\n     */\r\n\r\n\r\n    function checkSchool(address _schoolAddress,string memory _schoolName) public view returns (uint){\r\n        School memory sch;\r\n        for (uint i = 1; i <= schoolCount;i++){\r\n            sch = schools[i];\r\n            if(sch.schoolAddress == _schoolAddress && keccak256(abi.encodePacked(sch.schoolName)) == keccak256(abi.encodePacked(_schoolName))){\r\n                return(i);\r\n            }\r\n        }\r\n        return(0);\r\n    }\r\n\r\n\r\n\r\n    function checkStudent(uint _INE,string memory _firstName, string memory _lastName, uint _birth ) public view returns(uint){\r\n        Student memory stu;\r\n        for (uint i = 1; i <= studentCount; i++){\r\n            stu=students[i];\r\n            if(stu.INE ==_INE && stu.birth == _birth){\r\n                if(keccak256(abi.encodePacked(stu.firstName)) == keccak256(abi.encodePacked(_firstName)) && keccak256(abi.encodePacked(stu.lastName)) == keccak256(abi.encodePacked(_lastName))){\r\n                    return(i);\r\n                }\r\n            }\r\n        }\r\n        return(0);\r\n    }\r\n\r\n\r\n\r\n    function checkDegree(uint _year, string memory _nameDegree, string memory _schoolName) public view returns (uint){\r\n        Degree memory deg;\r\n        for (uint i = 1; i<= degreeCount; i++){\r\n            deg = degrees[i];\r\n            if(keccak256(abi.encodePacked(deg.nameDegree)) == keccak256(abi.encodePacked(_nameDegree)) && keccak256(abi.encodePacked(deg.schoolName)) == keccak256(abi.encodePacked(_schoolName))){\r\n                if(deg.year == _year){\r\n                    return(i);\r\n                }\r\n            }\r\n        }\r\n        return(0);\r\n    }\r\n\r\n\r\n\r\n\r\n\r\n\r\n\r\n    function checkDiploma(uint _INE,string memory _firstName, string memory _lastName,uint _birth,uint _dYear,string memory _nameDegree, string memory _schoolName) public view returns(bool) {\r\n        uint degreeId = checkDegree(_dYear, _nameDegree,_schoolName);\r\n        uint studentId = checkStudent(_INE,_firstName,_lastName,_birth);\r\n\r\n        Diploma memory dip;\r\n\r\n        // If the student and the diploma exist, we will check if such an association exists\r\n\r\n        if(studentId != 0 && degreeId != 0){\r\n            for(uint k = 1; k <= diplomaCount;k++){\r\n                dip = diplomas[k];\r\n                if (dip.idStudent == studentId && dip.idDegree == degreeId){\r\n                    return true;\r\n                }\r\n            }\r\n        }\r\n        return false;\r\n    }\r\n\r\n\r\n    //Function to check a diploma without knowing the INE\r\n    /**\r\n     * If the student exists in duplicate, the INE is requested\r\n     **/\r\n\r\n    function checkDiplomaNoINE(string memory _firstName, string memory _lastName,uint _birth,uint _dYear,string memory _nameDegree, string memory _schoolName) public view returns(string memory){\r\n       uint studentId = 0;\r\n       Student memory stu;\r\n       uint c = 0;\r\n        for (uint i = 1; i <= studentCount; i++){\r\n            stu=students[i];\r\n            if(stu.birth == _birth){\r\n                if(keccak256(abi.encodePacked(stu.firstName)) == keccak256(abi.encodePacked(_firstName)) && keccak256(abi.encodePacked(stu.lastName)) == keccak256(abi.encodePacked(_lastName))){\r\n                    c++;\r\n                    studentId = i;\r\n                }\r\n            }\r\n        }\r\n        if(c == 0){\r\n            return(\"This student doesn't exist\");\r\n        }\r\n        if(c > 1){\r\n           return(\"Duplicate, try with INE\");\r\n        }\r\n        if(c == 1){\r\n            uint degreeId = checkDegree(_dYear, _nameDegree,_schoolName);\r\n\r\n        Diploma memory dip;\r\n\r\n        // If the student and the diploma exist, we will check if such an association exists.\r\n\r\n        if(studentId != 0 && degreeId != 0){\r\n            for(uint k = 1; k <= diplomaCount;k++){\r\n                dip = diplomas[k];\r\n                if (dip.idStudent == studentId && dip.idDegree == degreeId){\r\n                    return (\"OK\");\r\n                }\r\n            }\r\n        }\r\n        return(\"NO\");\r\n        }\r\n\r\n    }\r\n\r\n}\r\n",
  "sourcePath": "C:\\Users\\francesca\\Desktop\\DiplomaStorage_ProjectRudy-master\\contracts\\DiplomaStorage.sol",
  "compiler": {
    "name": "solc",
    "version": "0.5.16+commit.9c3226ce.Emscripten.clang"
  },
  "schemaVersion": "3.0.23",
  "updatedAt": "2020-03-31T13:15:24.697Z",
  "networkType": "ethereum",
  "devdoc": {
    "methods": {}
  },
  "userdoc": {
    "methods": {
      "checkDiplomaNoINE(string,string,uint256,uint256,string,string)": {
        "notice": "If the student exists in duplicate, the INE is requested*"
      },
      "checkSchool(address,string)": {
        "notice": "EXISTENCE CHECK FUNCTIONS---------------------------------------------------------------------------------------------------------------------------------------------------------------------- That is to say one enters the characteristics of the searched object and the function returns a uint which is the id 0 if the object does not exist WARNING ids start at 1 !"
      }
    }
  }
}