{
  "contractName": "DiplomaStorage",
  "abi": [
    {
      "inputs": [],
      "payable": false,
      "stateMutability": "nonpayable",
      "type": "constructor"
    },
    {
      "anonymous": false,
      "inputs": [
        {
          "indexed": false,
          "internalType": "uint256",
          "name": "diplomaCount",
          "type": "uint256"
        },
        {
          "indexed": false,
          "internalType": "uint256",
          "name": "idDegree",
          "type": "uint256"
        },
        {
          "indexed": false,
          "internalType": "uint256",
          "name": "idStudent",
          "type": "uint256"
        }
      ],
      "name": "DiplomaCreated",
      "type": "event"
    },
    {
      "anonymous": false,
      "inputs": [
        {
          "indexed": false,
          "internalType": "uint256",
          "name": "idSchool",
          "type": "uint256"
        },
        {
          "indexed": false,
          "internalType": "string",
          "name": "schoolName",
          "type": "string"
        }
      ],
      "name": "SchoolCreated",
      "type": "event"
    },
    {
      "anonymous": false,
      "inputs": [
        {
          "indexed": false,
          "internalType": "uint256",
          "name": "idStudent",
          "type": "uint256"
        },
        {
          "indexed": false,
          "internalType": "string",
          "name": "firstName",
          "type": "string"
        },
        {
          "indexed": false,
          "internalType": "string",
          "name": "lastName",
          "type": "string"
        },
        {
          "indexed": false,
          "internalType": "uint256",
          "name": "day",
          "type": "uint256"
        },
        {
          "indexed": false,
          "internalType": "uint256",
          "name": "month",
          "type": "uint256"
        },
        {
          "indexed": false,
          "internalType": "uint256",
          "name": "year",
          "type": "uint256"
        }
      ],
      "name": "StudentCreated",
      "type": "event"
    },
    {
      "constant": true,
      "inputs": [
        {
          "internalType": "uint256",
          "name": "",
          "type": "uint256"
        }
      ],
      "name": "degrees",
      "outputs": [
        {
          "internalType": "uint256",
          "name": "idDegree",
          "type": "uint256"
        },
        {
          "internalType": "uint256",
          "name": "year",
          "type": "uint256"
        },
        {
          "internalType": "string",
          "name": "nameDegree",
          "type": "string"
        }
      ],
      "payable": false,
      "stateMutability": "view",
      "type": "function"
    },
    {
      "constant": true,
      "inputs": [],
      "name": "diplomaCount",
      "outputs": [
        {
          "internalType": "uint256",
          "name": "",
          "type": "uint256"
        }
      ],
      "payable": false,
      "stateMutability": "view",
      "type": "function"
    },
    {
      "constant": true,
      "inputs": [
        {
          "internalType": "uint256",
          "name": "",
          "type": "uint256"
        }
      ],
      "name": "diplomas",
      "outputs": [
        {
          "internalType": "uint256",
          "name": "diplomaCount",
          "type": "uint256"
        },
        {
          "internalType": "uint256",
          "name": "idDegree",
          "type": "uint256"
        },
        {
          "internalType": "uint256",
          "name": "idStudent",
          "type": "uint256"
        }
      ],
      "payable": false,
      "stateMutability": "view",
      "type": "function"
    },
    {
      "constant": true,
      "inputs": [],
      "name": "schoolCount",
      "outputs": [
        {
          "internalType": "uint256",
          "name": "",
          "type": "uint256"
        }
      ],
      "payable": false,
      "stateMutability": "view",
      "type": "function"
    },
    {
      "constant": true,
      "inputs": [
        {
          "internalType": "uint256",
          "name": "",
          "type": "uint256"
        }
      ],
      "name": "schools",
      "outputs": [
        {
          "internalType": "uint256",
          "name": "idSchool",
          "type": "uint256"
        },
        {
          "internalType": "string",
          "name": "schoolName",
          "type": "string"
        }
      ],
      "payable": false,
      "stateMutability": "view",
      "type": "function"
    },
    {
      "constant": true,
      "inputs": [],
      "name": "studentCount",
      "outputs": [
        {
          "internalType": "uint256",
          "name": "",
          "type": "uint256"
        }
      ],
      "payable": false,
      "stateMutability": "view",
      "type": "function"
    },
    {
      "constant": true,
      "inputs": [
        {
          "internalType": "uint256",
          "name": "",
          "type": "uint256"
        }
      ],
      "name": "students",
      "outputs": [
        {
          "internalType": "uint256",
          "name": "idStudent",
          "type": "uint256"
        },
        {
          "internalType": "string",
          "name": "firstName",
          "type": "string"
        },
        {
          "internalType": "string",
          "name": "lastName",
          "type": "string"
        },
        {
          "internalType": "uint256",
          "name": "day",
          "type": "uint256"
        },
        {
          "internalType": "uint256",
          "name": "month",
          "type": "uint256"
        },
        {
          "internalType": "uint256",
          "name": "year",
          "type": "uint256"
        }
      ],
      "payable": false,
      "stateMutability": "view",
      "type": "function"
    },
    {
      "constant": false,
      "inputs": [
        {
          "internalType": "uint256",
          "name": "_idDegree",
          "type": "uint256"
        },
        {
          "internalType": "uint256",
          "name": "_idStudent",
          "type": "uint256"
        }
      ],
      "name": "createDiploma",
      "outputs": [],
      "payable": false,
      "stateMutability": "nonpayable",
      "type": "function"
    },
    {
      "constant": false,
      "inputs": [
        {
          "internalType": "string",
          "name": "_firstName",
          "type": "string"
        },
        {
          "internalType": "string",
          "name": "_lastName",
          "type": "string"
        },
        {
          "internalType": "uint256",
          "name": "_day",
          "type": "uint256"
        },
        {
          "internalType": "uint256",
          "name": "_month",
          "type": "uint256"
        },
        {
          "internalType": "uint256",
          "name": "_year",
          "type": "uint256"
        }
      ],
      "name": "createStudent",
      "outputs": [],
      "payable": false,
      "stateMutability": "nonpayable",
      "type": "function"
    },
    {
      "constant": false,
      "inputs": [
        {
          "internalType": "string",
          "name": "_schoolName",
          "type": "string"
        }
      ],
      "name": "createSchool",
      "outputs": [],
      "payable": false,
      "stateMutability": "nonpayable",
      "type": "function"
    }
  ],
  "bytecode": "0x608060405260008055600060015560006002553480156200001f57600080fd5b50620000366001806001600160e01b036200009116565b6200008b604051806040016040528060048152602001635275647960e01b815250604051806040016040528060098152602001684465666c697371756560b81b8152506008600760616200011b60201b60201c565b62000392565b600080546001908101808355604080516060808201835283825260208083018981528385018981529588526003825284882093518455519583019590955592516002909101559254835190815291820185905281830184905291517f4fa08ed4306d9f94342b2a740e7546b85866d47c80830bef89ce282044600260929181900390910190a15050565b6001805481018082556040805160c08101825282815260208082018a81528284018a9052606083018990526080830188905260a08301879052600094855260048252929093208151815591518051919492936200017e93850192910190620002ed565b50604082015180516200019c916002840191602090910190620002ed565b50606082015181600301556080820151816004015560a082015181600501559050507fd5aae9288c4c1e3ab2d0455be8d7b1aaa5ed430ec9783c8370982858ef7176616001548686868686604051808781526020018060200180602001868152602001858152602001848152602001838103835288818151815260200191508051906020019080838360005b838110156200024257818101518382015260200162000228565b50505050905090810190601f168015620002705780820380516001836020036101000a031916815260200191505b50838103825287518152875160209182019189019080838360005b83811015620002a55781810151838201526020016200028b565b50505050905090810190601f168015620002d35780820380516001836020036101000a031916815260200191505b509850505050505050505060405180910390a15050505050565b828054600181600116156101000203166002900490600052602060002090601f016020900481019282601f106200033057805160ff191683800117855562000360565b8280016001018555821562000360579182015b828111156200036057825182559160200191906001019062000343565b506200036e92915062000372565b5090565b6200038f91905b808211156200036e576000815560010162000379565b90565b610c4580620003a26000396000f3fe608060405234801561001057600080fd5b506004361061009e5760003560e01c8063719c0d0411610066578063719c0d041461035157806381f1c3bc146103ed578063d5b6076914610490578063e581f9ee146104b3578063f0dcb15c146104bb5761009e565b806306ead22e146100a357806328d88890146101ba57806335dfc1c3146101d457806362cef8d31461020f5780636920613f14610349575b600080fd5b6100c0600480360360208110156100b957600080fd5b5035610561565b604051808781526020018060200180602001868152602001858152602001848152602001838103835288818151815260200191508051906020019080838360005b83811015610119578181015183820152602001610101565b50505050905090810190601f1680156101465780820380516001836020036101000a031916815260200191505b50838103825287518152875160209182019189019080838360005b83811015610179578181015183820152602001610161565b50505050905090810190601f1680156101a65780820380516001836020036101000a031916815260200191505b509850505050505050505060405180910390f35b6101c26106ac565b60408051918252519081900360200190f35b6101f1600480360360208110156101ea57600080fd5b50356106b2565b60408051938452602084019290925282820152519081900360600190f35b610347600480360360a081101561022557600080fd5b81019060208101813564010000000081111561024057600080fd5b82018360208201111561025257600080fd5b8035906020019184600183028401116401000000008311171561027457600080fd5b91908080601f01602080910402602001604051908101604052809392919081815260200183838082843760009201919091525092959493602081019350359150506401000000008111156102c757600080fd5b8201836020820111156102d957600080fd5b803590602001918460018302840111640100000000831117156102fb57600080fd5b91908080601f01602080910402602001604051908101604052809392919081815260200183838082843760009201919091525092955050823593505050602081013590604001356106d3565b005b6101c261089b565b61036e6004803603602081101561036757600080fd5b50356108a1565b6040518083815260200180602001828103825283818151815260200191508051906020019080838360005b838110156103b1578181015183820152602001610399565b50505050905090810190601f1680156103de5780820380516001836020036101000a031916815260200191505b50935050505060405180910390f35b61040a6004803603602081101561040357600080fd5b5035610948565b6040518084815260200183815260200180602001828103825283818151815260200191508051906020019080838360005b8381101561045357818101518382015260200161043b565b50505050905090810190601f1680156104805780820380516001836020036101000a031916815260200191505b5094505050505060405180910390f35b610347600480360360408110156104a657600080fd5b50803590602001356109f1565b6101c2610a7b565b610347600480360360208110156104d157600080fd5b8101906020810181356401000000008111156104ec57600080fd5b8201836020820111156104fe57600080fd5b8035906020019184600183028401116401000000008311171561052057600080fd5b91908080601f016020809104026020016040519081016040528093929190818152602001838380828437600092019190915250929550610a81945050505050565b6004602090815260009182526040918290208054600180830180548651600293821615610100026000190190911692909204601f8101869004860283018601909652858252919492939092908301828280156105fe5780601f106105d3576101008083540402835291602001916105fe565b820191906000526020600020905b8154815290600101906020018083116105e157829003601f168201915b50505060028085018054604080516020601f60001961010060018716150201909416959095049283018590048502810185019091528181529596959450909250908301828280156106905780601f1061066557610100808354040283529160200191610690565b820191906000526020600020905b81548152906001019060200180831161067357829003601f168201915b5050505050908060030154908060040154908060050154905086565b60025481565b60036020526000908152604090208054600182015460029092015490919083565b6001805481018082556040805160c08101825282815260208082018a81528284018a9052606083018990526080830188905260a083018790526000948552600482529290932081518155915180519194929361073493850192910190610b75565b5060408201518051610750916002840191602090910190610b75565b50606082015181600301556080820151816004015560a082015181600501559050507fd5aae9288c4c1e3ab2d0455be8d7b1aaa5ed430ec9783c8370982858ef7176616001548686868686604051808781526020018060200180602001868152602001858152602001848152602001838103835288818151815260200191508051906020019080838360005b838110156107f45781810151838201526020016107dc565b50505050905090810190601f1680156108215780820380516001836020036101000a031916815260200191505b50838103825287518152875160209182019189019080838360005b8381101561085457818101518382015260200161083c565b50505050905090810190601f1680156108815780820380516001836020036101000a031916815260200191505b509850505050505050505060405180910390a15050505050565b60005481565b6005602090815260009182526040918290208054600180830180548651600293821615610100026000190190911692909204601f81018690048602830186019096528582529194929390929083018282801561093e5780601f106109135761010080835404028352916020019161093e565b820191906000526020600020905b81548152906001019060200180831161092157829003601f168201915b5050505050905082565b60066020908152600091825260409182902080546001808301546002808501805488519481161561010002600019011691909104601f8101879004870284018701909752868352929590949192918301828280156109e75780601f106109bc576101008083540402835291602001916109e7565b820191906000526020600020905b8154815290600101906020018083116109ca57829003601f168201915b5050505050905083565b600080546001908101808355604080516060808201835283825260208083018981528385018981529588526003825284882093518455519583019590955592516002909101559254835190815291820185905281830184905291517f4fa08ed4306d9f94342b2a740e7546b85866d47c80830bef89ce282044600260929181900390910190a15050565b60015481565b60028054600190810191829055604080518082018252838152602080820186815260009586526005825292909420815181559151805191949293610acb9390850192910190610b75565b509050507f1dd06f65863371f2efae309d05157615ec39458e14e6ab1ffe9def14a480a762600254826040518083815260200180602001828103825283818151815260200191508051906020019080838360005b83811015610b37578181015183820152602001610b1f565b50505050905090810190601f168015610b645780820380516001836020036101000a031916815260200191505b50935050505060405180910390a150565b828054600181600116156101000203166002900490600052602060002090601f016020900481019282601f10610bb657805160ff1916838001178555610be3565b82800160010185558215610be3579182015b82811115610be3578251825591602001919060010190610bc8565b50610bef929150610bf3565b5090565b610c0d91905b80821115610bef5760008155600101610bf9565b9056fea265627a7a72315820b123eb8449e4baa46ef624dc0512885ddcbc8115eb8535e7db0acd1189c5677464736f6c63430005100032",
  "source": "pragma solidity ^0.5.16;\r\n\r\ncontract DiplomaStorage {\r\n    uint public  diplomaCount = 0;\r\n    uint public studentCount = 0;\r\n    uint public schoolCount = 0;\r\n\r\n    struct Diploma {\r\n        uint diplomaCount;\r\n        uint idDegree;\r\n        uint idStudent;\r\n    }\r\n\r\n    event DiplomaCreated(\r\n        uint diplomaCount,\r\n        uint idDegree,\r\n        uint idStudent);\r\n\r\n    struct School {\r\n        uint idSchool;\r\n        string schoolName;\r\n    }\r\n\r\n    event SchoolCreated(\r\n        uint idSchool,\r\n        string schoolName);\r\n\r\n    struct Degree {\r\n        uint idDegree;\r\n        uint year;\r\n        string nameDegree;\r\n    }\r\n\r\n    struct Student {\r\n        uint idStudent;\r\n        string firstName;\r\n        string lastName;\r\n        uint day;\r\n        uint month;\r\n        uint year;\r\n    }\r\n\r\n    event StudentCreated(\r\n        uint idStudent,\r\n        string firstName,\r\n        string lastName,\r\n        uint day,\r\n        uint month,\r\n        uint year);\r\n\r\n\r\n\r\n    mapping(uint => Diploma) public diplomas;\r\n\r\n    mapping(uint => Student) public students;\r\n\r\n    mapping(uint => School) public schools;\r\n\r\n    mapping(uint => Degree) public degrees;\r\n\r\n\r\n\r\n    constructor() public {\r\n        createDiploma(1,1);\r\n        createStudent(\"Rudy\", \"Deflisque\", 8, 7, 97);\r\n    }\r\n\r\n    function createDiploma(uint _idDegree, uint  _idStudent) public {\r\n        //si il existe un etudiant et une école avec ces id (peut etre ecrire des fonction pour vérifier ca histoire de garder un code lisible)\r\n            diplomaCount ++;\r\n            diplomas[diplomaCount] = Diploma(diplomaCount,_idDegree,_idStudent);\r\n            emit DiplomaCreated(diplomaCount,_idDegree,_idStudent);\r\n        //sinon erreur\r\n    }\r\n\r\n    function createStudent(string memory _firstName, string memory _lastName, uint _day, uint _month, uint _year) public {\r\n        //si l'etudiant n'exi ste pas encore\r\n            studentCount ++;\r\n            students[studentCount] = Student(studentCount, _firstName, _lastName, _day, _month, _year);\r\n            emit StudentCreated(studentCount,_firstName,_lastName, _day, _month, _year);\r\n        //sinon erreur\r\n    }\r\n\r\n    function createSchool(string memory _schoolName) public {\r\n        //si l'ecole n'existe pas encore\r\n            schoolCount ++;\r\n            schools[schoolCount] = School(schoolCount,_schoolName);\r\n            emit SchoolCreated(schoolCount,_schoolName);\r\n        //sinon erreur\r\n    }\r\n\r\n\r\n\r\n}\r\n",
  "sourcePath": "C:\\Users\\francesca\\Desktop\\Diploma-storage-OPPO\\contracts\\DiplomaStorage.sol",
  "compiler": {
    "name": "solc",
    "version": "0.5.16+commit.9c3226ce.Emscripten.clang"
  },
  "schemaVersion": "3.0.23",
  "updatedAt": "2020-03-26T14:56:32.218Z",
  "networkType": "ethereum",
  "devdoc": {
    "methods": {}
  },
  "userdoc": {
    "methods": {}
  }
}