{
  "contractName": "DiplomaStorage",
  "abi": [
    {
      "inputs": [],
      "payable": false,
      "stateMutability": "nonpayable",
      "type": "constructor"
    },
    {
      "anonymous": false,
      "inputs": [
        {
          "indexed": false,
          "internalType": "uint256",
          "name": "idDegree",
          "type": "uint256"
        },
        {
          "indexed": false,
          "internalType": "uint256",
          "name": "year",
          "type": "uint256"
        },
        {
          "indexed": false,
          "internalType": "string",
          "name": "nameDegree",
          "type": "string"
        },
        {
          "indexed": false,
          "internalType": "string",
          "name": "schoolName",
          "type": "string"
        }
      ],
      "name": "DegreeCreated",
      "type": "event"
    },
    {
      "anonymous": false,
      "inputs": [
        {
          "indexed": false,
          "internalType": "uint256",
          "name": "idDegree",
          "type": "uint256"
        },
        {
          "indexed": false,
          "internalType": "uint256",
          "name": "idStudent",
          "type": "uint256"
        }
      ],
      "name": "DiplomaCreated",
      "type": "event"
    },
    {
      "anonymous": false,
      "inputs": [
        {
          "indexed": false,
          "internalType": "uint256",
          "name": "idSchool",
          "type": "uint256"
        },
        {
          "indexed": false,
          "internalType": "string",
          "name": "schoolName",
          "type": "string"
        }
      ],
      "name": "SchoolCreated",
      "type": "event"
    },
    {
      "anonymous": false,
      "inputs": [
        {
          "indexed": false,
          "internalType": "uint256",
          "name": "idStudent",
          "type": "uint256"
        },
        {
          "indexed": false,
          "internalType": "string",
          "name": "firstName",
          "type": "string"
        },
        {
          "indexed": false,
          "internalType": "string",
          "name": "lastName",
          "type": "string"
        },
        {
          "indexed": false,
          "internalType": "uint256",
          "name": "day",
          "type": "uint256"
        },
        {
          "indexed": false,
          "internalType": "uint256",
          "name": "month",
          "type": "uint256"
        },
        {
          "indexed": false,
          "internalType": "uint256",
          "name": "year",
          "type": "uint256"
        }
      ],
      "name": "StudentCreated",
      "type": "event"
    },
    {
      "constant": true,
      "inputs": [],
      "name": "degreeCount",
      "outputs": [
        {
          "internalType": "uint256",
          "name": "",
          "type": "uint256"
        }
      ],
      "payable": false,
      "stateMutability": "view",
      "type": "function"
    },
    {
      "constant": true,
      "inputs": [
        {
          "internalType": "uint256",
          "name": "",
          "type": "uint256"
        }
      ],
      "name": "degrees",
      "outputs": [
        {
          "internalType": "uint256",
          "name": "idDegree",
          "type": "uint256"
        },
        {
          "internalType": "uint256",
          "name": "year",
          "type": "uint256"
        },
        {
          "internalType": "string",
          "name": "nameDegree",
          "type": "string"
        },
        {
          "internalType": "string",
          "name": "schoolName",
          "type": "string"
        }
      ],
      "payable": false,
      "stateMutability": "view",
      "type": "function"
    },
    {
      "constant": true,
      "inputs": [],
      "name": "diplomaCount",
      "outputs": [
        {
          "internalType": "uint256",
          "name": "",
          "type": "uint256"
        }
      ],
      "payable": false,
      "stateMutability": "view",
      "type": "function"
    },
    {
      "constant": true,
      "inputs": [
        {
          "internalType": "uint256",
          "name": "",
          "type": "uint256"
        }
      ],
      "name": "diplomas",
      "outputs": [
        {
          "internalType": "uint256",
          "name": "idDegree",
          "type": "uint256"
        },
        {
          "internalType": "uint256",
          "name": "idStudent",
          "type": "uint256"
        }
      ],
      "payable": false,
      "stateMutability": "view",
      "type": "function"
    },
    {
      "constant": true,
      "inputs": [],
      "name": "schoolCount",
      "outputs": [
        {
          "internalType": "uint256",
          "name": "",
          "type": "uint256"
        }
      ],
      "payable": false,
      "stateMutability": "view",
      "type": "function"
    },
    {
      "constant": true,
      "inputs": [
        {
          "internalType": "uint256",
          "name": "",
          "type": "uint256"
        }
      ],
      "name": "schools",
      "outputs": [
        {
          "internalType": "uint256",
          "name": "idSchool",
          "type": "uint256"
        },
        {
          "internalType": "string",
          "name": "schoolName",
          "type": "string"
        }
      ],
      "payable": false,
      "stateMutability": "view",
      "type": "function"
    },
    {
      "constant": true,
      "inputs": [],
      "name": "studentCount",
      "outputs": [
        {
          "internalType": "uint256",
          "name": "",
          "type": "uint256"
        }
      ],
      "payable": false,
      "stateMutability": "view",
      "type": "function"
    },
    {
      "constant": true,
      "inputs": [
        {
          "internalType": "uint256",
          "name": "",
          "type": "uint256"
        }
      ],
      "name": "students",
      "outputs": [
        {
          "internalType": "uint256",
          "name": "idStudent",
          "type": "uint256"
        },
        {
          "internalType": "string",
          "name": "firstName",
          "type": "string"
        },
        {
          "internalType": "string",
          "name": "lastName",
          "type": "string"
        },
        {
          "internalType": "uint256",
          "name": "day",
          "type": "uint256"
        },
        {
          "internalType": "uint256",
          "name": "month",
          "type": "uint256"
        },
        {
          "internalType": "uint256",
          "name": "year",
          "type": "uint256"
        }
      ],
      "payable": false,
      "stateMutability": "view",
      "type": "function"
    },
    {
      "constant": false,
      "inputs": [
        {
          "internalType": "uint256",
          "name": "_idDegree",
          "type": "uint256"
        },
        {
          "internalType": "uint256",
          "name": "_idStudent",
          "type": "uint256"
        }
      ],
      "name": "createDiploma",
      "outputs": [],
      "payable": false,
      "stateMutability": "nonpayable",
      "type": "function"
    },
    {
      "constant": false,
      "inputs": [
        {
          "internalType": "string",
          "name": "_firstName",
          "type": "string"
        },
        {
          "internalType": "string",
          "name": "_lastName",
          "type": "string"
        },
        {
          "internalType": "uint256",
          "name": "_day",
          "type": "uint256"
        },
        {
          "internalType": "uint256",
          "name": "_month",
          "type": "uint256"
        },
        {
          "internalType": "uint256",
          "name": "_year",
          "type": "uint256"
        }
      ],
      "name": "createStudent",
      "outputs": [],
      "payable": false,
      "stateMutability": "nonpayable",
      "type": "function"
    },
    {
      "constant": false,
      "inputs": [
        {
          "internalType": "string",
          "name": "_schoolName",
          "type": "string"
        }
      ],
      "name": "createSchool",
      "outputs": [],
      "payable": false,
      "stateMutability": "nonpayable",
      "type": "function"
    },
    {
      "constant": false,
      "inputs": [
        {
          "internalType": "uint256",
          "name": "_year",
          "type": "uint256"
        },
        {
          "internalType": "string",
          "name": "_nameDegree",
          "type": "string"
        },
        {
          "internalType": "string",
          "name": "_schoolName",
          "type": "string"
        }
      ],
      "name": "createDegree",
      "outputs": [],
      "payable": false,
      "stateMutability": "nonpayable",
      "type": "function"
    },
    {
      "constant": true,
      "inputs": [
        {
          "internalType": "string",
          "name": "_firstName",
          "type": "string"
        },
        {
          "internalType": "string",
          "name": "_lastName",
          "type": "string"
        },
        {
          "internalType": "uint256",
          "name": "_year",
          "type": "uint256"
        },
        {
          "internalType": "uint256",
          "name": "_day",
          "type": "uint256"
        },
        {
          "internalType": "string",
          "name": "_nameDegree",
          "type": "string"
        },
        {
          "internalType": "string",
          "name": "_schoolName",
          "type": "string"
        }
      ],
      "name": "checkDiploma",
      "outputs": [
        {
          "internalType": "bool",
          "name": "",
          "type": "bool"
        }
      ],
      "payable": false,
      "stateMutability": "view",
      "type": "function"
    }
  ],
  "bytecode": "0x6080604052600080556000600155600060025560006003553480156200002457600080fd5b506200007b604051806040016040528060048152602001635275647960e01b815250604051806040016040528060098152602001684465666c697371756560b81b815250600860076107cf620001c060201b60201c565b620000d36040518060400160405280600681526020016550696572726560d01b81525060405180604001604052806009815260200168131bdd5c99195b195d60ba1b815250601c60046107cf620001c060201b60201c565b62000128604051806040016040528060078152602001664e6f6865696c6160c81b81525060405180604001604052806005815260200164131d5c9bdd60da1b815250601060086107cf620001c060201b60201c565b620001756107e660405180604001604052806005815260200164496e67c3a960d81b8152506040518060400160405280600381526020016205453560ec1b8152506200039260201b60201c565b60408051808201909152600381526205453560ec1b6020820152620001a3906001600160e01b036200053516565b620001ba600160036001600160e01b036200062e16565b62000744565b6001805481018082556040805160c08101825282815260208082018a81528284018a9052606083018990526080830188905260a083018790526000948552600582529290932081518155915180519194929362000223938501929101906200069f565b5060408201518051620002419160028401916020909101906200069f565b50606082015181600301556080820151816004015560a082015181600501559050507fd5aae9288c4c1e3ab2d0455be8d7b1aaa5ed430ec9783c8370982858ef7176616001548686868686604051808781526020018060200180602001868152602001858152602001848152602001838103835288818151815260200191508051906020019080838360005b83811015620002e7578181015183820152602001620002cd565b50505050905090810190601f168015620003155780820380516001836020036101000a031916815260200191505b50838103825287518152875160209182019189019080838360005b838110156200034a57818101518382015260200162000330565b50505050905090810190601f168015620003785780820380516001836020036101000a031916815260200191505b509850505050505050505060405180910390a15050505050565b6003805460019081019182905560408051608081018252838152602080820188815282840188815260608401889052600096875260078352939095208251815594519385019390935590518051919392620003f6926002850192909101906200069f565b5060608201518051620004149160038401916020909101906200069f565b509050507f4bb67cc7a322e0d5bbde9d0537f6617b5b7c633dc500d453215c9a4bb120d9a0600354848484604051808581526020018481526020018060200180602001838103835285818151815260200191508051906020019080838360005b838110156200048e57818101518382015260200162000474565b50505050905090810190601f168015620004bc5780820380516001836020036101000a031916815260200191505b50838103825284518152845160209182019186019080838360005b83811015620004f1578181015183820152602001620004d7565b50505050905090810190601f1680156200051f5780820380516001836020036101000a031916815260200191505b50965050505050505060405180910390a1505050565b600280546001908101918290556040805180820182528381526020808201868152600095865260068252929094208151815591518051919492936200058193908501929101906200069f565b509050507f1dd06f65863371f2efae309d05157615ec39458e14e6ab1ffe9def14a480a762600254826040518083815260200180602001828103825283818151815260200191508051906020019080838360005b83811015620005ef578181015183820152602001620005d5565b50505050905090810190601f1680156200061d5780820380516001836020036101000a031916815260200191505b50935050505060405180910390a150565b600080546001908101808355604080518082018252868152602080820187815293865260048152948290209051815591519190920155805184815291820183905280517ff576ff9ab2b19f86beb41ceead7ab40f8227385341abe8e1735c8f7cddcbc0c99281900390910190a15050565b828054600181600116156101000203166002900490600052602060002090601f016020900481019282601f10620006e257805160ff191683800117855562000712565b8280016001018555821562000712579182015b8281111562000712578251825591602001919060010190620006f5565b506200072092915062000724565b5090565b6200074191905b808211156200072057600081556001016200072b565b90565b611a7980620007546000396000f3fe608060405234801561001057600080fd5b50600436106100cf5760003560e01c806362cef8d31161008c57806381f1c3bc1161006657806381f1c3bc146107a0578063d5b60769146108a9578063e581f9ee146108cc578063f0dcb15c146108d4576100cf565b806362cef8d3146105c85780636920613f146106fc578063719c0d0414610704576100cf565b806306ead22e146100d457806328d88890146101eb57806335dfc1c3146102055780633660096b1461023b578063454ddc17146102435780634c0e81d014610375575b600080fd5b6100f1600480360360208110156100ea57600080fd5b5035610978565b604051808781526020018060200180602001868152602001858152602001848152602001838103835288818151815260200191508051906020019080838360005b8381101561014a578181015183820152602001610132565b50505050905090810190601f1680156101775780820380516001836020036101000a031916815260200191505b50838103825287518152875160209182019189019080838360005b838110156101aa578181015183820152602001610192565b50505050905090810190601f1680156101d75780820380516001836020036101000a031916815260200191505b509850505050505050505060405180910390f35b6101f3610ac3565b60408051918252519081900360200190f35b6102226004803603602081101561021b57600080fd5b5035610ac9565b6040805192835260208301919091528051918290030190f35b6101f3610ae2565b6103736004803603606081101561025957600080fd5b81359190810190604081016020820135600160201b81111561027a57600080fd5b82018360208201111561028c57600080fd5b803590602001918460018302840111600160201b831117156102ad57600080fd5b91908080601f0160208091040260200160405190810160405280939291908181526020018383808284376000920191909152509295949360208101935035915050600160201b8111156102ff57600080fd5b82018360208201111561031157600080fd5b803590602001918460018302840111600160201b8311171561033257600080fd5b91908080601f016020809104026020016040519081016040528093929190818152602001838380828437600092019190915250929550610ae8945050505050565b005b6105b4600480360360c081101561038b57600080fd5b810190602081018135600160201b8111156103a557600080fd5b8201836020820111156103b757600080fd5b803590602001918460018302840111600160201b831117156103d857600080fd5b91908080601f0160208091040260200160405190810160405280939291908181526020018383808284376000920191909152509295949360208101935035915050600160201b81111561042a57600080fd5b82018360208201111561043c57600080fd5b803590602001918460018302840111600160201b8311171561045d57600080fd5b91908080601f0160208091040260200160405190810160405280939291908181526020018383808284376000920191909152509295843595602086013595919450925060608101915060400135600160201b8111156104bb57600080fd5b8201836020820111156104cd57600080fd5b803590602001918460018302840111600160201b831117156104ee57600080fd5b91908080601f0160208091040260200160405190810160405280939291908181526020018383808284376000920191909152509295949360208101935035915050600160201b81111561054057600080fd5b82018360208201111561055257600080fd5b803590602001918460018302840111600160201b8311171561057357600080fd5b91908080601f016020809104026020016040519081016040528093929190818152602001838380828437600092019190915250929550610c81945050505050565b604080519115158252519081900360200190f35b610373600480360360a08110156105de57600080fd5b810190602081018135600160201b8111156105f857600080fd5b82018360208201111561060a57600080fd5b803590602001918460018302840111600160201b8311171561062b57600080fd5b91908080601f0160208091040260200160405190810160405280939291908181526020018383808284376000920191909152509295949360208101935035915050600160201b81111561067d57600080fd5b82018360208201111561068f57600080fd5b803590602001918460018302840111600160201b831117156106b057600080fd5b91908080601f0160208091040260200160405190810160405280939291908181526020018383808284376000920191909152509295505082359350505060208101359060400135611418565b6101f36115e0565b6107216004803603602081101561071a57600080fd5b50356115e6565b6040518083815260200180602001828103825283818151815260200191508051906020019080838360005b8381101561076457818101518382015260200161074c565b50505050905090810190601f1680156107915780820380516001836020036101000a031916815260200191505b50935050505060405180910390f35b6107bd600480360360208110156107b657600080fd5b503561168d565b604051808581526020018481526020018060200180602001838103835285818151815260200191508051906020019080838360005b8381101561080a5781810151838201526020016107f2565b50505050905090810190601f1680156108375780820380516001836020036101000a031916815260200191505b50838103825284518152845160209182019186019080838360005b8381101561086a578181015183820152602001610852565b50505050905090810190601f1680156108975780820380516001836020036101000a031916815260200191505b50965050505050505060405180910390f35b610373600480360360408110156108bf57600080fd5b50803590602001356117c6565b6101f3611837565b610373600480360360208110156108ea57600080fd5b810190602081018135600160201b81111561090457600080fd5b82018360208201111561091657600080fd5b803590602001918460018302840111600160201b8311171561093757600080fd5b91908080601f01602080910402602001604051908101604052809392919081815260200183838082843760009201919091525092955061183d945050505050565b6005602090815260009182526040918290208054600180830180548651600293821615610100026000190190911692909204601f810186900486028301860190965285825291949293909290830182828015610a155780601f106109ea57610100808354040283529160200191610a15565b820191906000526020600020905b8154815290600101906020018083116109f857829003601f168201915b50505060028085018054604080516020601f6000196101006001871615020190941695909504928301859004850281018501909152818152959695945090925090830182828015610aa75780601f10610a7c57610100808354040283529160200191610aa7565b820191906000526020600020905b815481529060010190602001808311610a8a57829003601f168201915b5050505050908060030154908060040154908060050154905086565b60025481565b6004602052600090815260409020805460019091015482565b60035481565b6003805460019081019182905560408051608081018252838152602080820188815282840188815260608401889052600096875260078352939095208251815594519385019390935590518051919392610b4a92600285019290910190611931565b5060608201518051610b66916003840191602090910190611931565b509050507f4bb67cc7a322e0d5bbde9d0537f6617b5b7c633dc500d453215c9a4bb120d9a0600354848484604051808581526020018481526020018060200180602001838103835285818151815260200191508051906020019080838360005b83811015610bde578181015183820152602001610bc6565b50505050905090810190601f168015610c0b5780820380516001836020036101000a031916815260200191505b50838103825284518152845160209182019186019080838360005b83811015610c3e578181015183820152602001610c26565b50505050905090810190601f168015610c6b5780820380516001836020036101000a031916815260200191505b50965050505050505060405180910390a1505050565b6000610c8b6119af565b610c936119e5565b610c9b6119ff565b600060018181815b60015481101561101757600560008281526020019081526020016000206040518060c001604052908160008201548152602001600182018054600181600116156101000203166002900480601f016020809104026020016040519081016040528092919081815260200182805460018160011615610100020316600290048015610d6e5780601f10610d4357610100808354040283529160200191610d6e565b820191906000526020600020905b815481529060010190602001808311610d5157829003601f168201915b5050509183525050600282810180546040805160206001841615610100026000190190931694909404601f81018390048302850183019091528084529381019390830182828015610e005780601f10610dd557610100808354040283529160200191610e00565b820191906000526020600020905b815481529060010190602001808311610de357829003601f168201915b50505050508152602001600382015481526020016004820154815260200160058201548152505097508b8860600151141561100f578e6040516020018082805190602001908083835b60208310610e685780518252601f199092019160209182019101610e49565b6001836020036101000a0380198251168184511680821785525050505050509050019150506040516020818303038152906040528051906020012088602001516040516020018082805190602001908083835b60208310610eda5780518252601f199092019160209182019101610ebb565b6001836020036101000a03801982511681845116808217855250505050505090500191505060405160208183030381529060405280519060200120148015610fff57508d6040516020018082805190602001908083835b60208310610f505780518252601f199092019160209182019101610f31565b6001836020036101000a0380198251168184511680821785525050505050509050019150506040516020818303038152906040528051906020012088604001516040516020018082805190602001908083835b60208310610fc25780518252601f199092019160209182019101610fa3565b6001836020036101000a03801982511681845116808217855250505050505090500191505060405160208183030381529060405280519060200120145b1561100f57806001019450600193505b600101610ca3565b5060005b60035481101561137d57600760008281526020019081526020016000206040518060800160405290816000820154815260200160018201548152602001600282018054600181600116156101000203166002900480601f0160208091040260200160405190810160405280929190818152602001828054600181600116156101000203166002900480156110f05780601f106110c5576101008083540402835291602001916110f0565b820191906000526020600020905b8154815290600101906020018083116110d357829003601f168201915b505050918352505060038201805460408051602060026001851615610100026000190190941693909304601f81018490048402820184019092528181529382019392918301828280156111845780601f1061115957610100808354040283529160200191611184565b820191906000526020600020905b81548152906001019060200180831161116757829003601f168201915b50505050508152505095508c8660200151141561137557896040516020018082805190602001908083835b602083106111ce5780518252601f1990920191602091820191016111af565b6001836020036101000a0380198251168184511680821785525050505050509050019150506040516020818303038152906040528051906020012086606001516040516020018082805190602001908083835b602083106112405780518252601f199092019160209182019101611221565b6001836020036101000a0380198251168184511680821785525050505050509050019150506040516020818303038152906040528051906020012014801561136557508a6040516020018082805190602001908083835b602083106112b65780518252601f199092019160209182019101611297565b6001836020036101000a0380198251168184511680821785525050505050509050019150506040516020818303038152906040528051906020012086604001516040516020018082805190602001908083835b602083106113285780518252601f199092019160209182019101611309565b6001836020036101000a03801982511681845116808217855250505050505090500191505060405160208183030381529060405280519060200120145b1561137557806001019250600191505b60010161101b565b508280156113885750805b1561140257600197505050505050505061140e565b600054811015611400576000818152600460209081526040918290208251808401909352805483526001015490820181905290975060031480156113e2575086516001145b156113f85760019850505050505050505061140e565b60010161139d565b505b60009750505050505050505b9695505050505050565b6001805481018082556040805160c08101825282815260208082018a81528284018a9052606083018990526080830188905260a083018790526000948552600582529290932081518155915180519194929361147993850192910190611931565b5060408201518051611495916002840191602090910190611931565b50606082015181600301556080820151816004015560a082015181600501559050507fd5aae9288c4c1e3ab2d0455be8d7b1aaa5ed430ec9783c8370982858ef7176616001548686868686604051808781526020018060200180602001868152602001858152602001848152602001838103835288818151815260200191508051906020019080838360005b83811015611539578181015183820152602001611521565b50505050905090810190601f1680156115665780820380516001836020036101000a031916815260200191505b50838103825287518152875160209182019189019080838360005b83811015611599578181015183820152602001611581565b50505050905090810190601f1680156115c65780820380516001836020036101000a031916815260200191505b509850505050505050505060405180910390a15050505050565b60005481565b6006602090815260009182526040918290208054600180830180548651600293821615610100026000190190911692909204601f8101869004860283018601909652858252919492939092908301828280156116835780601f1061165857610100808354040283529160200191611683565b820191906000526020600020905b81548152906001019060200180831161166657829003601f168201915b5050505050905082565b60076020908152600091825260409182902080546001808301546002808501805488519481161561010002600019011691909104601f81018790048702840187019097528683529295909491929183018282801561172c5780601f106117015761010080835404028352916020019161172c565b820191906000526020600020905b81548152906001019060200180831161170f57829003601f168201915b5050505060038301805460408051602060026001851615610100026000190190941693909304601f81018490048402820184019092528181529495949350908301828280156117bc5780601f10611791576101008083540402835291602001916117bc565b820191906000526020600020905b81548152906001019060200180831161179f57829003601f168201915b5050505050905084565b600080546001908101808355604080518082018252868152602080820187815293865260048152948290209051815591519190920155805184815291820183905280517ff576ff9ab2b19f86beb41ceead7ab40f8227385341abe8e1735c8f7cddcbc0c99281900390910190a15050565b60015481565b600280546001908101918290556040805180820182528381526020808201868152600095865260068252929094208151815591518051919492936118879390850192910190611931565b509050507f1dd06f65863371f2efae309d05157615ec39458e14e6ab1ffe9def14a480a762600254826040518083815260200180602001828103825283818151815260200191508051906020019080838360005b838110156118f35781810151838201526020016118db565b50505050905090810190601f1680156119205780820380516001836020036101000a031916815260200191505b50935050505060405180910390a150565b828054600181600116156101000203166002900490600052602060002090601f016020900481019282601f1061197257805160ff191683800117855561199f565b8280016001018555821561199f579182015b8281111561199f578251825591602001919060010190611984565b506119ab929150611a27565b5090565b6040518060c001604052806000815260200160608152602001606081526020016000815260200160008152602001600081525090565b604051806040016040528060008152602001600081525090565b6040518060800160405280600081526020016000815260200160608152602001606081525090565b611a4191905b808211156119ab5760008155600101611a2d565b9056fea265627a7a72315820da86fdab43b28d87cfe223a3016ea267baa23cf20aa1f497572180a063e440b464736f6c63430005100032",
  "source": "pragma solidity ^0.5.16;\n\ncontract DiplomaStorage {\n    uint public  diplomaCount = 0;\n    uint public studentCount = 0;\n    uint public schoolCount = 0;\n    uint public degreeCount = 0;\n\n    struct Diploma {\n        uint idDegree;\n        uint idStudent;\n    }\n\n    event DiplomaCreated(\n        uint idDegree,\n        uint idStudent);\n\n    struct School {\n        uint idSchool;\n        string schoolName;\n    }\n\n    event SchoolCreated(\n        uint idSchool,\n        string schoolName);\n\n    struct Degree {\n        uint idDegree;\n        uint year;\n        string nameDegree;\n        string schoolName;\n    }\n\n    event DegreeCreated (\n        uint idDegree,\n        uint year,\n        string nameDegree,\n        string schoolName);\n\n\n    struct Student {\n        uint idStudent;\n        string firstName;\n        string lastName;\n        uint day;\n        uint month;\n        uint year;\n    }\n\n    event StudentCreated(\n        uint idStudent,\n        string firstName,\n        string lastName,\n        uint day,\n        uint month,\n        uint year);\n\n\n\n    mapping(uint => Diploma) public diplomas;\n\n    mapping(uint => Student) public students;\n\n    mapping(uint => School) public schools;\n\n    mapping(uint => Degree) public degrees;\n\n\n\n    constructor() public {\n        createStudent(\"Rudy\", \"Deflisque\", 8, 7, 1999);\n        createStudent(\"Pierre\", \"Lourdelet\", 28, 4, 1999);\n        createStudent(\"Noheila\", \"Lurot\", 16, 8, 1999);\n\n        createDegree(2022,\"Ing\",\"TSP\");\n\n        createSchool(\"TSP\");\n\n        createDiploma(1,3);\n\n\n\n    }\n\n    function createDiploma(uint _idDegree, uint  _idStudent) public {\n        //si il existe un etudiant et une cole avec ces id (peut etre ecrire des fonction pour vrifier ca histoire de garder un code lisible)\n            diplomaCount ++;\n            diplomas[diplomaCount] = Diploma(_idDegree,_idStudent);\n            emit DiplomaCreated(_idDegree,_idStudent);\n        //sinon erreur\n    }\n\n    function createStudent(string memory _firstName, string memory _lastName, uint _day, uint _month, uint _year) public {\n        //si l'etudiant n'exi ste pas encore\n            studentCount ++;\n            students[studentCount] = Student(studentCount, _firstName, _lastName, _day, _month, _year);\n            emit StudentCreated(studentCount,_firstName,_lastName, _day, _month, _year);\n        //sinon erreur\n    }\n\n    function createSchool(string memory _schoolName) public {\n        //si l'ecole n'existe pas encore\n            schoolCount ++;\n            schools[schoolCount] = School(schoolCount,_schoolName);\n            emit SchoolCreated(schoolCount,_schoolName);\n        //sinon erreur\n    }\n\n    function createDegree(uint _year,string memory _nameDegree, string memory _schoolName) public {\n        degreeCount ++;\n        degrees[degreeCount] = Degree(degreeCount, _year,_nameDegree, _schoolName);\n        emit DegreeCreated(degreeCount, _year,_nameDegree,_schoolName);\n    }\n\n    function checkDiploma(string memory _firstName, string memory _lastName, uint _year,uint _day, string memory _nameDegree, string memory _schoolName) public view returns(bool) {\n        Student memory stu;\n        Diploma memory dip;\n        Degree memory deg;\n\n\n        uint idS;\n        bool studentExists = true;\n\n        uint idD;\n        bool degreeExists = true;\n\n        //On parcours les eleves pour savoir si il existe puis on note son identifiant\n        for (uint i = 0; i < studentCount; i++){\n            stu = students[i];\n            if(stu.day == _day ){  \n                if(keccak256(abi.encodePacked(stu.firstName)) == keccak256(abi.encodePacked(_firstName)) && keccak256(abi.encodePacked(stu.lastName)) == keccak256(abi.encodePacked(_lastName))){\n                    idS = i +1;\n                    studentExists = true;\n                }\n                \n            }\n        }\n\n        //On parcours les diplomes pour savoir si il existe puis on note son identifiant\n        for (uint i = 0; i < degreeCount; i++){\n            deg = degrees[i];\n            if(deg.year == _year ){\n                if(keccak256(abi.encodePacked(deg.schoolName)) == keccak256(abi.encodePacked(_schoolName)) && keccak256(abi.encodePacked(deg.nameDegree)) == keccak256(abi.encodePacked(_nameDegree))){\n                    idD = i +1;\n                    degreeExists = true;\n\n                }\n                \n            }\n        }\n\n        // Si l'eleve et le diplome exitent on va vrifier si il existe une telle association\n        if(studentExists && degreeExists){\n            return true;\n            for(uint k = 0; k < diplomaCount;k++){\n                dip = diplomas[k];\n                if (dip.idStudent == 3 && dip.idDegree == 1){\n                    return true;\n                }\n            }\n        }\n        return false;\n\n        \n    \n    }\n\n\n\n}\n",
  "sourcePath": "/home/ubuntu/Documents/BC_Projects/OPPO-DS/contracts/DiplomaStorage.sol",
  "compiler": {
    "name": "solc",
    "version": "0.5.16+commit.9c3226ce.Emscripten.clang"
  },
  "schemaVersion": "3.0.23",
  "updatedAt": "2020-03-27T16:52:40.368Z",
  "networkType": "ethereum",
  "devdoc": {
    "methods": {}
  },
  "userdoc": {
    "methods": {}
  }
}