{
  "contractName": "DiplomaStorage",
  "abi": [
    {
      "inputs": [],
      "payable": false,
      "stateMutability": "nonpayable",
      "type": "constructor"
    },
    {
      "anonymous": false,
      "inputs": [
        {
          "indexed": false,
          "internalType": "uint256",
          "name": "idDegree",
          "type": "uint256"
        },
        {
          "indexed": false,
          "internalType": "uint256",
          "name": "year",
          "type": "uint256"
        },
        {
          "indexed": false,
          "internalType": "string",
          "name": "nameDegree",
          "type": "string"
        },
        {
          "indexed": false,
          "internalType": "string",
          "name": "schoolName",
          "type": "string"
        }
      ],
      "name": "DegreeCreated",
      "type": "event"
    },
    {
      "anonymous": false,
      "inputs": [
        {
          "indexed": false,
          "internalType": "uint256",
          "name": "idDegree",
          "type": "uint256"
        },
        {
          "indexed": false,
          "internalType": "uint256",
          "name": "idStudent",
          "type": "uint256"
        }
      ],
      "name": "DiplomaCreated",
      "type": "event"
    },
    {
      "anonymous": false,
      "inputs": [
        {
          "indexed": false,
          "internalType": "uint256",
          "name": "idSchool",
          "type": "uint256"
        },
        {
          "indexed": false,
          "internalType": "string",
          "name": "schoolName",
          "type": "string"
        }
      ],
      "name": "SchoolCreated",
      "type": "event"
    },
    {
      "anonymous": false,
      "inputs": [
        {
          "indexed": false,
          "internalType": "uint256",
          "name": "idStudent",
          "type": "uint256"
        },
        {
          "indexed": false,
          "internalType": "string",
          "name": "firstName",
          "type": "string"
        },
        {
          "indexed": false,
          "internalType": "string",
          "name": "lastName",
          "type": "string"
        },
        {
          "indexed": false,
          "internalType": "uint256",
          "name": "day",
          "type": "uint256"
        },
        {
          "indexed": false,
          "internalType": "uint256",
          "name": "month",
          "type": "uint256"
        },
        {
          "indexed": false,
          "internalType": "uint256",
          "name": "year",
          "type": "uint256"
        }
      ],
      "name": "StudentCreated",
      "type": "event"
    },
    {
      "constant": true,
      "inputs": [],
      "name": "degreeCount",
      "outputs": [
        {
          "internalType": "uint256",
          "name": "",
          "type": "uint256"
        }
      ],
      "payable": false,
      "stateMutability": "view",
      "type": "function"
    },
    {
      "constant": true,
      "inputs": [
        {
          "internalType": "uint256",
          "name": "",
          "type": "uint256"
        }
      ],
      "name": "degrees",
      "outputs": [
        {
          "internalType": "uint256",
          "name": "idDegree",
          "type": "uint256"
        },
        {
          "internalType": "uint256",
          "name": "year",
          "type": "uint256"
        },
        {
          "internalType": "string",
          "name": "nameDegree",
          "type": "string"
        },
        {
          "internalType": "string",
          "name": "schoolName",
          "type": "string"
        }
      ],
      "payable": false,
      "stateMutability": "view",
      "type": "function"
    },
    {
      "constant": true,
      "inputs": [],
      "name": "diplomaCount",
      "outputs": [
        {
          "internalType": "uint256",
          "name": "",
          "type": "uint256"
        }
      ],
      "payable": false,
      "stateMutability": "view",
      "type": "function"
    },
    {
      "constant": true,
      "inputs": [
        {
          "internalType": "uint256",
          "name": "",
          "type": "uint256"
        }
      ],
      "name": "diplomas",
      "outputs": [
        {
          "internalType": "uint256",
          "name": "idDegree",
          "type": "uint256"
        },
        {
          "internalType": "uint256",
          "name": "idStudent",
          "type": "uint256"
        }
      ],
      "payable": false,
      "stateMutability": "view",
      "type": "function"
    },
    {
      "constant": true,
      "inputs": [],
      "name": "schoolCount",
      "outputs": [
        {
          "internalType": "uint256",
          "name": "",
          "type": "uint256"
        }
      ],
      "payable": false,
      "stateMutability": "view",
      "type": "function"
    },
    {
      "constant": true,
      "inputs": [
        {
          "internalType": "uint256",
          "name": "",
          "type": "uint256"
        }
      ],
      "name": "schools",
      "outputs": [
        {
          "internalType": "uint256",
          "name": "idSchool",
          "type": "uint256"
        },
        {
          "internalType": "string",
          "name": "schoolName",
          "type": "string"
        }
      ],
      "payable": false,
      "stateMutability": "view",
      "type": "function"
    },
    {
      "constant": true,
      "inputs": [],
      "name": "studentCount",
      "outputs": [
        {
          "internalType": "uint256",
          "name": "",
          "type": "uint256"
        }
      ],
      "payable": false,
      "stateMutability": "view",
      "type": "function"
    },
    {
      "constant": true,
      "inputs": [
        {
          "internalType": "uint256",
          "name": "",
          "type": "uint256"
        }
      ],
      "name": "students",
      "outputs": [
        {
          "internalType": "uint256",
          "name": "idStudent",
          "type": "uint256"
        },
        {
          "internalType": "string",
          "name": "firstName",
          "type": "string"
        },
        {
          "internalType": "string",
          "name": "lastName",
          "type": "string"
        },
        {
          "internalType": "uint256",
          "name": "day",
          "type": "uint256"
        },
        {
          "internalType": "uint256",
          "name": "month",
          "type": "uint256"
        },
        {
          "internalType": "uint256",
          "name": "year",
          "type": "uint256"
        }
      ],
      "payable": false,
      "stateMutability": "view",
      "type": "function"
    },
    {
      "constant": false,
      "inputs": [
        {
          "internalType": "uint256",
          "name": "_idDegree",
          "type": "uint256"
        },
        {
          "internalType": "uint256",
          "name": "_idStudent",
          "type": "uint256"
        }
      ],
      "name": "createDiploma",
      "outputs": [],
      "payable": false,
      "stateMutability": "nonpayable",
      "type": "function"
    },
    {
      "constant": false,
      "inputs": [
        {
          "internalType": "string",
          "name": "_firstName",
          "type": "string"
        },
        {
          "internalType": "string",
          "name": "_lastName",
          "type": "string"
        },
        {
          "internalType": "uint256",
          "name": "_day",
          "type": "uint256"
        },
        {
          "internalType": "uint256",
          "name": "_month",
          "type": "uint256"
        },
        {
          "internalType": "uint256",
          "name": "_year",
          "type": "uint256"
        }
      ],
      "name": "createStudent",
      "outputs": [],
      "payable": false,
      "stateMutability": "nonpayable",
      "type": "function"
    },
    {
      "constant": false,
      "inputs": [
        {
          "internalType": "string",
          "name": "_schoolName",
          "type": "string"
        }
      ],
      "name": "createSchool",
      "outputs": [],
      "payable": false,
      "stateMutability": "nonpayable",
      "type": "function"
    },
    {
      "constant": false,
      "inputs": [
        {
          "internalType": "uint256",
          "name": "_year",
          "type": "uint256"
        },
        {
          "internalType": "string",
          "name": "_nameDegree",
          "type": "string"
        },
        {
          "internalType": "string",
          "name": "_schoolName",
          "type": "string"
        }
      ],
      "name": "createDegree",
      "outputs": [],
      "payable": false,
      "stateMutability": "nonpayable",
      "type": "function"
    },
    {
      "constant": true,
      "inputs": [
        {
          "internalType": "string",
          "name": "_firstName",
          "type": "string"
        },
        {
          "internalType": "string",
          "name": "_lastName",
          "type": "string"
        },
        {
          "internalType": "uint256",
          "name": "_month",
          "type": "uint256"
        },
        {
          "internalType": "uint256",
          "name": "_day",
          "type": "uint256"
        },
        {
          "internalType": "uint256",
          "name": "_year",
          "type": "uint256"
        }
      ],
      "name": "checkStudent",
      "outputs": [
        {
          "internalType": "uint256",
          "name": "",
          "type": "uint256"
        }
      ],
      "payable": false,
      "stateMutability": "view",
      "type": "function"
    },
    {
      "constant": true,
      "inputs": [
        {
          "internalType": "uint256",
          "name": "_year",
          "type": "uint256"
        },
        {
          "internalType": "string",
          "name": "_nameDegree",
          "type": "string"
        },
        {
          "internalType": "string",
          "name": "_schoolName",
          "type": "string"
        }
      ],
      "name": "checkDegree",
      "outputs": [
        {
          "internalType": "uint256",
          "name": "",
          "type": "uint256"
        }
      ],
      "payable": false,
      "stateMutability": "view",
      "type": "function"
    },
    {
      "constant": true,
      "inputs": [
        {
          "internalType": "string",
          "name": "_firstName",
          "type": "string"
        },
        {
          "internalType": "string",
          "name": "_lastName",
          "type": "string"
        },
        {
          "internalType": "uint256",
          "name": "_month",
          "type": "uint256"
        },
        {
          "internalType": "uint256",
          "name": "_day",
          "type": "uint256"
        },
        {
          "internalType": "uint256",
          "name": "_sYear",
          "type": "uint256"
        },
        {
          "internalType": "uint256",
          "name": "_dYear",
          "type": "uint256"
        },
        {
          "internalType": "string",
          "name": "_nameDegree",
          "type": "string"
        },
        {
          "internalType": "string",
          "name": "_schoolName",
          "type": "string"
        }
      ],
      "name": "checkDiploma",
      "outputs": [
        {
          "internalType": "bool",
          "name": "",
          "type": "bool"
        }
      ],
      "payable": false,
      "stateMutability": "view",
      "type": "function"
    }
  ],
  "bytecode": "0x6080604052600080556000600155600060025560006003553480156200002457600080fd5b506200007b604051806040016040528060048152602001635275647960e01b815250604051806040016040528060098152602001684465666c697371756560b81b815250600860076107cf620001c060201b60201c565b620000d36040518060400160405280600681526020016550696572726560d01b81525060405180604001604052806009815260200168131bdd5c99195b195d60ba1b815250601c60046107cf620001c060201b60201c565b62000128604051806040016040528060078152602001664e6f6865696c6160c81b81525060405180604001604052806005815260200164131d5c9bdd60da1b815250601060086107cf620001c060201b60201c565b620001756107e660405180604001604052806005815260200164496e67c3a960d81b8152506040518060400160405280600381526020016205453560ec1b8152506200039260201b60201c565b60408051808201909152600381526205453560ec1b6020820152620001a3906001600160e01b036200053516565b620001ba600160036001600160e01b036200062e16565b62000744565b6001805481018082556040805160c08101825282815260208082018a81528284018a9052606083018990526080830188905260a083018790526000948552600582529290932081518155915180519194929362000223938501929101906200069f565b5060408201518051620002419160028401916020909101906200069f565b50606082015181600301556080820151816004015560a082015181600501559050507fd5aae9288c4c1e3ab2d0455be8d7b1aaa5ed430ec9783c8370982858ef7176616001548686868686604051808781526020018060200180602001868152602001858152602001848152602001838103835288818151815260200191508051906020019080838360005b83811015620002e7578181015183820152602001620002cd565b50505050905090810190601f168015620003155780820380516001836020036101000a031916815260200191505b50838103825287518152875160209182019189019080838360005b838110156200034a57818101518382015260200162000330565b50505050905090810190601f168015620003785780820380516001836020036101000a031916815260200191505b509850505050505050505060405180910390a15050505050565b6003805460019081019182905560408051608081018252838152602080820188815282840188815260608401889052600096875260078352939095208251815594519385019390935590518051919392620003f6926002850192909101906200069f565b5060608201518051620004149160038401916020909101906200069f565b509050507f4bb67cc7a322e0d5bbde9d0537f6617b5b7c633dc500d453215c9a4bb120d9a0600354848484604051808581526020018481526020018060200180602001838103835285818151815260200191508051906020019080838360005b838110156200048e57818101518382015260200162000474565b50505050905090810190601f168015620004bc5780820380516001836020036101000a031916815260200191505b50838103825284518152845160209182019186019080838360005b83811015620004f1578181015183820152602001620004d7565b50505050905090810190601f1680156200051f5780820380516001836020036101000a031916815260200191505b50965050505050505060405180910390a1505050565b600280546001908101918290556040805180820182528381526020808201868152600095865260068252929094208151815591518051919492936200058193908501929101906200069f565b509050507f1dd06f65863371f2efae309d05157615ec39458e14e6ab1ffe9def14a480a762600254826040518083815260200180602001828103825283818151815260200191508051906020019080838360005b83811015620005ef578181015183820152602001620005d5565b50505050905090810190601f1680156200061d5780820380516001836020036101000a031916815260200191505b50935050505060405180910390a150565b600080546001908101808355604080518082018252868152602080820187815293865260048152948290209051815591519190920155805184815291820183905280517ff576ff9ab2b19f86beb41ceead7ab40f8227385341abe8e1735c8f7cddcbc0c99281900390910190a15050565b828054600181600116156101000203166002900490600052602060002090601f016020900481019282601f10620006e257805160ff191683800117855562000712565b8280016001018555821562000712579182015b8281111562000712578251825591602001919060010190620006f5565b506200072092915062000724565b5090565b6200074191905b808211156200072057600081556001016200072b565b90565b611d5080620007546000396000f3fe608060405234801561001057600080fd5b50600436106100f55760003560e01c8063719c0d0411610097578063d5b6076911610066578063d5b6076914610a10578063e581f9ee14610a33578063f0dcb15c14610a3b578063fcf8642e14610adf576100f5565b8063719c0d04146104d75780637649c82a146105735780637b1223f1146106a757806381f1c3bc14610907576100f5565b80633660096b116100d35780633660096b14610261578063454ddc171461026957806362cef8d31461039b5780636920613f146104cf576100f5565b806306ead22e146100fa57806328d888901461021157806335dfc1c31461022b575b600080fd5b6101176004803603602081101561011057600080fd5b5035610c0f565b604051808781526020018060200180602001868152602001858152602001848152602001838103835288818151815260200191508051906020019080838360005b83811015610170578181015183820152602001610158565b50505050905090810190601f16801561019d5780820380516001836020036101000a031916815260200191505b50838103825287518152875160209182019189019080838360005b838110156101d05781810151838201526020016101b8565b50505050905090810190601f1680156101fd5780820380516001836020036101000a031916815260200191505b509850505050505050505060405180910390f35b610219610d5a565b60408051918252519081900360200190f35b6102486004803603602081101561024157600080fd5b5035610d60565b6040805192835260208301919091528051918290030190f35b610219610d79565b6103996004803603606081101561027f57600080fd5b81359190810190604081016020820135600160201b8111156102a057600080fd5b8201836020820111156102b257600080fd5b803590602001918460018302840111600160201b831117156102d357600080fd5b91908080601f0160208091040260200160405190810160405280939291908181526020018383808284376000920191909152509295949360208101935035915050600160201b81111561032557600080fd5b82018360208201111561033757600080fd5b803590602001918460018302840111600160201b8311171561035857600080fd5b91908080601f016020809104026020016040519081016040528093929190818152602001838380828437600092019190915250929550610d7f945050505050565b005b610399600480360360a08110156103b157600080fd5b810190602081018135600160201b8111156103cb57600080fd5b8201836020820111156103dd57600080fd5b803590602001918460018302840111600160201b831117156103fe57600080fd5b91908080601f0160208091040260200160405190810160405280939291908181526020018383808284376000920191909152509295949360208101935035915050600160201b81111561045057600080fd5b82018360208201111561046257600080fd5b803590602001918460018302840111600160201b8311171561048357600080fd5b91908080601f0160208091040260200160405190810160405280939291908181526020018383808284376000920191909152509295505082359350505060208101359060400135610f18565b6102196110e0565b6104f4600480360360208110156104ed57600080fd5b50356110e6565b6040518083815260200180602001828103825283818151815260200191508051906020019080838360005b8381101561053757818101518382015260200161051f565b50505050905090810190601f1680156105645780820380516001836020036101000a031916815260200191505b50935050505060405180910390f35b610219600480360360a081101561058957600080fd5b810190602081018135600160201b8111156105a357600080fd5b8201836020820111156105b557600080fd5b803590602001918460018302840111600160201b831117156105d657600080fd5b91908080601f0160208091040260200160405190810160405280939291908181526020018383808284376000920191909152509295949360208101935035915050600160201b81111561062857600080fd5b82018360208201111561063a57600080fd5b803590602001918460018302840111600160201b8311171561065b57600080fd5b91908080601f016020809104026020016040519081016040528093929190818152602001838380828437600092019190915250929550508235935050506020810135906040013561118d565b6108f360048036036101008110156106be57600080fd5b810190602081018135600160201b8111156106d857600080fd5b8201836020820111156106ea57600080fd5b803590602001918460018302840111600160201b8311171561070b57600080fd5b91908080601f0160208091040260200160405190810160405280939291908181526020018383808284376000920191909152509295949360208101935035915050600160201b81111561075d57600080fd5b82018360208201111561076f57600080fd5b803590602001918460018302840111600160201b8311171561079057600080fd5b91908080601f016020809104026020016040519081016040528093929190818152602001838380828437600092019190915250929584359560208601359560408101359550606081013594509192509060a081019060800135600160201b8111156107fa57600080fd5b82018360208201111561080c57600080fd5b803590602001918460018302840111600160201b8311171561082d57600080fd5b91908080601f0160208091040260200160405190810160405280939291908181526020018383808284376000920191909152509295949360208101935035915050600160201b81111561087f57600080fd5b82018360208201111561089157600080fd5b803590602001918460018302840111600160201b831117156108b257600080fd5b91908080601f016020809104026020016040519081016040528093929190818152602001838380828437600092019190915250929550611539945050505050565b604080519115158252519081900360200190f35b6109246004803603602081101561091d57600080fd5b50356115ea565b604051808581526020018481526020018060200180602001838103835285818151815260200191508051906020019080838360005b83811015610971578181015183820152602001610959565b50505050905090810190601f16801561099e5780820380516001836020036101000a031916815260200191505b50838103825284518152845160209182019186019080838360005b838110156109d15781810151838201526020016109b9565b50505050905090810190601f1680156109fe5780820380516001836020036101000a031916815260200191505b50965050505050505060405180910390f35b61039960048036036040811015610a2657600080fd5b5080359060200135611723565b610219611794565b61039960048036036020811015610a5157600080fd5b810190602081018135600160201b811115610a6b57600080fd5b820183602082011115610a7d57600080fd5b803590602001918460018302840111600160201b83111715610a9e57600080fd5b91908080601f01602080910402602001604051908101604052809392919081815260200183838082843760009201919091525092955061179a945050505050565b61021960048036036060811015610af557600080fd5b81359190810190604081016020820135600160201b811115610b1657600080fd5b820183602082011115610b2857600080fd5b803590602001918460018302840111600160201b83111715610b4957600080fd5b91908080601f0160208091040260200160405190810160405280939291908181526020018383808284376000920191909152509295949360208101935035915050600160201b811115610b9b57600080fd5b820183602082011115610bad57600080fd5b803590602001918460018302840111600160201b83111715610bce57600080fd5b91908080601f01602080910402602001604051908101604052809392919081815260200183838082843760009201919091525092955061188e945050505050565b6005602090815260009182526040918290208054600180830180548651600293821615610100026000190190911692909204601f810186900486028301860190965285825291949293909290830182828015610cac5780601f10610c8157610100808354040283529160200191610cac565b820191906000526020600020905b815481529060010190602001808311610c8f57829003601f168201915b50505060028085018054604080516020601f6000196101006001871615020190941695909504928301859004850281018501909152818152959695945090925090830182828015610d3e5780601f10610d1357610100808354040283529160200191610d3e565b820191906000526020600020905b815481529060010190602001808311610d2157829003601f168201915b5050505050908060030154908060040154908060050154905086565b60025481565b6004602052600090815260409020805460019091015482565b60035481565b6003805460019081019182905560408051608081018252838152602080820188815282840188815260608401889052600096875260078352939095208251815594519385019390935590518051919392610de192600285019290910190611c08565b5060608201518051610dfd916003840191602090910190611c08565b509050507f4bb67cc7a322e0d5bbde9d0537f6617b5b7c633dc500d453215c9a4bb120d9a0600354848484604051808581526020018481526020018060200180602001838103835285818151815260200191508051906020019080838360005b83811015610e75578181015183820152602001610e5d565b50505050905090810190601f168015610ea25780820380516001836020036101000a031916815260200191505b50838103825284518152845160209182019186019080838360005b83811015610ed5578181015183820152602001610ebd565b50505050905090810190601f168015610f025780820380516001836020036101000a031916815260200191505b50965050505050505060405180910390a1505050565b6001805481018082556040805160c08101825282815260208082018a81528284018a9052606083018990526080830188905260a0830187905260009485526005825292909320815181559151805191949293610f7993850192910190611c08565b5060408201518051610f95916002840191602090910190611c08565b50606082015181600301556080820151816004015560a082015181600501559050507fd5aae9288c4c1e3ab2d0455be8d7b1aaa5ed430ec9783c8370982858ef7176616001548686868686604051808781526020018060200180602001868152602001858152602001848152602001838103835288818151815260200191508051906020019080838360005b83811015611039578181015183820152602001611021565b50505050905090810190601f1680156110665780820380516001836020036101000a031916815260200191505b50838103825287518152875160209182019189019080838360005b83811015611099578181015183820152602001611081565b50505050905090810190601f1680156110c65780820380516001836020036101000a031916815260200191505b509850505050505050505060405180910390a15050505050565b60005481565b6006602090815260009182526040918290208054600180830180548651600293821615610100026000190190911692909204601f8101869004860283018601909652858252919492939092908301828280156111835780601f1061115857610100808354040283529160200191611183565b820191906000526020600020905b81548152906001019060200180831161116657829003601f168201915b5050505050905082565b6000611197611c86565b60015b600154811161152957600560008281526020019081526020016000206040518060c001604052908160008201548152602001600182018054600181600116156101000203166002900480601f0160208091040260200160405190810160405280929190818152602001828054600181600116156101000203166002900480156112645780601f1061123957610100808354040283529160200191611264565b820191906000526020600020905b81548152906001019060200180831161124757829003601f168201915b5050509183525050600282810180546040805160206001841615610100026000190190931694909404601f810183900483028501830190915280845293810193908301828280156112f65780601f106112cb576101008083540402835291602001916112f6565b820191906000526020600020905b8154815290600101906020018083116112d957829003601f168201915b50505050508152602001600382015481526020016004820154815260200160058201548152505091508482606001511480156113355750858260800151145b80156113445750838260a00151145b1561152157876040516020018082805190602001908083835b6020831061137c5780518252601f19909201916020918201910161135d565b6001836020036101000a0380198251168184511680821785525050505050509050019150506040516020818303038152906040528051906020012082602001516040516020018082805190602001908083835b602083106113ee5780518252601f1990920191602091820191016113cf565b6001836020036101000a038019825116818451168082178552505050505050905001915050604051602081830303815290604052805190602001201480156115135750866040516020018082805190602001908083835b602083106114645780518252601f199092019160209182019101611445565b6001836020036101000a0380198251168184511680821785525050505050509050019150506040516020818303038152906040528051906020012082604001516040516020018082805190602001908083835b602083106114d65780518252601f1990920191602091820191016114b7565b6001836020036101000a03801982511681845116808217855250505050505090500191505060405160208183030381529060405280519060200120145b156115215791506115309050565b60010161119a565b5060009150505b95945050505050565b60008061154785858561188e565b905060006115588b8b8b8b8b61118d565b9050611562611cbc565b811580159061157057508215155b156115d65760015b60005481116115d45760008181526004602090815260409182902082518084019093528054835260010154908201819052909250831480156115ba5750815184145b156115cc5760019450505050506115de565b600101611578565b505b600093505050505b98975050505050505050565b60076020908152600091825260409182902080546001808301546002808501805488519481161561010002600019011691909104601f8101879004870284018701909752868352929590949192918301828280156116895780601f1061165e57610100808354040283529160200191611689565b820191906000526020600020905b81548152906001019060200180831161166c57829003601f168201915b5050505060038301805460408051602060026001851615610100026000190190941693909304601f81018490048402820184019092528181529495949350908301828280156117195780601f106116ee57610100808354040283529160200191611719565b820191906000526020600020905b8154815290600101906020018083116116fc57829003601f168201915b5050505050905084565b600080546001908101808355604080518082018252868152602080820187815293865260048152948290209051815591519190920155805184815291820183905280517ff576ff9ab2b19f86beb41ceead7ab40f8227385341abe8e1735c8f7cddcbc0c99281900390910190a15050565b60015481565b600280546001908101918290556040805180820182528381526020808201868152600095865260068252929094208151815591518051919492936117e49390850192910190611c08565b509050507f1dd06f65863371f2efae309d05157615ec39458e14e6ab1ffe9def14a480a762600254826040518083815260200180602001828103825283818151815260200191508051906020019080838360005b83811015611850578181015183820152602001611838565b50505050905090810190601f16801561187d5780820380516001836020036101000a031916815260200191505b50935050505060405180910390a150565b6000611898611cd6565b60015b6003548111611bfa57600760008281526020019081526020016000206040518060800160405290816000820154815260200160018201548152602001600282018054600181600116156101000203166002900480601f01602080910402602001604051908101604052809291908181526020018280546001816001161561010002031660029004801561196f5780601f106119445761010080835404028352916020019161196f565b820191906000526020600020905b81548152906001019060200180831161195257829003601f168201915b505050918352505060038201805460408051602060026001851615610100026000190190941693909304601f8101849004840282018401909252818152938201939291830182828015611a035780601f106119d857610100808354040283529160200191611a03565b820191906000526020600020905b8154815290600101906020018083116119e657829003601f168201915b5050505050815250509150846040516020018082805190602001908083835b60208310611a415780518252601f199092019160209182019101611a22565b6001836020036101000a0380198251168184511680821785525050505050509050019150506040516020818303038152906040528051906020012082604001516040516020018082805190602001908083835b60208310611ab35780518252601f199092019160209182019101611a94565b6001836020036101000a03801982511681845116808217855250505050505090500191505060405160208183030381529060405280519060200120148015611bd85750836040516020018082805190602001908083835b60208310611b295780518252601f199092019160209182019101611b0a565b6001836020036101000a0380198251168184511680821785525050505050509050019150506040516020818303038152906040528051906020012082606001516040516020018082805190602001908083835b60208310611b9b5780518252601f199092019160209182019101611b7c565b6001836020036101000a03801982511681845116808217855250505050505090500191505060405160208183030381529060405280519060200120145b15611bf2578582602001511415611bf2579150611c019050565b60010161189b565b5060009150505b9392505050565b828054600181600116156101000203166002900490600052602060002090601f016020900481019282601f10611c4957805160ff1916838001178555611c76565b82800160010185558215611c76579182015b82811115611c76578251825591602001919060010190611c5b565b50611c82929150611cfe565b5090565b6040518060c001604052806000815260200160608152602001606081526020016000815260200160008152602001600081525090565b604051806040016040528060008152602001600081525090565b6040518060800160405280600081526020016000815260200160608152602001606081525090565b611d1891905b80821115611c825760008155600101611d04565b9056fea265627a7a72315820efea5ac7b5d25fed18f62a9006539cc0a68d7ebc5b444565fd7b7e44589aee6e64736f6c63430005100032",
  "source": "pragma solidity ^0.5.16;\n\n\ncontract DiplomaStorage {\n    uint public  diplomaCount = 0;\n    uint public studentCount = 0;\n    uint public schoolCount = 0;\n    uint public degreeCount = 0;\n\n    struct Diploma {\n        uint idDegree;\n        uint idStudent;\n    }\n\n    event DiplomaCreated(\n        uint idDegree,\n        uint idStudent);\n\n    struct School {\n        uint idSchool;\n        string schoolName;\n    }\n\n    event SchoolCreated(\n        uint idSchool,\n        string schoolName);\n\n    struct Degree {\n        uint idDegree;\n        uint year;\n        string nameDegree;\n        string schoolName;\n    }\n\n    event DegreeCreated (\n        uint idDegree,\n        uint year,\n        string nameDegree,\n        string schoolName);\n\n\n    struct Student {\n        uint idStudent;\n        string firstName;\n        string lastName;\n        uint day;\n        uint month;\n        uint year;\n    }\n\n    event StudentCreated(\n        uint idStudent,\n        string firstName,\n        string lastName,\n        uint day,\n        uint month,\n        uint year);\n\n\n\n    mapping(uint => Diploma) public diplomas;\n\n    mapping(uint => Student) public students;\n\n    mapping(uint => School) public schools;\n\n    mapping(uint => Degree) public degrees;\n\n\n\n    constructor() public {\n        createStudent(\"Rudy\", \"Deflisque\", 8, 7, 1999);\n        createStudent(\"Pierre\", \"Lourdelet\", 28, 4, 1999);\n        createStudent(\"Noheila\", \"Lurot\", 16, 8, 1999);\n\n        createDegree(2022,\"Ing\",\"TSP\");\n\n        createSchool(\"TSP\");\n\n        createDiploma(1,3);\n\n\n\n    }\n\n    function createDiploma(uint _idDegree, uint  _idStudent) public {\n        //si il existe un etudiant et une cole avec ces id (peut etre ecrire des fonction pour vrifier ca histoire de garder un code lisible)\n            diplomaCount ++;\n            diplomas[diplomaCount] = Diploma(_idDegree,_idStudent);\n            emit DiplomaCreated(_idDegree,_idStudent);\n        //sinon erreur\n    }\n\n    function createStudent(string memory _firstName, string memory _lastName, uint _day, uint _month, uint _year) public {\n        //si l'etudiant n'existe pas encore\n            studentCount ++;\n            students[studentCount] = Student(studentCount, _firstName, _lastName, _day, _month, _year);\n            emit StudentCreated(studentCount,_firstName,_lastName, _day, _month, _year);\n        //sinon erreur\n    }\n\n    function createSchool(string memory _schoolName) public {\n        //si l'ecole n'existe pas encore\n            schoolCount ++;\n            schools[schoolCount] = School(schoolCount,_schoolName);\n            emit SchoolCreated(schoolCount,_schoolName);\n        //sinon erreur\n    }\n\n    function createDegree(uint _year,string memory _nameDegree, string memory _schoolName) public {\n        degreeCount ++;\n        degrees[degreeCount] = Degree(degreeCount, _year,_nameDegree, _schoolName);\n        emit DegreeCreated(degreeCount, _year,_nameDegree,_schoolName);\n    }\n\n\n    //TODO \n    /**\n    Ecrire des fonction qui disent si l'objet existe\n\n    C'est  dire on entre les caracteristiques de l'objet cherch et la fonction renvoie un uint \n    0 si l'objet existe pas\n    Son id si il existe\n    ATTENTION les ids commencent  1\n\n    faire pour School\n    \n     */\n     \n     \n\n    function checkStudent(string memory _firstName, string memory _lastName, uint _month, uint _day,uint _year) public view returns(uint){\n        Student memory stu;\n        for (uint i = 1; i <= studentCount; i++){\n            stu=students[i];\n            if(stu.day == _day && stu.month == _month && stu.year ==_year){  \n                if(keccak256(abi.encodePacked(stu.firstName)) == keccak256(abi.encodePacked(_firstName)) && keccak256(abi.encodePacked(stu.lastName)) == keccak256(abi.encodePacked(_lastName))){\n                    return(i);\n                }\n            }\n        }\n        return(0);\n    }\n    \n    \n    function checkDegree(uint _year, string memory _nameDegree, string memory _schoolName) public view returns (uint){\n        Degree memory deg;\n        for (uint i = 1; i<= degreeCount; i++){\n            deg = degrees[i];\n            if(keccak256(abi.encodePacked(deg.nameDegree)) == keccak256(abi.encodePacked(_nameDegree)) && keccak256(abi.encodePacked(deg.schoolName)) == keccak256(abi.encodePacked(_schoolName))){\n                if(deg.year == _year){\n                    return(i);\n                }\n            }\n        }\n        return(0);\n    }\n\n\n\n\n\n   \n\n    function checkDiploma(string memory _firstName, string memory _lastName,uint _month ,uint _day,uint _sYear,uint _dYear,string memory _nameDegree, string memory _schoolName) public view returns(bool) {\n        uint degreeId = checkDegree(_dYear, _nameDegree,_schoolName);\n        uint studentId = checkStudent(_firstName,_lastName,_month,_day,_sYear);\n        \n        Diploma memory dip;\n\n        // Si l'eleve et le diplome exitent on va vrifier si il existe une telle association\n        if(studentId != 0 && degreeId != 0){\n            for(uint k = 1; k <= diplomaCount;k++){\n                dip = diplomas[k];\n                if (dip.idStudent == studentId && dip.idDegree == degreeId){\n                    return true;\n                }\n            }\n        }\n        return false;\n\n        \n    \n    }\n}\n",
  "sourcePath": "/home/ubuntu/Documents/BC_Projects/OPPO-DS/contracts/DiplomaStorage.sol",
  "compiler": {
    "name": "solc",
    "version": "0.5.16+commit.9c3226ce.Emscripten.clang"
  },
  "schemaVersion": "3.0.23",
  "updatedAt": "2020-03-27T21:11:57.256Z",
  "networkType": "ethereum",
  "devdoc": {
    "methods": {}
  },
  "userdoc": {
    "methods": {
      "checkStudent(string,string,uint256,uint256,uint256)": {
        "notice": "Ecrire des fonction qui disent si l'objet existe C'est  dire on entre les caracteristiques de l'objet cherch et la fonction renvoie un uint  0 si l'objet existe pas Son id si il existe ATTENTION les ids commencent  1 faire pour School"
      }
    }
  }
}