{
  "contractName": "DiplomaStorage",
  "abi": [
    {
      "inputs": [],
      "payable": false,
      "stateMutability": "nonpayable",
      "type": "constructor"
    },
    {
      "anonymous": false,
      "inputs": [
        {
          "indexed": false,
          "internalType": "uint256",
          "name": "idDegree",
          "type": "uint256"
        },
        {
          "indexed": false,
          "internalType": "uint256",
          "name": "year",
          "type": "uint256"
        },
        {
          "indexed": false,
          "internalType": "string",
          "name": "nameDegree",
          "type": "string"
        },
        {
          "indexed": false,
          "internalType": "string",
          "name": "schoolName",
          "type": "string"
        }
      ],
      "name": "DegreeCreated",
      "type": "event"
    },
    {
      "anonymous": false,
      "inputs": [
        {
          "indexed": false,
          "internalType": "uint256",
          "name": "idDegree",
          "type": "uint256"
        },
        {
          "indexed": false,
          "internalType": "uint256",
          "name": "idStudent",
          "type": "uint256"
        }
      ],
      "name": "DiplomaCreated",
      "type": "event"
    },
    {
      "anonymous": false,
      "inputs": [
        {
          "indexed": false,
          "internalType": "address",
          "name": "schoolAdress",
          "type": "address"
        },
        {
          "indexed": false,
          "internalType": "uint256",
          "name": "idSchool",
          "type": "uint256"
        },
        {
          "indexed": false,
          "internalType": "string",
          "name": "schoolName",
          "type": "string"
        }
      ],
      "name": "SchoolCreated",
      "type": "event"
    },
    {
      "anonymous": false,
      "inputs": [
        {
          "indexed": false,
          "internalType": "uint256",
          "name": "idStudent",
          "type": "uint256"
        },
        {
          "indexed": false,
          "internalType": "string",
          "name": "firstName",
          "type": "string"
        },
        {
          "indexed": false,
          "internalType": "string",
          "name": "lastName",
          "type": "string"
        },
        {
          "indexed": false,
          "internalType": "uint256",
          "name": "birth",
          "type": "uint256"
        }
      ],
      "name": "StudentCreated",
      "type": "event"
    },
    {
      "constant": true,
      "inputs": [],
      "name": "degreeCount",
      "outputs": [
        {
          "internalType": "uint256",
          "name": "",
          "type": "uint256"
        }
      ],
      "payable": false,
      "stateMutability": "view",
      "type": "function"
    },
    {
      "constant": true,
      "inputs": [
        {
          "internalType": "uint256",
          "name": "",
          "type": "uint256"
        }
      ],
      "name": "degrees",
      "outputs": [
        {
          "internalType": "uint256",
          "name": "idDegree",
          "type": "uint256"
        },
        {
          "internalType": "uint256",
          "name": "year",
          "type": "uint256"
        },
        {
          "internalType": "string",
          "name": "nameDegree",
          "type": "string"
        },
        {
          "internalType": "string",
          "name": "schoolName",
          "type": "string"
        }
      ],
      "payable": false,
      "stateMutability": "view",
      "type": "function"
    },
    {
      "constant": true,
      "inputs": [],
      "name": "diplomaCount",
      "outputs": [
        {
          "internalType": "uint256",
          "name": "",
          "type": "uint256"
        }
      ],
      "payable": false,
      "stateMutability": "view",
      "type": "function"
    },
    {
      "constant": true,
      "inputs": [
        {
          "internalType": "uint256",
          "name": "",
          "type": "uint256"
        }
      ],
      "name": "diplomas",
      "outputs": [
        {
          "internalType": "uint256",
          "name": "idDegree",
          "type": "uint256"
        },
        {
          "internalType": "uint256",
          "name": "idStudent",
          "type": "uint256"
        }
      ],
      "payable": false,
      "stateMutability": "view",
      "type": "function"
    },
    {
      "constant": true,
      "inputs": [],
      "name": "schoolCount",
      "outputs": [
        {
          "internalType": "uint256",
          "name": "",
          "type": "uint256"
        }
      ],
      "payable": false,
      "stateMutability": "view",
      "type": "function"
    },
    {
      "constant": true,
      "inputs": [
        {
          "internalType": "uint256",
          "name": "",
          "type": "uint256"
        }
      ],
      "name": "schools",
      "outputs": [
        {
          "internalType": "address",
          "name": "schoolAdress",
          "type": "address"
        },
        {
          "internalType": "uint256",
          "name": "idSchool",
          "type": "uint256"
        },
        {
          "internalType": "string",
          "name": "schoolName",
          "type": "string"
        }
      ],
      "payable": false,
      "stateMutability": "view",
      "type": "function"
    },
    {
      "constant": true,
      "inputs": [],
      "name": "studentCount",
      "outputs": [
        {
          "internalType": "uint256",
          "name": "",
          "type": "uint256"
        }
      ],
      "payable": false,
      "stateMutability": "view",
      "type": "function"
    },
    {
      "constant": true,
      "inputs": [
        {
          "internalType": "uint256",
          "name": "",
          "type": "uint256"
        }
      ],
      "name": "students",
      "outputs": [
        {
          "internalType": "uint256",
          "name": "idStudent",
          "type": "uint256"
        },
        {
          "internalType": "string",
          "name": "firstName",
          "type": "string"
        },
        {
          "internalType": "string",
          "name": "lastName",
          "type": "string"
        },
        {
          "internalType": "uint256",
          "name": "birth",
          "type": "uint256"
        }
      ],
      "payable": false,
      "stateMutability": "view",
      "type": "function"
    },
    {
      "constant": false,
      "inputs": [
        {
          "internalType": "string",
          "name": "_firstName",
          "type": "string"
        },
        {
          "internalType": "string",
          "name": "_lastName",
          "type": "string"
        },
        {
          "internalType": "uint256",
          "name": "_birth",
          "type": "uint256"
        },
        {
          "internalType": "uint256",
          "name": "_dYear",
          "type": "uint256"
        },
        {
          "internalType": "string",
          "name": "_nameDegree",
          "type": "string"
        },
        {
          "internalType": "string",
          "name": "_schoolName",
          "type": "string"
        }
      ],
      "name": "createDiplomaHL",
      "outputs": [
        {
          "internalType": "bool",
          "name": "",
          "type": "bool"
        }
      ],
      "payable": false,
      "stateMutability": "nonpayable",
      "type": "function"
    },
    {
      "constant": false,
      "inputs": [
        {
          "internalType": "string",
          "name": "_firstName",
          "type": "string"
        },
        {
          "internalType": "string",
          "name": "_lastName",
          "type": "string"
        },
        {
          "internalType": "uint256",
          "name": "_birth",
          "type": "uint256"
        }
      ],
      "name": "createStudent",
      "outputs": [],
      "payable": false,
      "stateMutability": "nonpayable",
      "type": "function"
    },
    {
      "constant": false,
      "inputs": [
        {
          "internalType": "address",
          "name": "_schoolAdress",
          "type": "address"
        },
        {
          "internalType": "string",
          "name": "_schoolName",
          "type": "string"
        }
      ],
      "name": "createSchool",
      "outputs": [],
      "payable": false,
      "stateMutability": "nonpayable",
      "type": "function"
    },
    {
      "constant": false,
      "inputs": [
        {
          "internalType": "uint256",
          "name": "_year",
          "type": "uint256"
        },
        {
          "internalType": "string",
          "name": "_nameDegree",
          "type": "string"
        },
        {
          "internalType": "string",
          "name": "_schoolName",
          "type": "string"
        }
      ],
      "name": "createDegree",
      "outputs": [],
      "payable": false,
      "stateMutability": "nonpayable",
      "type": "function"
    },
    {
      "constant": true,
      "inputs": [
        {
          "internalType": "string",
          "name": "_firstName",
          "type": "string"
        },
        {
          "internalType": "string",
          "name": "_lastName",
          "type": "string"
        },
        {
          "internalType": "uint256",
          "name": "_birth",
          "type": "uint256"
        }
      ],
      "name": "checkStudent",
      "outputs": [
        {
          "internalType": "uint256",
          "name": "",
          "type": "uint256"
        }
      ],
      "payable": false,
      "stateMutability": "view",
      "type": "function"
    },
    {
      "constant": true,
      "inputs": [
        {
          "internalType": "uint256",
          "name": "_year",
          "type": "uint256"
        },
        {
          "internalType": "string",
          "name": "_nameDegree",
          "type": "string"
        },
        {
          "internalType": "string",
          "name": "_schoolName",
          "type": "string"
        }
      ],
      "name": "checkDegree",
      "outputs": [
        {
          "internalType": "uint256",
          "name": "",
          "type": "uint256"
        }
      ],
      "payable": false,
      "stateMutability": "view",
      "type": "function"
    },
    {
      "constant": true,
      "inputs": [
        {
          "internalType": "string",
          "name": "_firstName",
          "type": "string"
        },
        {
          "internalType": "string",
          "name": "_lastName",
          "type": "string"
        },
        {
          "internalType": "uint256",
          "name": "_birth",
          "type": "uint256"
        },
        {
          "internalType": "uint256",
          "name": "_dYear",
          "type": "uint256"
        },
        {
          "internalType": "string",
          "name": "_nameDegree",
          "type": "string"
        },
        {
          "internalType": "string",
          "name": "_schoolName",
          "type": "string"
        }
      ],
      "name": "checkDiploma",
      "outputs": [
        {
          "internalType": "bool",
          "name": "",
          "type": "bool"
        }
      ],
      "payable": false,
      "stateMutability": "view",
      "type": "function"
    }
  ],
  "bytecode": "0x6080604052600080556000600155600060025560006003553480156200002457600080fd5b5062000078604051806040016040528060048152602001635275647960e01b815250604051806040016040528060098152602001684465666c697371756560b81b815250627b2b3d6200029260201b60201c565b620000ce6040518060400160405280600681526020016550696572726560d01b81525060405180604001604052806009815260200168131bdd5c99195b195d60ba1b8152506301abe30f6200029260201b60201c565b62000120604051806040016040528060078152602001664e6f6865696c6160c81b81525060405180604001604052806005815260200164131d5c9bdd60da1b81525062f5644f6200029260201b60201c565b6200016d6107e660405180604001604052806005815260200164496e67c3a960d81b8152506040518060400160405280600381526020016205453560ec1b8152506200043060201b60201c565b620001d46107e760405180604001604052806005815260200164496e67c3a960d81b8152506040518060400160405280601681526020017f41727473206574204dc3a97469657273204c696c6c65000000000000000000008152506200043060201b60201c565b62000201336040518060400160405280600381526020016205453560ec1b8152506200058c60201b60201c565b62000248336040518060400160405280601681526020017f41727473206574204dc3a97469657273204c696c6c65000000000000000000008152506200058c60201b60201c565b6200025f600260036001600160e01b03620006c916565b620002756001806001600160e01b03620006c916565b6200028c600160026001600160e01b03620006c916565b620007df565b6001805481018082556040805160808101825282815260208082018881528284018890526060830187905260009485526005825292909320815181559151805191949293620002e7938501929101906200073a565b5060408201518051620003059160028401916020909101906200073a565b50606082015181600301559050507fea32bbd049e5fc72d393e36d3703e8d9197960ea927b38b6f59f65e9b7f96c73600154848484604051808581526020018060200180602001848152602001838103835286818151815260200191508051906020019080838360005b83811015620003895781810151838201526020016200036f565b50505050905090810190601f168015620003b75780820380516001836020036101000a031916815260200191505b50838103825285518152855160209182019187019080838360005b83811015620003ec578181015183820152602001620003d2565b50505050905090810190601f1680156200041a5780820380516001836020036101000a031916815260200191505b50965050505050505060405180910390a1505050565b600380546001908101918290556040805160808101825283815260208082018881528284018881526060840188905260009687526007835293909520825181559451938501939093559051805191939262000494926002850192909101906200073a565b5060608201518051620004b29160038401916020909101906200073a565b509050507f4bb67cc7a322e0d5bbde9d0537f6617b5b7c633dc500d453215c9a4bb120d9a0600354848484604051808581526020018481526020018060200180602001838103835285818151815260200191508051906020019080838360005b838110156200052c57818101518382015260200162000512565b50505050905090810190601f1680156200055a5780820380516001836020036101000a031916815260200191505b50838103825284518152845160209182019186019080838360008315620003ec578181015183820152602001620003d2565b600280546001908101808355604080516060810182526001600160a01b038781168252602080830185815283850189815260009687526006835294909520835181546001600160a01b03191693169290921782559351948101949094559051805191946200060193908501929101906200073a565b509050507ffac1cccae9509eccf1a5a98fa0bd350356789eaaba2b19622580acf8ca9ded32826002548360405180846001600160a01b03166001600160a01b0316815260200183815260200180602001828103825283818151815260200191508051906020019080838360005b83811015620006885781810151838201526020016200066e565b50505050905090810190601f168015620006b65780820380516001836020036101000a031916815260200191505b5094505050505060405180910390a15050565b600080546001908101808355604080518082018252868152602080820187815293865260048152948290209051815591519190920155805184815291820183905280517ff576ff9ab2b19f86beb41ceead7ab40f8227385341abe8e1735c8f7cddcbc0c99281900390910190a15050565b828054600181600116156101000203166002900490600052602060002090601f016020900481019282601f106200077d57805160ff1916838001178555620007ad565b82800160010185558215620007ad579182015b82811115620007ad57825182559160200191906001019062000790565b50620007bb929150620007bf565b5090565b620007dc91905b80821115620007bb5760008155600101620007c6565b90565b611ef780620007ef6000396000f3fe608060405234801561001057600080fd5b50600436106100f55760003560e01c80636920613f11610097578063926167c811610066578063926167c8146109ba5780639cddb7c014610bf9578063e581f9ee14610cad578063fcf8642e14610cb5576100f5565b80636920613f1461070b578063719c0d041461071357806381f1c3bc146107c85780639134e1db1461088f576100f5565b806335dfc1c3116100d357806335dfc1c3146103485780633660096b1461037e578063454ddc17146103865780634c0e81d0146104b8576100f5565b806306ead22e146100fa578063172234501461020357806328d8889014610340575b600080fd5b6101176004803603602081101561011057600080fd5b5035610de5565b604051808581526020018060200180602001848152602001838103835286818151815260200191508051906020019080838360005b8381101561016457818101518382015260200161014c565b50505050905090810190601f1680156101915780820380516001836020036101000a031916815260200191505b50838103825285518152855160209182019187019080838360005b838110156101c45781810151838201526020016101ac565b50505050905090810190601f1680156101f15780820380516001836020036101000a031916815260200191505b50965050505050505060405180910390f35b61032e6004803603606081101561021957600080fd5b810190602081018135600160201b81111561023357600080fd5b82018360208201111561024557600080fd5b803590602001918460018302840111600160201b8311171561026657600080fd5b91908080601f0160208091040260200160405190810160405280939291908181526020018383808284376000920191909152509295949360208101935035915050600160201b8111156102b857600080fd5b8201836020820111156102ca57600080fd5b803590602001918460018302840111600160201b831117156102eb57600080fd5b91908080601f0160208091040260200160405190810160405280939291908181526020018383808284376000920191909152509295505091359250610f24915050565b60408051918252519081900360200190f35b61032e61129c565b6103656004803603602081101561035e57600080fd5b50356112a2565b6040805192835260208301919091528051918290030190f35b61032e6112bb565b6104b66004803603606081101561039c57600080fd5b81359190810190604081016020820135600160201b8111156103bd57600080fd5b8201836020820111156103cf57600080fd5b803590602001918460018302840111600160201b831117156103f057600080fd5b91908080601f0160208091040260200160405190810160405280939291908181526020018383808284376000920191909152509295949360208101935035915050600160201b81111561044257600080fd5b82018360208201111561045457600080fd5b803590602001918460018302840111600160201b8311171561047557600080fd5b91908080601f0160208091040260200160405190810160405280939291908181526020018383808284376000920191909152509295506112c1945050505050565b005b6106f7600480360360c08110156104ce57600080fd5b810190602081018135600160201b8111156104e857600080fd5b8201836020820111156104fa57600080fd5b803590602001918460018302840111600160201b8311171561051b57600080fd5b91908080601f0160208091040260200160405190810160405280939291908181526020018383808284376000920191909152509295949360208101935035915050600160201b81111561056d57600080fd5b82018360208201111561057f57600080fd5b803590602001918460018302840111600160201b831117156105a057600080fd5b91908080601f0160208091040260200160405190810160405280939291908181526020018383808284376000920191909152509295843595602086013595919450925060608101915060400135600160201b8111156105fe57600080fd5b82018360208201111561061057600080fd5b803590602001918460018302840111600160201b8311171561063157600080fd5b91908080601f0160208091040260200160405190810160405280939291908181526020018383808284376000920191909152509295949360208101935035915050600160201b81111561068357600080fd5b82018360208201111561069557600080fd5b803590602001918460018302840111600160201b831117156106b657600080fd5b91908080601f01602080910402602001604051908101604052809392919081815260200183838082843760009201919091525092955061145a945050505050565b604080519115158252519081900360200190f35b61032e611507565b6107306004803603602081101561072957600080fd5b503561150d565b60405180846001600160a01b03166001600160a01b0316815260200183815260200180602001828103825283818151815260200191508051906020019080838360005b8381101561078b578181015183820152602001610773565b50505050905090810190601f1680156107b85780820380516001836020036101000a031916815260200191505b5094505050505060405180910390f35b6107e5600480360360208110156107de57600080fd5b50356115c3565b604051808581526020018481526020018060200180602001838103835285818151815260200191508051906020019080838360005b8381101561083257818101518382015260200161081a565b50505050905090810190601f16801561085f5780820380516001836020036101000a031916815260200191505b508381038252845181528451602091820191860190808383600083156101c45781810151838201526020016101ac565b6104b6600480360360608110156108a557600080fd5b810190602081018135600160201b8111156108bf57600080fd5b8201836020820111156108d157600080fd5b803590602001918460018302840111600160201b831117156108f257600080fd5b91908080601f0160208091040260200160405190810160405280939291908181526020018383808284376000920191909152509295949360208101935035915050600160201b81111561094457600080fd5b82018360208201111561095657600080fd5b803590602001918460018302840111600160201b8311171561097757600080fd5b91908080601f01602080910402602001604051908101604052809392919081815260200183838082843760009201919091525092955050913592506116fc915050565b6106f7600480360360c08110156109d057600080fd5b810190602081018135600160201b8111156109ea57600080fd5b8201836020820111156109fc57600080fd5b803590602001918460018302840111600160201b83111715610a1d57600080fd5b91908080601f0160208091040260200160405190810160405280939291908181526020018383808284376000920191909152509295949360208101935035915050600160201b811115610a6f57600080fd5b820183602082011115610a8157600080fd5b803590602001918460018302840111600160201b83111715610aa257600080fd5b91908080601f0160208091040260200160405190810160405280939291908181526020018383808284376000920191909152509295843595602086013595919450925060608101915060400135600160201b811115610b0057600080fd5b820183602082011115610b1257600080fd5b803590602001918460018302840111600160201b83111715610b3357600080fd5b91908080601f0160208091040260200160405190810160405280939291908181526020018383808284376000920191909152509295949360208101935035915050600160201b811115610b8557600080fd5b820183602082011115610b9757600080fd5b803590602001918460018302840111600160201b83111715610bb857600080fd5b91908080601f01602080910402602001604051908101604052809392919081815260200183838082843760009201919091525092955061184a945050505050565b6104b660048036036040811015610c0f57600080fd5b6001600160a01b038235169190810190604081016020820135600160201b811115610c3957600080fd5b820183602082011115610c4b57600080fd5b803590602001918460018302840111600160201b83111715610c6c57600080fd5b91908080601f0160208091040260200160405190810160405280939291908181526020018383808284376000920191909152509295506118a2945050505050565b61032e6119da565b61032e60048036036060811015610ccb57600080fd5b81359190810190604081016020820135600160201b811115610cec57600080fd5b820183602082011115610cfe57600080fd5b803590602001918460018302840111600160201b83111715610d1f57600080fd5b91908080601f0160208091040260200160405190810160405280939291908181526020018383808284376000920191909152509295949360208101935035915050600160201b811115610d7157600080fd5b820183602082011115610d8357600080fd5b803590602001918460018302840111600160201b83111715610da457600080fd5b91908080601f0160208091040260200160405190810160405280939291908181526020018383808284376000920191909152509295506119e0945050505050565b6005602090815260009182526040918290208054600180830180548651600293821615610100026000190190911692909204601f810186900486028301860190965285825291949293909290830182828015610e825780601f10610e5757610100808354040283529160200191610e82565b820191906000526020600020905b815481529060010190602001808311610e6557829003601f168201915b50505060028085018054604080516020601f6000196101006001871615020190941695909504928301859004850281018501909152818152959695945090925090830182828015610f145780601f10610ee957610100808354040283529160200191610f14565b820191906000526020600020905b815481529060010190602001808311610ef757829003601f168201915b5050505050908060030154905084565b6000610f2e611dbd565b60015b600154811161128e576005600082815260200190815260200160002060405180608001604052908160008201548152602001600182018054600181600116156101000203166002900480601f016020809104026020016040519081016040528092919081815260200182805460018160011615610100020316600290048015610ffb5780601f10610fd057610100808354040283529160200191610ffb565b820191906000526020600020905b815481529060010190602001808311610fde57829003601f168201915b5050509183525050600282810180546040805160206001841615610100026000190190931694909404601f8101839004830285018301909152808452938101939083018282801561108d5780601f106110625761010080835404028352916020019161108d565b820191906000526020600020905b81548152906001019060200180831161107057829003601f168201915b505050505081526020016003820154815250509150838260600151141561128657856040516020018082805190602001908083835b602083106110e15780518252601f1990920191602091820191016110c2565b6001836020036101000a0380198251168184511680821785525050505050509050019150506040516020818303038152906040528051906020012082602001516040516020018082805190602001908083835b602083106111535780518252601f199092019160209182019101611134565b6001836020036101000a038019825116818451168082178552505050505050905001915050604051602081830303815290604052805190602001201480156112785750846040516020018082805190602001908083835b602083106111c95780518252601f1990920191602091820191016111aa565b6001836020036101000a0380198251168184511680821785525050505050509050019150506040516020818303038152906040528051906020012082604001516040516020018082805190602001908083835b6020831061123b5780518252601f19909201916020918201910161121c565b6001836020036101000a03801982511681845116808217855250505050505090500191505060405160208183030381529060405280519060200120145b156112865791506112959050565b600101610f31565b5060009150505b9392505050565b60025481565b6004602052600090815260409020805460019091015482565b60035481565b600380546001908101918290556040805160808101825283815260208082018881528284018881526060840188905260009687526007835293909520825181559451938501939093559051805191939261132392600285019290910190611de5565b506060820151805161133f916003840191602090910190611de5565b509050507f4bb67cc7a322e0d5bbde9d0537f6617b5b7c633dc500d453215c9a4bb120d9a0600354848484604051808581526020018481526020018060200180602001838103835285818151815260200191508051906020019080838360005b838110156113b757818101518382015260200161139f565b50505050905090810190601f1680156113e45780820380516001836020036101000a031916815260200191505b50838103825284518152845160209182019186019080838360005b838110156114175781810151838201526020016113ff565b50505050905090810190601f1680156114445780820380516001836020036101000a031916815260200191505b50965050505050505060405180910390a1505050565b6000806114688585856119e0565b90506000611477898989610f24565b9050611481611e63565b811580159061148f57508215155b156114f55760015b60005481116114f35760008181526004602090815260409182902082518084019093528054835260010154908201819052909250831480156114d95750815184145b156114eb5760019450505050506114fd565b600101611497565b505b600093505050505b9695505050505050565b60005481565b60066020908152600091825260409182902080546001808301546002808501805488516101009582161595909502600019011691909104601f81018790048702840187019097528683526001600160a01b039093169590949192918301828280156115b95780601f1061158e576101008083540402835291602001916115b9565b820191906000526020600020905b81548152906001019060200180831161159c57829003601f168201915b5050505050905083565b60076020908152600091825260409182902080546001808301546002808501805488519481161561010002600019011691909104601f8101879004870284018701909752868352929590949192918301828280156116625780601f1061163757610100808354040283529160200191611662565b820191906000526020600020905b81548152906001019060200180831161164557829003601f168201915b5050505060038301805460408051602060026001851615610100026000190190941693909304601f81018490048402820184019092528181529495949350908301828280156116f25780601f106116c7576101008083540402835291602001916116f2565b820191906000526020600020905b8154815290600101906020018083116116d557829003601f168201915b5050505050905084565b600180548101808255604080516080810182528281526020808201888152828401889052606083018790526000948552600582529290932081518155915180519194929361174f93850192910190611de5565b506040820151805161176b916002840191602090910190611de5565b50606082015181600301559050507fea32bbd049e5fc72d393e36d3703e8d9197960ea927b38b6f59f65e9b7f96c73600154848484604051808581526020018060200180602001848152602001838103835286818151815260200191508051906020019080838360005b838110156117ed5781810151838201526020016117d5565b50505050905090810190601f16801561181a5780820380516001836020036101000a031916815260200191505b508381038252855181528551602091820191870190808383600083156114175781810151838201526020016113ff565b600080611858888888610f24565b905060006118678686866119e0565b905081611879576118798989896116fc565b80611889576000925050506114fd565b6118938183611d4c565b50600198975050505050505050565b600280546001908101808355604080516060810182526001600160a01b038781168252602080830185815283850189815260009687526006835294909520835181546001600160a01b03191693169290921782559351948101949094559051805191946119159390850192910190611de5565b509050507ffac1cccae9509eccf1a5a98fa0bd350356789eaaba2b19622580acf8ca9ded32826002548360405180846001600160a01b03166001600160a01b0316815260200183815260200180602001828103825283818151815260200191508051906020019080838360005b8381101561199a578181015183820152602001611982565b50505050905090810190601f1680156119c75780820380516001836020036101000a031916815260200191505b5094505050505060405180910390a15050565b60015481565b60006119ea611e7d565b60015b600354811161128e57600760008281526020019081526020016000206040518060800160405290816000820154815260200160018201548152602001600282018054600181600116156101000203166002900480601f016020809104026020016040519081016040528092919081815260200182805460018160011615610100020316600290048015611ac15780601f10611a9657610100808354040283529160200191611ac1565b820191906000526020600020905b815481529060010190602001808311611aa457829003601f168201915b505050918352505060038201805460408051602060026001851615610100026000190190941693909304601f8101849004840282018401909252818152938201939291830182828015611b555780601f10611b2a57610100808354040283529160200191611b55565b820191906000526020600020905b815481529060010190602001808311611b3857829003601f168201915b5050505050815250509150846040516020018082805190602001908083835b60208310611b935780518252601f199092019160209182019101611b74565b6001836020036101000a0380198251168184511680821785525050505050509050019150506040516020818303038152906040528051906020012082604001516040516020018082805190602001908083835b60208310611c055780518252601f199092019160209182019101611be6565b6001836020036101000a03801982511681845116808217855250505050505090500191505060405160208183030381529060405280519060200120148015611d2a5750836040516020018082805190602001908083835b60208310611c7b5780518252601f199092019160209182019101611c5c565b6001836020036101000a0380198251168184511680821785525050505050509050019150506040516020818303038152906040528051906020012082606001516040516020018082805190602001908083835b60208310611ced5780518252601f199092019160209182019101611cce565b6001836020036101000a03801982511681845116808217855250505050505090500191505060405160208183030381529060405280519060200120145b15611d44578582602001511415611d445791506112959050565b6001016119ed565b600080546001908101808355604080518082018252868152602080820187815293865260048152948290209051815591519190920155805184815291820183905280517ff576ff9ab2b19f86beb41ceead7ab40f8227385341abe8e1735c8f7cddcbc0c99281900390910190a15050565b6040518060800160405280600081526020016060815260200160608152602001600081525090565b828054600181600116156101000203166002900490600052602060002090601f016020900481019282601f10611e2657805160ff1916838001178555611e53565b82800160010185558215611e53579182015b82811115611e53578251825591602001919060010190611e38565b50611e5f929150611ea5565b5090565b604051806040016040528060008152602001600081525090565b6040518060800160405280600081526020016000815260200160608152602001606081525090565b611ebf91905b80821115611e5f5760008155600101611eab565b9056fea265627a7a723158201da4c5a6f0664af4e8aab162d1107b272cc41009ce584c089ab3325b3ac8d41d64736f6c63430005100032",
  "source": "pragma solidity ^0.5.16;\n\n\ncontract DiplomaStorage {\n    uint public  diplomaCount = 0;\n    uint public studentCount = 0;\n    uint public schoolCount = 0;\n    uint public degreeCount = 0;\n\n\n    //Association entre un lve et un diplome (c'est comme a qu'on descerne le diplome)\n    struct Diploma {\n        uint idDegree;\n        uint idStudent;\n    }\n\n    event DiplomaCreated(\n        uint idDegree,\n        uint idStudent);\n\n    \n    //Ecole avec l'adresse ayant le droit de descerner les diplomes\n    struct School {\n        address schoolAdress;\n        uint idSchool;\n        string schoolName;\n    }\n\n    event SchoolCreated(\n        address schoolAdress,\n        uint idSchool,\n        string schoolName);\n\n    //Diplome (un diplome different par promotion)\n    struct Degree {\n        uint idDegree;\n        uint year;\n        string nameDegree;\n        string schoolName;\n    }\n\n    event DegreeCreated (\n        uint idDegree,\n        uint year,\n        string nameDegree,\n        string schoolName);\n\n    //Elve dfini par Nom Prenom et date de naissance (on pourrai rajouter des champs  terme)\n    struct Student {\n        uint idStudent;\n        string firstName;\n        string lastName;\n        uint birth;\n    }\n\n    event StudentCreated(\n        uint idStudent,\n        string firstName,\n        string lastName,\n        uint birth);\n\n\n\n    mapping(uint => Diploma) public diplomas;\n\n    mapping(uint => Student) public students;\n\n    mapping(uint => School) public schools;\n\n    mapping(uint => Degree) public degrees;\n\n\n\n    constructor() public {\n        createStudent(\"Rudy\", \"Deflisque\", 8071997);\n        createStudent(\"Pierre\", \"Lourdelet\", 28041999);\n        createStudent(\"Noheila\", \"Lurot\", 16081999);\n\n        createDegree(2022,\"Ing\",\"TSP\");\n        createDegree(2023,\"Ing\",\"Arts et Mtiers Lille\");\n\n        createSchool(msg.sender,\"TSP\");\n        createSchool(msg.sender,\"Arts et Mtiers Lille\");\n\n        createDiplomaLL(2,3);\n        createDiplomaLL(1,1);\n        createDiplomaLL(1,2);\n    }\n\n\n    //fonction pour descerner des diplomes assez bas niveau (Il faut connaitre l'id de l'leve et du diplome que l'on veut descerner)\n    \n    function createDiplomaLL(uint _idDegree, uint  _idStudent) internal {\n        //si il existe un etudiant et une cole avec ces id (peut etre ecrire des fonction pour vrifier ca histoire de garder un code lisible)\n            diplomaCount ++;\n            diplomas[diplomaCount] = Diploma(_idDegree,_idStudent);\n            emit DiplomaCreated(_idDegree,_idStudent);\n        //sinon erreur\n    }\n    \n    //fonction plus haut niveau\n    \n    function createDiplomaHL(string memory _firstName, string memory _lastName,uint _birth,uint _dYear,string memory _nameDegree, string memory _schoolName) public returns(bool){\n        uint idS = checkStudent(_firstName,_lastName,_birth);\n        uint idD = checkDegree(_dYear,_nameDegree,_schoolName);\n        \n        //Si l'elve n'existe pas on le cree\n        if(idS == 0){\n            createStudent(_firstName,_lastName,_birth);\n        }\n        \n        //Si le diplome n'existe pas on ne le cre pas sinon on risque de creer des diplomes  chaque faute de frappe\n        if(idD == 0){\n            return(false);\n        }\n        \n        //On cre l'association\n        createDiplomaLL(idD,idS);\n        return(true);\n    }\n\n    function createStudent(string memory _firstName, string memory _lastName,uint _birth) public{\n        //si l'etudiant n'existe pas encore\n            studentCount ++;\n            students[studentCount] = Student(studentCount, _firstName,_lastName, _birth);\n            emit StudentCreated(studentCount,_firstName,_lastName,_birth);\n        //sinon erreur\n    }\n\n    function createSchool( address _schoolAdress, string memory _schoolName) public {\n        //si l'ecole n'existe pas encore\n            schoolCount ++;\n            schools[schoolCount] = School(_schoolAdress, schoolCount,_schoolName);\n            emit SchoolCreated(_schoolAdress, schoolCount,_schoolName);\n        //sinon erreur\n    }\n\n    function createDegree(uint _year,string memory _nameDegree, string memory _schoolName) public {\n        degreeCount ++;\n        degrees[degreeCount] = Degree(degreeCount, _year,_nameDegree, _schoolName);\n        emit DegreeCreated(degreeCount, _year,_nameDegree,_schoolName);\n    }\n\n\n    //TODO \n    /**\n    Ecrire des fonction qui disent si l'objet existe\n\n    C'est  dire on entre les caracteristiques de l'objet cherch et la fonction renvoie un uint \n    0 si l'objet existe pas\n    Son id si il existe\n    ATTENTION les ids commencent  1\n\n    faire pour School\n    \n     */\n     \n     \n\n    function checkStudent(string memory _firstName, string memory _lastName, uint _birth ) public view returns(uint){\n        Student memory stu;\n        for (uint i = 1; i <= studentCount; i++){\n            stu=students[i];\n            if(stu.birth ==_birth){  \n                if(keccak256(abi.encodePacked(stu.firstName)) == keccak256(abi.encodePacked(_firstName)) && keccak256(abi.encodePacked(stu.lastName)) == keccak256(abi.encodePacked(_lastName))){\n                    return(i);\n                }\n            }\n        }\n        return(0);\n    }\n    \n    \n    function checkDegree(uint _year, string memory _nameDegree, string memory _schoolName) public view returns (uint){\n        Degree memory deg;\n        for (uint i = 1; i<= degreeCount; i++){\n            deg = degrees[i];\n            if(keccak256(abi.encodePacked(deg.nameDegree)) == keccak256(abi.encodePacked(_nameDegree)) && keccak256(abi.encodePacked(deg.schoolName)) == keccak256(abi.encodePacked(_schoolName))){\n                if(deg.year == _year){\n                    return(i);\n                }\n            }\n        }\n        return(0);\n    }\n\n\n\n\n\n   \n\n    function checkDiploma(string memory _firstName, string memory _lastName,uint _birth,uint _dYear,string memory _nameDegree, string memory _schoolName) public view returns(bool) {\n        uint degreeId = checkDegree(_dYear, _nameDegree,_schoolName);\n        uint studentId = checkStudent(_firstName,_lastName,_birth);\n        \n        Diploma memory dip;\n\n        // Si l'eleve et le diplome exitent on va vrifier si il existe une telle association\n        if(studentId != 0 && degreeId != 0){\n            for(uint k = 1; k <= diplomaCount;k++){\n                dip = diplomas[k];\n                if (dip.idStudent == studentId && dip.idDegree == degreeId){\n                    return true;\n                }\n            }\n        }\n        return false;\n\n        \n    \n    }\n}",
  "sourcePath": "/home/ubuntu/Documents/BC_Projects/OPPO-DS/contracts/DiplomaStorage.sol",
  "compiler": {
    "name": "solc",
    "version": "0.5.16+commit.9c3226ce.Emscripten.clang"
  },
  "schemaVersion": "3.0.23",
  "updatedAt": "2020-03-28T17:07:26.729Z",
  "networkType": "ethereum",
  "devdoc": {
    "methods": {}
  },
  "userdoc": {
    "methods": {
      "checkStudent(string,string,uint256)": {
        "notice": "Ecrire des fonction qui disent si l'objet existe C'est  dire on entre les caracteristiques de l'objet cherch et la fonction renvoie un uint  0 si l'objet existe pas Son id si il existe ATTENTION les ids commencent  1 faire pour School"
      }
    }
  }
}