{
  "contractName": "DiplomaStorage",
  "abi": [
    {
      "inputs": [],
      "payable": false,
      "stateMutability": "nonpayable",
      "type": "constructor"
    },
    {
      "anonymous": false,
      "inputs": [
        {
          "indexed": false,
          "internalType": "uint256",
          "name": "idDegree",
          "type": "uint256"
        },
        {
          "indexed": false,
          "internalType": "uint256",
          "name": "idSchool",
          "type": "uint256"
        },
        {
          "indexed": false,
          "internalType": "uint256",
          "name": "year",
          "type": "uint256"
        },
        {
          "indexed": false,
          "internalType": "string",
          "name": "nameDegree",
          "type": "string"
        },
        {
          "indexed": false,
          "internalType": "string",
          "name": "schoolName",
          "type": "string"
        }
      ],
      "name": "DegreeCreated",
      "type": "event"
    },
    {
      "anonymous": false,
      "inputs": [
        {
          "indexed": false,
          "internalType": "uint256",
          "name": "idDegree",
          "type": "uint256"
        },
        {
          "indexed": false,
          "internalType": "uint256",
          "name": "idStudent",
          "type": "uint256"
        },
        {
          "indexed": false,
          "internalType": "bool",
          "name": "valid",
          "type": "bool"
        },
        {
          "indexed": false,
          "internalType": "address",
          "name": "creator",
          "type": "address"
        }
      ],
      "name": "DiplomaCreated",
      "type": "event"
    },
    {
      "anonymous": false,
      "inputs": [
        {
          "indexed": false,
          "internalType": "uint256",
          "name": "idSchool",
          "type": "uint256"
        },
        {
          "indexed": false,
          "internalType": "string",
          "name": "schoolName",
          "type": "string"
        },
        {
          "indexed": false,
          "internalType": "address",
          "name": "editor",
          "type": "address"
        }
      ],
      "name": "SchoolCreated",
      "type": "event"
    },
    {
      "anonymous": false,
      "inputs": [
        {
          "indexed": false,
          "internalType": "uint256",
          "name": "idStudent",
          "type": "uint256"
        },
        {
          "indexed": false,
          "internalType": "uint256",
          "name": "INE",
          "type": "uint256"
        },
        {
          "indexed": false,
          "internalType": "string",
          "name": "firstName",
          "type": "string"
        },
        {
          "indexed": false,
          "internalType": "string",
          "name": "lastName",
          "type": "string"
        },
        {
          "indexed": false,
          "internalType": "uint256",
          "name": "birth",
          "type": "uint256"
        }
      ],
      "name": "StudentCreated",
      "type": "event"
    },
    {
      "constant": true,
      "inputs": [],
      "name": "degreeCount",
      "outputs": [
        {
          "internalType": "uint256",
          "name": "",
          "type": "uint256"
        }
      ],
      "payable": false,
      "stateMutability": "view",
      "type": "function"
    },
    {
      "constant": true,
      "inputs": [
        {
          "internalType": "uint256",
          "name": "",
          "type": "uint256"
        }
      ],
      "name": "degrees",
      "outputs": [
        {
          "internalType": "uint256",
          "name": "id",
          "type": "uint256"
        },
        {
          "internalType": "string",
          "name": "name",
          "type": "string"
        },
        {
          "internalType": "string",
          "name": "schoolName",
          "type": "string"
        },
        {
          "internalType": "uint256",
          "name": "year",
          "type": "uint256"
        },
        {
          "internalType": "uint256",
          "name": "idSchool",
          "type": "uint256"
        },
        {
          "internalType": "address",
          "name": "editor",
          "type": "address"
        }
      ],
      "payable": false,
      "stateMutability": "view",
      "type": "function"
    },
    {
      "constant": true,
      "inputs": [],
      "name": "diplomaCount",
      "outputs": [
        {
          "internalType": "uint256",
          "name": "",
          "type": "uint256"
        }
      ],
      "payable": false,
      "stateMutability": "view",
      "type": "function"
    },
    {
      "constant": true,
      "inputs": [
        {
          "internalType": "uint256",
          "name": "",
          "type": "uint256"
        }
      ],
      "name": "diplomas",
      "outputs": [
        {
          "internalType": "uint256",
          "name": "idDegree",
          "type": "uint256"
        },
        {
          "internalType": "uint256",
          "name": "idStudent",
          "type": "uint256"
        },
        {
          "internalType": "bool",
          "name": "valid",
          "type": "bool"
        },
        {
          "internalType": "address",
          "name": "editor",
          "type": "address"
        }
      ],
      "payable": false,
      "stateMutability": "view",
      "type": "function"
    },
    {
      "constant": true,
      "inputs": [],
      "name": "master",
      "outputs": [
        {
          "internalType": "address payable",
          "name": "",
          "type": "address"
        }
      ],
      "payable": false,
      "stateMutability": "view",
      "type": "function"
    },
    {
      "constant": true,
      "inputs": [],
      "name": "masterCount",
      "outputs": [
        {
          "internalType": "uint256",
          "name": "",
          "type": "uint256"
        }
      ],
      "payable": false,
      "stateMutability": "view",
      "type": "function"
    },
    {
      "constant": true,
      "inputs": [
        {
          "internalType": "uint256",
          "name": "",
          "type": "uint256"
        }
      ],
      "name": "masters",
      "outputs": [
        {
          "internalType": "address",
          "name": "",
          "type": "address"
        }
      ],
      "payable": false,
      "stateMutability": "view",
      "type": "function"
    },
    {
      "constant": true,
      "inputs": [],
      "name": "schoolCount",
      "outputs": [
        {
          "internalType": "uint256",
          "name": "",
          "type": "uint256"
        }
      ],
      "payable": false,
      "stateMutability": "view",
      "type": "function"
    },
    {
      "constant": true,
      "inputs": [
        {
          "internalType": "uint256",
          "name": "",
          "type": "uint256"
        }
      ],
      "name": "schools",
      "outputs": [
        {
          "internalType": "uint256",
          "name": "id",
          "type": "uint256"
        },
        {
          "internalType": "string",
          "name": "name",
          "type": "string"
        },
        {
          "internalType": "uint256",
          "name": "count1",
          "type": "uint256"
        },
        {
          "internalType": "uint256",
          "name": "count2",
          "type": "uint256"
        },
        {
          "internalType": "address",
          "name": "editor",
          "type": "address"
        }
      ],
      "payable": false,
      "stateMutability": "view",
      "type": "function"
    },
    {
      "constant": true,
      "inputs": [],
      "name": "studentCount",
      "outputs": [
        {
          "internalType": "uint256",
          "name": "",
          "type": "uint256"
        }
      ],
      "payable": false,
      "stateMutability": "view",
      "type": "function"
    },
    {
      "constant": true,
      "inputs": [
        {
          "internalType": "uint256",
          "name": "",
          "type": "uint256"
        }
      ],
      "name": "students",
      "outputs": [
        {
          "internalType": "uint256",
          "name": "id",
          "type": "uint256"
        },
        {
          "internalType": "uint256",
          "name": "INE",
          "type": "uint256"
        },
        {
          "internalType": "string",
          "name": "firstName",
          "type": "string"
        },
        {
          "internalType": "string",
          "name": "lastName",
          "type": "string"
        },
        {
          "internalType": "uint256",
          "name": "birth",
          "type": "uint256"
        },
        {
          "internalType": "address",
          "name": "editor",
          "type": "address"
        }
      ],
      "payable": false,
      "stateMutability": "view",
      "type": "function"
    },
    {
      "constant": false,
      "inputs": [
        {
          "internalType": "string",
          "name": "_schoolName",
          "type": "string"
        },
        {
          "internalType": "address",
          "name": "_address",
          "type": "address"
        },
        {
          "internalType": "uint256",
          "name": "_lv",
          "type": "uint256"
        }
      ],
      "name": "addAddress",
      "outputs": [],
      "payable": false,
      "stateMutability": "nonpayable",
      "type": "function"
    },
    {
      "constant": false,
      "inputs": [
        {
          "internalType": "uint256",
          "name": "_INE",
          "type": "uint256"
        },
        {
          "internalType": "string",
          "name": "_firstName",
          "type": "string"
        },
        {
          "internalType": "string",
          "name": "_lastName",
          "type": "string"
        },
        {
          "internalType": "uint256",
          "name": "_birth",
          "type": "uint256"
        },
        {
          "internalType": "uint256",
          "name": "_dYear",
          "type": "uint256"
        },
        {
          "internalType": "string",
          "name": "_nameDegree",
          "type": "string"
        },
        {
          "internalType": "string",
          "name": "_schoolName",
          "type": "string"
        }
      ],
      "name": "createDiploma",
      "outputs": [],
      "payable": false,
      "stateMutability": "nonpayable",
      "type": "function"
    },
    {
      "constant": false,
      "inputs": [
        {
          "internalType": "uint256",
          "name": "_INE",
          "type": "uint256"
        },
        {
          "internalType": "string",
          "name": "_firstName",
          "type": "string"
        },
        {
          "internalType": "string",
          "name": "_lastName",
          "type": "string"
        },
        {
          "internalType": "uint256",
          "name": "_birth",
          "type": "uint256"
        }
      ],
      "name": "createStudent",
      "outputs": [],
      "payable": false,
      "stateMutability": "nonpayable",
      "type": "function"
    },
    {
      "constant": false,
      "inputs": [
        {
          "internalType": "string",
          "name": "_schoolName",
          "type": "string"
        },
        {
          "internalType": "address",
          "name": "_address",
          "type": "address"
        }
      ],
      "name": "createSchool",
      "outputs": [
        {
          "internalType": "string",
          "name": "",
          "type": "string"
        }
      ],
      "payable": false,
      "stateMutability": "nonpayable",
      "type": "function"
    },
    {
      "constant": false,
      "inputs": [
        {
          "internalType": "uint256",
          "name": "_year",
          "type": "uint256"
        },
        {
          "internalType": "string",
          "name": "_nameDegree",
          "type": "string"
        },
        {
          "internalType": "string",
          "name": "_schoolName",
          "type": "string"
        }
      ],
      "name": "createDegree",
      "outputs": [],
      "payable": false,
      "stateMutability": "nonpayable",
      "type": "function"
    },
    {
      "constant": true,
      "inputs": [
        {
          "internalType": "uint256",
          "name": "_idSch",
          "type": "uint256"
        },
        {
          "internalType": "address",
          "name": "_address",
          "type": "address"
        }
      ],
      "name": "isAutorized",
      "outputs": [
        {
          "internalType": "uint256",
          "name": "",
          "type": "uint256"
        }
      ],
      "payable": false,
      "stateMutability": "view",
      "type": "function"
    },
    {
      "constant": true,
      "inputs": [
        {
          "internalType": "address",
          "name": "_address",
          "type": "address"
        }
      ],
      "name": "isMaster",
      "outputs": [
        {
          "internalType": "uint256",
          "name": "",
          "type": "uint256"
        }
      ],
      "payable": false,
      "stateMutability": "view",
      "type": "function"
    },
    {
      "constant": true,
      "inputs": [
        {
          "internalType": "string",
          "name": "_schoolName",
          "type": "string"
        }
      ],
      "name": "checkSchool",
      "outputs": [
        {
          "internalType": "uint256",
          "name": "",
          "type": "uint256"
        }
      ],
      "payable": false,
      "stateMutability": "view",
      "type": "function"
    },
    {
      "constant": true,
      "inputs": [
        {
          "internalType": "uint256",
          "name": "_INE",
          "type": "uint256"
        },
        {
          "internalType": "string",
          "name": "_firstName",
          "type": "string"
        },
        {
          "internalType": "string",
          "name": "_lastName",
          "type": "string"
        },
        {
          "internalType": "uint256",
          "name": "_birth",
          "type": "uint256"
        }
      ],
      "name": "checkStudent",
      "outputs": [
        {
          "internalType": "uint256",
          "name": "",
          "type": "uint256"
        }
      ],
      "payable": false,
      "stateMutability": "view",
      "type": "function"
    },
    {
      "constant": true,
      "inputs": [
        {
          "internalType": "uint256",
          "name": "_year",
          "type": "uint256"
        },
        {
          "internalType": "string",
          "name": "_nameDegree",
          "type": "string"
        },
        {
          "internalType": "string",
          "name": "_schoolName",
          "type": "string"
        }
      ],
      "name": "checkDegree",
      "outputs": [
        {
          "internalType": "uint256",
          "name": "",
          "type": "uint256"
        }
      ],
      "payable": false,
      "stateMutability": "view",
      "type": "function"
    },
    {
      "constant": true,
      "inputs": [
        {
          "internalType": "uint256",
          "name": "_INE",
          "type": "uint256"
        },
        {
          "internalType": "string",
          "name": "_firstName",
          "type": "string"
        },
        {
          "internalType": "string",
          "name": "_lastName",
          "type": "string"
        },
        {
          "internalType": "uint256",
          "name": "_birth",
          "type": "uint256"
        },
        {
          "internalType": "uint256",
          "name": "_dYear",
          "type": "uint256"
        },
        {
          "internalType": "string",
          "name": "_nameDegree",
          "type": "string"
        },
        {
          "internalType": "string",
          "name": "_schoolName",
          "type": "string"
        }
      ],
      "name": "getIdDiploma",
      "outputs": [
        {
          "internalType": "uint256",
          "name": "",
          "type": "uint256"
        }
      ],
      "payable": false,
      "stateMutability": "view",
      "type": "function"
    },
    {
      "constant": true,
      "inputs": [
        {
          "internalType": "uint256",
          "name": "_INE",
          "type": "uint256"
        },
        {
          "internalType": "string",
          "name": "_firstName",
          "type": "string"
        },
        {
          "internalType": "string",
          "name": "_lastName",
          "type": "string"
        },
        {
          "internalType": "uint256",
          "name": "_birth",
          "type": "uint256"
        },
        {
          "internalType": "uint256",
          "name": "_dYear",
          "type": "uint256"
        },
        {
          "internalType": "string",
          "name": "_nameDegree",
          "type": "string"
        },
        {
          "internalType": "string",
          "name": "_schoolName",
          "type": "string"
        }
      ],
      "name": "checkDiploma",
      "outputs": [
        {
          "internalType": "string",
          "name": "",
          "type": "string"
        }
      ],
      "payable": false,
      "stateMutability": "view",
      "type": "function"
    }
  ],
  "bytecode": "0x60806040526000808055600181905560028190556003819055600455600580546001600160a01b031916331790553480156200003a57600080fd5b506200004f336001600160e01b03620004c316565b620000a5640461d89775604051806040016040528060038152602001622137b160e91b8152506040518060400160405280600681526020016526b0b93a34b760d11b815250630132464f620004fc60201b60201c565b620000fd640f0df2240360405180604001604052806005815260200164416c69636560d81b81525060405180604001604052806006815260200165111d5c985b9960d21b8152506301232b18620004fc60201b60201c565b62000156640cb9ea33fe604051806040016040528060078152602001664d616c6c6f727960c81b81525060405180604001604052806006815260200165111d5c1bdb9960d21b8152506210f7c8620004fc60201b60201c565b60408051808201909152601181527054656c65636f6d2053756420506172697360781b60208201526200019390336001600160e01b036200070416565b5060408051808201909152600c81526b4b727970746f73706865726560a01b6020820152620001cc90336001600160e01b036200070416565b50620002366107e660405180604001604052806013815260200172213637b1b5b1b430b4b71022b733b4b732b2b960691b8152506040518060400160405280601181526020017054656c65636f6d2053756420506172697360781b8152506200092d60201b60201c565b620002a46107e76040518060400160405280601481526020017f426c6f636b636861696e20446576656c6f7065720000000000000000000000008152506040518060400160405280600c81526020016b4b727970746f73706865726560a01b8152506200092d60201b60201c565b62000353640461d89775604051806040016040528060038152602001622137b160e91b8152506040518060400160405280600681526020016526b0b93a34b760d11b815250630132464f6107e660405180604001604052806013815260200172213637b1b5b1b430b4b71022b733b4b732b2b960691b8152506040518060400160405280601181526020017054656c65636f6d2053756420506172697360781b81525062000d4f60201b60201c565b62000409640f0df2240360405180604001604052806005815260200164416c69636560d81b81525060405180604001604052806006815260200165111d5c985b9960d21b8152506301232b186107e76040518060400160405280601481526020017f426c6f636b636861696e20446576656c6f7065720000000000000000000000008152506040518060400160405280600c81526020016b4b727970746f73706865726560a01b81525062000d4f60201b60201c565b620004bd640461d89775604051806040016040528060038152602001622137b160e91b8152506040518060400160405280600681526020016526b0b93a34b760d11b815250630132464f6107e76040518060400160405280601481526020017f426c6f636b636861696e20446576656c6f7065720000000000000000000000008152506040518060400160405280600c81526020016b4b727970746f73706865726560a01b81525062000d4f60201b60201c565b62001c5d565b60048054600101908190556000908152600a6020526040902080546001600160a01b0319166001600160a01b0392909216919091179055565b62000513848484846001600160e01b0362000e1916565b620006fe576001805481018082556040805160c081018252828152602080820189815282840189815260608401899052608084018890523360a08501526000958652600783529390942082518155935194840194909455905180519193620005849260028501929091019062001b02565b5060608201518051620005a291600384019160209091019062001b02565b506080820151816004015560a08201518160050160006101000a8154816001600160a01b0302191690836001600160a01b031602179055509050507ff123ab1a2d904e5492dbdcffe5c290d2d705f3a56e0f9502c055a46b3fe5fa1f60015485858585604051808681526020018581526020018060200180602001848152602001838103835286818151815260200191508051906020019080838360005b838110156200065a57818101518382015260200162000640565b50505050905090810190601f168015620006885780820380516001836020036101000a031916815260200191505b50838103825285518152855160209182019187019080838360005b83811015620006bd578181015183820152602001620006a3565b50505050905090810190601f168015620006eb5780820380516001836020036101000a031916815260200191505b5097505050505050505060405180910390a15b50505050565b60606200071a336001600160e01b03620011dd16565b156200090a5762000734836001600160e01b036200122b16565b620008cf57600280546001908101918290556040805160a0810182528381526020808201888152600083850181905260608401819052336080850152958652600882529290942081518155915180519194929362000799939085019291019062001b02565b506040820151600482015560608201516005820155608090910151600690910180546001600160a01b0319166001600160a01b03909216919091179055620007e4838360026200145f565b7f83cda14def4bda5816386e3646981b0e9a7c492751248c7872b1e1ce5e4dfba860025484336040518084815260200180602001836001600160a01b03166001600160a01b03168152602001828103825284818151815260200191508051906020019080838360005b83811015620008675781810151838201526020016200084d565b50505050905090810190601f168015620008955780820380516001836020036101000a031916815260200191505b5094505050505060405180910390a15060408051808201909152600d81526c14d8da1bdbdb10dc99585d1959609a1b602082015262000927565b5060408051808201909152601581527f5363686f6f6c20616c7265616479206578697374730000000000000000000000602082015262000927565b604051806060016040528060268152602001620053306026913990505b92915050565b6200093762001b87565b6000805b600254811162000b5557600860008281526020019081526020016000206040518060a001604052908160008201548152602001600182018054600181600116156101000203166002900480601f01602080910402602001604051908101604052809291908181526020018280546001816001161561010002031660029004801562000a0a5780601f10620009de5761010080835404028352916020019162000a0a565b820191906000526020600020905b815481529060010190602001808311620009ec57829003601f168201915b505050918352505060048201546020820152600582015460408201526006909101546001600160a01b0316606090910152925062000a5281336001600160e01b036200154c16565b1580159062000b425750836040516020018082805190602001908083835b6020831062000a915780518252601f19909201916020918201910162000a70565b6001836020036101000a0380198251168184511680821785525050505050509050019150506040516020818303038152906040528051906020012083602001516040516020018082805190602001908083835b6020831062000b055780518252601f19909201916020918201910162000ae4565b6001836020036101000a03801982511681845116808217855250505050505090500191505060405160208183030381529060405280519060200120145b1562000b4c578091505b6001016200093b565b50801562000d4857600380546001908101918290556040805160c0810182528381526020808201898152828401899052606083018b9052608083018790523360a08401526000958652600982529290942081518155915180519194929362000bc4939085019291019062001b02565b506040820151805162000be291600284019160209091019062001b02565b50606082015181600301556080820151816004015560a08201518160050160006101000a8154816001600160a01b0302191690836001600160a01b031602179055509050507fb8191de706947d348e4af82269a7e4b91362250c16b6775a4f8e71acf3fc6a4d60035482878787604051808681526020018581526020018481526020018060200180602001838103835285818151815260200191508051906020019080838360005b8381101562000ca457818101518382015260200162000c8a565b50505050905090810190601f16801562000cd25780820380516001836020036101000a031916815260200191505b50838103825284518152845160209182019186019080838360005b8381101562000d0757818101518382015260200162000ced565b50505050905090810190601f16801562000d355780820380516001836020036101000a031916815260200191505b5097505050505050505060405180910390a15b5050505050565b600062000d68888888886001600160e01b0362000e1916565b9050600062000d828585856001600160e01b036200161d16565b90508162000da75762000da1898989896001600160e01b03620004fc16565b60015491505b60008181526009602052604081206004015462000dce90336001600160e01b036200154c16565b9050811580159062000ddf57508015155b1562000e0d5760006002821062000df4575060015b62000e0b838583336001600160e01b03620019e616565b505b50505050505050505050565b600062000e2562001bbf565b60015b6001548111620011ce57600760008281526020019081526020016000206040518060c00160405290816000820154815260200160018201548152602001600282018054600181600116156101000203166002900480601f01602080910402602001604051908101604052809291908181526020018280546001816001161561010002031660029004801562000f015780601f1062000ed55761010080835404028352916020019162000f01565b820191906000526020600020905b81548152906001019060200180831162000ee357829003601f168201915b505050918352505060038201805460408051602060026001851615610100026000190190941693909304601f810184900484028201840190925281815293820193929183018282801562000f995780601f1062000f6d5761010080835404028352916020019162000f99565b820191906000526020600020905b81548152906001019060200180831162000f7b57829003601f168201915b505050918352505060048201546020808301919091526005909201546001600160a01b03166040909101528101519092508714801562000fdc5750838260800151145b15620011c557856040516020018082805190602001908083835b60208310620010175780518252601f19909201916020918201910162000ff6565b6001836020036101000a0380198251168184511680821785525050505050509050019150506040516020818303038152906040528051906020012082604001516040516020018082805190602001908083835b602083106200108b5780518252601f1990920191602091820191016200106a565b6001836020036101000a03801982511681845116808217855250505050505090500191505060405160208183030381529060405280519060200120148015620011b55750846040516020018082805190602001908083835b60208310620011045780518252601f199092019160209182019101620010e3565b6001836020036101000a0380198251168184511680821785525050505050509050019150506040516020818303038152906040528051906020012082606001516040516020018082805190602001908083835b60208310620011785780518252601f19909201916020918201910162001157565b6001836020036101000a03801982511681845116808217855250505050505090500191505060405160208183030381529060405280519060200120145b15620011c5579150620011d59050565b60010162000e28565b5060009150505b949350505050565b600060015b600454811162001220576000818152600a60205260409020546001600160a01b03848116911614156200121757905062001226565b600101620011e2565b50600090505b919050565b60006200123762001b87565b60015b60025481116200145557600860008281526020019081526020016000206040518060a001604052908160008201548152602001600182018054600181600116156101000203166002900480601f016020809104026020016040519081016040528092919081815260200182805460018160011615610100020316600290048015620013095780601f10620012dd5761010080835404028352916020019162001309565b820191906000526020600020905b815481529060010190602001808311620012eb57829003601f168201915b5050505050815260200160048201548152602001600582015481526020016006820160009054906101000a90046001600160a01b03166001600160a01b03166001600160a01b0316815250509150836040516020018082805190602001908083835b602083106200138c5780518252601f1990920191602091820191016200136b565b6001836020036101000a0380198251168184511680821785525050505050509050019150506040516020818303038152906040528051906020012082602001516040516020018082805190602001908083835b60208310620014005780518252601f199092019160209182019101620013df565b6001836020036101000a0380198251168184511680821785525050505050509050019150506040516020818303038152906040528051906020012014156200144c579150620012269050565b6001016200123a565b5060009392505050565b620014756000336001600160e01b036200154c16565b60031415620015475780600314156200149c576200149c826001600160e01b03620004c316565b6000620014b2846001600160e01b036200122b16565b600081815260086020526040902090915060018314156200150457600481018054600101908190556000908152600282016020526040902080546001600160a01b0319166001600160a01b0386161790555b826002141562000d485760058101805460010190819055600090815260039091016020526040902080546001600160a01b0319166001600160a01b038516179055505b505050565b600062001562826001600160e01b03620011dd16565b15620015715750600362000927565b600083815260086020526040902060015b81600501548111620015c85760008181526003830160205260409020546001600160a01b0385811691161415620015bf5760029250505062000927565b60010162001582565b5060015b81600401548111620016125760008181526002830160205260409020546001600160a01b0385811691161415620016095760019250505062000927565b600101620015cc565b506000949350505050565b60006200162962001bfe565b60015b6003548111620019d857600960008281526020019081526020016000206040518060c001604052908160008201548152602001600182018054600181600116156101000203166002900480601f016020809104026020016040519081016040528092919081815260200182805460018160011615610100020316600290048015620016fb5780601f10620016cf57610100808354040283529160200191620016fb565b820191906000526020600020905b815481529060010190602001808311620016dd57829003601f168201915b5050509183525050600282810180546040805160206001841615610100026000190190931694909404601f81018390048302850183019091528084529381019390830182828015620017915780601f10620017655761010080835404028352916020019162001791565b820191906000526020600020905b8154815290600101906020018083116200177357829003601f168201915b5050505050815260200160038201548152602001600482015481526020016005820160009054906101000a90046001600160a01b03166001600160a01b03166001600160a01b0316815250509150846040516020018082805190602001908083835b60208310620018145780518252601f199092019160209182019101620017f3565b6001836020036101000a0380198251168184511680821785525050505050509050019150506040516020818303038152906040528051906020012082602001516040516020018082805190602001908083835b60208310620018885780518252601f19909201916020918201910162001867565b6001836020036101000a03801982511681845116808217855250505050505090500191505060405160208183030381529060405280519060200120148015620019b25750836040516020018082805190602001908083835b60208310620019015780518252601f199092019160209182019101620018e0565b6001836020036101000a0380198251168184511680821785525050505050509050019150506040516020818303038152906040528051906020012082604001516040516020018082805190602001908083835b60208310620019755780518252601f19909201916020918201910162001954565b6001836020036101000a03801982511681845116808217855250505050505090500191505060405160208183030381529060405280519060200120145b15620019cf578582606001511415620019cf579150620019df9050565b6001016200162c565b5060009150505b9392505050565b6001548311158015620019fb57506003548411155b15620006fe5760008481526009602052604090206004015462001a2890336001600160e01b036200154c16565b15620006fe57600080546001908101808355604080516080808201835289825260208083018a81528915158486018181526001600160a01b03808c1660608089018281529a8d52600687529b899020975188559351998701999099555160029095018054975190981661010002610100600160a81b031995151560ff1990981697909717949094169590951790955582518a81529485018990528483019190915293830191909152517f39a6bebf4a890b07ed287c5e07c21772ebbbd0e5e352486a8df23352c52168f4929181900390910190a150505050565b828054600181600116156101000203166002900490600052602060002090601f016020900481019282601f1062001b4557805160ff191683800117855562001b75565b8280016001018555821562001b75579182015b8281111562001b7557825182559160200191906001019062001b58565b5062001b8392915062001c3d565b5090565b6040518060a001604052806000815260200160608152602001600081526020016000815260200160006001600160a01b031681525090565b6040518060c00160405280600081526020016000815260200160608152602001606081526020016000815260200160006001600160a01b031681525090565b6040518060c00160405280600081526020016060815260200160608152602001600081526020016000815260200160006001600160a01b031681525090565b62001c5a91905b8082111562001b83576000815560010162001c44565b90565b6136c38062001c6d6000396000f3fe608060405234801561001057600080fd5b506004361061014d5760003560e01c8063719c0d04116100c3578063bf23e63b1161007c578063bf23e63b14610d49578063ce91b47f14610f8f578063e581f9ee1461103e578063ee97f7f314611046578063f720f80b1461104e578063fcf8642e146110745761014d565b8063719c0d04146107dd5780637b351cba146108a05780637f9ed4501461094457806381f1c3bc14610b2a5780639e76460314610c0f578063a1cebf5214610c175761014d565b8063371c6fd711610115578063371c6fd71461045a578063454ddc17146104865780635a471b6b146105b85780635b1ad536146106ea578063609618741461079c5780636920613f146107d55761014d565b806306192f0f1461015257806306ead22e146102d557806328d88890146103fe57806335dfc1c3146104065780633660096b14610452575b600080fd5b6102c3600480360360e081101561016857600080fd5b81359190810190604081016020820135600160201b81111561018957600080fd5b82018360208201111561019b57600080fd5b803590602001918460018302840111600160201b831117156101bc57600080fd5b919390929091602081019035600160201b8111156101d957600080fd5b8201836020820111156101eb57600080fd5b803590602001918460018302840111600160201b8311171561020c57600080fd5b919390928235926020810135929190606081019060400135600160201b81111561023557600080fd5b82018360208201111561024757600080fd5b803590602001918460018302840111600160201b8311171561026857600080fd5b919390929091602081019035600160201b81111561028557600080fd5b82018360208201111561029757600080fd5b803590602001918460018302840111600160201b831117156102b857600080fd5b5090925090506111a4565b60408051918252519081900360200190f35b6102f2600480360360208110156102eb57600080fd5b5035611361565b604051808781526020018681526020018060200180602001858152602001846001600160a01b03166001600160a01b03168152602001838103835287818151815260200191508051906020019080838360005b8381101561035d578181015183820152602001610345565b50505050905090810190601f16801561038a5780820380516001836020036101000a031916815260200191505b50838103825286518152865160209182019188019080838360005b838110156103bd5781810151838201526020016103a5565b50505050905090810190601f1680156103ea5780820380516001836020036101000a031916815260200191505b509850505050505050505060405180910390f35b6102c36114b0565b6104236004803603602081101561041c57600080fd5b50356114b6565b604080519485526020850193909352901515838301526001600160a01b03166060830152519081900360800190f35b6102c36114ea565b6102c36004803603604081101561047057600080fd5b50803590602001356001600160a01b03166114f0565b6105b66004803603606081101561049c57600080fd5b81359190810190604081016020820135600160201b8111156104bd57600080fd5b8201836020820111156104cf57600080fd5b803590602001918460018302840111600160201b831117156104f057600080fd5b91908080601f0160208091040260200160405190810160405280939291908181526020018383808284376000920191909152509295949360208101935035915050600160201b81111561054257600080fd5b82018360208201111561055457600080fd5b803590602001918460018302840111600160201b8311171561057557600080fd5b91908080601f0160208091040260200160405190810160405280939291908181526020018383808284376000920191909152509295506115ae945050505050565b005b6102c3600480360360808110156105ce57600080fd5b81359190810190604081016020820135600160201b8111156105ef57600080fd5b82018360208201111561060157600080fd5b803590602001918460018302840111600160201b8311171561062257600080fd5b91908080601f0160208091040260200160405190810160405280939291908181526020018383808284376000920191909152509295949360208101935035915050600160201b81111561067457600080fd5b82018360208201111561068657600080fd5b803590602001918460018302840111600160201b831117156106a757600080fd5b91908080601f01602080910402602001604051908101604052809392919081815260200183838082843760009201919091525092955050913592506119ac915050565b6105b66004803603606081101561070057600080fd5b810190602081018135600160201b81111561071a57600080fd5b82018360208201111561072c57600080fd5b803590602001918460018302840111600160201b8311171561074d57600080fd5b91908080601f016020809104026020016040519081016040528093929190818152602001838380828437600092019190915250929550506001600160a01b038335169350505060200135611d57565b6107b9600480360360208110156107b257600080fd5b5035611e1f565b604080516001600160a01b039092168252519081900360200190f35b6102c3611e3a565b6107fa600480360360208110156107f357600080fd5b5035611e40565b6040518086815260200180602001858152602001848152602001836001600160a01b03166001600160a01b03168152602001828103825286818151815260200191508051906020019080838360005b83811015610861578181015183820152602001610849565b50505050905090810190601f16801561088e5780820380516001836020036101000a031916815260200191505b50965050505050505060405180910390f35b6102c3600480360360208110156108b657600080fd5b810190602081018135600160201b8111156108d057600080fd5b8201836020820111156108e257600080fd5b803590602001918460018302840111600160201b8311171561090357600080fd5b91908080601f016020809104026020016040519081016040528093929190818152602001838380828437600092019190915250929550611f04945050505050565b610ab5600480360360e081101561095a57600080fd5b81359190810190604081016020820135600160201b81111561097b57600080fd5b82018360208201111561098d57600080fd5b803590602001918460018302840111600160201b831117156109ae57600080fd5b919390929091602081019035600160201b8111156109cb57600080fd5b8201836020820111156109dd57600080fd5b803590602001918460018302840111600160201b831117156109fe57600080fd5b919390928235926020810135929190606081019060400135600160201b811115610a2757600080fd5b820183602082011115610a3957600080fd5b803590602001918460018302840111600160201b83111715610a5a57600080fd5b919390929091602081019035600160201b811115610a7757600080fd5b820183602082011115610a8957600080fd5b803590602001918460018302840111600160201b83111715610aaa57600080fd5b50909250905061212c565b6040805160208082528351818301528351919283929083019185019080838360005b83811015610aef578181015183820152602001610ad7565b50505050905090810190601f168015610b1c5780820380516001836020036101000a031916815260200191505b509250505060405180910390f35b610b4760048036036020811015610b4057600080fd5b503561248d565b604051808781526020018060200180602001868152602001858152602001846001600160a01b03166001600160a01b03168152602001838103835288818151815260200191508051906020019080838360005b83811015610bb2578181015183820152602001610b9a565b50505050905090810190601f168015610bdf5780820380516001836020036101000a031916815260200191505b508381038252875181528751602091820191890190808383600083156103bd5781810151838201526020016103a5565b6102c36125e3565b6105b660048036036080811015610c2d57600080fd5b81359190810190604081016020820135600160201b811115610c4e57600080fd5b820183602082011115610c6057600080fd5b803590602001918460018302840111600160201b83111715610c8157600080fd5b91908080601f0160208091040260200160405190810160405280939291908181526020018383808284376000920191909152509295949360208101935035915050600160201b811115610cd357600080fd5b820183602082011115610ce557600080fd5b803590602001918460018302840111600160201b83111715610d0657600080fd5b91908080601f01602080910402602001604051908101604052809392919081815260200183838082843760009201919091525092955050913592506125e9915050565b6105b6600480360360e0811015610d5f57600080fd5b81359190810190604081016020820135600160201b811115610d8057600080fd5b820183602082011115610d9257600080fd5b803590602001918460018302840111600160201b83111715610db357600080fd5b91908080601f0160208091040260200160405190810160405280939291908181526020018383808284376000920191909152509295949360208101935035915050600160201b811115610e0557600080fd5b820183602082011115610e1757600080fd5b803590602001918460018302840111600160201b83111715610e3857600080fd5b91908080601f0160208091040260200160405190810160405280939291908181526020018383808284376000920191909152509295843595602086013595919450925060608101915060400135600160201b811115610e9657600080fd5b820183602082011115610ea857600080fd5b803590602001918460018302840111600160201b83111715610ec957600080fd5b91908080601f0160208091040260200160405190810160405280939291908181526020018383808284376000920191909152509295949360208101935035915050600160201b811115610f1b57600080fd5b820183602082011115610f2d57600080fd5b803590602001918460018302840111600160201b83111715610f4e57600080fd5b91908080601f0160208091040260200160405190810160405280939291908181526020018383808284376000920191909152509295506127db945050505050565b610ab560048036036040811015610fa557600080fd5b810190602081018135600160201b811115610fbf57600080fd5b820183602082011115610fd157600080fd5b803590602001918460018302840111600160201b83111715610ff257600080fd5b91908080601f016020809104026020016040519081016040528093929190818152602001838380828437600092019190915250929550505090356001600160a01b0316915061286a9050565b6102c3612a67565b6107b9612a6d565b6102c36004803603602081101561106457600080fd5b50356001600160a01b0316612a7c565b6102c36004803603606081101561108a57600080fd5b81359190810190604081016020820135600160201b8111156110ab57600080fd5b8201836020820111156110bd57600080fd5b803590602001918460018302840111600160201b831117156110de57600080fd5b91908080601f0160208091040260200160405190810160405280939291908181526020018383808284376000920191909152509295949360208101935035915050600160201b81111561113057600080fd5b82018360208201111561114257600080fd5b803590602001918460018302840111600160201b8311171561116357600080fd5b91908080601f016020809104026020016040519081016040528093929190818152602001838380828437600092019190915250929550612ac4945050505050565b60008061121b8787878080601f01602080910402602001604051908101604052809392919081815260200183838082843760009201919091525050604080516020601f8b018190048102820181019092528981529250899150889081908401838280828437600092019190915250612ac492505050565b905060006112a68e8e8e8080601f016020809104026020016040519081016040528093929190818152602001838380828437600081840152601f19601f820116905080830192505050505050508d8d8080601f0160208091040260200160405190810160405280939291908181526020018383808284376000920191909152508f92506119ac915050565b90506112b06134e4565b81158015906112be57508215155b1561134a5760015b600054811161134857600081815260066020908152604091829020825160808101845281548152600182015492810183905260029091015460ff81161515938201939093526101009092046001600160a01b03166060830152909250831480156113305750815184145b1561134057935061135292505050565b6001016112c6565b505b600093505050505b9b9a5050505050505050505050565b60076020908152600091825260409182902080546001808301546002808501805488519481161561010002600019011691909104601f8101879004870284018701909752868352929590949192918301828280156114005780601f106113d557610100808354040283529160200191611400565b820191906000526020600020905b8154815290600101906020018083116113e357829003601f168201915b5050505060038301805460408051602060026001851615610100026000190190941693909304601f81018490048402820184019092528181529495949350908301828280156114905780601f1061146557610100808354040283529160200191611490565b820191906000526020600020905b81548152906001019060200180831161147357829003601f168201915b5050505060048301546005909301549192916001600160a01b0316905086565b60025481565b60066020526000908152604090208054600182015460029092015490919060ff81169061010090046001600160a01b031684565b60035481565b60006114fb82612a7c565b15611508575060036115a8565b600083815260086020526040902060015b8160050154811161155b5760008181526003830160205260409020546001600160a01b0385811691161415611553576002925050506115a8565b600101611519565b5060015b816004015481116115a15760008181526002830160205260409020546001600160a01b0385811691161415611599576001925050506115a8565b60010161155f565b5060009150505b92915050565b6115b6613517565b6000805b60025481116117bd57600860008281526020019081526020016000206040518060a001604052908160008201548152602001600182018054600181600116156101000203166002900480601f0160208091040260200160405190810160405280929190818152602001828054600181600116156101000203166002900480156116845780601f1061165957610100808354040283529160200191611684565b820191906000526020600020905b81548152906001019060200180831161166757829003601f168201915b505050918352505060048201546020820152600582015460408201526006909101546001600160a01b031660609091015292506116c181336114f0565b158015906117ac5750836040516020018082805190602001908083835b602083106116fd5780518252601f1990920191602091820191016116de565b6001836020036101000a0380198251168184511680821785525050505050509050019150506040516020818303038152906040528051906020012083602001516040516020018082805190602001908083835b6020831061176f5780518252601f199092019160209182019101611750565b6001836020036101000a03801982511681845116808217855250505050505090500191505060405160208183030381529060405280519060200120145b156117b5578091505b6001016115ba565b5080156119a557600380546001908101918290556040805160c0810182528381526020808201898152828401899052606083018b9052608083018790523360a084015260009586526009825292909420815181559151805191949293611829939085019291019061354f565b506040820151805161184591600284019160209091019061354f565b50606082015181600301556080820151816004015560a08201518160050160006101000a8154816001600160a01b0302191690836001600160a01b031602179055509050507fb8191de706947d348e4af82269a7e4b91362250c16b6775a4f8e71acf3fc6a4d60035482878787604051808681526020018581526020018481526020018060200180602001838103835285818151815260200191508051906020019080838360005b838110156119055781810151838201526020016118ed565b50505050905090810190601f1680156119325780820380516001836020036101000a031916815260200191505b50838103825284518152845160209182019186019080838360005b8381101561196557818101518382015260200161194d565b50505050905090810190601f1680156119925780820380516001836020036101000a031916815260200191505b5097505050505050505060405180910390a15b5050505050565b60006119b66135cd565b60015b6001548111611d4857600760008281526020019081526020016000206040518060c00160405290816000820154815260200160018201548152602001600282018054600181600116156101000203166002900480601f016020809104026020016040519081016040528092919081815260200182805460018160011615610100020316600290048015611a8d5780601f10611a6257610100808354040283529160200191611a8d565b820191906000526020600020905b815481529060010190602001808311611a7057829003601f168201915b505050918352505060038201805460408051602060026001851615610100026000190190941693909304601f8101849004840282018401909252818152938201939291830182828015611b215780601f10611af657610100808354040283529160200191611b21565b820191906000526020600020905b815481529060010190602001808311611b0457829003601f168201915b505050918352505060048201546020808301919091526005909201546001600160a01b031660409091015281015190925087148015611b635750838260800151145b15611d4057856040516020018082805190602001908083835b60208310611b9b5780518252601f199092019160209182019101611b7c565b6001836020036101000a0380198251168184511680821785525050505050509050019150506040516020818303038152906040528051906020012082604001516040516020018082805190602001908083835b60208310611c0d5780518252601f199092019160209182019101611bee565b6001836020036101000a03801982511681845116808217855250505050505090500191505060405160208183030381529060405280519060200120148015611d325750846040516020018082805190602001908083835b60208310611c835780518252601f199092019160209182019101611c64565b6001836020036101000a0380198251168184511680821785525050505050509050019150506040516020818303038152906040528051906020012082606001516040516020018082805190602001908083835b60208310611cf55780518252601f199092019160209182019101611cd6565b6001836020036101000a03801982511681845116808217855250505050505090500191505060405160208183030381529060405280519060200120145b15611d40579150611d4f9050565b6001016119b9565b5060009150505b949350505050565b611d626000336114f0565b60031415611e1a578060031415611d7c57611d7c82612e75565b6000611d8784611f04565b60008181526008602052604090209091506001831415611dd857600481018054600101908190556000908152600282016020526040902080546001600160a01b0319166001600160a01b0386161790555b82600214156119a55760058101805460010190819055600090815260039091016020526040902080546001600160a01b0319166001600160a01b038516179055505b505050565b600a602052600090815260409020546001600160a01b031681565b60005481565b6008602090815260009182526040918290208054600180830180548651600293821615610100026000190190911692909204601f810186900486028301860190965285825291949293909290830182828015611edd5780601f10611eb257610100808354040283529160200191611edd565b820191906000526020600020905b815481529060010190602001808311611ec057829003601f168201915b5050505060048301546005840154600690940154929390929091506001600160a01b031685565b6000611f0e613517565b60015b600254811161212057600860008281526020019081526020016000206040518060a001604052908160008201548152602001600182018054600181600116156101000203166002900480601f016020809104026020016040519081016040528092919081815260200182805460018160011615610100020316600290048015611fdb5780601f10611fb057610100808354040283529160200191611fdb565b820191906000526020600020905b815481529060010190602001808311611fbe57829003601f168201915b5050505050815260200160048201548152602001600582015481526020016006820160009054906101000a90046001600160a01b03166001600160a01b03166001600160a01b0316815250509150836040516020018082805190602001908083835b6020831061205c5780518252601f19909201916020918201910161203d565b6001836020036101000a0380198251168184511680821785525050505050509050019150506040516020818303038152906040528051906020012082602001516040516020018082805190602001908083835b602083106120ce5780518252601f1990920191602091820191016120af565b6001836020036101000a0380198251168184511680821785525050505050509050019150506040516020818303038152906040528051906020012014156121185791506121279050565b600101611f11565b5060009150505b919050565b60608b612219576122128b8b8080601f01602080910402602001604051908101604052809392919081815260200183838082843760009201919091525050604080516020601f8f018190048102820181019092528d815292508d91508c908190840183828082843760009201919091525050604080516020601f8c018190048102820181019092528a81528d93508c9250908b908b908190840183828082843760009201919091525050604080516020601f8d018190048102820181019092528b815292508b91508a9081908401838280828437600092019190915250612eae92505050565b9050611352565b600061228f8787878080601f01602080910402602001604051908101604052809392919081815260200183838082843760009201919091525050604080516020601f8b018190048102820181019092528981529250899150889081908401838280828437600092019190915250612ac492505050565b9050600061231a8e8e8e8080601f016020809104026020016040519081016040528093929190818152602001838380828437600081840152601f19601f820116905080830192505050505050508d8d8080601f0160208091040260200160405190810160405280939291908181526020018383808284376000920191909152508f92506119ac915050565b905080612360576040518060400160405280601a81526020017f546869732073747564656e7420646f65736e277420657869737400000000000081525092505050611352565b816123a4576040518060400160405280601981526020017f546869732064656772656520646f65736e27742065786973740000000000000081525092505050611352565b6123ac6134e4565b81158015906123ba57508215155b156124615760015b600054811161245f57600081815260066020908152604091829020825160808101845281548152600182015492810183905260029091015460ff81161515938201939093526101009092046001600160a01b031660608301529092508314801561242c5750815184145b1561245757604051806040016040528060028152602001614f4b60f01b815250945050505050611352565b6001016123c2565b505b50506040805180820190915260028152614e6f60f01b60208201529d9c50505050505050505050505050565b6009602090815260009182526040918290208054600180830180548651600293821615610100026000190190911692909204601f81018690048602830186019096528582529194929390929083018282801561252a5780601f106124ff5761010080835404028352916020019161252a565b820191906000526020600020905b81548152906001019060200180831161250d57829003601f168201915b50505060028085018054604080516020601f60001961010060018716150201909416959095049283018590048502810185019091528181529596959450909250908301828280156125bc5780601f10612591576101008083540402835291602001916125bc565b820191906000526020600020905b81548152906001019060200180831161259f57829003601f168201915b5050505060038301546004840154600590940154929390929091506001600160a01b031686565b60045481565b6125f5848484846119ac565b6127d5576001805481018082556040805160c081018252828152602080820189815282840189815260608401899052608084018890523360a085015260009586526007835293909420825181559351948401949094559051805191936126639260028501929091019061354f565b506060820151805161267f91600384019160209091019061354f565b506080820151816004015560a08201518160050160006101000a8154816001600160a01b0302191690836001600160a01b031602179055509050507ff123ab1a2d904e5492dbdcffe5c290d2d705f3a56e0f9502c055a46b3fe5fa1f60015485858585604051808681526020018581526020018060200180602001848152602001838103835286818151815260200191508051906020019080838360005b8381101561273557818101518382015260200161271d565b50505050905090810190601f1680156127625780820380516001836020036101000a031916815260200191505b50838103825285518152855160209182019187019080838360005b8381101561279557818101518382015260200161277d565b50505050905090810190601f1680156127c25780820380516001836020036101000a031916815260200191505b5097505050505050505060405180910390a15b50505050565b60006127e9888888886119ac565b905060006127f8858585612ac4565b9050816128115761280b898989896125e9565b60015491505b60008181526009602052604081206004015461282d90336114f0565b9050811580159061283d57508015155b1561285e57600060028210612850575060015b61285c838583336133d6565b505b50505050505050505050565b606061287533612a7c565b15612a475761288383611f04565b612a1557600280546001908101918290556040805160a081018252838152602080820188815260008385018190526060840181905233608085015295865260088252929094208151815591518051919492936128e5939085019291019061354f565b506040820151600482015560608201516005820155608090910151600690910180546001600160a01b0319166001600160a01b0390921691909117905561292e83836002611d57565b7f83cda14def4bda5816386e3646981b0e9a7c492751248c7872b1e1ce5e4dfba860025484336040518084815260200180602001836001600160a01b03166001600160a01b03168152602001828103825284818151815260200191508051906020019080838360005b838110156129af578181015183820152602001612997565b50505050905090810190601f1680156129dc5780820380516001836020036101000a031916815260200191505b5094505050505060405180910390a15060408051808201909152600d81526c14d8da1bdbdb10dc99585d1959609a1b60208201526115a8565b506040805180820190915260158152745363686f6f6c20616c72656164792065786973747360581b60208201526115a8565b604051806060016040528060268152602001613669602691399392505050565b60015481565b6005546001600160a01b031681565b600060015b6004548111612abb576000818152600a60205260409020546001600160a01b0384811691161415612ab3579050612127565b600101612a81565b50600092915050565b6000612ace61360c565b60015b6003548111612e6757600960008281526020019081526020016000206040518060c001604052908160008201548152602001600182018054600181600116156101000203166002900480601f016020809104026020016040519081016040528092919081815260200182805460018160011615610100020316600290048015612b9b5780601f10612b7057610100808354040283529160200191612b9b565b820191906000526020600020905b815481529060010190602001808311612b7e57829003601f168201915b5050509183525050600282810180546040805160206001841615610100026000190190931694909404601f81018390048302850183019091528084529381019390830182828015612c2d5780601f10612c0257610100808354040283529160200191612c2d565b820191906000526020600020905b815481529060010190602001808311612c1057829003601f168201915b5050505050815260200160038201548152602001600482015481526020016005820160009054906101000a90046001600160a01b03166001600160a01b03166001600160a01b0316815250509150846040516020018082805190602001908083835b60208310612cae5780518252601f199092019160209182019101612c8f565b6001836020036101000a0380198251168184511680821785525050505050509050019150506040516020818303038152906040528051906020012082602001516040516020018082805190602001908083835b60208310612d205780518252601f199092019160209182019101612d01565b6001836020036101000a03801982511681845116808217855250505050505090500191505060405160208183030381529060405280519060200120148015612e455750836040516020018082805190602001908083835b60208310612d965780518252601f199092019160209182019101612d77565b6001836020036101000a0380198251168184511680821785525050505050509050019150506040516020818303038152906040528051906020012082604001516040516020018082805190602001908083835b60208310612e085780518252601f199092019160209182019101612de9565b6001836020036101000a03801982511681845116808217855250505050505090500191505060405160208183030381529060405280519060200120145b15612e5f578582606001511415612e5f579150612e6e9050565b600101612ad1565b5060009150505b9392505050565b60048054600101908190556000908152600a6020526040902080546001600160a01b0319166001600160a01b0392909216919091179055565b60606000612eba6135cd565b600060015b600154811161323b57600760008281526020019081526020016000206040518060c00160405290816000820154815260200160018201548152602001600282018054600181600116156101000203166002900480601f016020809104026020016040519081016040528092919081815260200182805460018160011615610100020316600290048015612f935780601f10612f6857610100808354040283529160200191612f93565b820191906000526020600020905b815481529060010190602001808311612f7657829003601f168201915b505050918352505060038201805460408051602060026001851615610100026000190190941693909304601f81018490048402820184019092528181529382019392918301828280156130275780601f10612ffc57610100808354040283529160200191613027565b820191906000526020600020905b81548152906001019060200180831161300a57829003601f168201915b5050509183525050600482015460208201526005909101546001600160a01b03166040909101526080810151909350891415613233578a6040516020018082805190602001908083835b602083106130905780518252601f199092019160209182019101613071565b6001836020036101000a0380198251168184511680821785525050505050509050019150506040516020818303038152906040528051906020012083604001516040516020018082805190602001908083835b602083106131025780518252601f1990920191602091820191016130e3565b6001836020036101000a038019825116818451168082178552505050505050905001915050604051602081830303815290604052805190602001201480156132275750896040516020018082805190602001908083835b602083106131785780518252601f199092019160209182019101613159565b6001836020036101000a0380198251168184511680821785525050505050509050019150506040516020818303038152906040528051906020012083606001516040516020018082805190602001908083835b602083106131ea5780518252601f1990920191602091820191016131cb565b6001836020036101000a03801982511681845116808217855250505050505090500191505060405160208183030381529060405280519060200120145b15613233579250600101825b600101612ebf565b5080613281576040518060400160405280601a81526020017f546869732073747564656e7420646f65736e277420657869737400000000000081525093505050506133cc565b60018111156132ca576040518060400160405280601781526020017f4475706c69636174652c20747279207769746820494e4500000000000000000081525093505050506133cc565b80600114156133c85760006132e0888888612ac4565b90506132ea6134e4565b84158015906132f857508115155b156133a15760015b600054811161339f57600081815260066020908152604091829020825160808101845281548152600182015492810183905260029091015460ff81161515938201939093526101009092046001600160a01b031660608301529092508614801561336a5750815183145b1561339757604051806040016040528060028152602001614f4b60f01b81525096505050505050506133cc565b600101613300565b505b604051806040016040528060028152602001614e4f60f01b815250955050505050506133cc565b5050505b9695505050505050565b60015483111580156133ea57506003548411155b156127d55760008481526009602052604090206004015461340b90336114f0565b156127d557600080546001908101808355604080516080808201835289825260208083018a81528915158486018181526001600160a01b03808c1660608089018281529a8d52600687529b899020975188559351998701999099555160029095018054975190981661010002610100600160a81b031995151560ff1990981697909717949094169590951790955582518a81529485018990528483019190915293830191909152517f39a6bebf4a890b07ed287c5e07c21772ebbbd0e5e352486a8df23352c52168f4929181900390910190a150505050565b6040518060800160405280600081526020016000815260200160001515815260200160006001600160a01b031681525090565b6040518060a001604052806000815260200160608152602001600081526020016000815260200160006001600160a01b031681525090565b828054600181600116156101000203166002900490600052602060002090601f016020900481019282601f1061359057805160ff19168380011785556135bd565b828001600101855582156135bd579182015b828111156135bd5782518255916020019190600101906135a2565b506135c992915061364b565b5090565b6040518060c00160405280600081526020016000815260200160608152602001606081526020016000815260200160006001600160a01b031681525090565b6040518060c00160405280600081526020016060815260200160608152602001600081526020016000815260200160006001600160a01b031681525090565b61366591905b808211156135c95760008155600101613651565b9056fe4e6f206d616e2063616e2073657276652074776f206d617374657273284d617420363a323429a265627a7a72315820523d441909710ab44915aad275fb436e1a0ca21f46bae1a1f82806d6b3531d3a64736f6c634300051000324e6f206d616e2063616e2073657276652074776f206d617374657273284d617420363a323429",
  "source": "pragma solidity >=0.5.16;\n\n\ncontract DiplomaStorage {\n    uint public diplomaCount = 0;\n    uint public studentCount = 0;\n    uint public schoolCount = 0;\n    uint public degreeCount = 0;\n    uint public masterCount = 0;\n    \n    //Address to be modified if you want to do tests\n    address payable public master = msg.sender;\n    \n    \n    \n  \n\n\n\n\n    //Association between a student and a diploma (this is how the diploma is awarded).\n    struct Diploma {\n        uint idDegree;\n        uint idStudent;\n        bool valid;\n        address editor;\n    }\n\n    event DiplomaCreated(\n        uint idDegree,\n        uint idStudent,\n        bool valid,\n        address creator);\n\n    \n    //School with the address having the right to award diplomas\n    struct School {\n        uint id;\n        string name;\n        mapping (uint => address) lv1;\n        mapping (uint => address) lv2;\n        uint count1;\n        uint count2;\n        address editor;\n    }\n    \n    event SchoolCreated(\n        uint idSchool,\n        string schoolName,\n        address editor);\n\n    //Diploma (one different diploma per year)\n    struct Degree {\n        uint id;\n        string name;\n        string schoolName;\n        uint year;\n        uint idSchool;\n        address editor;\n     \n    }\n\n    event DegreeCreated (\n        uint idDegree,\n        uint idSchool,\n        uint year,\n        string nameDegree,\n        string schoolName);\n\n    //Student defined by INE,Name,First name and date of birth\n    struct Student {\n        uint id;\n        uint INE;\n        string firstName;\n        string lastName;\n        uint birth;\n        address editor;\n    }\n\n    event StudentCreated(\n        uint idStudent,\n        uint INE,\n        string firstName,\n        string lastName,\n        uint birth);\n\n\n\n\n    mapping(uint => Diploma) public diplomas;\n\n    mapping(uint => Student) public students;\n\n    mapping(uint => School) public schools;\n\n    mapping(uint => Degree) public degrees;\n    \n    mapping(uint => address) public masters;\n    \n                \n    \n    \n\n\n\n    constructor() public {\n        \n        addMaster(msg.sender);  \n       \n       \n        //Creation of students\n        createStudent(18821453685,\"Bob\", \"Martin\", 20072015);\n        createStudent(64658482179,\"Alice\", \"Durand\", 19082008);\n        createStudent(54658741246,\"Mallory\",\"Dupond\",1112008);\n       \n       \n        //Creation of schools with the master address (line 13)\n        createSchool(\"Telecom Sud Paris\",msg.sender);\n        createSchool(\"Kryptosphere\",msg.sender);\n        \n        \n        //Creation of diplomas to be awarded\n        createDegree(2022,\"Blockchain Engineer\",\"Telecom Sud Paris\");\n        createDegree(2023,\"Blockchain Developer\",\"Kryptosphere\");\n\n        //Awarding of diplomas\n        createDiploma(18821453685,\"Bob\",\"Martin\",20072015,2022,\"Blockchain Engineer\", \"Telecom Sud Paris\");\n        createDiploma(64658482179,\"Alice\", \"Durand\", 19082008,2023,\"Blockchain Developer\",\"Kryptosphere\");\n        createDiploma(18821453685,\"Bob\", \"Martin\", 20072015,2023,\"Blockchain Developer\",\"Kryptosphere\");\n        \n        \n    }\n    \n   \n\n\n    /**\n     * CREATION FUNCTIONS ----------------------------------------------------------------------------------------------------------------------------------\n     * \n     */\n     \n     function addMaster(address _newMaster) internal {\n         masterCount ++;\n         masters[masterCount] = _newMaster;\n     }\n     \n     function addAddress(string memory _schoolName,address _address, uint _lv) public {\n         if(isAutorized(0,msg.sender) == 3){\n             if(_lv == 3){\n                 addMaster(_address);\n             }\n             uint idSch = checkSchool(_schoolName);\n             School  storage Sch = schools[idSch];\n             if (_lv == 1){\n                 Sch.count1 ++;\n                 Sch.lv1[Sch.count1] = _address;\n             }\n             if (_lv == 2){\n                 Sch.count2 ++;\n                 Sch.lv2[Sch.count2] = _address;\n             }\n         }\n     }\n\n    //Relatively low level function to award diplomas (it is necessary to know the id of the pupil and the id of the diploma that one wants to award)\n    \n    function createDiplomaLL(uint _idDegree, uint  _idStudent,bool _valid, address _creator) internal{\n        if(_idStudent <= studentCount && _idDegree <= degreeCount){\n\n            //  We check that the address that is trying to assign a diploma is the one that created the diploma.\n            \n            if(isAutorized(degrees[_idDegree].idSchool,msg.sender)!=0){\n                diplomaCount ++;\n                diplomas[diplomaCount] = Diploma(_idDegree,_idStudent,_valid,_creator);\n                emit DiplomaCreated(_idDegree,_idStudent,_valid,_creator);\n                \n            }\n        }\n    }\n    \n    //Relatively high level function\n    \n    function createDiploma(uint _INE,string memory _firstName, string memory _lastName,uint _birth,uint _dYear,string memory _nameDegree, string memory _schoolName) public{\n        uint idS = checkStudent(_INE,_firstName,_lastName,_birth);\n        uint idD = checkDegree(_dYear,_nameDegree,_schoolName);\n        \n        //If the student doesn't exist, we'll create one.\n        if(idS == 0){\n            createStudent(_INE,_firstName,_lastName,_birth);\n            idS = studentCount;\n        }\n        \n        //If the diploma doesn't exist, we don't create it, otherwise we risk creating new diplomas every time we make a typing mistake.\n        uint autorisation = isAutorized(degrees[idD].idSchool,msg.sender);\n        if((idD != 0) && ( autorisation != 0)){\n            \n            bool valid = false;\n        \n            //We create the association\n            if(autorisation >= 2){\n                valid = true;\n            }\n        \n            createDiplomaLL(idD,idS,valid,msg.sender);\n        }\n    }\n\n    function createStudent(uint _INE,string memory _firstName, string memory _lastName,uint _birth) public{\n        \n        if (checkStudent(_INE,_firstName,_lastName,_birth) == 0){\n            studentCount ++;\n            students[studentCount] = Student(studentCount,_INE, _firstName,_lastName, _birth,msg.sender);\n            emit StudentCreated(studentCount,_INE,_firstName,_lastName,_birth);\n        }\n        \n    }\n\n    function createSchool( string memory _schoolName,address _address) public returns(string memory){\n        if (isMaster(msg.sender) !=0){\n            if (checkSchool(_schoolName) == 0){\n                schoolCount ++;\n                schools[schoolCount] = School(schoolCount,_schoolName,0,0,msg.sender);\n                addAddress(_schoolName,_address,2);\n                \n                emit SchoolCreated(schoolCount,_schoolName,msg.sender);\n                return(\"SchoolCreated\");\n            }\n            else{\n                return(\"School already exists\");\n            }\n        }\n        return(\"No man can serve two masters(Mat 6:24)\");\n    }\n    \n    \n    function createDegree(uint _year,string memory _nameDegree, string memory _schoolName) public{\n\n        School memory sch;\n        uint idSch = 0;\n        for(uint i = 0; i <= schoolCount; i++){\n            sch=schools[i];\n            if((isAutorized(i,msg.sender) != 0) && keccak256(abi.encodePacked(sch.name)) == keccak256(abi.encodePacked(_schoolName))){\n                idSch = i;\n            }\n        }\n        if (idSch != 0){\n            degreeCount ++;\n            degrees[degreeCount] = Degree(degreeCount,_nameDegree, _schoolName, _year,idSch, msg.sender);\n            emit DegreeCreated(degreeCount,idSch, _year,_nameDegree,_schoolName);\n        }\n    }\n    \n\n\n    /**\n    EXISTENCE CHECK FUNCTIONS----------------------------------------------------------------------------------------------------------------------------------------------------------------------\n\n    That is to say one enters the characteristics of the searched object and the function returns a uint which is the id\n    0 if the object does not exist\n    \n    WARNING ids start at 1 !\n    \n     */\n     \n     //TODO\n     \n    function isAutorized(uint _idSch,address _address) public view returns (uint){\n        if (isMaster(_address) != 0){\n            return 3;\n        }\n        School storage Sch = schools[_idSch];\n        for (uint i = 1;i<= Sch.count2;i++){\n            if(Sch.lv2[i] == _address){\n                return 2;\n            }\n        }\n        for (uint i = 1;i<= Sch.count1;i++){\n            if(Sch.lv1[i] == _address){\n                return 1;\n            }\n        }\n        //renvoie 0 1 2 ou 3 selon le niveau d'autorisation de l'addresse pour l'ecole\n        return(0);\n    }\n    \n    function isMaster(address _address) public view returns (uint){\n        for ( uint i = 1; i <= masterCount;i++){\n            if(masters[i] == _address){\n                return(i);\n            }\n        }\n        return(0);\n    }\n     \n     \n    function checkSchool(string memory _schoolName) public view returns (uint){\n        School memory sch;\n        for (uint i = 1; i <= schoolCount;i++){\n            sch = schools[i];\n            if( keccak256(abi.encodePacked(sch.name)) == keccak256(abi.encodePacked(_schoolName))){\n                return(i);\n            }\n        }\n        return(0);\n    }\n    \n    \n    \n\n\n    function checkStudent(uint _INE,string memory _firstName, string memory _lastName, uint _birth ) public view returns(uint){\n        Student memory stu;\n        for (uint i = 1; i <= studentCount; i++){\n            stu=students[i];\n            if(stu.INE ==_INE && stu.birth == _birth){  \n                if(keccak256(abi.encodePacked(stu.firstName)) == keccak256(abi.encodePacked(_firstName)) && keccak256(abi.encodePacked(stu.lastName)) == keccak256(abi.encodePacked(_lastName))){\n                    return(i);\n                }\n            }\n        }\n        return(0);\n    }\n    \n    \n    \n    function checkDegree(uint _year, string memory _nameDegree, string memory _schoolName) public view returns (uint){\n        Degree memory deg;\n        for (uint i = 1; i<= degreeCount; i++){\n            deg = degrees[i];\n            if(keccak256(abi.encodePacked(deg.name)) == keccak256(abi.encodePacked(_nameDegree)) && keccak256(abi.encodePacked(deg.schoolName)) == keccak256(abi.encodePacked(_schoolName))){\n                if(deg.year == _year){\n                    return(i);\n                }\n            }\n        }\n        return(0);\n    }\n    \n    function getIdDiploma(uint _INE,string calldata _firstName, string calldata _lastName,uint _birth,uint _dYear,string calldata _nameDegree, string calldata _schoolName) external view returns(uint) {\n        uint degreeId = checkDegree(_dYear, _nameDegree,_schoolName);\n        uint studentId = checkStudent(_INE,_firstName,_lastName,_birth);\n        \n        Diploma memory dip;\n\n        // If the student and the diploma exist, we will check if such an association exists\n        \n        if(studentId != 0 && degreeId != 0){\n            for(uint k = 1; k <= diplomaCount;k++){\n                dip = diplomas[k];\n                if (dip.idStudent == studentId && dip.idDegree == degreeId){\n                    return k;\n                }\n            }\n        }\n        return 0;\n    }\n\n\n\n\n\n   \n\n    function checkDiploma(uint _INE,string calldata _firstName, string calldata _lastName,uint _birth,uint _dYear,string calldata _nameDegree, string calldata _schoolName) external view returns(string memory) {\n        if(_INE == 0){\n            return(checkDiplomaNoINE(_firstName,_lastName,_birth,_dYear,_nameDegree,_schoolName));\n        }\n        uint degreeId = checkDegree(_dYear, _nameDegree,_schoolName);\n        uint studentId = checkStudent(_INE,_firstName,_lastName,_birth);\n        if (studentId == 0){\n            return(\"This student doesn't exist\");\n        }\n        if (degreeId == 0){\n            return(\"This degree doesn't exist\");\n        }\n        \n        \n        \n        Diploma memory dip;\n\n        // If the student and the diploma exist, we will check if such an association exists\n        \n        if(studentId != 0 && degreeId != 0){\n            for(uint k = 1; k <= diplomaCount;k++){\n                dip = diplomas[k];\n                if (dip.idStudent == studentId && dip.idDegree == degreeId){\n                    return \"OK\";\n                }\n            }\n        }\n        return \"No\";\n    }\n    \n    \n    //Function to check a diploma without knowing the INE \n    /**\n     * If the student exists in duplicate, the INE is requested\n     **/\n    \n    function checkDiplomaNoINE(string memory _firstName, string memory _lastName,uint _birth,uint _dYear,string memory _nameDegree, string memory _schoolName) internal view returns(string memory){\n        \n       uint studentId = 0;\n       Student memory stu;\n       uint c = 0;\n        for (uint i = 1; i <= studentCount; i++){\n            stu=students[i];\n            if(stu.birth == _birth){  \n                if(keccak256(abi.encodePacked(stu.firstName)) == keccak256(abi.encodePacked(_firstName)) && keccak256(abi.encodePacked(stu.lastName)) == keccak256(abi.encodePacked(_lastName))){\n                    c++;\n                    studentId = i;\n                }\n            }\n        }\n        if(c == 0){\n            return(\"This student doesn't exist\");\n        }\n        if(c > 1){\n           return(\"Duplicate, try with INE\");\n        }\n        if(c == 1){\n            uint degreeId = checkDegree(_dYear, _nameDegree,_schoolName);\n        \n        Diploma memory dip;\n\n        // If the student and the diploma exist, we will check if such an association exists.\n        \n        if(studentId != 0 && degreeId != 0){\n            for(uint k = 1; k <= diplomaCount;k++){\n                dip = diplomas[k];\n                if (dip.idStudent == studentId && dip.idDegree == degreeId){\n                    return (\"OK\");\n                }\n            }\n        }\n        return(\"NO\");\n        }\n    } \n}",
  "sourcePath": "/home/ubuntu/Documents/BC_Projects/Diploma-storage-OPPO-/truffle config/contracts/DiplomaStorage.sol",
  "compiler": {
    "name": "solc",
    "version": "0.5.16+commit.9c3226ce.Emscripten.clang"
  },
  "schemaVersion": "3.0.23",
  "updatedAt": "2020-05-13T20:02:59.039Z",
  "networkType": "ethereum",
  "devdoc": {
    "methods": {}
  },
  "userdoc": {
    "methods": {
      "isAutorized(uint256,address)": {
        "notice": "EXISTENCE CHECK FUNCTIONS---------------------------------------------------------------------------------------------------------------------------------------------------------------------- That is to say one enters the characteristics of the searched object and the function returns a uint which is the id 0 if the object does not exist WARNING ids start at 1 !"
      }
    }
  }
}